S00D000062617365312E737265634B
S1130000F9C000001DC100000C94581719C100006C
S113001017C1000015C1000013C1000011C1000088
S11300200FC100000DC100000BC1000009C1000098
S113003007C1000005C1000049C500007FC50000DC
S1130040B5C50000EBC5000021C6000057C600007E
S11300508DC60000C3C60000F9C600002FC700000B
S1130060EFC00000EDC00000EBC00000E9C00000DC
S1130070E7C00000E5C00000E3C00000E1C00000EC
S1130080DFC00000DDC00000DBC00000D9C00000FC
S1130090D7C00000D5C00000D3C00000D1C000000C
S11300A0CFC00000CDC00000CBC000000C94FF10F6
S11300B0C7C00000C5C00000C3C000000C948E0976
S11300C00C94C6090C94FE090C94360A0C946E0A1E
S11300D00C94A60A0C94DE0A0C94160B0C944E0B8A
S11300E00C94860BADC00000ABC00000A9C000009A
S11300F0A7C00000A5C00000A3C00000A1C000006C
S11301009FC000009DC000009BC0000099C000007B
S113011097C0000095C0000093C0000091C000008B
S11301208FC000008DC000008BC0000089C000009B
S113013087C000000C944815F9C600002FC70000C2
S113014065C700009BC70000D1C700000C94AE082F
S11301500C94E6080C941E090C94560971C0000016
S11301606FC000006DC000006BC0000069C00000DB
S113017067C0000065C000000C9404170C9482173B
S11301800C942E170C94AC175BC0000059C00000EF
S11301900C94FF1755C0000053C0000051C000006C
S11301A00C94F5164DC000004BC0000049C000007F
S11301B00C94BE0B0C94F60B0C942E0C0C94660C45
S11301C00C949E0C0C94D60C0C940E0D0C94460DB1
S11301D00C947E0D0C94B60D33C000000C94722365
S11301E02FC000002DC000000C94012429C0000081
S11301F027C0000011241FBECFEFCDBFDFE3DEBF59
S113020000E00CBF18BE19BE1ABE1BBE10E2A0E06F
S1130210B0E2ECE6F5E500E00BBF02C007900D92FA
S1130220AE35B107D9F71BBE24E2AEE5B0E201C09A
S11302301D92A337B207E1F70E9498180C94B42AD0
S1130240DFCEE4E2F6E09081A82FA170B0E0AA0F1F
S1130250BB1FAA0FBB1F9B7FA92BA083908181FB8F
S1130260662760F970E0660F771F62957295707F5C
S11302707627607F76279F7D692B6083908182FB40
S1130280442740F950E042955295507F5427407FCF
S113029054279F7E492B4083E4E4F6E0908183FB5E
S11302A0222720F930E0220F331F22953295307F28
S11302B03227207F3227892F8F7D282B2083089592
S11302C0E0E2F6E0808184608083808180628083C4
S11302D0808180618083E0E4F6E0808180628083B5
S11302E00895E0E2F6E080818B7F808380818F7DBA
S11302F0808380818F7E8083E0E4F6E080818F7D3F
S113030080830895CF93C82F8FE193E00197F1F78D
S113031000C000008C2F82958F7093DFE4E2F6E03A
S113032080818260808380818860808395ED9A9546
S1130330F1F700008081877F808385ED8A95F1F74E
S113034000008C2F7EDFE4E2F6E080818860808309
S113035095ED9A95F1F700008081877F8083CF9196
S11303600895CF93C82F8FEF8C0F823038F48FE32A
S11303709CE90197F1F700C0000006C08FE39FE1FC
S11303800197F1F700C000008C2F82958F7059DF20
S1130390E4E2F6E080818D7F8083808188608083C1
S11303A095ED9A95F1F700008081877F808385ED34
S11303B08A95F1F700008C2F44DFE4E2F6E08081B7
S11303C08860808395ED9A95F1F700008081877F9E
S11303D08083CF910895E4E2F6E08081877F808373
S11303E080DF2FEF87EE93E0215080409040E1F7CB
S11303F000C0000065DF83E024DFE0E2F6E08081F6
S113040082608083808181608083A4E2B6E08C91E5
S11304108D7F8C938C918E7F8C9380818860808378
S113042025ED2A95F1F70000E4E2F6E0808188608A
S1130430808385ED8A95F1F700008081877F808332
S11304409FEF23EF81E0915020408040E1F700C00E
S1130450000080818860808395ED9A95F1F7000013
S11304608081877F80838FE193E00197F1F700C05B
S1130470000080818860808395ED9A95F1F70000F3
S11304808081877F80838FE193E00197F1F700C03B
S1130490000082E0D6DE95ED9A95F1F70000E4E2E3
S11304A0F6E080818860808325ED2A95F1F70000CD
S11304B08081877F80838FE193E00197F1F700C00B
S11304C0000088E24EDF88E04CDF81E04ADF86E00E
S11304D048DF8CE046CF0895CF93DF93EC0121965B
S11304E0FC018081882321F00DDF89918111FCCFEB
S11304F0DF91CF910895623031F0633031F0613093
S113050029F4805C03C08C5E01C08C5A806829CFBA
S11305100895882339F0FB018081811107C081E0AF
S113052080830895FB01108280E0089580E008959F
S1130530E0E2F7E094818091C320A0910020B0E034
S1130540AA0FBB1FA85FBF4D90782C91922B9823C4
S11305509483E0E0F7E09481A0910120B0E0AA0F39
S1130560BB1FA85FBF4D90782C91922B8923848365
S11305700895809101208E3031F4809100208F30D5
S113058011F40C94890F0895EF92FF920F931F9327
S1130590CF93DF93F12C01E010E2C0E0D0E20F2E04
S11305A0F1E1EF2EF02DF801F082E882E2DFF3941E
S11305B0F0E1FF12F8CF80E18093002080930120C6
S11305C010920220DF91CF911F910F91FF90EF9035
S11305D008958F929F92AF92BF92CF92DF92EF9243
S11305E0FF920F931F93CF93DF938091022081306A
S11305F009F467C020F0823009F4C7C0E4C0C0E049
S1130600D7E01C816091B7207091B8208091B92007
S11306109091BA2024E630E040E050E00E94C125E9
S113062020FB17F91C8380E8E0E2F7E08683E0EE24
S1130630F6E0908520858085308530FB882480F81D
S1130640912C880C991C22FB222720F9822A93FBE7
S1130650AA24A0F8B12CAA0CBB1CAA0CBB1CA82869
S113066081FBCC24C0F8D12CCC0CDD1CCC0CDD1CC3
S1130670CC0CDD1CCA28C092012080E180930020AC
S113068057DF8091E80661E670E2881F8827881F9B
S113069040DF882329F0E2E0F0E280818F5F8083ED
S11306A08091A80660E670E28295817032DF88232B
S11306B009F489C084E690E080935E2090935F20E3
S11306C082C00F2EF0E2CF2EF7E0DF2EF02DF601E0
S11306D0B4806091B7207091B8208091B920909136
S11306E0BA2024E630E040E050E00E94C12520FB1F
S11306F0B7F8F601B48280E8E0E0F7E08583E0EE45
S1130700F6E0908520858085308530FBEE24E0F886
S1130710F12CEE0CFF1C22FB222720F9E22A93FB8A
S1130720002700F910E0000F111F000F111F0E2900
S113073086958170C82FF0E0DF2FCC0FDD1FCC0F22
S1130740DD1FCC0FDD1FC02BC0930020F1DE809194
S1130750E80661E670E2881F8827881FDADE8823AE
S113076029F0E2E0F0E280818F5F80838091A80627
S113077060E670E282958170CCDE882321F1E2E0AC
S1130780F0E28081815080831EC080E8E0E2F7E0DF
S11307908583E0E0F7E08583ECDE8091A80660E6DF
S11307A070E282958170B5DE882369F0E2E0F0E2C0
S11307B0808181508083C0E0D0E281E18883D9DEEA
S11307C080E18883B5DEDF91CF911F910F91FF9077
S11307D0EF90DF90CF90BF90AF909F908F9008954F
S11307E02FB7F894FC01E059FF4F6095808168238E
S11307F060832FBF08952FB7F894FC01E059FF4F91
S11308008081682B60832FBF0895811522E09207B1
S113081069F48091632091E0980F90936320811193
S113082014C062E081E090E0DBCF08958034924010
S113083061F48091622091E0980F9093622081117D
S113084004C062E082E090E0CBCF0895811522E0FD
S1130850920761F480916320815080936320811119
S113086013C062E081E090E0C6CF089580349240E6
S113087059F480916220815080936220811104C0D8
S113088062E082E090E0B7CF08951F93CF93DF93A7
S1130890EC011FB7F894B9DF8881816088831FBF9A
S11308A08FB7F894E5ECF0E290819F5F90838FBF5F
S11308B0DF91CF911F910895DF92EF92FF920F93F2
S11308C01F93CF93DF93EC018B01C11522E0D20774
S11308D071F461E270E082E0A7D0E82EF12C60E2CE
S11308E070E082E0A1D0FE2CEE24E82A10C080340F
S11308F0924059F565E270E082E096D0E82EF12C42
S113090064E270E082E090D0FE2CEE24E82ADFB6A8
S1130910F894CE017ADF288182E08883EC86FD8614
S1130920F80185819681888F998F82818A83848159
S11309308C8383818B8381818983822F81709081D1
S1130940892B8883CE0182DFDFBEDF91CF911F9197
S11309500F91FF90EF90DF900895DF92EF92FF9256
S11309600F931F93CF93DF937C018A01862F8370AB
S113097021F46695669582E001C080E060FF8F5F98
S1130980E701A09698E0899FC00DD11D1124DFB620
S1130990F894C7013ADFF8018081888382818A83D1
S11309A081818983C70152DFDFBEDF91CF911F911F
S11309B00F91FF90EF90DF900895DF92EF92FF92F6
S11309C00F931F93CF93DF937C01EA01862F8370EB
S11309D021F46695669582E001C080E060FF8F5F38
S11309E08701005E1F4F98E0899F000D111D11249F
S11309F0DFB6F894C70109DFF8018081888382811A
S1130A008A8381818983C70121DFDFBEDF91CF9192
S1130A101F910F91FF90EF90DF9008951BBEFC0192
S1130A2028ED24BF608308954091CA01E62FF72F73
S1130A308093CA0184914093CA010895CF92DF92B2
S1130A40EF92FF920F931F93CF93DF93EC016A0110
S1130A507B01DB01CA010197A109B109BC01CD01E8
S1130A60600F711F821F931FA70196010E94C12569
S1130A702138310541055105F8F4213460F421325F
S1130A8060F4213160F4293060F4253060F42330BF
S1130A9060F090E00BC093E009C092E007C092E8D8
S1130AA005C091E003C091E801C090E888818C778B
S1130AB0892B888381E001C08FEFDF91CF911F9153
S1130AC00F91FF90EF90DF90CF9008951F920F92B7
S1130AD00FB60F92112408B60F9218BE09B60F92E2
S1130AE019BE0BB60F921BBE2F933F934F935F9388
S1130AF06F937F938F939F93AF93BF93EF93FF93E2
S1130B00E091B020F091B120309709F01995FF9150
S1130B10EF91BF91AF919F918F917F916F915F9171
S1130B204F913F912F910F900BBE0F9009BE0F90E4
S1130B3008BE0F900FBE0F901F9018951F920F9232
S1130B400FB60F92112408B60F9218BE09B60F9271
S1130B5019BE0BB60F921BBE2F933F934F935F9317
S1130B606F937F938F939F93AF93BF93EF93FF9371
S1130B70E091AE20F091AF20309709F01995FF91E4
S1130B80EF91BF91AF919F918F917F916F915F9101
S1130B904F913F912F910F900BBE0F9009BE0F9074
S1130BA008BE0F900FBE0F901F9018951F920F92C2
S1130BB00FB60F92112408B60F9218BE09B60F9201
S1130BC019BE0BB60F921BBE2F933F934F935F93A7
S1130BD06F937F938F939F93AF93BF93EF93FF9301
S1130BE0E091AC20F091AD20309709F01995FF9178
S1130BF0EF91BF91AF919F918F917F916F915F9191
S1130C004F913F912F910F900BBE0F9009BE0F9003
S1130C1008BE0F900FBE0F901F9018951F920F9251
S1130C200FB60F92112408B60F9218BE09B60F9290
S1130C3019BE0BB60F921BBE2F933F934F935F9336
S1130C406F937F938F939F93AF93BF93EF93FF9390
S1130C50E091AA20F091AB20309709F01995FF910B
S1130C60EF91BF91AF919F918F917F916F915F9120
S1130C704F913F912F910F900BBE0F9009BE0F9093
S1130C8008BE0F900FBE0F901F9018951F920F92E1
S1130C900FB60F92112408B60F9218BE09B60F9220
S1130CA019BE0BB60F921BBE2F933F934F935F93C6
S1130CB06F937F938F939F93AF93BF93EF93FF9320
S1130CC0E091A820F091A920309709F01995FF919F
S1130CD0EF91BF91AF919F918F917F916F915F91B0
S1130CE04F913F912F910F900BBE0F9009BE0F9023
S1130CF008BE0F900FBE0F901F9018951F920F9271
S1130D000FB60F92112408B60F9218BE09B60F92AF
S1130D1019BE0BB60F921BBE2F933F934F935F9355
S1130D206F937F938F939F93AF93BF93EF93FF93AF
S1130D30E091A620F091A720309709F01995FF9132
S1130D40EF91BF91AF919F918F917F916F915F913F
S1130D504F913F912F910F900BBE0F9009BE0F90B2
S1130D6008BE0F900FBE0F901F9018951F920F9200
S1130D700FB60F92112408B60F9218BE09B60F923F
S1130D8019BE0BB60F921BBE2F933F934F935F93E5
S1130D906F937F938F939F93AF93BF93EF93FF933F
S1130DA0E091A420F091A520309709F01995FF91C6
S1130DB0EF91BF91AF919F918F917F916F915F91CF
S1130DC04F913F912F910F900BBE0F9009BE0F9042
S1130DD008BE0F900FBE0F901F9018951F920F9290
S1130DE00FB60F92112408B60F9218BE09B60F92CF
S1130DF019BE0BB60F921BBE2F933F934F935F9375
S1130E006F937F938F939F93AF93BF93EF93FF93CE
S1130E10E091A220F091A320309709F01995FF9159
S1130E20EF91BF91AF919F918F917F916F915F915E
S1130E304F913F912F910F900BBE0F9009BE0F90D1
S1130E4008BE0F900FBE0F901F9018951F920F921F
S1130E500FB60F92112408B60F9218BE09B60F925E
S1130E6019BE0BB60F921BBE2F933F934F935F9304
S1130E706F937F938F939F93AF93BF93EF93FF935E
S1130E80E091A020F091A120309709F01995FF91ED
S1130E90EF91BF91AF919F918F917F916F915F91EE
S1130EA04F913F912F910F900BBE0F9009BE0F9061
S1130EB008BE0F900FBE0F901F9018951F920F92AF
S1130EC00FB60F92112408B60F9218BE09B60F92EE
S1130ED019BE0BB60F921BBE2F933F934F935F9394
S1130EE06F937F938F939F93AF93BF93EF93FF93EE
S1130EF0E0919E20F0919F20309709F01995FF9181
S1130F00EF91BF91AF919F918F917F916F915F917D
S1130F104F913F912F910F900BBE0F9009BE0F90F0
S1130F2008BE0F900FBE0F901F9018951F920F923E
S1130F300FB60F92112408B60F9218BE09B60F927D
S1130F4019BE0BB60F921BBE2F933F934F935F9323
S1130F506F937F938F939F93AF93BF93EF93FF937D
S1130F60E0919C20F0919D20309709F01995FF9114
S1130F70EF91BF91AF919F918F917F916F915F910D
S1130F804F913F912F910F900BBE0F9009BE0F9080
S1130F9008BE0F900FBE0F901F9018951F920F92CE
S1130FA00FB60F92112408B60F9218BE09B60F920D
S1130FB019BE0BB60F921BBE2F933F934F935F93B3
S1130FC06F937F938F939F93AF93BF93EF93FF930D
S1130FD0E0919A20F0919B20309709F01995FF91A8
S1130FE0EF91BF91AF919F918F917F916F915F919D
S1130FF04F913F912F910F900BBE0F9009BE0F9010
S113100008BE0F900FBE0F901F9018951F920F925D
S11310100FB60F92112408B60F9218BE09B60F929C
S113102019BE0BB60F921BBE2F933F934F935F9342
S11310306F937F938F939F93AF93BF93EF93FF939C
S1131040E0919820F0919920309709F01995FF913B
S1131050EF91BF91AF919F918F917F916F915F912C
S11310604F913F912F910F900BBE0F9009BE0F909F
S113107008BE0F900FBE0F901F9018951F920F92ED
S11310800FB60F92112408B60F9218BE09B60F922C
S113109019BE0BB60F921BBE2F933F934F935F93D2
S11310A06F937F938F939F93AF93BF93EF93FF932C
S11310B0E0919620F0919720309709F01995FF91CF
S11310C0EF91BF91AF919F918F917F916F915F91BC
S11310D04F913F912F910F900BBE0F9009BE0F902F
S11310E008BE0F900FBE0F901F9018951F920F927D
S11310F00FB60F92112408B60F9218BE09B60F92BC
S113110019BE0BB60F921BBE2F933F934F935F9361
S11311106F937F938F939F93AF93BF93EF93FF93BB
S1131120E0919420F0919520309709F01995FF9162
S1131130EF91BF91AF919F918F917F916F915F914B
S11311404F913F912F910F900BBE0F9009BE0F90BE
S113115008BE0F900FBE0F901F9018951F920F920C
S11311600FB60F92112408B60F9218BE09B60F924B
S113117019BE0BB60F921BBE2F933F934F935F93F1
S11311806F937F938F939F93AF93BF93EF93FF934B
S1131190E0919220F0919320309709F01995FF91F6
S11311A0EF91BF91AF919F918F917F916F915F91DB
S11311B04F913F912F910F900BBE0F9009BE0F904E
S11311C008BE0F900FBE0F901F9018951F920F929C
S11311D00FB60F92112408B60F9218BE09B60F92DB
S11311E019BE0BB60F921BBE2F933F934F935F9381
S11311F06F937F938F939F93AF93BF93EF93FF93DB
S1131200E0919020F0919120309709F01995FF9189
S1131210EF91BF91AF919F918F917F916F915F916A
S11312204F913F912F910F900BBE0F9009BE0F90DD
S113123008BE0F900FBE0F901F9018951F920F922B
S11312400FB60F92112408B60F9218BE09B60F926A
S113125019BE0BB60F921BBE2F933F934F935F9310
S11312606F937F938F939F93AF93BF93EF93FF936A
S1131270E0918E20F0918F20309709F01995FF911D
S1131280EF91BF91AF919F918F917F916F915F91FA
S11312904F913F912F910F900BBE0F9009BE0F906D
S11312A008BE0F900FBE0F901F9018951F920F92BB
S11312B00FB60F92112408B60F9218BE09B60F92FA
S11312C019BE0BB60F921BBE2F933F934F935F93A0
S11312D06F937F938F939F93AF93BF93EF93FF93FA
S11312E0E0918C20F0918D20309709F01995FF91B1
S11312F0EF91BF91AF919F918F917F916F915F918A
S11313004F913F912F910F900BBE0F9009BE0F90FC
S113131008BE0F900FBE0F901F9018951F920F924A
S11313200FB60F92112408B60F9218BE09B60F9289
S113133019BE0BB60F921BBE2F933F934F935F932F
S11313406F937F938F939F93AF93BF93EF93FF9389
S1131350E0918A20F0918B20309709F01995FF9144
S1131360EF91BF91AF919F918F917F916F915F9119
S11313704F913F912F910F900BBE0F9009BE0F908C
S113138008BE0F900FBE0F901F9018951F920F92DA
S11313900FB60F92112408B60F9218BE09B60F9219
S11313A019BE0BB60F921BBE2F933F934F935F93BF
S11313B06F937F938F939F93AF93BF93EF93FF9319
S11313C0E0918820F0918920309709F01995FF91D8
S11313D0EF91BF91AF919F918F917F916F915F91A9
S11313E04F913F912F910F900BBE0F9009BE0F901C
S11313F008BE0F900FBE0F901F9018951F920F926A
S11314000FB60F92112408B60F9218BE09B60F92A8
S113141019BE0BB60F921BBE2F933F934F935F934E
S11314206F937F938F939F93AF93BF93EF93FF93A8
S1131430E0918620F0918720309709F01995FF916B
S1131440EF91BF91AF919F918F917F916F915F9138
S11314504F913F912F910F900BBE0F9009BE0F90AB
S113146008BE0F900FBE0F901F9018951F920F92F9
S11314700FB60F92112408B60F9218BE09B60F9238
S113148019BE0BB60F921BBE2F933F934F935F93DE
S11314906F937F938F939F93AF93BF93EF93FF9338
S11314A0E0918420F0918520309709F01995FF91FF
S11314B0EF91BF91AF919F918F917F916F915F91C8
S11314C04F913F912F910F900BBE0F9009BE0F903B
S11314D008BE0F900FBE0F901F9018951F920F9289
S11314E00FB60F92112408B60F9218BE09B60F92C8
S11314F019BE0BB60F921BBE2F933F934F935F936E
S11315006F937F938F939F93AF93BF93EF93FF93C7
S1131510E0918220F0918320309709F01995FF9192
S1131520EF91BF91AF919F918F917F916F915F9157
S11315304F913F912F910F900BBE0F9009BE0F90CA
S113154008BE0F900FBE0F901F9018951F920F9218
S11315500FB60F92112408B60F9218BE09B60F9257
S113156019BE0BB60F921BBE2F933F934F935F93FD
S11315706F937F938F939F93AF93BF93EF93FF9357
S1131580E0918020F0918120309709F01995FF9126
S1131590EF91BF91AF919F918F917F916F915F91E7
S11315A04F913F912F910F900BBE0F9009BE0F905A
S11315B008BE0F900FBE0F901F9018951F920F92A8
S11315C00FB60F92112408B60F9218BE09B60F92E7
S11315D019BE0BB60F921BBE2F933F934F935F938D
S11315E06F937F938F939F93AF93BF93EF93FF93E7
S11315F0E0917E20F0917F20309709F01995FF91BA
S1131600EF91BF91AF919F918F917F916F915F9176
S11316104F913F912F910F900BBE0F9009BE0F90E9
S113162008BE0F900FBE0F901F9018951F920F9237
S11316300FB60F92112408B60F9218BE09B60F9276
S113164019BE0BB60F921BBE2F933F934F935F931C
S11316506F937F938F939F93AF93BF93EF93FF9376
S1131660E0917C20F0917D20309709F01995FF914D
S1131670EF91BF91AF919F918F917F916F915F9106
S11316804F913F912F910F900BBE0F9009BE0F9079
S113169008BE0F900FBE0F901F9018951F920F92C7
S11316A00FB60F92112408B60F9218BE09B60F9206
S11316B019BE0BB60F921BBE2F933F934F935F93AC
S11316C06F937F938F939F93AF93BF93EF93FF9306
S11316D0E0917A20F0917B20309709F01995FF91E1
S11316E0EF91BF91AF919F918F917F916F915F9196
S11316F04F913F912F910F900BBE0F9009BE0F9009
S113170008BE0F900FBE0F901F9018951F920F9256
S11317100FB60F92112408B60F9218BE09B60F9295
S113172019BE0BB60F921BBE2F933F934F935F933B
S11317306F937F938F939F93AF93BF93EF93FF9395
S1131740E0917820F0917920309709F01995FF9174
S1131750EF91BF91AF919F918F917F916F915F9125
S11317604F913F912F910F900BBE0F9009BE0F9098
S113177008BE0F900FBE0F901F9018951F920F92E6
S11317800FB60F92112408B60F9218BE09B60F9225
S113179019BE0BB60F921BBE2F933F934F935F93CB
S11317A06F937F938F939F93AF93BF93EF93FF9325
S11317B0E0917620F0917720309709F01995FF9108
S11317C0EF91BF91AF919F918F917F916F915F91B5
S11317D04F913F912F910F900BBE0F9009BE0F9028
S11317E008BE0F900FBE0F901F9018951F920F9276
S11317F00FB60F92112408B60F9218BE09B60F92B5
S113180019BE0BB60F921BBE2F933F934F935F935A
S11318106F937F938F939F93AF93BF93EF93FF93B4
S1131820E0917420F0917520309709F01995FF919B
S1131830EF91BF91AF919F918F917F916F915F9144
S11318404F913F912F910F900BBE0F9009BE0F90B7
S113185008BE0F900FBE0F901F9018951F920F9205
S11318600FB60F92112408B60F9218BE09B60F9244
S113187019BE0BB60F921BBE2F933F934F935F93EA
S11318806F937F938F939F93AF93BF93EF93FF9344
S1131890E0917220F0917320309709F01995FF912F
S11318A0EF91BF91AF919F918F917F916F915F91D4
S11318B04F913F912F910F900BBE0F9009BE0F9047
S11318C008BE0F900FBE0F901F9018951F920F9295
S11318D00FB60F92112408B60F9218BE09B60F92D4
S11318E019BE0BB60F921BBE2F933F934F935F937A
S11318F06F937F938F939F93AF93BF93EF93FF93D4
S1131900E0917020F0917120309709F01995FF91C2
S1131910EF91BF91AF919F918F917F916F915F9163
S11319204F913F912F910F900BBE0F9009BE0F90D6
S113193008BE0F900FBE0F901F9018951F920F9224
S11319400FB60F92112408B60F9218BE09B60F9263
S113195019BE0BB60F921BBE2F933F934F935F9309
S11319606F937F938F939F93AF93BF93EF93FF9363
S1131970E0916E20F0916F20309709F01995FF9156
S1131980EF91BF91AF919F918F917F916F915F91F3
S11319904F913F912F910F900BBE0F9009BE0F9066
S11319A008BE0F900FBE0F901F9018951F920F92B4
S11319B00FB60F92112408B60F9218BE09B60F92F3
S11319C019BE0BB60F921BBE2F933F934F935F9399
S11319D06F937F938F939F93AF93BF93EF93FF93F3
S11319E0E0916C20F0916D20309709F01995FF91EA
S11319F0EF91BF91AF919F918F917F916F915F9183
S1131A004F913F912F910F900BBE0F9009BE0F90F5
S1131A1008BE0F900FBE0F901F9018951F920F9243
S1131A200FB60F92112408B60F9218BE09B60F9282
S1131A3019BE0BB60F921BBE2F933F934F935F9328
S1131A406F937F938F939F93AF93BF93EF93FF9382
S1131A50E0916A20F0916B20309709F01995FF917D
S1131A60EF91BF91AF919F918F917F916F915F9112
S1131A704F913F912F910F900BBE0F9009BE0F9085
S1131A8008BE0F900FBE0F901F9018951F920F92D3
S1131A900FB60F92112408B60F9218BE09B60F9212
S1131AA019BE0BB60F921BBE2F933F934F935F93B8
S1131AB06F937F938F939F93AF93BF93EF93FF9312
S1131AC0E0916820F0916920309709F01995FF9111
S1131AD0EF91BF91AF919F918F917F916F915F91A2
S1131AE04F913F912F910F900BBE0F9009BE0F9015
S1131AF008BE0F900FBE0F901F9018951F920F9263
S1131B000FB60F92112408B60F9218BE09B60F92A1
S1131B1019BE0BB60F921BBE2F933F934F935F9347
S1131B206F937F938F939F93AF93BF93EF93FF93A1
S1131B30E0916620F0916720309709F01995FF91A4
S1131B40EF91BF91AF919F918F917F916F915F9131
S1131B504F913F912F910F900BBE0F9009BE0F90A4
S1131B6008BE0F900FBE0F901F9018951F920F92F2
S1131B700FB60F92112408B60F9218BE09B60F9231
S1131B8019BE0BB60F921BBE2F933F934F935F93D7
S1131B906F937F938F939F93AF93BF93EF93FF9331
S1131BA0E0916420F0916520309709F01995FF9138
S1131BB0EF91BF91AF919F918F917F916F915F91C1
S1131BC04F913F912F910F900BBE0F9009BE0F9034
S1131BD008BE0F900FBE0F901F901895CF93CFB7EC
S1131BE0F894282F392F211588E0380759F461E03B
S1131BF083E090E00E94F00364E083E090E00E94C0
S1131C00F0036AC0203488E0380759F462E083E0C6
S1131C1090E00E94F00364E083E090E00E94F0030F
S1131C205BC0211589E0380759F461E084E090E055
S1131C300E94F00364E084E090E00E94F0034CC052
S1131C40203489E0380759F462E084E090E00E948F
S1131C50F00364E084E090E00E94F0033DC02115AD
S1131C608AE0380759F461E085E090E00E94F003CF
S1131C7064E085E090E00E94F0032EC020348AE006
S1131C80380759F462E085E090E00E94F00364E0D4
S1131C9085E090E00E94F0031FC021158BE0380717
S1131CA059F461E086E090E00E94F00364E086E08D
S1131CB090E00E94F00310C020343B4059F462E0ED
S1131CC086E090E00E94F00364E086E090E00E94E9
S1131CD0F00302C0CFBF09C08FB7F894E5ECF0E27F
S1131CE090819F5F90838FBFCFBFCF910895FC01F8
S1131CF0818185FFFDCF608380E090E008954F925D
S1131D005F926F927F928F929F92AF92BF92CF9287
S1131D10DF92EF92FF920F931F93CF93DF93EC0127
S1131D204A015B0128013901D901C801689412F8FC
S1131D30B695A795979587951694D1F7B901A801FB
S1131D40032E36E176956795579547953A95D1F7E1
S1131D50302D2C8122FD08C0B695A79597958795BF
S1131D60769567955795479588159905AA05BB05F6
S1131D7008F4A6C084169506A606B70608F4A2C001
S1131D808C8182FD04C0880C991CAA1CBB1CC30155
S1131D90B201A50194010E94C1252F3F31054105DF
S1131DA0510508F491C0C12CD12C7601CA9419EFC5
S1131DB005C02C153D054E055F0568F0CC0CDD1CF7
S1131DC0EE1CFF1C1D3F14F46894C0F81F5F17300D
S1131DD081F7212F50C0212F11230CF04CC0D501C5
S1131DE0C401880F991FAA1FBB1F880F991FAA1F20
S1131DF0BB1F880F991FAA1FBB1F481A590A6A0ADA
S1131E007B0A1E3FF4F46DEF7FEF611B710917FD30
S1131E10739504C0440C551C661C771C6A95D2F754
S1131E20D501C401B695A79597958795BC01CD01B9
S1131E30640D751D861D971DA50194010E94C12581
S1131E4036C023E0210FD501C40104C0880F991FB7
S1131E50AA1FBB1F2A95D2F79C01AD01B695A79581
S1131E6097958795BC01CD01640D751D861D971D41
S1131E700E94C1251CC02D5FD501C40104C0880F78
S1131E80991FAA1FBB1F2A95D2F79C01AD01B695D5
S1131E90A79597958795BC01CD01640D751D861D89
S1131EA0971D0E94C1252150310941095109832FF1
S1131EB08F701295107F182B1F832E8381E018C01A
S1131EC080E016C080E014C0D501C401880F991FBA
S1131ED0AA1FBB1F880F991FAA1FBB1F880F991F1A
S1131EE0AA1FBB1F481A590A6A0A7B0A19EF8BCF2B
S1131EF0DF91CF911F910F91FF90EF90DF90CF90E2
S1131F00BF90AF909F908F907F906F905F904F9015
S1131F10089563E080E890E00E940E05E0E8F0E0B8
S1131F20828180FDFDCF6BE281E890E00E940E0586
S1131F30E0E8F0E0828180FDFDCFA895FFCFE0E5E9
S1131F40F0E0808182608083E1E5F0E0808181FFC0
S1131F50FDCF88ED84BF81E080934000E0E5F0E0B0
S1131F608081827E8083089580E48093210687E4C3
S1131F70809341061092530681E08093490628E03D
S1131F8020934A069EE2909361069AEB9093810611
S1131F90E0E9F6E0908192609083E9E8F6E09081D0
S1131FA091609083EAE8F6E090819160908390E1FB
S1131FB09093AA0698E89093A1069093A5069FEFA4
S1131FC090932007909300071092D0071092D307A4
S1131FD095E09093C9078093CA072093CB0710928A
S1131FE0F5068093F7069093E90680E28093EA066B
S1131FF08FE88093EB060895E0E0F8E08081807F2D
S1132000866080838181887F836081838FEF90E005
S113201086A397A380858E6F808781818061818369
S113202081818062818380E098E0D8CD0895E0E0EA
S1132030F9E08081807F866080838181887F8183CD
S113204086818C7F86838681826086838DE790E09B
S113205086A397A380858E6F808780E099E0BECDAC
S113206008950F931F9300E018E428EE31E040E058
S113207052E16AE770E080EC9AE00E941E05E0EC11
S1132080FAE08081806180838081806480831F91F5
S11320900F9108950F931F93CF93DF93C0EADAE073
S11320A08D818F738D8383E08D838B818F7C8062A0
S11320B08B8300E018E428EE31E040E855E260E06C
S11320C070E080EA9AE01BDE8C8188608C83DF916B
S11320D0CF911F910F9108950F931F93CF93DF9387
S11320E0C0EADBE08D818F738D8383E08D838B81E8
S11320F08F7C80628B8300E018E428EE31E040E8B6
S113210055E260E070E080EA9BE0F9DD8C81886054
S11321108C838C8180618C83DF91CF911F910F918F
S113212008950F931F93CF93DF93C0EBDBE08D8172
S11321308F738D8383E08D838B818F7C80628B830F
S113214000E018E428EE31E040E855E260E070E099
S113215080EB9BE0D4DD8C8188608C838C818061F2
S11321608C83DF91CF911F910F910895CF93DF93CB
S1132170CDB7DEB72A97CDBFDEBF61E270E082E063
S11321800E94140560E270E082E00E9414058A81D6
S1132190897E9B819F7C90629B8392E09D83886073
S11321A08A831C82BE016F5F7F4F80E092E00E94B1
S11321B05C04AE01485F5F4F61E080E092E00E9402
S11321C0DD0481E0888788E18987AE01485F5F4F3D
S11321D061E080E092E00E94AD0480E092E00E9421
S11321E045048FB7F894E0E0F2E090819460908326
S11321F08FBF2A96CDBFDEBFDF91CF9108951F9286
S11322000F920FB60F92112408B60F9218BE09B69A
S11322100F9219BE0AB60F921ABE0BB60F921BBECE
S11322202F923F924F925F926F927F928F929F92E2
S1132230AF92BF92DF92EF92FF920F931F932F936F
S11322403F934F935F936F937F938F939F93AF933A
S1132250BF93EF93FF93CF93DF93CDB7DEB7C25510
S1132260D109CDBFDEBF60E787E20E94B524D82E36
S113227086FFDDC388E0E0E6F6E0878360E270E095
S113228086E793E20E940A2540917623E8E0F6E08F
S11322907081608120815081842F90E0221F222749
S11322A0221F30E0220F331F220F331F76FBEE2450
S11322B0E0F8F12CE22AF32A64FB002700F910E08D
S11322C0000F111FE02AF12A55FB552750F9629699
S11322D05FAF629763961FAE639763962EAD3FAD73
S11322E06397220F331F220F331F220F331F2E2910
S11322F03F298217930709F09AC31092C1201092C4
S1132300C2205081308180812081881F8827881FC6
S113231090E0880F991F880F991F56FBAA24A0F8F4
S1132320B12CA82AB92A3295317039831A8289814D
S11323309A81880F991FA82AB92A25FB882480F836
S1132340912CC401880F991F880F991F880F991F1A
S11323504501882A992A57E1589DD001599DB00D0D
S11323601124A253BF4D4C93408130818081208140
S1132370881F8827881F90E0880F991F880F991F4E
S113238046FB662460F8712C682A792A34FB4424BD
S113239040F8512C440C551C6428752825FB222434
S11323A020F8312CC101880F991F880F991F880FBD
S11323B0991F1301282A392A529DD001539DB00D2B
S11323C01124A253BF4D8091772390E011968D93F1
S11323D09C9312973081208180814081881F8827B7
S11323E0881F90E0880F991F880F991F36FB3327A9
S11323F030F93B831C826B817C81862B972B229541
S113240021702D831E822D813E81220F331F822B4A
S1132410932B45FB442740F94F8318862F81388539
S1132420220F331F220F331F220F331F822B932BB4
S1132430589FD001599FB00D1124A253BF4D8091D4
S1132440782390E013968D939C9314973081208188
S113245080814081881F8827881F90E0880F991FFA
S1132460880F991F36FB332730F939871A86A985D7
S1132470BA858A2B9B2B229521702B871C862B8552
S11324803C85220F331F822B932B45FB442740F9B5
S11324904D871E862D853E85220F331F220F331F45
S11324A0220F331F822B932B589FD001599FB00DBD
S11324B01124A253BF4D8091792390E015968D93FA
S11324C09C9316973081208180814081881F8827C2
S11324D0881F90E0880F991F880F991F36FB3327B8
S11324E030F93F87188A6F857889862B972B229538
S11324F02170298B1A8A29893A89220F331F822B4A
S1132500932B45FB442740F94B8B1C8A2B893C8930
S1132510220F331F220F331F220F331F822B932BC3
S1132520589FD001599FB00D1124A253BF4D8091E3
S11325307A2390E017968D939C931897308120818D
S113254080814081881F8827881F90E0880F991F09
S1132550880F991F36FB332730F93D8B1E8AAD89CE
S1132560BE898A2B9B2B229521702F8B188E2F8945
S1132570388D220F331F822B932B45FB442740F9C0
S1132580498F1A8E298D3A8D220F331F220F331F44
S1132590220F331F822B932B589FD001599FB00DCC
S11325A01124A253BF4D80917B2390E019968D9303
S11325B09C931A973081208180814081881F8827CD
S11325C0881F90E0880F991F880F991F36FB3327C7
S11325D030F93B8F1C8E6B8D7C8D862B972B22952F
S11325E021702D8F1E8E2D8D3E8D220F331F822B39
S11325F0932B45FB442740F94F8F18A22F8D38A108
S1132600220F331F220F331F220F331F822B932BD2
S1132610589FD001599FB00D1124A253BF4D8091F2
S11326207C2390E01B968D939C931C973081208192
S113263080814081881F8827881F90E0880F991F18
S1132640880F991F36FB332730F939A31AA2A9A1A1
S1132650BAA18A2B9B2B229521702BA31CA22BA100
S11326603CA1220F331F822B932B45FB442740F9B7
S11326704DA31EA22DA13EA1220F331F220F331FF3
S1132680220F331F822B932B589FD001599FB00DDB
S11326901124A253BF4D80917D2390E01D968D930C
S11326A09C931E973081208180814081881F8827D8
S11326B0881F90E0880F991F880F991F36FB3327D6
S11326C030F93FA318A66FA178A5862B972B2295E6
S11326D0217029A71AA629A53AA5220F331F822BF8
S11326E0932B45FB442740F94BA71CA62BA53CA5DF
S11326F0220F331F220F331F220F331F822B932BE2
S1132700589FD001599FB00D1124A253BF4D809101
S11327107E2390E01F968D939C9350973081208167
S113272080814081881F8827881F90E0880F991F27
S1132730880F991F36FB332730F93DA71EA6ADA598
S1132740BEA58A2B9B2B229521702FA718AA2FA5F3
S113275038A9220F331F822B932B45FB442740F9C2
S113276049AB1AAA29A93AA9220F331F220F331FF2
S1132770220F331F822B932B589FD001599FB00DEA
S11327801124A253BF4D80917F2351968C933081A5
S1132790208180814081881F8827881F90E0880FCE
S11327A0991F880F991F36FB332730F93BAB1CAABE
S11327B06BA97CA9862B972B229521702DAB1EAA81
S11327C02DA93EA9220F331F822B932B45FB4427AF
S11327D040F94FAB18AE2FA938AD220F331F220F8B
S11327E0331F220F331F822B932B589FD001599FE5
S11327F0B00D1124A253BF4D8091802352968C9327
S11328003081208180814081881F8827881F90E043
S1132810880F991F880F991F36FB332730F939AF7A
S11328201AAEA9ADBAAD8A2B9B2B229521702BAF82
S11328301CAE2BAD3CAD220F331F822B932B45FBDB
S1132840442740F94DAF1EAE2DAD3EAD220F331FD0
S1132850220F331F220F331F822B932B589FD0013B
S1132860599FB00D1124A253BF4D809181235396DB
S11328708C933081208180814081881F8827881F24
S113288090E0880F991F880F991F36FB332730F982
S11328903FAF21961FAE219721966EAD7FAD219754
S11328A0862B972B2295217022962FAF2297239661
S11328B01FAE239723962EAD3FAD2397220F331FD0
S11328C0822B932B45FB442740F924964FAF249742
S11328D025961FAE259725962EAD3FAD2597220F41
S11328E0331F220F331F220F331F822B932B589F2A
S11328F0D001599FB00D1124A253BF4D8091822362
S113290054968C933081208180814081881F882750
S1132910881F90E0880F991F880F991F36FB332773
S113292030F926963FAF269727961FAE279727960E
S1132930AEADBFAD27978A2B9B2B2295217028968D
S11329402FAF289729961FAE299729962EAD3FAD14
S11329502997220F331F822B932B45FB442740F9E1
S11329602A964FAF2A972B961FAE2B972B962EADF8
S11329703FAD2B97220F331F220F331F220F331F1C
S1132980822B932B589FD001599FB00D1124A25331
S1132990BF4D8091832355968C9330812081808113
S11329A04081881F8827881F90E0880F991F880F0F
S11329B0991F36FB332730F92C963FAF2C972D9671
S11329C01FAE2D972D96EEADFFAD2D978E2B9F2B21
S11329D0229521702E962FAF2E972F961FAE2F97EC
S11329E02F962EAD3FAD2F97220F331F822B932BA3
S11329F045FB442740F960964FAF609761961FAE40
S1132A00619761962EAD3FAD6197220F331F220F60
S1132A10331F220F331F822B932B589FF001599F92
S1132A20F00D1124E253FF4D80918423868BD4FC56
S1132A300E94A525CE5ADF4FCDBFDEBFDF91CF91D7
S1132A40FF91EF91BF91AF919F918F917F916F9182
S1132A505F914F913F912F911F910F91FF90EF90B4
S1132A60DF90BF90AF909F908F907F906F905F901A
S1132A704F903F902F900F900BBE0F900ABE0F9077
S1132A8009BE0F9008BE0F900FBE0F901F901895AF
S1132A901F920F920FB60F92112408B60F9218BE10
S1132AA009B60F9219BE0AB60F921ABE0BB60F9250
S1132AB01BBEAF92BF92DF92EF92FF920F931F93D0
S1132AC02F933F934F935F936F937F938F939F9332
S1132AD0AF93BF93CF93DF93EF93FF93A895809128
S1132AE09A238F5F80939A238431B4F081E080939A
S1132AF0B6208091F3239091F4230196817090780D
S1132B00992324F401978E6F9F6F01968093F3238A
S1132B109093F42310929A238091B7209091B82037
S1132B20A091B920B091BA200196A11DB11D809346
S1132B30B7209093B820A093B920B093BA20809185
S1132B40BF209091C020892B09F440C08091E821D6
S1132B509091E921A091EA21B091EB21883B2BE0EF
S1132B609207A105B105D0F40196A11DB11D809372
S1132B70E8219093E921A093EA21B093EB21A0E20C
S1132B80B6E014968C911497806414968C938FEF0E
S1132B9090E080932A0890932B0818C010922A087A
S1132BA010922B08A0E2B6E014968C9114978F7BB8
S1132BB014968C931092E8211092E9211092EA2144
S1132BC01092EB211092BF201092C0208091BD2062
S1132BD09091BE20892B09F43FC08091E821909107
S1132BE0E921A091EA21B091EB2184369105A10558
S1132BF0B105D0F40196A11DB11D8093E8219093F5
S1132C00E921A093EA21B093EB218FEF90E0809328
S1132C10280890932908A0E2B6E014968C911497A2
S1132C20806414968C9318C0109228081092290876
S1132C30A0E2B6E014968C9114978F7B14968C9333
S1132C401092E8211092E9211092EA211092EB21CE
S1132C501092BD201092BE208091C1209091C2207C
S1132C6001968093C1209093C22080915E20909120
S1132C705F208130910581F41092C3200E94980254
S1132C800E94C40280915E2090915F2001978093FE
S1132C905E2090935F2087C08230910508F10197F0
S1132CA080935E2090935F200E94E90280915E20D1
S1132CB090915F20883B2BE0920708F074C0A0E05D
S1132CC0B0E080932C2090932D20A0932E20B093DD
S1132CD02F2088EC90E080935E2290935F2263C063
S1132CE0A8E0B6E0DC90EC908C91FC90881F8827DB
S1132CF0881F90E0880F991F880F991FD6FA002724
S1132D0000F910E0082B192BE4FAEE24E0F8CE2D9C
S1132D1080E0D82FCC0FDD1F0C2B1D2BF5FAEE27EE
S1132D20E0F9F0E0CF01880F991F880F991F880FF1
S1132D30991FF801E82BF92BEE0FFF1FE85FFF4DF9
S1132D408081E0E2F7E08483CC919C91EC918C91BA
S1132D50EE1FEE27EE1FF0E0EE0FFF1FEE0FFF1F3A
S1132D60C6FB662760F970E0E62BF72B94FB44273B
S1132D7040F950E0440F551FE42BF52B85FBAA24A2
S1132D80A0F8B12C9501220F331F220F331F220FFD
S1132D90331FE22BF32BEE0FFF1FE85FFF4D808103
S1132DA0E0E0F7E08483FF91EF91DF91CF91BF9151
S1132DB0AF919F918F917F916F915F914F913F91CF
S1132DC02F911F910F91FF90EF90DF90BF90AF90E4
S1132DD00F900BBE0F900ABE0F9009BE0F9008BE55
S1132DE00F900FBE0F901F9018951F920F920FB661
S1132DF00F92112408B60F9218BE0F9008BE0F90C0
S1132E000FBE0F901F9018951F920F920FB60F923E
S1132E10112408B60F9218BE2F933F938F939F935C
S1132E2020913724309138248091C80781FF03C052
S1132E308FEF9FEF02C081E090E0820F931F809399
S1132E403724909338249F918F913F912F910F9025
S1132E5008BE0F900FBE0F901F9018951F920F92EF
S1132E600FB60F92112408B60F9218BE2F933F93FA
S1132E708F939F932091A6233091A7238091E806F6
S1132E8084FF03C08FEF9FEF02C081E090E0820FC8
S1132E90931F8093A6239093A7239F918F913F9193
S1132EA02F910F9008BE0F900FBE0F901F90189592
S1132EB01F920F920FB60F92112408B60F9218BEEC
S1132EC02F933F938F939F932091DE233091DF23A1
S1132ED08091480684FF03C08FEF9FEF02C081E01A
S1132EE090E0820F931F8093DE239093DF239F91C2
S1132EF08F913F912F910F9008BE0F900FBE0F90AE
S1132F001F9018951F920F920FB60F92112408B6B6
S1132F100F9218BE2F933F938F939F932091532426
S1132F20309154248091C80782FF03C08FEF9FEF34
S1132F3002C081E090E0820F931F8093532490930A
S1132F4054249F918F913F912F910F9008BE0F9021
S1132F500FBE0F901F9018951F920F920FB60F92ED
S1132F60112408B60F9218BE09B60F9219BE0BB6FB
S1132F700F921BBE2F933F934F935F936F937F9357
S1132F808F939F93AF93BF93EF93FF9380915E20B2
S1132F9090915F20892B89F48091E80661E670E2C4
S1132FA0881F8827881F0E9489028091A80660E6EE
S1132FB070E2829581700E94890280E395E7809394
S1132FC05E2090935F208FEF8093C3200E9498022D
S1132FD0FF91EF91BF91AF919F918F917F916F91ED
S1132FE05F914F913F912F910F900BBE0F9009BEAF
S1132FF00F9008BE0F900FBE0F901F9018951F9250
S11330000F920FB60F92112408B60F9218BE0F90AC
S113301008BE0F900FBE0F901F901895EF92FF926D
S11330200F931F93CF93DF93CDB7DEB7C85CD1095D
S1133030CDBFDEBF60E080E00E947B0280919F23D1
S11330408F9380919E238F938CE390E29F938F9331
S11330500AE014E21F930F930E94FE27C8010E9406
S11330606C0261E080E00E947B020F2EF2EEEF2EF4
S1133070F3E2FF2EF02DF70181818F9380818F93EE
S113308086E490E29F938F931F930F930E94FE27F1
S1133090C8010E946C0261E089E00E947B02809179
S11330A004221F928F938FE490E29F938F931F9338
S11330B00F930E94FE27C8010E946C02F7018181D0
S11330C08F9380818F93E4EEF3E281818F938081EB
S11330D08F9386E590E29F938F93CE0101969F9301
S11330E08F930E94FE27CDBFDEBF8823B1F08E01EF
S11330F00F5F1F4F81506894EE24E1F8F12CEC0E21
S1133100FD1EE80EF11CF80161918F0180EA9AE03E
S11331100E94770E0E151F05B1F7C853DF4FCDBFC0
S1133120DEBFDF91CF911F910F91FF90EF90089533
S1133130CF93DF93CDB7DEB7CE55D109CDBFDEBF78
S11331400E949F0FE2EAF0E08081876080830E9402
S1133150B40F0E9417100E94FC0F0E946C100E9472
S113316091100E944A1002D80E94EB01789488EBD7
S11331709BE0A0E0B0E08093342090933520A093AE
S11331803620B093372024EF31E020930624309387
S113319007248093382090933920A0933A20B09349
S11331A03B2084E690E0809316229093172288EEC9
S11331B093E0A0E0B0E08093302090933120A0937E
S11331C03220B093332088EC90E0809334249093A1
S11331D0352480ED97E0A0E0B0E080932C2090931C
S11331E02D20A0932E20B0932F2086E990E0809389
S11331F05E2290935F22E8E0F6E090813081808146
S11332004081E3E0F0E2881F8827881F282F220FDF
S1133210220F96FB882780F9282B34FB882480F81A
S1133220912CC401880F991F282B45FB002700F916
S113323010E0C801880F991F880F991F880F991FE4
S1133240822B9081890F808382E0E0E8F6E0868318
S11332500E94311023E02A95F1F7000087EA91E6F5
S11332600197F1F700C000000E94DE240E94A5250A
S11332700E94B32582E0E0E8F6E08683E8E0F6E029
S11332802081308180814081881F8827881F90E0B9
S1133290880F991F880F991F26FBEE24E0F8F12C64
S11332A0E82AF92A34FBCC24C0F8D12CC601880FB3
S11332B0991FE82AF92A45FBAA24A0F8B12CC501D4
S11332C0880F991F880F991F880F991F8E299F298E
S11332D0039784F40F2EF6E0CF2EF02D6894EE249D
S11332E0E5F805E023E030E248E062E380E00E9494
S11332F065250FC00F2EF6E0CF2EF02D6894EE2436
S1133300E5F805E023E030E248E061E080E00E9477
S1133310652561E08CE30E94B52466E08DE30E949C
S1133320B52482E0E0E8F6E085839BE29A95F1F724
S11333300000A8958091B620882311F40C946F2383
S1133340ACEAB3E20D911C91E0EBF3E2008311834C
S1133350A8EAB3E28D919C919C01201B310B21536F
S1133360384F2F393F4020F4ECEAF3E28083918315
S1133370B801882777FD8095982F0E94E7266B0176
S11333807C01ACEAB3E28D919C91801B910BBC0152
S1133390882777FD8095982F0E94E7262EEA37E448
S11333A041EE5DE30E949B279B01AC01C701B6017E
S11333B00E94E4250E94B426ECEAF3E26083718360
S11333C0ADE3B4E20D911C91E1E4F4E200831183D6
S11333D0A9E3B4E28D919C919C01201B310B2153F4
S11333E0384F2F393F4020F4EDE3F4E2808391839A
S11333F0B801882777FD8095982F0E94E7266B01F6
S11334007C01ADE3B4E28D919C91801B910BBC01D6
S1133410882777FD8095982F0E94E7262EEA37E4C7
S113342041EE5DE30E949B279B01AC01C701B601FD
S11334300E94E4250E94B426EDE3F4E260837183E4
S1133440A9E5B4E20D911C91EDE5F4E2008311834A
S1133450A5E5B4E28D919C919C01201B310B215375
S1133460384F2F393F4020F4E9E5F4E2808391831B
S1133470B801882777FD8095982F0E94E7266B0175
S11334807C01A9E5B4E28D919C91801B910BBC0158
S1133490882777FD8095982F0E94E7262EEA37E447
S11334A041EE5DE30E949B279B01AC01C701B6017D
S11334B00E94E4250E94B426E9E5F4E26083718366
S11334C0A4EEB3E20D911C91E8EEF3E200831183C4
S11334D0A0EEB3E28D919C919C01201B310B2153F2
S11334E0384F2F393F4020F4E4EEF3E28083918398
S11334F0B801882777FD8095982F0E94E7266B01F5
S11335007C01A4EEB3E28D919C91801B910BBC01D4
S1133510882777FD8095982F0E94E7262EEA37E4C6
S113352041EE5DE30E949B279B01AC01C701B601FC
S11335300E94E4250E94B426E4EEF3E260837183E2
S1133540AAEAB3E20D911C910093AE231093AF232A
S11335500F2EF6EAAF2EF3E2BF2EF02DF501808197
S11335609181BC01882777FD8095982F0E94E726DA
S113357020E030E040EF50E40E949B270E94B426F4
S11335806B017C01D5011D921C92B801882777FD3F
S11335908095982F0E94E7262B013C01C01AD10A7E
S11335A0B601882777FD8095982F0E94E7262EEA9A
S11335B037E441EE5DE30E949B279B01AC01C3010C
S11335C0B2010E94E4250E94B426EAEAF3E2608391
S11335D071830BE314E2D8018D909C9080923F2478
S11335E0909240240F2EF7E3EF2EF4E2FF2EF02DFD
S11335F0F70180819181BC01882777FD8095982F00
S11336000E94E72620E030E040EF50E40E949B2730
S11336100E94B4262B013C01D7011D921C92B401D7
S1133620882777FD8095982F0E94E7266B017C01FF
S113363048185908B201882777FD8095982F0E9471
S1133640E7262EEA37E441EE5DE30E949B279B01C7
S1133650AC01C701B6010E94E4250E94B426F8011A
S11336606083718307E514E2D8018D909C90809269
S11336705B2490925C240F2EF3E5EF2EF4E2FF2EF0
S1133680F02DF70180819181BC01882777FD809519
S1133690982F0E94E72620E030E040EF50E40E949B
S11336A09B270E94B4262B013C01D7011D921C923A
S11336B0B401882777FD8095982F0E94E7266B0137
S11336C07C0148185908B201882777FD8095982F06
S11336D00E94E7262EEA37E441EE5DE30E949B2731
S11336E09B01AC01C701B6010E94E4250E94B426E7
S11336F0F8016083718302EE13E2D8018D909C90EF
S11337008092E6239092E7230F2EFEEDEF2EF3E254
S1133710FF2EF02DF70180819181BC01882777FD70
S11337208095982F0E94E72620E030E040EF50E497
S11337300E949B270E94B4262B013C01D7011D92B5
S11337401C92B401882777FD8095982F0E94E72664
S11337506B017C0148185908B201882777FD8095D0
S1133760982F0E94E7262EEA37E441EE5DE30E949B
S11337709B279B01AC01C701B6010E94E4250E946E
S1133780B426F8016083718349DC0F2EF8E08F2E94
S1133790F6E09F2EF02DD4019C918C912C914C91AC
S11337A0221F2227221F30E0220F331F220F331F34
S11337B096FB992790F999871A86E985FA852E2B25
S11337C03F2B829581708B871C868B859C85880F07
S11337D0991F282B392B45FB442740F94D871E861A
S11337E08D859E85880F991F880F991F880F991FB3
S11337F0282B392B17E1129FC001139F900D112420
S1133800FC01E253FF4D648970E080E090E00E9487
S1133810E52620E030E048EC52E40E944C2669831F
S11338207A838B839C8360936B2470936C24809342
S11338306D2490936E24D4019C918C912C914C9185
S1133840221F2227221F30E0220F331F220F331F93
S113385096FB992790F99F87188AEF85F8892E2B74
S11338603F2B82958170898B1A8A89899A89880F5E
S1133870991F282B392B45FB442740F94B8B1C8A75
S11338808B899C89880F991F880F991F880F991F0E
S1133890282B392B129FC001139F900D1124FC017A
S11338A0E253FF4D658970E080E090E00E94E526D8
S11338B020E030E048EC52E40E944C266B017C018D
S11338C06093F5237093F6238093F7239093F82362
S11338D0D4019C918C912C914C91221F2227221F60
S11338E030E0220F331F220F331F96FB992790F9E4
S11338F09D8B1E8AED89FE892E2B3F2B829581702C
S11339008F8B188E8F89988D880F991F282B392BB0
S113391045FB442740F9498F1A8E898D9A8D880F6B
S1133920991F880F991F880F991F282B392B129FD5
S1133930C001139F900D1124FC01E253FF4D6689D1
S113394070E080E090E00E94E52620E030E048EC62
S113395052E40E944C266D837E838F839887609304
S1133960E4217093E5218093E6219093E72110925E
S1133970B620D4016C915C917C914C919C918C917A
S11339802C91EC91221F2227221F30E0220F331F9B
S1133990220F331F96FB992790F99B8F1C8EAB8DBA
S11339A0BC8D2A2B3B2B829581708D8F1E8E8D8D25
S11339B09E8D880F991F282B392BE5FBEE27E0F904
S11339C0EF8F18A28F8D98A1880F991F880F991FC8
S11339D0880F991F282B392B129FC001139F900D1C
S11339E01124FC01E253FF4DB181BAA319A2771F40
S11339F07727771F872F90E0880F991F880F991FCB
S1133A0066FB662760F96BA31CA2EBA1FCA18E2BBD
S1133A109F2B529551705DA31EA22DA13EA1220F92
S1133A20331F822B932B45FB442740F94FA318A641
S1133A302FA138A5220F331F220F331F220F331F4C
S1133A40822B932B189F9001199F300D1124F9019B
S1133A50E253FF4D2380348029A13AA1222A332A3C
S1133A60ACEAB3E28D919C91281A390AF501848558
S1133A7095859101281B390BC901220F331F8C0135
S1133A80000F111F000F111F000F111F020F131F32
S1133A90C801C1968336910548F0013639E0130711
S1133AA044F4003A46EF14073CF008C000E010E08C
S1133AB005C000E010E002C000E010E0B10188277A
S1133AC077FD8095982F0E94E7264B015C019B01AE
S1133AD0AC0169817A818B819C810E949B270E9421
S1133AE0B4262B013C01A5019401C701B6010E9433
S1133AF09B272AE037ED43EA5CE30E949B27209151
S1133B00B6233091B7234091B8235091B9230E9432
S1133B10E4254B015C016093B6237093B723809333
S1133B20B8239093B92320E030E040EA52E40E94A5
S1133B30972718166CF480E090E0A0EAB2E4809332
S1133B40B6239093B723A093B823B093B92316C098
S1133B5020E030E040EA52ECC501B4010E9448265E
S1133B60882364F480E090E0A0EAB2EC8093B6236A
S1133B709093B723A093B823B093B923C20180389C
S1133B80910514F08FE790E081385FEF950714F406
S1133B9081E89FEFBC01882777FD8095982F0E94CC
S1133BA0E7262091B6233091B7234091B823509152
S1133BB0B9230E94E4254B015C01B801882777FDF5
S1133BC08095982F0E94E7269B01AC016D817E8130
S1133BD08F8198850E949B279B01AC01C501B4018C
S1133BE0F3D70E94B426CB016038710514F08FE737
S1133BF090E0E6EAF3E22486358606871787813863
S1133C006FEF960714F481E89FEF8093BA23E8E0FE
S1133C10F6E06081508170814081908180812081B3
S1133C20E081221F2227221F30E0220F331F220FA0
S1133C30331F96FB992790F999A71AA6A9A5BAA5A7
S1133C402A2B3B2B829581708BA71CA68BA59CA548
S1133C50880F991F282B392BE5FBEE27E0F9EDA7F8
S1133C601EA68DA59EA5880F991F880F991F880FE2
S1133C70991F282B392BF7E1F29FC001F39F900D78
S1133C801124DC01A253BF4D1596EC91E8AB1FA69D
S1133C90771F7727771F872F90E0880F991F880F4A
S1133CA0991F66FB662760F969AB1AAA29A93AA984
S1133CB0822B932B529551705BAB1CAA2BA93CA968
S1133CC0220F331F822B932B45FB442740F94DAB26
S1133CD01EAA2DA93EA9220F331F220F331F220F24
S1133CE0331F822B932BF89F9001F99F300D1124E1
S1133CF0F901E253FF4D278030844FA558A9242AA7
S1133D00352AADE3B4E28D919C91281A390A809149
S1133D10432490914424F101E81BF90B9F01220FE5
S1133D20331F8F01000F111F000F111F000F111FF0
S1133D30020F131FC801C1968336910548F001365E
S1133D40F9E01F0744F4003A26EF12073CF008C0DC
S1133D5000E010E005C000E010E002C000E010E068
S1133D60B101882777FD8095982F0E94E7264B01A3
S1133D705C019B01AC0169817A818B819C810E94E9
S1133D809B27F2D72B013C01A5019401C701B60181
S1133D900E949B272AE037ED43EA5CE30E949B27BD
S1133DA020914724309148244091492450914A2439
S1133DB00BD74B015C016093472470934824809394
S1133DC0492490934A2420E030E040EA52E40E94DF
S1133DD0972718166CF480E090E0A0EAB2E4809390
S1133DE0472490934824A0934924B0934A2415C0AF
S1133DF020E030E040EA52ECC501B40149D7882301
S1133E0064F480E090E0A0EAB2EC809347249093BD
S1133E104824A0934924B0934A24C20180389105D0
S1133E2014F08FE790E081383FEF930714F481E8B2
S1133E309FEFBC01882777FD8095982FC8D72091E4
S1133E404724309148244091492450914A24BCD6B7
S1133E504B015C01B801882777FD8095982FB7D76F
S1133E609B01AC016D817E818F8198850E949B2787
S1133E709B01AC01C501B401A7D676D7CB0160384C
S1133E80710514F08FE790E0E7E3F4E224863586C9
S1133E900687178781384FEF940714F481E89FEF62
S1133EA080934B24E8E0F6E060815081708140818A
S1133EB0908180812081E081221F2227221F30E00F
S1133EC0220F331F220F331F96FB992790F99FABC4
S1133ED018AEAFA9B8AD2A2B3B2B8295817089AF60
S1133EE01AAE89AD9AAD880F991F282B392BE5FBA3
S1133EF0EE27E0F9EBAF1CAE8BAD9CAD880F991F9C
S1133F00880F991F880F991F282B392BF7E1F29FEF
S1133F10C001F39F900D1124DC01A253BF4D1996EB
S1133F20EC91EEAF1DAE771F7727771F872F90E0B8
S1133F30880F991F880F991F66FB662760F96FAF7A
S1133F4021961FAE219721962EAD3FAD2197822B4E
S1133F50932B5295517022965FAF229723961FAEF2
S1133F60239723962EAD3FAD2397220F331F822B29
S1133F70932B45FB442740F924964FAF249725966D
S1133F801FAE259725962EAD3FAD2597220F331FE3
S1133F90220F331F220F331F822B932BF89F900184
S1133FA0F99F300D1124F901E253FF4D2384348429
S1133FB04DAD5EAD242A352AA9E5B4E28D919C91DC
S1133FC0281A390A80915F2490916024F101E81B3A
S1133FD0F90B9F01220F331F8F01000F111F000FD8
S1133FE0111F000F111F020F131FC801C196833642
S1133FF0910548F00136F9E01F0744F4003A26EF32
S113400012073CF008C000E010E005C000E010E03A
S113401002C000E010E0B101882777FD8095982F59
S1134020D6D64B015C019B01AC0169817A818B81FD
S11340309C8181D799D62B013C01A5019401C7012C
S1134040B60179D72AE037ED43EA5CE374D72091CF
S11340506324309164244091652450916624B4D53E
S11340604B015C0160936324709364248093652402
S11340709093662420E030E040EA52E458D71816C2
S11340806CF480E090E0A0EAB2E48093632490931F
S11340906424A0936524B093662415C020E030E026
S11340A040EA52ECC501B401F3D5882364F480E0FE
S11340B090E0A0EAB2EC8093632490936424A093EC
S11340C06524B0936624C2018038910514F08FE70B
S11340D090E081383FEF930714F481E89FEFBC012F
S11340E0882777FD8095982F72D62091632430918C
S11340F06424409165245091662466D54B015C018B
S1134100B801882777FD8095982F61D69B01AC0173
S11341106D817E818F8198850ED79B01AC01C5018D
S1134120B40152D521D6CB016038710514F08FE764
S113413090E0E3E5F4E22486358606871787813824
S11341404FEF940714F481E89FEF80936724E8E02D
S1134150F6E060815081708140819081808120816E
S1134160E081221F2227221F30E0220F331F220F5B
S1134170331F96FB992790F926969FAF269727968B
S11341801FAE27972796AEADBFAD27972A2B3B2BA3
S11341908295817028968FAF289729961FAE29970C
S11341A029968EAD9FAD2997880F991F282B392BFF
S11341B0E5FBEE27E0F92A96EFAF2A972B961FAE80
S11341C02B972B968EAD9FAD2B97880F991F880F39
S11341D0991F880F991F282B392BF7E1F29FC001F3
S11341E0F39F900D1124DC01A253BF4D1D96EC9159
S11341F02D96EFAF2D972C961FAE2C97771F772710
S1134200771F872F90E0880F991F880F991F66FBEF
S1134210662760F92E966FAF2E972F961FAE2F97B5
S11342202F962EAD3FAD2F97822B932B5295517025
S113423060965FAF609761961FAE619761962EADF1
S11342403FAD6197220F331F822B932B45FB4427ED
S113425040F962964FAF629763961FAE6397639679
S11342602EAD3FAD6397220F331F220F331F220F52
S1134270331F822B932BF89F9001F99F300D11244B
S1134280F901E253FF4D278430882D964EAD5FAD82
S11342902D97242A352AA4EEB3E28D919C91281AF5
S11342A0390A8091EA239091EB23F101E81BF90B81
S11342B09F01220F331F8F01000F111F000F111FC9
S11342C0000F111F020F131FC801C19683369105F9
S11342D048F00136F9E01F0744F4003A26EF1207CC
S11342E03CF008C000E010E005C000E010E002C0AF
S11342F000E010E0B101882777FD8095982F67D5FD
S11343004B015C019B01AC0169817A818B819C81A9
S113431012D62AD52B013C01A5019401C701B6018F
S11343200AD62AE037ED43EA5CE305D62091EE2372
S11343303091EF234091F0235091F12345D46B0148
S11343407C016093EE237093EF238093F02390938A
S1134350F12320E030E040EA52E4E9D518166CF489
S113436080E090E0A0EAB2E48093EE239093EF2300
S1134370A093F023B093F12315C020E030E040EA8D
S113438052ECC701B60184D4882364F480E090E041
S1134390A0EAB2EC8093EE239093EF23A093F02352
S11343A0B093F123C2018038910514F08FE790E0B7
S11343B081383FEF930714F481E89FEFBC0188270D
S11343C077FD8095982F03D52091EE233091EF232C
S11343D04091F0235091F123F7D36B017C01B80194
S11343E0882777FD8095982FF2D49B01AC016D81CD
S11343F07E818F8198859FD59B01AC01C701B60151
S1134400E3D3B2D4CB016038710514F08FE790E0A8
S1134410EEEDF3E2248635860687178781384FEF61
S1134420940714F481E89FEF8093F2236AE280EA10
S11344309BE00E94770E6EE780EA9BE00E94770E75
S113444062E380EA9BE00E94770E62E380EA9BE0ED
S11344500E94770E62E380EA9BE00E94770E62E39B
S113446080EA9BE00E94770E8091F3239091F423DD
S1134470009719F0019739F00BC063E280EA9BE0E2
S11344800E94770E05C064E280EA9BE00E94770EEA
S1134490E0E6F6E088E0878380E287832FB7F8942C
S11344A0E0E0F2E084A195A12FBF8093BB2090931C
S11344B0BC20893D94403CF4E0E4F6E080E485834C
S11344C084E0858306C0E0E4F6E080E4868384E04B
S11344D08683E0E0F6E0808582FF03C08FEF90E002
S11344E002C080E090E0E8E0F6E030812081408185
S11344F06081441F4427441F50E0440F551F440F5C
S1134500551F36FB332730F964963FAF64976596A1
S11345101FAE65976596AEADBFAD65974A2B5B2B15
S11345202295217066962FAF669767961FAE6797A0
S113453067962EAD3FAD6797220F331F422B532B47
S113454065FB662760F968966FAF689769961FAE3A
S1134550699769962EAD3FAD6997220F331F220FDD
S1134560331F220F331F422B532B67E1649F9001AB
S1134570659F300D1124F901E253FF4D2189822BEF
S1134580892B59F0E0E6F6E08085882334F081E059
S113459090E08093BF209093C020E8E0F6E0908103
S11345A0808120814081221F2227221F30E0220F98
S11345B0331F220F331F96FB992790F96A969FAFFA
S11345C06A976B961FAE6B976B96EEADFFAD6B97CC
S11345D02E2B3F2B829581706C968FAF6C976D96C6
S11345E01FAE6D976D968EAD9FAD6D97880F991F19
S11345F0282B392B45FB442740F96E964FAF6E9715
S11346006F961FAE6F976F968EAD9FAD6F97880FA5
S1134610991F880F991F880F991F282B392B47E161
S1134620429FC001439F900D1124FC01E253FF4DB2
S11346308289882359F0E0E6F6E08085882334F007
S113464081E090E08093BD209093BE2090919E23C2
S113465080919F239093BC238093BD239093BE238A
S11346608093BF239093C0238093C1239093C2234C
S11346708093C323AAEAB3E29C918091AB239093E5
S1134680C4238093C523EBE3F4E28081918180937A
S1134690C6239093C723E7E5F4E280819181809358
S11346A0C8239093C923E2EEF3E280819181809341
S11346B0CA239093CB238091BB209091BC209595E5
S11346C087959595879595958795959587958093E5
S11346D0CC2360E270E08CEB93E232D221D1000073
S11346E00C9499191F920F920FB60F92112408B6C9
S11346F00F9218BE0BB60F921BBE2F938F939F93EE
S1134700EF93FF932091A00B8091B4209091B5205A
S11347108230910539F12CF4009749F00197A9F002
S113472062C08330910571F10497A9F15CC02A320B
S113473009F059C084E0E0E6F6E0878381E090E088
S11347408093B4209093B5204EC0822F90E0809344
S11347506F249093702482E090E08093B42090932F
S1134760B52041C080916F2490917024922B809346
S11347706F249093702483E090E08093B42090930E
S1134780B52031C02093032484E090E08093B420CA
S11347909093B52028C0233211F5209103242230B0
S11347A019F0233051F011C080916F24909170243E
S11347B0809355249093562408C080916F2490913F
S11347C070248093E0239093E12380916F2490914F
S11347D0702480939E2390939F232093042210920D
S11347E0B4201092B520FF91EF919F918F912F915A
S11347F00F900BBE0F9008BE0F900FBE0F901F902E
S113480018951F920F920FB60F92112408B60F92AB
S113481018BE0BB60F921BBE2F938F939F93EF93EB
S1134820FF932091B00B8091B2209091B3208230FD
S1134830910539F12CF4009749F00197A9F062C071
S11348408330910571F10497A9F15CC02A3209F013
S113485059C080E2E0E6F6E0878381E090E080934F
S1134860B2209093B3204EC0822F90E080934C24CA
S113487090934D2482E090E08093B2209093B320F3
S113488041C080914C2490914D24922B80934C24D0
S113489090934D2483E090E08093B2209093B320D2
S11348A031C02093032484E090E08093B22090935D
S11348B0B32028C0233211F520910324222319F0B8
S11348C0213051F011C080914C2490914D2480935B
S11348D0A8239093A92308C080914C2490914D243F
S11348E08093392490933A2480914C2490914D24C0
S11348F080939E2390939F23209304221092B220AE
S11349001092B320FF91EF919F918F912F910F906F
S11349100BBE0F9008BE0F900FBE0F901F901895FE
S1134920E0E8F6E082E0868385838AE68A95F1F7FB
S113493000C082E086830895E0ECFAE083838281FC
S11349408823ECF7E0ECFAE0838108951F93CF937A
S1134950DF93C0E8D6E010E11E83EEDF8FEFECDFDB
S11349601D83DF91CF911F910895FF920F931F93A1
S1134970CF93DF93F62EC0E8D6E010E11E83DCDF90
S1134980082F8F2DD9DF1D83802FDF91CF911F91A9
S11349900F91FF900895682F6F7785E2E6CF089511
S11349A0CF93C82F682F84E2E0DF6C2F81E2DDDF34
S11349B0CF91089563E083E2D8CF089560E787E25A
S11349C0D4CF0895DF92EF92FF920F931F93CF936A
S11349D0DF937B018A0190E1E0E8F6E09683ACDFA7
S11349E0D82E101611064CF4E7010E0D1F1D8FEF83
S11349F0A3DF8993C017D107D1F780E1E0E8F6E09F
S1134A0085838D2DDF91CF911F910F91FF90EF90B2
S1134A10DF900895AB01BC0181E6D4CF0895DF9205
S1134A20EF92FF920F931F93CF93DF937B018A0141
S1134A3090E1E0E8F6E096837FDFD82E10161106A9
S1134A4044F4E7010E0D1F1D899176DFC017D107CD
S1134A50D9F780E1E0E8F6E085838D2DDF91CF91F1
S1134A601F910F91FF90EF90DF900895EF92FF92C6
S1134A700F931F93CF93DF93F82EEB018A01E22E5D
S1134A8082E064DF41E050E00F2C02C0440F551F68
S1134A900A94E2F7682F642B82E267DF81E18F0DCD
S1134AA06E2D806262DF8AE08F0DA801BE018062F4
S1134AB0B6DFDF91CF911F910F91FF90EF90089592
S1134AC0AB01BC0180E3ABCF0895CF92DF92EF92AC
S1134AD0FF920F931F93CF93DF93F82ED62E142FAC
S1134AE0E90180E05DDF61E081E23FDF6FE484E2C1
S1134AF03CDF1160612F6C2986E237DF802F5ADF9B
S1134B00112707FD10952E2DA801BE0180E0AEDF10
S1134B108D2D41DFB801CE01D3DF6F2D6A6080E2B5
S1134B2024DF8FED9EE20197F1F700C00000DF91D2
S1134B30CF911F910F91FF90EF90DF90CF90089548
S1134B40AB01BC0180EA6BCF08951F93CF93DF9331
S1134B50C0E8D6E010E11E8381EEEEDE1D83DF9116
S1134B60CF911F9108951F93CF93DF93C0E8D6E0B0
S1134B7010E11E8382EEE0DE1D83DF91CF911F9151
S1134B800895A1E21A2EAA1BBB1BFD010DC0AA1F8A
S1134B90BB1FEE1FFF1FA217B307E407F50720F0A2
S1134BA0A21BB30BE40BF50B661F771F881F991F1D
S1134BB01A9469F760957095809590959B01AC0166
S1134BC0BD01CF0108955058BB27AA270ED075C147
S1134BD066D130F06BD120F031F49F3F11F41EF414
S1134BE05BC10EF4E095E7FB51C1E92F77D180F367
S1134BF0BA17620773078407950718F071F49EF5D6
S1134C008FC10EF4E0950B2EBA2FA02D0B01B90124
S1134C1090010C01CA01A0011124FF27591B99F02E
S1134C20593F50F4503E68F11A16F040A22F232F3A
S1134C30342F4427585FF3CF469537952795A7958A
S1134C40F0405395C9F77EF41F16BA0B620B730B31
S1134C50840BBAF09150A1F0FF0FBB1F661F771FA2
S1134C60881FC2F70EC0BA0F621F731F841F48F457
S1134C70879577956795B795F7959E3F08F0B3CFDD
S1134C809395880F08F09927EE0F979587950895C7
S1134C90D9D008F481E008950CD00FC107D140F0B9
S1134CA0FED030F021F45F3F19F0F0C0511139C14A
S1134CB0F3C014D198F39923C9F35523B1F3951B89
S1134CC0550BBB27AA2762177307840738F09F5F29
S1134CD05F4F220F331F441FAA1FA9F333D00E2E98
S1134CE03AF0E0E830D091505040E695001CCAF705
S1134CF029D0FE2F27D0660F771F881FBB1F2617CA
S1134D0037074807AB07B0E809F0BB0B802DBF019C
S1134D10FF2793585F4F2AF09E3F510568F0B6C0B5
S1134D2000C15F3FECF3983EDCF386957795679579
S1134D30B795F7959F5FC9F7880F911D969587954D
S1134D4097F90895E1E0660F771F881FBB1F62176C
S1134D5073078407BA0720F0621B730B840BBA0B2A
S1134D60EE1F88F7E095089504D06894B111D9C076
S1134D700895BCD088F09F5790F0B92F9927B75168
S1134D80A0F0D1F0660F771F881F991F1AF0BA950B
S1134D90C9F712C0B13081F0C3D0B1E00895C0C0EA
S1134DA0672F782F8827B85F39F0B93FCCF3869501
S1134DB077956795B395D9F73EF49095809570955E
S1134DC061957F4F8F4F9F4F0895E89409C097FBDB
S1134DD03EF490958095709561957F4F8F4F9F4FCE
S1134DE09923A9F0F92F96E9BB279395F695879512
S1134DF077956795B795F111F8CFFAF4BB0F11F4D5
S1134E0060FF1BC06F5F7F4F8F4F9F4F16C088237B
S1134E1011F096E911C0772321F09EE8872F762FB1
S1134E2005C0662371F096E8862F70E060E02AF0F2
S1134E309A95660F771F881FDAF7880F96958795DE
S1134E4097F90895990F0008550FAA0BE0E8FEEFB3
S1134E5016161706E807F907C0F012161306E4073A
S1134E60F50798F0621B730B840B950B39F40A2633
S1134E7061F0232B242B252B21F408950A2609F411
S1134E80A140A6958FEF811D811D089597F99F6715
S1134E9080E870E060E008959FEF80EC08950024BE
S1134EA00A941616170618060906089500240A948B
S1134EB012161306140605060895092E0394000C11
S1134EC011F4882352F0BB0F40F4BF2B11F460FFA0
S1134ED004C06F5F7F4F8F4F9F4F089557FD9058C9
S1134EE0440F551F59F05F3F71F04795880F97FBAA
S1134EF0991F61F09F3F79F0879508951216130664
S1134F001406551FF2CF4695F1DF08C01616170692
S1134F101806991FF1CF86957105610508940895C7
S1134F20E894BB2766277727CB0197F908958ADF92
S1134F3008F48FEF08950BD0C0CFB1DF28F0B6DFAF
S1134F4018F0952309F0A2CFA7CF1124EACFC6DF2A
S1134F50A0F3959FD1F3950F50E0551F629FF00188
S1134F60729FBB27F00DB11D639FAA27F00DB11DE1
S1134F70AA1F649F6627B00DA11D661F829F22276A
S1134F80B00DA11D621F739FB00DA11D621F839FF1
S1134F90A00D611D221F749F3327A00D611D231FC7
S1134FA0849F600D211D822F762F6A2F11249F5715
S1134FB050408AF0E1F088234AF0EE0FFF1FBB1F38
S1134FC0661F771F881F91505040A9F79E3F5105D7
S1134FD070F05CCFA6CF5F3FECF3983EDCF3869590
S1134FE077956795B795F795E7959F5FC1F7FE2B82
S1134FF0880F911D9695879597F908950F931F93A0
S1135000CF93DF93CDB7DEB72E97CDBFDEBF0E892A
S11350101F8986E08C8309831A838FEF9FE78D8332
S11350209E83AE01465E5F4F688D798DCE010196F9
S11350300DD0EF81F885E00FF11F10822E96CDBFC1
S1135040DEBFDF91CF911F910F9108952F923F9270
S11350504F925F926F927F928F929F92AF92BF9284
S1135060CF92DF92EF92FF920F931F93CF93DF9330
S1135070CDB7DEB72C97CDBFDEBF7C016B018A01B3
S1135080FC0116821782838181FFB0C1CE01019693
S11350904C01F7019381F60193FD859193FF819172
S11350A06F01882309F49EC1853239F493FD8591FB
S11350B093FF81916F01853221F4B70190E0C4D14F
S11350C0E8CF512C312C20E02032A0F48B3269F04F
S11350D030F4803259F0833269F420612CC08D326F
S11350E039F0803339F4216026C02260246023C063
S11350F0286021C027FD27C030ED380F3A3078F4FE
S113510026FF06C0FAE05F9E300D1124532E13C013
S11351108AE0389E300D1124332E20620CC08E326A
S113512021F426FD5FC1206406C08C3611F420688A
S113513002C0883641F4F60193FD859193FF819175
S11351406F018111C1CF982F9F7D9554933028F41E
S11351500C5F1F4FFFE3F9830DC0833631F08337B3
S113516071F0833509F057C021C0F801808189832B
S11351700E5F1F4F44244394512C540114C0380132
S1135180F2E06F0E711CF801A080B18026FF03C00D
S1135190652D70E002C06FEF7FEFC5012C8749D108
S11351A02C0183012C852F77222E16C03801F2E0C2
S11351B06F0E711CF801A080B18026FF03C0652D1D
S11351C070E002C06FEF7FEFC5012C8727D12C015F
S11351D02C852068222E830123FC19C0832D90E0A6
S11351E048165906A0F4B70180E290E02DD13A9414
S11351F0F5CFF50127FC859127FE81915F01B70169
S113520090E022D131103A94F1E04F1A5108411440
S1135210510479F7DEC0843611F0893631F5F8018E
S113522027FF07C060817181828193810C5F1F4FCA
S113523008C060817181882777FD8095982F0E5F63
S11352401F4F2F76B22E97FF09C0909580957095C9
S113525061957F4F8F4F9F4F2068B22E2AE030E038
S1135260A40124D1A82EA81843C0853729F42F7E81
S1135270B22E2AE030E025C0F22FF97FBF2E8F3600
S1135280C1F018F4883579F0ADC0803719F088374B
S113529021F0A8C02F2F2061B22EB4FE0DC08B2D9B
S11352A08460B82E09C024FF0AC09F2F9660B92ECF
S11352B006C028E030E005C020E130E002C020E173
S11352C032E0F801B7FE07C0608171818281938169
S11352D00C5F1F4F06C06081718180E090E00E5F1B
S11352E01F4FA401E3D0A82EA818FB2DFF77BF2ED3
S11352F0B6FE0BC02B2D2E7FA51450F4B4FE0AC0AD
S1135300B2FC08C02B2D2E7E05C07A2C2B2D03C099
S11353107A2C01C0752C24FF0DC0FE01EA0DF11D8D
S11353208081803311F4297E09C022FF06C0739462
S1135330739404C0822F867809F0739423FD12C0FD
S113534020FF06C05A2C731418F4530C5718732CEE
S1135350731460F4B70180E290E02C8775D07394E5
S11353602C85F6CF731410F4371801C0312C24FFA8
S113537011C0B70180E390E02C8766D02C8522FF12
S113538016C021FF03C088E590E002C088E790E0E2
S1135390B7010CC0822F867851F021FD02C080E253
S11353A001C08BE227FD8DE2B70190E04DD0A5143A
S11353B030F4B70180E390E047D05A94F8CFAA9430
S11353C0F401EA0DF11D8081B70190E03DD0A110F8
S11353D0F6CF332009F45DCEB70180E290E034D0FB
S11353E03A94F7CFF7018681978102C08FEF9FEF40
S11353F02C96CDBFDEBFDF91CF911F910F91FF900F
S1135400EF90DF90CF90BF90AF909F908F907F9060
S11354106F905F904F903F902F900895FC010590FE
S1135420615070400110D8F7809590958E0F9F1FA2
S11354300895FC016150704001900110D8F78095E7
S113544090958E0F9F1F08950F931F93CF93DF9313
S1135450182F092FEB018B8181FD03C08FEF9FEF84
S113546020C082FF10C04E815F812C813D81421794
S113547053077CF4E881F9819F012F5F3F4F288314
S11354803983108306C0E885F985812F1995892B06
S113549029F72E813F812F5F3F4F2E833F83812F3A
S11354A0902FDF91CF911F910F910895FA01AA27B0
S11354B0283051F1203181F1E8946F936E7F6E5F53
S11354C07F4F8F4F9F4FAF4FB1E03ED0B4E03CD001
S11354D0670F781F891F9A1FA11D680F791F8A1FE4
S11354E0911DA11D6A0F711D811D911DA11D20D04B
S11354F009F468943F912AE0269F11243019305D05
S11355003193DEF6CF010895462F4770405D4193F5
S1135510B3E00FD0C9F7F6CF462F4F70405D4A3342
S113552018F0495D31FD4052419302D0A9F7EACF0A
S1135530B4E0A6959795879577956795BA95C9F739
S113554000976105710508959B01AC010A2E06942C
S11355505795479537952795BA95C9F7620F731FE5
S10F5560841F951FA01D0895F894FFCF30
S113556C10100011223344557B0060003D0075007F
S113557C660057005F0063007F0077002F005E0019
S113558C1B007C001F000F00040000000100000041
S113559C01000000010000000100000048616C6C77
S11355AC3A2025316400454E433A202531640048A5
S11155BC3A202531640025642C25640D00007E
S9030000FC
