S00D000062617365312E737265634B
S1130000F9C000001DC100000C94423019C1000069
S113001017C1000015C1000013C1000011C1000088
S11300200FC100000DC100000BC1000009C1000098
S113003007C1000005C100000C949A0C0C94CF0C6D
S11300400C94040D0C94390D0C946E0D0C94A30DAA
S11300500C94D80D0C940D0E0C94420E0C94770E47
S1130060EFC00000EDC00000EBC00000E9C00000DC
S1130070E7C00000E5C00000E3C00000E1C00000EC
S1130080DFC00000DDC00000DBC00000D9C00000FC
S1130090D7C00000D5C00000D3C00000D1C000000C
S11300A0CFC00000CDC00000CBC000000C94C0281D
S11300B0C7C00000C5C00000C3C000000C94891074
S11300C00C94BE100C94F3100C9428110C945D1134
S11300D00C9492110C94C7110C94FC110C943112D1
S11300E00C946612ADC00000ABC00000A9C00000B3
S11300F0A7C00000A5C00000A3C00000A1C000006C
S11301009FC000009DC000009BC0000099C000007B
S113011097C0000095C0000093C0000091C000008B
S11301208FC000008DC000008BC0000089C000009B
S113013087C000000C94332E0C94AC0E0C94E10E8A
S11301400C94160F0C944B0F0C94800F0C94B50F59
S11301500C94EA0F0C941F100C94541071C00000FE
S11301606FC000006DC000006BC0000069C00000DB
S113017067C0000065C000000C94F02F0C946B3035
S11301800C9419300C9494305BC0000059C00000EA
S11301900C94F43055C0000053C0000051C000005E
S11301A00C94E22F4DC000004BC0000049C0000079
S11301B00C949B120C94D0120C9405130C943A13C7
S11301C00C946F130C94A4130C94D9130C940E1464
S11301D00C9443140C94781433C000000C94023132
S11301E02FC000002DC000002BC0000029C000005B
S11301F027C0000011241FBECFEFDFE3DEBFCDBF59
S113020000E00CBF18BE19BE1ABE1BBE11E2A0E06E
S1130210B0E2E0E8FBE600E00BBF02C007900D92FD
S1130220A035B107D9F71BBE15E2A0E5B1E201C0C4
S11302301D92A633B107E1F70E94A7170C94BE35AF
S1130240DFCEA0E0B0E0E7E2F1E00C94D332EC01C1
S11302504B01FA018881823008F43EC1DB019C9194
S1130260923008F436C1843059F4943009F034C122
S1130270998111968C911197981709F027C12CC177
S1130280943009F426C19230A9F4823009F024C1D3
S1130290CE0128E0DC010D90CD01DA010D92AD0113
S11302A02150C1F7D40111968C911197998189231A
S11302B0818311C1823009F40CC1AA80BB80DB01A7
S11302C012964D915C911397CC80DD80EE80FF8077
S11302D014960D911D912D913C911797C501841B86
S11302E0950BDC0197FF04C0AA27BB27A81BB90BF9
S11302F0A032B1050CF067C01816190684F5280160
S113030039010A2E04C076946794579447940A944A
S1130310D2F741E050E060E070E004C0440F551FA4
S1130320661F771FAA95D2F7415050406040704035
S1130330402351236223732381E090E0A0E0B0E0E6
S1130340411551056105710519F480E090E0DC0167
S11303508C019D0104291529262937293FC00097BE
S1130360E9F1AA0EBB1E260137010A2E04C07694B9
S11303706794579447940A94D2F741E050E060E0C0
S113038070E004C0440F551F661F771FAA95D2F76B
S113039041505040604070404C215D216E217F21CE
S11303A081E090E0A0E0B0E04115510561057105E0
S11303B019F480E090E0DC016C017D01C428D528AB
S11303C0E628F7280BC04A155B0524F400E010E08A
S11303D0980104C05A01CC24DD2476018981D4011A
S11303E011969C911197891709F445C0882329F027
S11303F00C191D092E093F0908C0D701C601801B2D
S1130400910BA20BB30B8C019D0137FD04C011822B
S1130410A282B3820BC081E08183A282B382309531
S11304202095109501951F4F2F4F3F4F048315833F
S1130430268337830DC0880F991FAA1FBB1F84838F
S11304409583A683B7838281938101978283938363
S113045084819581A681B781AC01BD014150504092
S1130460604070404F3F2FEF52072FEF62072FE39A
S1130470720708F30BC08183A282B3820C0D1D1D89
S11304802E1D3F1D048315832683378383E08083D9
S1130490448155816681778177FF1DC0DB01CA01E4
S11304A081709070A070B070769567955795479558
S11304B0842B952BA62BB72B84839583A683B78394
S11304C08281938101968283938305C0CCE0D0E23C
S11304D003C0E40101C0EF01CE01CDB7DEB7E0E116
S11304E00C94EC32A0E2B0E0E8E7F2E00C94E132E4
S11304F0DC01CB018D839E83AF83B88729833A8344
S11305004B835C83CE010596BE01675E7F4FB4D4F6
S1130510CE010196BE016F5E7F4FAED4CE014996E7
S1130520BE016F5E7F4FAE01475F5F4F8ADECDD362
S1130530462F572F682F792FCB01BA01A096E2E0FE
S11305400C94FA32A0E2B0E0E8EAF2E00C94E13272
S1130550DC01CB018D839E83AF83B88729833A83E3
S11305604B835C83CE010596BE01675E7F4F84D4C6
S1130570CE010196BE016F5E7F4F7ED48A8991E0E1
S113058089278A8BCE014996BE016F5E7F4FAE01EB
S1130590475F5F4F56DE99D3462F572F682F792F29
S11305A0CB01BA01A096E2E00C94FA32A0E2B0E0EA
S11305B0ECEDF2E00C94D332DC01CB018D839E830D
S11305C0AF83B88729833A834B835C83CE01059636
S11305D0BE01675E7F4F50D4CE010196BE016F5EAF
S11305E07F4F4AD4998D923078F089898230C0F057
S11305F0943019F4823041F4CAC0843019F4923032
S113060079F4C5C0923051F481E02A8D9A89291772
S113061009F480E08A8FCE014996BBC0823051F440
S113062081E02A8D9A89291709F480E08A8BCE010A
S11306304196AFC04D8C5E8C6F8C78A00D891E895D
S11306402F89388DE0E2F0E040E050E0BA018824E0
S113065099245401CC24DD247601C2018170907068
S11306600097D1F0C00ED11EE21EF31EDB01CA01B9
S1130670880D991DAA1DBB1D41E050E060E070E0AB
S1130680C016D106E206F30618F040E050E0BA01C5
S1130690480F591F6A1F7B1F880C991CAA1CBB1C7E
S11306A037FF08C081E090E0A0E0B0E0882A992AF2
S11306B0AA2ABB2A000F111F221F331F76946794A6
S11306C057944794319749F68B8D9C8D2B893C899F
S11306D0820F931F02968B879C8781E02A8D9A89CB
S11306E0291709F480E08A872B853C8517C0CA0145
S11306F081709070009761F0F694E794D794C79452
S113070080E090E0A0E0B0E8C82AD92AEA2AFB2ACF
S113071076956795579547952F5F3F4F77FDE7CFC0
S1130720C9010BC0440F551F661F771FF7FC4160BA
S1130730CC0CDD1CEE1CFF1C01974030A0E05A07D6
S1130740A0E06A07A0E47A0768F38B879C87DB0143
S1130750CA018F779070A070B07080349105A105A4
S1130760B10561F447FD0AC0C114D104E104F104E8
S113077029F0405C5F4F6F4F7F4F40784D875E8715
S11307806F87788B83E08987CE01099602C08CE05D
S113079090E29BD2462F572F682F792FCB01BA01B5
S11307A0A096E0E10C94EC32A8E1B0E0EAEDF3E0CD
S11307B00C94DB32DC01CB018D839E83AF83B8873D
S11307C029833A834B835C83CE010596BE016F5E19
S11307D07F4F52D3CE010196BE01675F7F4F4CD34A
S11307E09989923008F475C08985823008F474C000
S11307F02A893A8523272A8B943011F0923021F4E8
S1130800981709F066C06BC0843039F41D8A1E8ABB
S11308101F8A188E1B8A1C8A5CC0823019F484E0FB
S1130820898B57C02B893C898B859C85281B390B68
S11308302B8B3C8B8D899E89AF89B88DCD84DE84CA
S1130840EF84F8888C159D05AE05BF0540F4880F2C
S1130850991FAA1FBB1F215030402B8B3C8BEFE10B
S1130860F0E000E010E020E030E440E050E0BA01C5
S11308708C159D05AE05BF0540F0402B512B622B16
S1130880732B8C199D09AE09BF09369527951795C9
S11308900795880F991FAA1FBB1F319749F78A0133
S11308A09B010F7710702070307000341105210502
S11308B0310559F447FD09C00097A105B10529F098
S11308C0405C5F4F6F4F7F4F40784D8B5E8B6F8BDB
S11308D0788FCE01419605C0CE01099602C08CE006
S11308E090E2F3D1462F572F682F792FCB01BA010D
S11308F06896E8E00C94F432A8E1B0E0E2E8F4E0B1
S11309000C94E132DC01CB018D839E83AF83B887E5
S113091029833A834B835C83CE010596BE016F5EC7
S11309207F4FAAD2CE010196BE01675F7F4FA4D24A
S11309308989823050F08985823038F0CE01419621
S1130940BE01675F7F4F01D301C08FEF6896E2E07D
S11309500C94FA32A8E1B0E0E0EBF4E00C94E1325C
S1130960DC01CB018D839E83AF83B88729833A83CF
S11309704B835C83CE010596BE016F5E7F4F7CD2B4
S1130980CE010196BE01675F7F4F76D2898982309E
S113099050F08985823038F0CE014196BE01675F00
S11309A07F4FD3D201C081E06896E2E00C94FA3222
S11309B0CF92DF92EF92FF92CF93DF93CDB7DEB762
S11309C02897CDBFDEBF6B017C0183E08983D7010B
S11309D0C6018827B7FD83959927AA27BB27282F07
S11309E08A83C114D104E104F10419F482E08983F7
S11309F034C08EE190E08B839C83222389F080E0D5
S1130A00C81680E0D80680E0E80680E8F80649F1D8
S1130A10F094E094D094C094C11CD11CE11CF11C4E
S1130A20CD82DE82EF82F886C701B601FBD0019742
S1130A301816190694F4082E04C0CC0CDD1CEE1C08
S1130A40FF1C0A94D2F7CD82DE82EF82F8862EE173
S1130A5030E0281B390B2B833C83CE01019635D122
S1130A6004C060E070E080E09FEC382F292F862FCF
S1130A70972FA32FB22FBC01CD012896CDBFDEBF87
S1130A80DF91CF91FF90EF90DF90CF900895ACE08D
S1130A90B0E0EDE4F5E00C94DF32DC01CB018983B6
S1130AA09A83AB83BC83CE010196BE016B5F7F4FFB
S1130AB0E3D18D81823069F1823058F1843039F08C
S1130AC02F81388537FD25C02F31310544F08E81C3
S1130AD0882319F100E010E020E030E822C08EE124
S1130AE090E0821B930B09851A852B853C8504C0F5
S1130AF036952795179507958A95D2F78E81882381
S1130B0081F030952095109501951F4F2F4F3F4F41
S1130B1008C000E010E0980104C00FEF1FEF2FEFB2
S1130B203FE7B801C9012C96E4E00C94F832A8E040
S1130B30B0E0EDE9F5E00C94DB326B017C011A8244
S1130B40611571058105910519F482E089835DC001
S1130B5083E089830EE110E00B831C83CD82DE8267
S1130B60EF82F886C701B6015DD09C012150304068
S1130B7037FF38C0EE27FF27E21BF30B81E090E03C
S1130B80A0E0B0E00E2E04C0880F991FAA1FBB1F5F
S1130B900A94D2F70197A109B1098C219D21AE21B4
S1130BA0BF2141E050E060E070E00097A105B1058D
S1130BB019F440E050E0BA0104C0F694E794D794E5
S1130BC0C794EA95D2F7C42AD52AE62AF72ACD8211
S1130BD0DE82EF82F8868EE190E0821B930B8B839A
S1130BE09C8313C02115310581F0022E04C0CC0C66
S1130BF0DD1CEE1CFF1C0A94D2F7CD82DE82EF824C
S1130C00F886021B130B0B831C83CE0101965DD067
S1130C10462F572F682F792FCB01BA012896E8E089
S1130C200C94F432CF92DF92EF92FF920F931F93C2
S1130C308B019C01003080E0180781E0280780E0E8
S1130C40380750F40F3F11052105310509F088F4E8
S1130C5080E090E0DC0116C00030E0E01E07E0E038
S1130C602E07E1E03E0750F480E190E0A0E0B0E020
S1130C7009C088E090E0A0E0B0E004C088E190E022
S1130C80A0E0B0E040E250E060E070E0481B590BA7
S1130C906A0B7B0B6801790104C0F694E794D7943E
S1130CA0C7948A95D2F7D701C6018C5E9F4DFC018B
S1130CB08081481B510961097109CA011F910F9173
S1130CC0FF90EF90DF90CF900895CF92DF92EF9254
S1130CD0FF920F931F93DC0114964D915D916D91DA
S1130CE07C9117971196EC9111978C91823020F496
S1130CF060618FEF90E0A5C0843009F49DC082301C
S1130D0009F494C0411551056105710509F491C0B8
S1130D1012968D919C9113972FEF823892070CF0C5
S1130D2059C022E83FEF281B390B2A31310564F5FD
S1130D306A017B01022E04C0F694E794D794C79409
S1130D400A94D2F781E090E0A0E0B0E004C0880FFC
S1130D50991FAA1FBB1F2A95D2F70197A109B109B0
S1130D6084239523A623B72341E050E060E070E09C
S1130D700097A105B10519F440E050E0BA014C29EF
S1130D805D296E297F2903C040E050E0BA01DB01F0
S1130D90CA018F779070A070B07080349105A1055E
S1130DA0B10539F447FF09C0405C5F4F6F4F7F4F77
S1130DB004C0415C5F4F6F4F7F4F81E090E0403053
S1130DC020E0520720E0620720E4720738F580E053
S1130DD090E024C0803891057CF58A019B010F774F
S1130DE0107020703070003411052105310539F47C
S1130DF047FF09C0405C5F4F6F4F7F4F04C0415CA9
S1130E005F4F6F4F7F4F77FD03C081589F4F06C0E0
S1130E10769567955795479580589F4F97E07695B7
S1130E206795579547959A95D1F70BC080E090E068
S1130E3005C080E090E005C08FEF90E040E050E016
S1130E40BA01982F979599279795A62FAF77E7958D
S1130E50EE27E79586953A2F392B282F2E2B842FB2
S1130E60952FA32FB22FBC01CD011F910F91FF909D
S1130E70EF90DF90CF900895DC01FB014C91119627
S1130E805C91119712968C911297682F6F7770E08E
S1130E90982F991F9927991F13962C911397822F96
S1130EA0880F892B90E0221F2227221F218300977D
S1130EB039F5411551056105710511F482E029C028
S1130EC082E89FEF8283938327E0440F551F661FB8
S1130ED0771F2A95D1F783E0808309C0440F551FFB
S1130EE0661F771F828193810197828393834030A9
S1130EF080E0580780E0680780E4780778F320C032
S1130F008F3F910579F4411551056105710519F477
S1130F1084E08083089564FF03C081E0808310C06F
S1130F2010820EC08F5790408283938383E0808326
S1130F3087E0440F551F661F771F8A95D1F77064A9
S1130F4044835583668377830895CF93FC01DB0143
S1130F509081923008F44CC08C91823008F448C0DF
S1130F60943069F42181843039F411968C9111976D
S1130F7090E0821B910944C02223D1F13FC0843008
S1130F8021F0923041F48230B1F111968C91119795
S1130F908823A1F12DC0C181823001F111968C9179
S1130FA01197C817D9F48281938112962D913C919F
S1130FB013972817390794F082179307BCF04481DC
S1130FC055816681778114968D919D910D90BC9188
S1130FD0A02D84179507A607B70718F4CC2341F072
S1130FE00DC0481759076A077B0728F4CC2331F052
S1130FF081E090E005C080E090E002C08FEF9FEFB9
S1131000CF910895E4E2F6E09081282F2170220F19
S1131010220F9B7F922B908390E06081AC01427001
S11310205070559547959A01220F331F229532959A
S1131030307F3227207F3227362F3F7D232B20839A
S11310406081AC014470507055954795559547950E
S11310509A0122953295307F3227207F3227362F0E
S11310603F7E232B2083E4E4F6E040818870907077
S11310709C01359527953595279535952795C90173
S1131080880F991F82959295907F9827807F982743
S1131090942F9F7D892B80830895E0E2F6E0808180
S11310A0846080838081806280838081806180838A
S11310B0E0E4F6E08081806280830895E0E2F6E077
S11310C080818B7F808380818F7D808380818F7EF0
S11310D08083E0E4F6E080818F7D808308951F9310
S11310E0CF93DF93182F8FE193E00197F1F700C0BE
S11310F00000812F82958F7085DFC4E2D6E088815D
S11311008260888388818860888395ED9A95F1F759
S113111000008881877F888385ED8A95F1F7000038
S1131120812F70DF88818860888395ED9A95F1F727
S113113000008881877F8883DF91CF911F91089574
S11311401F93CF93DF93182F8150823038F48FE3AD
S11311509CE90197F1F700C0000006C08FE39FE10E
S11311600197F1F700C00000812F82958F704ADF4C
S1131170C4E2D6E088818D7F8883888188608883F3
S113118095ED9A95F1F700008881877F888385ED36
S11311908A95F1F70000812F35DF88818860888384
S11311A095ED9A95F1F700008881877F8883DF9118
S11311B0CF911F910895CF93DF93C4E2D6E0888145
S11311C0877F88837BDF8FEF97EEA3E08150904089
S11311D0A040E1F700C0000060DF83E013DFE0E23D
S11311E0F6E0808182608083808181608083888151
S11311F08D7F888388818E7F8883808188608083C7
S113120095ED9A95F1F70000888188608883A5EDB3
S1131210AA95F1F700008881877F88838FEF93EF89
S1131220A1E081509040A040E1F700C00000888117
S11312308860888395ED9A95F1F700008881877F0F
S11312408883AFE1B3E01197F1F700C00000888113
S113125088608883B5EDBA95F1F700008881877FAF
S113126088838FE193E00197F1F700C0000082E0EA
S1131270C9DE95ED9A95F1F700008881886088832E
S1131280A5EDAA95F1F700008881877F88838FE117
S113129093E00197F1F700C0000088E251DF88E095
S11312A04FDF81E04DDF86E04BDF8CE049DFDF91EB
S11312B0CF910895CF93DF93EC018881882329F09F
S11312C021960DDF89918823E1F7DF91CF9108956D
S11312D0623031F0633031F0613029F4805C03C056
S11312E08C5E01C08C5A80682BCFFB01882331F0BF
S11312F08081882331F481E080830895108280E026
S1131300089580E00895E0E2F7E084812091B3211C
S1131310A0911421B0E04CE151E2AA0FBB1FA40F2D
S1131320B51F80789C91892B82238483E0E0F7E0C9
S113133034818091152190E0880F991F840F951FA7
S11313403078DC019C91832F892B282324830895F2
S1131350809115218E3031F4809114218F3011F455
S11313600C945D1608951F93CF93DF9380911621FB
S1131370813009F481C0813020F0823009F01AC133
S1131380F1C0C0E0D7E01C816091A7217091A82131
S11313908091A9219091AA2124E630E040E050E018
S11313A00E94AF322795222727951F77122B1C8383
S11313B080E8E0E2F7E08683E0EEF6E06085808591
S11313C02085408550E041705070440F551FE82F30
S11313D0F0E0E470F070F595E795F595E795E42B6A
S11313E070E06870707075956795759567957595DB
S11313F06795AB01440F551F440F551F4E2B30E02A
S11314002270307035952795C901880F991F880F70
S1131410991F880F991F842B8093152180E1809355
S1131420142171DF80912807881F8827881F63E5AE
S113143071E25BDF882329F0809116218F5F80930E
S11314401621E0EEF6E0808590E08071907095952D
S1131450879595958795959587959595879562E553
S113146071E243DF882309F4A5C084E690E0809309
S11314705021909351219EC0C0E2D7E01C8160911D
S1131480A7217091A8218091A9219091AA2124E6F5
S113149030E040E050E00E94AF32279522272795A4
S11314A01F77122B1C8380E8E0E0F7E08583E0EEF1
S11314B0F6E0608580852085408550E0417050705D
S11314C0440F551FE82FF0E0E470F070F595E795B0
S11314D0F595E795E42B70E06870707075956795E5
S11314E07595679575956795AB01440F551F440F26
S11314F0551F4E2B30E02270307035952795C90169
S1131500880F991F880F991F880F991F842B809328
S11315101421F9DE80912807881F8827881F63E536
S113152071E2E3DE882329F0809116218F5F809396
S11315301621E0EEF6E0808590E08071907095953C
S1131540879595958795959587959595879562E562
S113155071E2CBDE882371F1809116218150809352
S1131560162128C080E8E0E2F7E08583E0E0F7E0B8
S11315708583EEDEE0EEF6E0808590E08071907089
S1131580959587959595879595958795959587953F
S113159062E571E2AADE882369F080911621815008
S11315A080931621C4E1D1E281E18883D1DE80E118
S11315B08883A9DEDF91CF911F910895EF92FF9266
S11315C00F931F93CF93DF93FF24C5E1D1E28E01E4
S11315D0015010400F2EF1E1EF2EF02DF882F801AA
S11315E0E082B6DEF394F0E1FF16C1F780E1809368
S11315F014218093152110921621DF91CF911F9110
S11316000F91FF90EF9008952FB7F894FC01E059E3
S1131610FF4F60958081682360832FBF08952FB7A3
S1131620F894FC01E059FF4F8081682B60832FBF41
S1131630089522E08030920761F480915421982F1C
S11316409F5F909354218823A1F481E090E062E0AD
S1131650DBCF22E08034920761F480915521982FEA
S11316609F5F90935521882321F482E090E062E00B
S1131670CBCF089522E08030920759F48091542111
S1131680815080935421882399F481E090E062E0B2
S1131690C6CF22E08034920759F4809155218150BD
S11316A080935521882321F482E090E062E0B7CF53
S11316B008951F93CF93DF93EC011FB7F894B9DF1C
S11316C08881816088831FBF8FB7F8949091B5217A
S11316D09F5F9093B5218FBFDF91CF911F910895A4
S11316E0DF92EF92FF920F931F93CF93DF938C01BE
S11316F07B0182E00030180781F482E061E270E04F
S1131700C5D0C82F82E060E270E0C0D03C2F20E05A
S1131710C82FD0E0C22BD32B13C0E2E000341E0745
S1131720C9F582E065E270E0B1D0C82F82E064E2DE
S113173070E0ACD03C2F20E0C82FD0E0C22BD32BDC
S1131740DFB6F894C80175DFF801208182E0808358
S1131750C487D587F70185819681F801808F918FA1
S1131760F7018281F8018283F7018481F80184837F
S1131770F7018381F8018383F7018181F801818373
S1131780822F8170F7019081892BF8018083C80131
S113179071DFDFBEDF91CF911F910F91FF90EF902A
S11317A0DF900895CF92DF92EF92FF921F93CF9331
S11317B0DF936C017A01862F90E08370907000971C
S11317C021F466956695C2E001C0C0E060FFCF5F7A
S11317D0C6018096D0E0CC0FDD1FCC0FDD1FCC0FEF
S11317E0DD1FC80FD91F1FB7F894C60122DFF70108
S11317F08081888382818A8381818983C6013ADFDB
S11318001FBFDF91CF911F91FF90EF90DF90CF909A
S11318100895CF92DF92EF92FF921F93CF93DF93BD
S11318206C017A01862F90E083709070009721F408
S113183066956695C2E001C0C0E060FFCF5FC60157
S11318408096D0E0CC0FDD1FCC0FDD1FCC0FDD1F49
S1131850C80FD91F1FB7F894C601EBDE8881F701C2
S113186080838A81828389818183C60103DF1FBFCC
S1131870DF91CF911F91FF90EF90DF90CF9008956B
S11318801BBEFC0128ED24BF608308954091CA016A
S1131890E62FF72F8093CA0184914093CA010895DB
S11318A0CF92DF92EF92FF920F931F93CF93DF9328
S11318B0EC016A017B01DB01CA010197A109B109AD
S11318C0080F191F2A1F3B1FC901B801A701960160
S11318D00E94AF3289019A010138110521053105B1
S11318E0F8F4013460F4013260F4013160F4093039
S11318F060F4053060F4033060F090E00BC093E0D6
S113190009C092E007C092E805C091E003C091E8E5
S113191001C090E888818C77892B888381E001C09D
S11319208FEFDF91CF911F910F91FF90EF90DF9098
S1131930CF9008951F920F920FB60F9208B60F9290
S113194009B60F920BB60F9211242F933F934F9326
S11319505F936F937F938F939F93AF93BF93EF9313
S1131960FF93E0915621F0915721309709F0199592
S1131970FF91EF91BF91AF919F918F917F916F9163
S11319805F914F913F912F910F900BBE0F9009BE25
S11319900F9008BE0F900FBE0F901F9018951F92C6
S11319A00F920FB60F9208B60F9209B60F920BB6AC
S11319B00F9211242F933F934F935F936F937F93D1
S11319C08F939F93AF93BF93EF93FF93E09158212D
S11319D0F0915921309709F01995FF91EF91BF913A
S11319E0AF919F918F917F916F915F914F913F91B3
S11319F02F910F900BBE0F9009BE0F9008BE0F9051
S1131A000FBE0F901F9018951F920F920FB60F9252
S1131A1008B60F9209B60F920BB60F9211242F93AA
S1131A203F934F935F936F937F938F939F93AF9362
S1131A30BF93EF93FF93E0915A21F0915B2130978C
S1131A4009F01995FF91EF91BF91AF919F918F91FB
S1131A507F916F915F914F913F912F910F900BBEAA
S1131A600F9009BE0F9008BE0F900FBE0F901F90ED
S1131A7018951F920F920FB60F9208B60F9209B6DF
S1131A800F920BB60F9211242F933F934F935F93B2
S1131A906F937F938F939F93AF93BF93EF93FF9332
S1131AA0E0915C21F0915D21309709F01995FF9147
S1131AB0EF91BF91AF919F918F917F916F915F91C2
S1131AC04F913F912F910F900BBE0F9009BE0F9035
S1131AD008BE0F900FBE0F901F9018951F920F9283
S1131AE00FB60F9208B60F9209B60F920BB60F926B
S1131AF011242F933F934F935F936F937F938F930F
S1131B009F93AF93BF93EF93FF93E0915E21F09186
S1131B105F21309709F01995FF91EF91BF91AF9133
S1131B209F918F917F916F915F914F913F912F91F1
S1131B300F900BBE0F9009BE0F9008BE0F900FBE02
S1131B400F901F9018951F920F920FB60F9208B620
S1131B500F9209B60F920BB60F9211242F933F9355
S1131B604F935F936F937F938F939F93AF93BF93A1
S1131B70EF93FF93E0916021F0916121309709F098
S1131B801995FF91EF91BF91AF919F918F917F91A3
S1131B906F915F914F913F912F910F900BBE0F90DA
S1131BA009BE0F9008BE0F900FBE0F901F9018959E
S1131BB01F920F920FB60F9208B60F9209B60F92AA
S1131BC00BB60F9211242F933F934F935F936F9310
S1131BD07F938F939F93AF93BF93EF93FF93E09182
S1131BE06221F0916321309709F01995FF91EF91EB
S1131BF0BF91AF919F918F917F916F915F914F9121
S1131C003F912F910F900BBE0F9009BE0F9008BE0D
S1131C100F900FBE0F901F9018951F920F920FB642
S1131C200F9208B60F9209B60F920BB60F921124B9
S1131C302F933F934F935F936F937F938F939F93D0
S1131C40AF93BF93EF93FF93E0916421F0916521EB
S1131C50309709F01995FF91EF91BF91AF919F9142
S1131C608F917F916F915F914F913F912F910F9041
S1131C700BBE0F9009BE0F9008BE0F900FBE0F90C1
S1131C801F9018951F920F920FB60F9208B60F92DD
S1131C9009B60F920BB60F9211242F933F934F93D3
S1131CA05F936F937F938F939F93AF93BF93EF93C0
S1131CB0FF93E0916621F0916721309709F019951F
S1131CC0FF91EF91BF91AF919F918F917F916F9110
S1131CD05F914F913F912F910F900BBE0F9009BED2
S1131CE00F9008BE0F900FBE0F901F9018951F9273
S1131CF00F920FB60F9208B60F9209B60F920BB659
S1131D000F9211242F933F934F935F936F937F937D
S1131D108F939F93AF93BF93EF93FF93E0916821C9
S1131D20F0916921309709F01995FF91EF91BF91D6
S1131D30AF919F918F917F916F915F914F913F915F
S1131D402F910F900BBE0F9009BE0F9008BE0F90FD
S1131D500FBE0F901F9018951F920F920FB60F92FF
S1131D6008B60F9209B60F920BB60F9211242F9357
S1131D703F934F935F936F937F938F939F93AF930F
S1131D80BF93EF93FF93E0916A21F0916B21309719
S1131D9009F01995FF91EF91BF91AF919F918F91A8
S1131DA07F916F915F914F913F912F910F900BBE57
S1131DB00F9009BE0F9008BE0F900FBE0F901F909A
S1131DC018951F920F920FB60F9208B60F9209B68C
S1131DD00F920BB60F9211242F933F934F935F935F
S1131DE06F937F938F939F93AF93BF93EF93FF93DF
S1131DF0E0916C21F0916D21309709F01995FF91D4
S1131E00EF91BF91AF919F918F917F916F915F916E
S1131E104F913F912F910F900BBE0F9009BE0F90E1
S1131E2008BE0F900FBE0F901F9018951F920F922F
S1131E300FB60F9208B60F9209B60F920BB60F9217
S1131E4011242F933F934F935F936F937F938F93BB
S1131E509F93AF93BF93EF93FF93E0916E21F09123
S1131E606F21309709F01995FF91EF91BF91AF91D0
S1131E709F918F917F916F915F914F913F912F919E
S1131E800F900BBE0F9009BE0F9008BE0F900FBEAF
S1131E900F901F9018951F920F920FB60F9208B6CD
S1131EA00F9209B60F920BB60F9211242F933F9302
S1131EB04F935F936F937F938F939F93AF93BF934E
S1131EC0EF93FF93E0917021F0917121309709F025
S1131ED01995FF91EF91BF91AF919F918F917F9150
S1131EE06F915F914F913F912F910F900BBE0F9087
S1131EF009BE0F9008BE0F900FBE0F901F9018954B
S1131F001F920F920FB60F9208B60F9209B60F9256
S1131F100BB60F9211242F933F934F935F936F93BC
S1131F207F938F939F93AF93BF93EF93FF93E0912E
S1131F307221F0917321309709F01995FF91EF9177
S1131F40BF91AF919F918F917F916F915F914F91CD
S1131F503F912F910F900BBE0F9009BE0F9008BEBA
S1131F600F900FBE0F901F9018951F920F920FB6EF
S1131F700F9208B60F9209B60F920BB60F92112466
S1131F802F933F934F935F936F937F938F939F937D
S1131F90AF93BF93EF93FF93E0917421F091752178
S1131FA0309709F01995FF91EF91BF91AF919F91EF
S1131FB08F917F916F915F914F913F912F910F90EE
S1131FC00BBE0F9009BE0F9008BE0F900FBE0F906E
S1131FD01F9018951F920F920FB60F9208B60F928A
S1131FE009B60F920BB60F9211242F933F934F9380
S1131FF05F936F937F938F939F93AF93BF93EF936D
S1132000FF93E0917621F0917721309709F01995AB
S1132010FF91EF91BF91AF919F918F917F916F91BC
S11320205F914F913F912F910F900BBE0F9009BE7E
S11320300F9008BE0F900FBE0F901F9018951F921F
S11320400F920FB60F9208B60F9209B60F920BB605
S11320500F9211242F933F934F935F936F937F932A
S11320608F939F93AF93BF93EF93FF93E091782166
S1132070F0917921309709F01995FF91EF91BF9173
S1132080AF919F918F917F916F915F914F913F910C
S11320902F910F900BBE0F9009BE0F9008BE0F90AA
S11320A00FBE0F901F9018951F920F920FB60F92AC
S11320B008B60F9209B60F920BB60F9211242F9304
S11320C03F934F935F936F937F938F939F93AF93BC
S11320D0BF93EF93FF93E0917A21F0917B213097A6
S11320E009F01995FF91EF91BF91AF919F918F9155
S11320F07F916F915F914F913F912F910F900BBE04
S11321000F9009BE0F9008BE0F900FBE0F901F9046
S113211018951F920F920FB60F9208B60F9209B638
S11321200F920BB60F9211242F933F934F935F930B
S11321306F937F938F939F93AF93BF93EF93FF938B
S1132140E0917C21F0917D21309709F01995FF9160
S1132150EF91BF91AF919F918F917F916F915F911B
S11321604F913F912F910F900BBE0F9009BE0F908E
S113217008BE0F900FBE0F901F9018951F920F92DC
S11321800FB60F9208B60F9209B60F920BB60F92C4
S113219011242F933F934F935F936F937F938F9368
S11321A09F93AF93BF93EF93FF93E0917E21F091C0
S11321B07F21309709F01995FF91EF91BF91AF916D
S11321C09F918F917F916F915F914F913F912F914B
S11321D00F900BBE0F9009BE0F9008BE0F900FBE5C
S11321E00F901F9018951F920F920FB60F9208B67A
S11321F00F9209B60F920BB60F9211242F933F93AF
S11322004F935F936F937F938F939F93AF93BF93FA
S1132210EF93FF93E0918021F0918121309709F0B1
S11322201995FF91EF91BF91AF919F918F917F91FC
S11322306F915F914F913F912F910F900BBE0F9033
S113224009BE0F9008BE0F900FBE0F901F901895F7
S11322501F920F920FB60F9208B60F9209B60F9203
S11322600BB60F9211242F933F934F935F936F9369
S11322707F938F939F93AF93BF93EF93FF93E091DB
S11322808221F0918321309709F01995FF91EF9104
S1132290BF91AF919F918F917F916F915F914F917A
S11322A03F912F910F900BBE0F9009BE0F9008BE67
S11322B00F900FBE0F901F9018951F920F920FB69C
S11322C00F9208B60F9209B60F920BB60F92112413
S11322D02F933F934F935F936F937F938F939F932A
S11322E0AF93BF93EF93FF93E0918421F091852105
S11322F0309709F01995FF91EF91BF91AF919F919C
S11323008F917F916F915F914F913F912F910F909A
S11323100BBE0F9009BE0F9008BE0F900FBE0F901A
S11323201F9018951F920F920FB60F9208B60F9236
S113233009B60F920BB60F9211242F933F934F932C
S11323405F936F937F938F939F93AF93BF93EF9319
S1132350FF93E0918621F0918721309709F0199538
S1132360FF91EF91BF91AF919F918F917F916F9169
S11323705F914F913F912F910F900BBE0F9009BE2B
S11323800F9008BE0F900FBE0F901F9018951F92CC
S11323900F920FB60F9208B60F9209B60F920BB6B2
S11323A00F9211242F933F934F935F936F937F93D7
S11323B08F939F93AF93BF93EF93FF93E091882103
S11323C0F0918921309709F01995FF91EF91BF9110
S11323D0AF919F918F917F916F915F914F913F91B9
S11323E02F910F900BBE0F9009BE0F9008BE0F9057
S11323F00FBE0F901F9018951F920F920FB60F9259
S113240008B60F9209B60F920BB60F9211242F93B0
S11324103F934F935F936F937F938F939F93AF9368
S1132420BF93EF93FF93E0918A21F0918B21309732
S113243009F01995FF91EF91BF91AF919F918F9101
S11324407F916F915F914F913F912F910F900BBEB0
S11324500F9009BE0F9008BE0F900FBE0F901F90F3
S113246018951F920F920FB60F9208B60F9209B6E5
S11324700F920BB60F9211242F933F934F935F93B8
S11324806F937F938F939F93AF93BF93EF93FF9338
S1132490E0918C21F0918D21309709F01995FF91ED
S11324A0EF91BF91AF919F918F917F916F915F91C8
S11324B04F913F912F910F900BBE0F9009BE0F903B
S11324C008BE0F900FBE0F901F9018951F920F9289
S11324D00FB60F9208B60F9209B60F920BB60F9271
S11324E011242F933F934F935F936F937F938F9315
S11324F09F93AF93BF93EF93FF93E0918E21F0915D
S11325008F21309709F01995FF91EF91BF91AF9109
S11325109F918F917F916F915F914F913F912F91F7
S11325200F900BBE0F9009BE0F9008BE0F900FBE08
S11325300F901F9018951F920F920FB60F9208B626
S11325400F9209B60F920BB60F9211242F933F935B
S11325504F935F936F937F938F939F93AF93BF93A7
S1132560EF93FF93E0919021F0919121309709F03E
S11325701995FF91EF91BF91AF919F918F917F91A9
S11325806F915F914F913F912F910F900BBE0F90E0
S113259009BE0F9008BE0F900FBE0F901F901895A4
S11325A01F920F920FB60F9208B60F9209B60F92B0
S11325B00BB60F9211242F933F934F935F936F9316
S11325C07F938F939F93AF93BF93EF93FF93E09188
S11325D09221F0919321309709F01995FF91EF9191
S11325E0BF91AF919F918F917F916F915F914F9127
S11325F03F912F910F900BBE0F9009BE0F9008BE14
S11326000F900FBE0F901F9018951F920F920FB648
S11326100F9208B60F9209B60F920BB60F921124BF
S11326202F933F934F935F936F937F938F939F93D6
S1132630AF93BF93EF93FF93E0919421F091952191
S1132640309709F01995FF91EF91BF91AF919F9148
S11326508F917F916F915F914F913F912F910F9047
S11326600BBE0F9009BE0F9008BE0F900FBE0F90C7
S11326701F9018951F920F920FB60F9208B60F92E3
S113268009B60F920BB60F9211242F933F934F93D9
S11326905F936F937F938F939F93AF93BF93EF93C6
S11326A0FF93E0919621F0919721309709F01995C5
S11326B0FF91EF91BF91AF919F918F917F916F9116
S11326C05F914F913F912F910F900BBE0F9009BED8
S11326D00F9008BE0F900FBE0F901F9018951F9279
S11326E00F920FB60F9208B60F9209B60F920BB65F
S11326F00F9211242F933F934F935F936F937F9384
S11327008F939F93AF93BF93EF93FF93E09198219F
S1132710F0919921309709F01995FF91EF91BF91AC
S1132720AF919F918F917F916F915F914F913F9165
S11327302F910F900BBE0F9009BE0F9008BE0F9003
S11327400FBE0F901F9018951F920F920FB60F9205
S113275008B60F9209B60F920BB60F9211242F935D
S11327603F934F935F936F937F938F939F93AF9315
S1132770BF93EF93FF93E0919A21F0919B213097BF
S113278009F01995FF91EF91BF91AF919F918F91AE
S11327907F916F915F914F913F912F910F900BBE5D
S11327A00F9009BE0F9008BE0F900FBE0F901F90A0
S11327B018951F920F920FB60F9208B60F9209B692
S11327C00F920BB60F9211242F933F934F935F9365
S11327D06F937F938F939F93AF93BF93EF93FF93E5
S11327E0E0919C21F0919D21309709F01995FF917A
S11327F0EF91BF91AF919F918F917F916F915F9175
S11328004F913F912F910F900BBE0F9009BE0F90E7
S113281008BE0F900FBE0F901F9018951F920F9235
S11328200FB60F9208B60F9209B60F920BB60F921D
S113283011242F933F934F935F936F937F938F93C1
S11328409F93AF93BF93EF93FF93E0919E21F091F9
S11328509F21309709F01995FF91EF91BF91AF91A6
S11328609F918F917F916F915F914F913F912F91A4
S11328700F900BBE0F9009BE0F9008BE0F900FBEB5
S11328800F901F9018951F920F920FB60F9208B6D3
S11328900F9209B60F920BB60F9211242F933F9308
S11328A04F935F936F937F938F939F93AF93BF9354
S11328B0EF93FF93E091A021F091A121309709F0CB
S11328C01995FF91EF91BF91AF919F918F917F9156
S11328D06F915F914F913F912F910F900BBE0F908D
S11328E009BE0F9008BE0F900FBE0F901F90189551
S11328F01F920F920FB60F9208B60F9209B60F925D
S11329000BB60F9211242F933F934F935F936F93C2
S11329107F938F939F93AF93BF93EF93FF93E09134
S1132920A221F091A321309709F01995FF91EF911D
S1132930BF91AF919F918F917F916F915F914F91D3
S11329403F912F910F900BBE0F9009BE0F9008BEC0
S11329500F900FBE0F901F901895CF93CFB7F89498
S113296028E08030920759F483E090E061E00E940F
S1132970040B83E090E064E00E94040B6BC028E049
S11329808034920759F483E090E062E00E94040BE3
S113299083E090E064E00E94040B5CC029E0803096
S11329A0920759F484E090E061E00E94040B84E013
S11329B090E064E00E94040B4DC029E0803492074B
S11329C059F484E090E062E00E94040B84E090E01B
S11329D064E00E94040B3EC02AE08030920759F460
S11329E085E090E061E00E94040B85E090E064E003
S11329F00E94040B2FC02AE08034920759F485E02A
S1132A0090E062E00E94040B85E090E064E00E94A4
S1132A10040B20C02BE08030920759F486E090E04C
S1132A2061E00E94040B86E090E064E00E94040BE5
S1132A3011C02BE08034920759F486E090E062E004
S1132A400E94040B86E090E064E00E94040B02C044
S1132A50CFBF09C08FB7F8949091B5219F5F909331
S1132A60B5218FBFCFBFCF910895FC01818185FF30
S1132A70FDCF608380E090E008956F927F928F9203
S1132A809F92AF92BF92CF92DF92EF92FF920F93F9
S1132A901F93CF933C014A015B0168017901D9017D
S1132AA0C801689412F8B695A795979587951694DA
S1132AB0D1F7B901A801032E36E1769567955795AC
S1132AC047953A95D1F7302DF301248122FD08C0B2
S1132AD0B695A79597958795769567955795479554
S1132AE088159905AA05BB0508F4C2C08416950685
S1132AF0A606B70608F4BEC0D30114968C911497A9
S1132B0082FD04C0880C991CAA1CBB1CC701B60119
S1132B10A50194010E94AF3289019A010F3F11056A
S1132B202105310508F4B5C08FEF90E0A0E0B0E0D6
S1132B30C9EF05C0081719072A073B0760F0880F7B
S1132B40991FAA1FBB1FCD3F0CF48160CF5FC73014
S1132B5089F72C2F5DC02C2FCC230CF059C0D50144
S1132B60C401880F991FAA1FBB1F880F991FAA1F92
S1132B70BB1F880F991FAA1FBB1FC81AD90AEA0ACC
S1132B80FB0ACE3F34F58C2F992787FD90954DEFA6
S1132B905FEF481B590BD701C60104C0880F991F6A
S1132BA0AA1FBB1F4A95D2F7AC01BD01D501C401D0
S1132BB0B695A79597958795840F951FA61FB71F60
S1132BC0BC01CD01A50194010E94AF3289019A0193
S1132BD041C08C2F992787FD9095039604C0880CDB
S1132BE0991CAA1CBB1C8A95D2F7B501A401769541
S1132BF0679557954795CB01BA016C0D7D1D8E1DC8
S1132C009F1DA50194010E94AF3289019A0122C03F
S1132C10332727FD30952D5F3F4FD501C40104C0F4
S1132C20880F991FAA1FBB1F2A95D2F79C01AD01DB
S1132C30B695A79597958795C80ED91EEA1EFB1ED3
S1132C40C701B6010E94AF3289019A0101501040B8
S1132C5020403040812F8F70C295C07FC82BD30194
S1132C601796CC93179716960C93169781E003C08A
S1132C7080E001C080E0CF911F910F91FF90EF9011
S1132C80DF90CF90BF90AF909F908F907F906F9088
S1132C900895D501C401880F991FAA1FBB1F880F6F
S1132CA0991FAA1FBB1F880F991FAA1FBB1FC81AF1
S1132CB0D90AEA0AFB0AC9EF66CF80E890E063E02C
S1132CC00E94400CE0E8F0E0828180FDFDCF81E8C5
S1132CD090E06BE20E94400CE0E8F0E0828180FD2D
S1132CE0FDCFA895FFCFE0E5F0E08081826080838E
S1132CF0E1E5F0E0808181FFFDCF88ED84BF81E0D4
S1132D0080934000E0E5F0E08081827E8083089536
S1132D1080E48093210683E4809341061092530655
S1132D2091E09093490688E080934A062EE220932E
S1132D30610622EB20938106E0E9F6E0208122601F
S1132D402083E9E8F6E0208121602083EAE8F6E0C8
S1132D5020812160208320E12093AA068093A1068C
S1132D608093A5062FEF209320072093000710924D
S1132D70D0071092D30725E02093C9079093CA0780
S1132D808093CB071092F5069093F7062093E906FB
S1132D9080E28093EA068FE88093EB060895E0E0F2
S1132DA0F8E08081807F866080838181887F836072
S1132DB081838FEF90E086A397A380858E6F8087B1
S1132DC081818061818381818062818380E098E058
S1132DD0C4CDE0E0F9E08081807F866080838181DA
S1132DE0887F818386818C7F8683868182608683C7
S1132DF08DE790E086A397A380858E6F808780E01F
S1132E0099E0ABCD0F931F9380EC9AE040E052E140
S1132E106AE770E000E018E428EE31E00E94500C0C
S1132E20E0ECFAE08081806180838081806480832B
S1132E301F910F9108950F931F93CF93DF93C0EACF
S1132E40DBE08D818F738D8383E08D838B818F7C19
S1132E5080628B8380EA9BE040E855E260E070E0AA
S1132E6000E018E428EE31E008DE8C8188608C8371
S1132E708C8180618C83DF91CF911F910F91089594
S1132E800F931F93CF93DF93C0EBDBE08D818F73A0
S1132E908D8383E08D8380EB9BE040E855E260E026
S1132EA070E000E018E428EE31E0E7DD8C81886012
S1132EB08C83DF91CF911F910F910895CF93DF936E
S1132EC0CDB7DEB72A97CDBFDEBF82E061E270E006
S1132ED00E94460C82E060E270E00E94460C8A8107
S1132EE0897E9B819F7C90629B8392E09D83886016
S1132EF08A831C8280E092E0BE016F5F7F4F0E9454
S1132F00700B80E092E061E0AE01485F5F4F0E9489
S1132F10090C81E0888788E1898780E092E061E09C
S1132F20AE01485F5F4F0E94D20B80E092E00E94A6
S1132F30590B8FB7F894E0E0F2E0908194609083AD
S1132F408FBF2A96CDBFDEBFDF91CF910895CF9377
S1132F50DF93CDB7DEB7AE97CDBFDEBFC4DEE2EA06
S1132F60F0E0808187608083D3DE33DF18DF63DFA6
S1132F7087DFA4DF0E94DB08789488EB9BE0A0E065
S1132F80B0E08093482190934921A0934A21B093C3
S1132F904B2124EF31E02093D7243093D82480931D
S1132FA04C2190934D21A0934E21B0934F2184E660
S1132FB090E08093EF229093F02288EE93E0A0E0DB
S1132FC0B0E08093442190934521A0934621B0938F
S1132FD0472188EC90E0809305259093062580EDA9
S1132FE097E0A0E0B0E08093402190934121A0932A
S1132FF04221B093432186E990E080933723909354
S1133000382308E016E0D8015C918C914C916C91C6
S113301090E0807190709595879595958795959595
S11330208795959587959C01220F331F842F881FC0
S11330308827881F880F880F282B852F90E080749D
S11330409070082E892F000C881F990B000C881F84
S1133050991F282B862F90E0807290709595879504
S11330609595879595958795959587959595879544
S1133070880F991F880F991F880F991F822B909191
S11330801721890F809317210F2EF0E8AF2EF6E059
S1133090BF2EF02DCC246894C1F8F501C682B2DEAF
S11330A0FAE6FA95F1F700C08FEF93ECA9E08150AE
S11330B09040A040E1F700C000000E9425320E9429
S11330C099310E948B31D5011696CC921697F8014E
S11330D0508180814081608190E0807190709595ED
S11330E087959595879595958795959587959C0151
S11330F0220F331F842F881F8827881F90E0880F92
S1133100991F880F991F282B392B852F90E08074E5
S11331109070082E892F000C881F990B000C881FB3
S1133120991F282B392B862F90E0807290709595EB
S11331308795959587959595879595958795959573
S11331408795880F991F880F991F880F991F822BC5
S1133150932B8330910584F480E062E348E027E117
S113316031E205E0EE246894E5F80F2EF6E0CF2E68
S1133170F02D0E9471320FC080E061E048E027E149
S113318031E205E0EE246894E5F80F2EF6E0CF2E48
S1133190F02D0E9471328CE361E00E940F328DE3C6
S11331A066E00E940F3282E0E0E8F6E085838FE07B
S11331B094E00197F1F700C00000A1E8B4E212978F
S11331C0AD8FBE8FEAE0F5E23296EBA3FCA320E2DA
S11331D035E22E5F3F4F2DA33EA385EB94E202968A
S11331E08FA398A71696A9A7BAA7A5E8B4E2129642
S11331F0ABA7BCA7EEE0F5E23296EDA7FEA7A89533
S11332008091A621882311F40C94BA28A1E8B4E291
S1133210AD90BC90A0928324B0928424ED8DFE8D59
S113322060817181882777FD8095982F0E94D8044A
S113323020E030E040EF50E40E94D6020E944705AF
S11332408B01AD8DBE8D1D921C92B501882777FD33
S11332508095982F0E94D8046B017C01B8016A19EB
S11332607B09882777FD8095982F0E94D8042EEA41
S113327037E441EE5DE30E94D6029B01AC01C70135
S1133280B6010E9472020E944705DC01CB014C0189
S1133290E1E8F4E280839183AAE0B5E20D911C9108
S11332A01197EBA1FCA1008311837E916E916D01B6
S11332B0882777FD8095982F0E94D80420E030E07D
S11332C040EF50E40E94D6020E9447055B01F601DC
S11332D010821182B801882777FD8095982F0E946B
S11332E0D8046B017C01B501601B710B882777FD45
S11332F08095982F0E94D8042EEA37E441EE5DE3CE
S11333000E94D6029B01AC01C701B6010E94720261
S11333100E944705DC01CB012C01EAE0F5E2808341
S11333209183A0E2B5E20D911C911197EDA1FEA14C
S1133330008311837E916E916D01882777FD8095BE
S1133340982F0E94D80420E030E040EF50E40E941F
S1133350D6020E9447055B01F60110821182B80172
S1133360882777FD8095982F0E94D8046B017C01F3
S1133370B501601B710B882777FD8095982F0E94FB
S1133380D8042EEA37E441EE5DE30E94D6029B01A5
S1133390AC01C701B6010E9472020E944705DC011C
S11333A0CB018F8F98A3E0E2F5E280839183A5EBB4
S11333B0B4E20D911C911197EFA1F8A5008311833C
S11333C07E916E916D01882777FD8095982F0E94DC
S11333D0D80420E030E040EF50E40E94D6020E947E
S11333E047055B01F60110821182B801882777FD39
S11333F08095982F0E94D8046B017C01B501601B55
S1133400710B882777FD8095982F0E94D8042EEAA7
S113341037E441EE5DE30E94D6029B01AC01C70193
S1133420B6010E9472020E944705DC01CB0189A308
S11334309AA3E5EBF4E2808391830F2EF8E0CF2E7C
S1133440F6E0DF2EF02DD6013C918C912C916C91FD
S113345090E0807190709595879595958795959551
S1133460879595958795AC01440F551F822F881F2A
S11334708827881F90E0880F991F880F991F482B71
S1133480592B832F90E080749070082E892F000CA4
S1133490881F990B000C881F991F482B592B862FC6
S11334A090E0807290709595879595958795959500
S11334B087959595879595958795880F991F880F7A
S11334C0991F880F991F9A01282B392B0CEB11E2B5
S11334D0C901880F991F820F931F880F991F880FA6
S11334E0991F880F991F821B930B800F911FFC015A
S11334F0648970E080E090E00E94970520E030E06D
S113350048EC52E40E94D40369837A838B839C83BE
S1133510372F482F592F862F932FA42FB52F809301
S1133520322590933325A0933425B0933525D601C5
S11335303C918C912C916C9190E080719070959558
S11335408795959587959595879595958795AC01DC
S1133550440F551F822F881F8827881F90E0880FEB
S1133560991F880F991F482B592B832F90E0807443
S11335709070082E892F000C881F990B000C881F4F
S1133580991F482B592B862F90E080729070959547
S1133590879595958795959587959595879595950F
S11335A08795880F991F880F991F880F991F9A0173
S11335B0282B392BC901880F991F820F931F880F5D
S11335C0991F880F991F880F991F821B930B800FD7
S11335D0911FFC01658970E080E090E00E949705EE
S11335E020E030E048EC52E40E94D403362E272E2B
S11335F08D839E83482F592F862F922DA42FB52F6C
S11336008093C6249093C724A093C824B093C9245C
S1133610D6013C918C912C916C9190E080719070CA
S1133620959587959595879595958795959587957E
S1133630AC01440F551F822F881F8827881F90E0F4
S1133640880F991F880F991F482B592B832F90E0BF
S113365080749070082E892F000C881F990B000C21
S1133660881F991F482B592B862F90E080729070E9
S1133670959587959595879595958795959587952E
S113368095958795880F991F880F991F880F991F03
S11336909A01282B392BC901880F991F820F931F78
S11336A0880F991F880F991F880F991F821B930BEE
S11336B0800F911FFC01668970E080E090E00E9419
S11336C0970520E030E048EC52E40E94D4036F8375
S11336D0788789879A87372F482F592F862F932FDA
S11336E0A42FB52F8093D2229093D322A093D422D7
S11336F0B093D5221092A621D601FC917C91EC9135
S1133700FC903C918C912C916C9190E08071907024
S1133710959587959595879595958795959587958D
S1133720AC01440F551F822F881F8827881F90E003
S1133730880F991F880F991F482B592B832F90E0CE
S113374080749070082E892F000C881F990B000C30
S1133750881F991F482B592B862F90E080729070F8
S1133760959587959595879595958795959587953D
S113377095958795880F991F880F991F880F991F12
S11337809A01282B392BC901880F991F820F931F87
S1133790880F991F880F991F880F991F821B930BFD
S11337A0800F911FDC011196BC91BC871B86872F6B
S11337B090E08071907095958795959587959595EE
S11337C08795959587959C01220F331F8E2F881F0F
S11337D08827881F90E0880F991F880F991F282B2E
S11337E0392B8F2F90E080749070082E892F000C55
S11337F0881F990B000C881F991F282B392B8F2D9C
S113380090E080729070959587959595879595959C
S113381087959595879595958795880F991F880F16
S1133820991F880F991F822B932BFC01EE0FFF1F0A
S1133830E80FF91FEE0FFF1FEE0FFF1FEE0FFF1F24
S1133840E81BF90BE00FF11F83819481EB85FC8564
S11338508E2B9F2B3C0168187908A9A5BAA58D91D8
S11338609C911197F301E81BF90BCF019F01220FE3
S1133870331F880F991F880F991F880F991F5901AB
S1133880A80EB91EC501C1968336910558F0F1E61C
S1133890AF16F9E0BF064CF420EAA21626EFB206F2
S11338A03CF008C0AA24BB2405C0AA24BB2402C03F
S11338B0AA24BB24B301882777FD8095982F0E9402
S11338C0D8046B017C0129813A814B815C81822F70
S11338D0932FA42FB52FBC01CD01A70196010E94FF
S11338E0D6020E944705962E872E4D815E81832D38
S11338F0922DA42FB52FBC01CD01A70196010E94E2
S1133900D6022AE037ED43EA5CE30E94D602209116
S1133910892430918A2440918B2450918C240E94D4
S11339207202C62EF72E182F092F862F9F2DA12F36
S1133930B02F8093892490938A24A0938B24B093EE
S11339408C24BC01CD0120E030E040EA52E40E9426
S11339507C0418166CF480E090E0A0EAB2E4809352
S1133960892490938A24A0938B24B0938C241AC026
S11339708C2D9F2DA12FB02FBC01CD0120E030E074
S113398040EA52EC0E94AA04882364F480E090E0A8
S1133990A0EAB2EC8093892490938A24A0938B2488
S11339A0B0938C24892D982D8038910514F08FE7DD
S11339B090E03FEF8138930714F481E89FEFDC0136
S11339C0BD01882777FD8095982F0E94D804209107
S11339D0892430918A2440918B2450918C240E9414
S11339E072026B017C01B501882777FD8095982FC1
S11339F00E94D8049B01AC016F817885E985FA8522
S1133A00862F972FAE2FBF2FBC01CD010E94D60267
S1133A109B01AC01C701B6010E9472020E944705D6
S1133A20862F972F8038910514F08FE790E0E5E812
S1133A30F4E260827182ABA5BCA5AD92BC921197F1
S1133A40BFEF81389B0714F481E89FEF80938F24A4
S1133A50E8E0F6E0B0817081A0811081308180813E
S1133A602081608190E080719070959587959595FF
S1133A7087959595879595958795AC01440F551F26
S1133A80822F881F8827881F90E0880F991F880F2E
S1133A90991F482B592B832F90E080749070082E27
S1133AA0892F000C881F990B000C881F991F482B25
S1133AB0592B862F90E080729070959587959595F7
S1133AC08795959587959595879595958795880F6D
S1133AD0991F880F991F880F991F9A01282B392B3A
S1133AE04CEB51E2C901880F991F820F931F880F75
S1133AF0991F880F991F880F991F821B930B840F9E
S1133B00951FFC01F581FE871D86872F90E080714B
S1133B1090709595879595958795959587959595A5
S1133B2087959C01220F331F8A2F881F8827881F9F
S1133B3090E0880F991F880F991F282B392B8B2F02
S1133B4090E080749070082E892F000C881F990BC8
S1133B50000C881F991F282B392B812F90E080722D
S1133B609070959587959595879595958795959555
S1133B70879595958795880F991F880F991F880FAA
S1133B80991F822B932BFC01EE0FFF1FE80FF91FE7
S1133B90EE0FFF1FEE0FFF1FEE0FFF1FE81BF90BC9
S1133BA0E40FF51F878190852D853E85822B932B0D
S1133BB0DC01A419B5092D01EEE0F5E280819181C3
S1133BC09D01281B390BC901220F331F880F991F30
S1133BD0880F991F880F991F3901680E791EC30138
S1133BE0C1968336910558F031E6631639E07306C1
S1133BF04CF480EA681686EF78063CF008C0662428
S1133C00772405C06624772402C066247724B20191
S1133C10882777FD8095982F0E94D8046B017C013A
S1133C2029813A814B815C81822F932FA42FB52F58
S1133C30BC01CD01A70196010E94D6020E9447054E
S1133C40A62E972E4D815E81832D922DA42FB52F04
S1133C50BC01CD01A70196010E94D6022AE037EDEE
S1133C6043EA5CE30E94D602209112253091132589
S1133C7040911425509115250E947202C62EF72EEC
S1133C80182F092F862F9F2DA12FB02F8093122537
S1133C9090931325A0931425B0931525BC01CD0151
S1133CA020E030E040EA52E40E947C0418166CF4F0
S1133CB080E090E0A0EAB2E480931225909313256B
S1133CC0A0931425B09315251AC08C2D9F2DA12FD8
S1133CD0B02FBC01CD0120E030E040EA52EC0E945C
S1133CE0AA04882364F480E090E0A0EAB2EC809314
S1133CF0122590931325A0931425B09315258A2D8E
S1133D00992D8038910514F08FE790E0AFEF81385A
S1133D109A0714F481E89FEFFC01BF01882777FD1F
S1133D208095982F0E94D804209112253091132554
S1133D3040911425509115250E9472026B017C015B
S1133D40B301882777FD8095982F0E94D8049B01A2
S1133D50AC016F817885E985FA85862F972FAE2F80
S1133D60BF2FBC01CD010E94D6029B01AC01C7014B
S1133D70B6010E9472020E944705862F972F803851
S1133D80910514F08FE790E0AEE0B5E24D925C92BD
S1133D901197EDA5FEA560827182FFEF81389F0720
S1133DA014F481E89FEF80931825E8E0F6E0B081F1
S1133DB07081A0811081308180812081608190E0B8
S1133DC0807190709595879595958795959587952C
S1133DD095958795AC01440F551F822F881F88271E
S1133DE0881F90E0880F991F880F991F482B592B23
S1133DF0832F90E080749070082E892F000C881F08
S1133E00990B000C881F991F482B592B862F90E083
S1133E1080729070959587959595879595958795DA
S1133E209595879595958795880F991F880F991F64
S1133E30880F991F9A01282B392B4CEB51E2C901A9
S1133E40880F991F820F931F880F991F880F991F3E
S1133E50880F991F821B930B840F951FFC01F1851A
S1133E60F88B1F86872F90E08071907095958795C9
S1133E709595879595958795959587959C01220F9E
S1133E80331F8A2F881F8827881F90E0880F991F67
S1133E90880F991F282B392B8B2F90E080749070FA
S1133EA0082E892F000C881F990B000C881F991F5E
S1133EB0282B392B812F90E08072907095958795EF
S1133EC095958795959587959595879595958795D6
S1133ED0880F991F880F991F880F991F822B932B86
S1133EE0FC01EE0FFF1FE80FF91FEE0FFF1FEE0F8F
S1133EF0FF1FEE0FFF1FE81BF90BE40FF51F83856F
S1133F0094852F853889822B932B2C01AF8DB8A1F2
S1133F104A1A5B0A8091242590912525F201E81B19
S1133F20F90BCF019F01220F331F880F991F880FB0
S1133F30991F880F991F3901680E791EC301C19614
S1133F408336910558F0F1E66F16F9E07F064CF4DC
S1133F5020EA621626EF72063CF008C06624772435
S1133F6005C06624772402C066247724B20188271A
S1133F7077FD8095982F0E94D8046B017C012981DC
S1133F803A814B815C81822F932FA42FB52FBC01E2
S1133F90CD01A70196010E94D6020E944705A62ED4
S1133FA0972E4D815E81832D922DA42FB52FBC01B8
S1133FB0CD01A70196010E94D6022AE037ED43EA1B
S1133FC05CE30E94D6022091282530912925409156
S1133FD02A2550912B250E947202C62EF72E182FE7
S1133FE0092F862F9F2DA12FB02F809328259093E2
S1133FF02925A0932A25B0932B25BC01CD0120E0CF
S113400030E040EA52E40E947C0418166CF480E02C
S113401090E0A0EAB2E48093282590932925A09308
S11340202A25B0932B251AC08C2D9F2DA12FB02F9C
S1134030BC01CD0120E030E040EA52EC0E94AA0429
S1134040882364F480E090E0A0EAB2EC8093282511
S113405090932925A0932A25B0932B258A2D992D59
S11340608038910514F08FE790E03FEF8138930793
S113407014F481E89FEFDC01BD01882777FD80956A
S1134080982F0E94D8042091282530912925409109
S11340902A2550912B250E9472026B017C01B301E9
S11340A0882777FD8095982F0E94D8049B01AC0146
S11340B06F817885E985FA85862F972FAE2FBF2FDC
S11340C0BC01CD010E94D6029B01AC01C701B6011F
S11340D00E9472020E944705862F972F803891050F
S11340E014F08FE790E040922425509225256092A9
S11340F0262570922725BFEF81389B0714F481E8A9
S11341009FEF80932E25E8E0F6E0B0817081A081D6
S11341101081308180812081608190E08071907075
S11341209595879595958795959587959595879573
S1134130AC01440F551F822F881F8827881F90E0E9
S1134140880F991F880F991F482B592B832F90E0B4
S113415080749070082E892F000C881F990B000C16
S1134160881F991F482B592B862F90E080729070DE
S11341709595879595958795959587959595879523
S113418095958795880F991F880F991F880F991FF8
S11341909A01282B392B4CEB51E2C901880F991F46
S11341A0820F931F880F991F880F991F880F991FDB
S11341B0821B930B840F951FFC01F585FA8B198ADA
S11341C0872F90E080719070959587959595879548
S11341D095958795959587959C01220F331F8A2F76
S11341E0881F8827881F90E0880F991F880F991FC0
S11341F0282B392B8B2F90E080749070082E892FF8
S1134200000C881F990B000C881F991F282B392B31
S1134210812F90E0807290709595879595958795FC
S1134220959587959595879595958795880F991F69
S1134230880F991F880F991F822B932BFC01EE0F77
S1134240FF1FE80FF91FEE0FFF1FEE0FFF1FEE0F0A
S1134250FF1FE81BF90BE40FF51F87859089298957
S11342603A89822B932B3C01A9A1BAA16A1A7B0A31
S11342708091B9249091BA24F301E81BF90BCF0182
S11342809F01220F331F880F991F880F991F880FD2
S1134290991F5901A80EB91EC501C196833691050F
S11342A058F0F1E6AF16F9E0BF064CF420EAA21686
S11342B026EFB2063CF008C0AA24BB2405C0AA24F9
S11342C0BB2402C0AA24BB24B301882777FD8095B0
S11342D0982F0E94D8046B017C0129813A814B817B
S11342E05C81822F932FA42FB52FBC01CD01A70190
S11342F096010E94D6020E944705962E872E4D8174
S11343005E81832D922DA42FB52FBC01CD01A70171
S113431096010E94D6022AE037ED43EA5CE30E944C
S1134320D6022091BD243091BE244091BF245091E7
S1134330C0240E947202C62EF72E182F092F862F32
S11343409F2DA12FB02F8093BD249093BE24A093C2
S1134350BF24B093C024BC01CD0120E030E040EA8A
S113436052E40E947C0418166CF480E090E0A0EA09
S1134370B2E48093BD249093BE24A093BF24B09351
S1134380C0241AC08C2D9F2DA12FB02FBC01CD01AC
S113439020E030E040EA52EC0E94AA04882364F44E
S11343A080E090E0A0EAB2EC8093BD249093BE2418
S11343B0A093BF24B093C024892D982D80389105F3
S11343C014F08FE790E03FEF8138930714F481E80D
S11343D09FEFDC01BD01882777FD8095982F0E940F
S11343E0D8042091BD243091BE244091BF24509123
S11343F0C0240E9472026B017C01B501882777FDFD
S11344008095982F0E94D8049B01AC016F81788518
S1134410E985FA85862F972FAE2FBF2FBC01CD01DA
S11344200E94D6029B01AC01C701B6010E94720230
S11344300E944705862F972F8038910514F08FE747
S113444090E06092B9247092BA24A092BB24B092F6
S1134450BC24BFEF81389B0714F481E89FEF80935D
S1134460C32480EA9BE06AE20E94351580EA9BE05F
S11344706EE70E94351580EA9BE060918F240E94CC
S1134480351580EA9BE0609118250E94351580EA75
S11344909BE060912E250E94351580EA9BE0609197
S11344A0C3240E94351580EA9BE063E20E9435151F
S11344B080E4E0E4F6E085832FB7F894E0E0F2E0EE
S11344C084A195A12FBF8093AB219093AC21E4E00C
S11344D0893D9E0724F480E4E0E4F6E0858380E0EF
S11344E060E00E946809E8E0F6E0B0817081A08194
S11344F0108150818081408160812DB73EB7285062
S113450030402DBF3EBFCDB6DEB60894C11CD11CD1
S11345100F2EFBEDAF2EF4E2BF2EF02DEDB7FEB75C
S1134520A182B28220E030E2F6012283338390E05C
S113453080719070959587959595879595958795B4
S1134540959587959C01220F331F842F881F8827F8
S1134550881F90E0880F991F880F991F282B392BEB
S1134560852F90E080749070082E892F000C881F8E
S1134570990B000C881F991F282B392B862F90E04C
S11345808072907095958795959587959595879563
S11345909595879595958795880F991F880F991FED
S11345A0880F991F282B392B4CEB51E2C901880F36
S11345B0991F820F931F880F991F880F991F880FC7
S11345C0991F821B930B840F951FFC01F181FC8BB7
S11345D01B8A872F90E080719070959587959595AB
S11345E0879595958795959587959C01220F331FFF
S11345F08A2F881F8827881F90E0880F991F880FAB
S1134600991F282B392B8B2F90E080749070082EE3
S1134610892F000C881F990B000C881F991F282BC9
S1134620392B812F90E080729070959587959595A0
S11346308795959587959595879595958795880FF1
S1134640991F880F991F880F991F822B932BFC01A8
S1134650EE0FFF1FE80FF91FEE0FFF1FEE0FFF1FF6
S1134660EE0FFF1FE81BF90BE40FF51F8381948104
S11346702B893C89822B932BD60114968D939C9382
S1134680159780918F24992787FD909516968D9381
S11346909C9317970E940233EDB7FEB73896EDBF8F
S11346A0FEBFC5010E945A0980E061E00E946809CA
S11346B000D000D0EDB7FEB73196ADB7BEB71196B6
S11346C0AD92BC92129788E090E2828393838091AA
S11346D0812490918224848395830E940233EDB7D0
S11346E0FEB73696EDBFFEBFC5010E945A09E0E051
S11346F0F6E0808582FF03C0AFEFB0E002C0A0E027
S1134700B0E0E8E0F6E0308180812081608190E0D3
S113471080719070959587959595879595958795D2
S113472095958795AC01440F551F822F881F8827C4
S1134730881F90E0880F991F880F991F482B592BC9
S1134740832F90E080749070082E892F000C881FAE
S1134750990B000C881F991F482B592B862F90E02A
S11347608072907095958795959587959595879581
S11347709595879595958795880F991F880F991F0B
S1134780880F991F9A01282B392BC901880F991F6B
S1134790820F931F880F991F880F991F880F991FE5
S11347A0821B930B84549E4DFC01818990E08A2BDB
S11347B09B2B009759F0E0E6F6E08085882334F0DF
S11347C081E090E08093AF219093B021E8E0F6E09F
S11347D0308180812081608190E080719070959516
S11347E08795959587959595879595958795AC012A
S11347F0440F551F822F881F8827881F90E0880F39
S1134800991F880F991F482B592B832F90E0807490
S11348109070082E892F000C881F990B000C881F9C
S1134820991F482B592B862F90E080729070959594
S1134830879595958795959587959595879595955C
S11348408795880F991F880F991F880F991F9A01C0
S1134850282B392BC901880F991F820F931F880FAA
S1134860991F880F991F880F991F821B930B8454DB
S11348709E4DDC0152968C915297882359F0E0E6C4
S1134880F6E08085882334F081E090E08093AD21C8
S11348909093AE21E1E8F4E28081909182248093A8
S11348A0912490939224AAE0B5E28C9190910B25E7
S11348B08093932490939424E0E2F5E28081909194
S11348C021258093952490939624A5EBB4E28C91B2
S11348D09091B62480939724909398248091AB214F
S11348E09091AC2195958795959587959595879504
S11348F0959587958093992480939A24E8E0F6E02F
S1134900308180812081608190819081908190812B
S113491090E080719070959587959595879595957C
S1134920879595958795AC01440F551F822F881F55
S11349308827881F90E0880F991F880F991F482B9C
S1134940592B832F90E080749070082E892F000CCF
S1134950881F990B000C881F991F482B592B862FF1
S113496090E080729070959587959595879595952B
S113497087959595879595958795880F991F880FA5
S1134980991F880F991F9A01282B392B0CEB11E2E0
S1134990C901880F991F820F931F880F991F880FD1
S11349A0991F880F991F821B930B800F911FDC01A5
S11349B013968C9180939B24F0807081C080A0809A
S11349C0308180812081608190E080719070959524
S11349D08795959587959595879595958795AC0138
S11349E0440F551F822F881F8827881F90E0880F47
S11349F0991F880F991F482B592B832F90E080749F
S1134A009070082E892F000C881F990B000C881FAA
S1134A10991F482B592B862F90E0807290709595A2
S1134A20879595958795959587959595879595956A
S1134A308795880F991F880F991F880F991F9A01CE
S1134A40282B392BC901880F991F820F931F880FB8
S1134A50991F880F991F880F991F821B930B800F32
S1134A60911FDC011196BC91BE8B1D8A872F90E0AB
S1134A70807190709595879595958795959587956F
S1134A80959587959C01220F331F8C2D881F8827AD
S1134A90881F90E0880F991F880F991F282B392BA6
S1134AA08F2D90E080749070082E892F000C881F41
S1134AB0990B000C881F991F282B392B8A2D90E005
S1134AC0807290709595879595958795959587951E
S1134AD09595879595958795880F991F880F991FA8
S1134AE0880F991F282B392BC901880F991F820F12
S1134AF0931F880F991F880F991F880F991F821B76
S1134B00930B800F911FDC0113968D919C91149748
S1134B102D893E89822B932B90939C243081808114
S1134B2020816081908190819081908190E080715A
S1134B309070959587959595879595958795959575
S1134B408795AC01440F551F822F881F8827881F23
S1134B5090E0880F991F880F991F482B592B832F9A
S1134B6090E080749070082E892F000C881F990B98
S1134B70000C881F991F482B592B862F90E08072B8
S1134B809070959587959595879595958795959525
S1134B90879595958795880F991F880F991F880F7A
S1134BA0991F9A01282B392BC901880F991F820F4D
S1134BB0931F880F991F880F991F880F991F821BB5
S1134BC0930B800F911FDC0117968C9180939D2489
S1134BD0F0807081C080A0803081808120816081DC
S1134BE090E08071907095958795959587959595AA
S1134BF0879595958795AC01440F551F822F881F83
S1134C008827881F90E0880F991F880F991F482BC9
S1134C10592B832F90E080749070082E892F000CFC
S1134C20881F990B000C881F991F482B592B862F1E
S1134C3090E0807290709595879595958795959558
S1134C4087959595879595958795880F991F880FD2
S1134C50991F880F991F9A01282B392BC901880F96
S1134C60991F820F931F880F991F880F991F880F10
S1134C70991F821B930B800F911FDC011596BC9129
S1134C80B88F1F8A872F90E08071907095958795D3
S1134C909595879595958795959587959C01220F70
S1134CA0331F8C2D881F8827881F90E0880F991F39
S1134CB0880F991F282B392B8F2D90E080749070CA
S1134CC0082E892F000C881F990B000C881F991F30
S1134CD0282B392B8A2D90E08072907095958795BA
S1134CE095958795959587959595879595958795A8
S1134CF0880F991F880F991F880F991F282B392B0C
S1134D00C901880F991F820F931F880F991F880F5D
S1134D10991F880F991F821B930B800F911FDC0131
S1134D2017968D919C9118972F89388D822B932BF0
S1134D3090939E2430818081208160819081908134
S1134D409081908190E0807190709595879595956C
S1134D5087959595879595958795AC01440F551F33
S1134D60822F881F8827881F90E0880F991F880F3B
S1134D70991F482B592B832F90E080749070082E34
S1134D80892F000C881F990B000C881F991F482B32
S1134D90592B862F90E08072907095958795959504
S1134DA08795959587959595879595958795880F7A
S1134DB0991F880F991F880F991F9A01282B392B47
S1134DC0C901880F991F820F931F880F991F880F9D
S1134DD0991F880F991F821B930B800F911FDC0171
S1134DE01B968C9180939F24F0807081C080A0805A
S1134DF0308180812081608190E0807190709595F0
S1134E008795959587959595879595958795AC0103
S1134E10440F551F822F881F8827881F90E0880F12
S1134E20991F880F991F482B592B832F90E080746A
S1134E309070082E892F000C881F990B000C881F76
S1134E40991F482B592B862F90E08072907095956E
S1134E508795959587959595879595958795959536
S1134E608795880F991F880F991F880F991F9A019A
S1134E70282B392BC901880F991F820F931F880F84
S1134E80991F880F991F880F991F821B930B800FFE
S1134E90911FDC011996BC91BA8F198E872F90E06F
S1134EA0807190709595879595958795959587953B
S1134EB0959587959C01220F331F8C2D881F882779
S1134EC0881F90E0880F991F880F991F282B392B72
S1134ED08F2D90E080749070082E892F000C881F0D
S1134EE0990B000C881F991F282B392B8A2D90E0D1
S1134EF080729070959587959595879595958795EA
S1134F009595879595958795880F991F880F991F73
S1134F10880F991F282B392BC901880F991F820FDD
S1134F20931F880F991F880F991F880F991F821B41
S1134F30930B800F911FDC011B968D919C911C9704
S1134F40298D3A8D822B932B9093A02430818081DC
S1134F5020816081908190819081908190E0807126
S1134F609070959587959595879595958795959541
S1134F708795AC01440F551F822F881F8827881FEF
S1134F8090E0880F991F880F991F482B592B832F66
S1134F9090E080749070082E892F000C881F990B64
S1134FA0000C881F991F482B592B862F90E0807284
S1134FB090709595879595958795959587959595F1
S1134FC0879595958795880F991F880F991F880F46
S1134FD0991F9A01282B392BC901880F991F820F19
S1134FE0931F880F991F880F991F880F991F821B81
S1134FF0930B800F911FDC011F968C918093A12449
S1135000B0817081A081F0803081808120816081B5
S113501090E0807190709595879595958795959575
S1135020879595958795AC01440F551F822F881F4E
S11350308827881F90E0880F991F880F991F482B95
S1135040592B832F90E080749070082E892F000CC8
S1135050881F990B000C881F991F482B592B862FEA
S113506090E0807290709595879595958795959524
S113507087959595879595958795880F991F880F9E
S1135080991F880F991F9A01282B392BC901880F62
S1135090991F820F931F880F991F880F991F880FDC
S11350A0991F821B930B800F911FFC01F585FC8FC8
S11350B01B8E872F90E080719070959587959595BC
S11350C0879595958795959587959C01220F331F14
S11350D08A2F881F8827881F90E0880F991F880FC0
S11350E0991F282B392B8B2F90E080749070082EF9
S11350F0892F000C881F990B000C881F991F282BDF
S1135100392B8F2D90E080729070959587959595A9
S11351108795959587959595879595958795880F06
S1135120991F880F991F880F991F822B932BFC01BD
S1135130EE0FFF1FE80FF91FEE0FFF1FEE0FFF1F0B
S1135140EE0FFF1FE81BF90BE00FF11F8785908915
S11351502B8D3C8D822B932B9093A22480E2E0E64E
S1135160F6E0878381E994E260E270E00E94D33143
S11351700E9476313AE03A95F1F700C00C94FF189A
S11351801F920F920FB60F9208B60F9209B60F92A4
S11351900AB60F920BB60F921124EF92FF920F935F
S11351A01F932F933F934F935F936F937F938F93AB
S11351B09F93AF93BF93CF93DF93EF93FF9387E2D4
S11351C060E70E940F32082F86FF2BC58FE494E21C
S11351D060E270E00E940A32A0914F24E8E0F6E019
S11351E02081408180816081EA2FF0E050E04071AD
S11351F050705595479555954795559547955595AF
S11352004795440F551F881F8827881F90E0880FF3
S1135210991F880F991F842B952B30E020743070D0
S1135220022E232F000C221F330B000C221F331FCE
S1135230822B932B70E060727070759567957595ED
S11352406795759567957595679575956795660FD7
S1135250771F660F771F660F771F862B972BE8172C
S1135260F90709F0DEC41092B1211092B221C8E00E
S1135270D6E0288148818881688150E0407150706F
S11352805595479555954795559547955595479502
S1135290440F551F881F8827881F90E0880F991F87
S11352A0880F991F842B952B30E020743070022EC8
S11352B0232F000C221F330B000C221F331F822BC1
S11352C0932B262F30E02072307035952795359535
S11352D02795359527953595279535952795220F4B
S11352E0331F220F331F220F331F282B392B0F2E6E
S11352F0FCEBEF2EF1E2FF2EF02DC901880F991F70
S1135300820F931F880F991F880F991F880F991F69
S1135310821B930BF701E80FF91FA0835881888142
S11353202881488190E08071907095958795959536
S113533087959595879595958795880F991F221F31
S11353402227221F30E0220F331F220F331F822B0C
S1135350932B252F30E020743070022E232F000C65
S1135360221F330B000C221F331F822B932B242F5D
S113537030E0207230703595279535952795359511
S113538027953595279535952795220F331F220F9D
S1135390331F220F331F282B392BC901880F991F64
S11353A0820F931F880F991F880F991F880F991FC9
S11353B0821B930BF701E80FF91F8091502481831E
S11353C01282588188812881488190E08071907090
S11353D095958795959587959595879595958795B1
S11353E0880F991F221F2227221F30E0220F331F0C
S11353F0220F331F822B932B252F30E02074307023
S1135400022E232F000C221F330B000C221F331FEC
S1135410822B932B242F30E0207230703595279502
S11354203595279535952795359527953595279560
S1135430220F331F220F331F220F331F282B392B28
S1135440C901880F991F820F931F880F991F880F16
S1135450991F880F991F821B930BF701E80FF91FFF
S113546080915124838314825881888128814881C2
S113547090E0807190709595879595958795959511
S1135480879595958795880F991F221F2227221F9C
S113549030E0220F331F220F331F822B932B252F33
S11354A030E020743070022E232F000C221F330BA7
S11354B0000C221F331F822B932B242F30E02072E9
S11354C030703595279535952795359527953595DC
S11354D0279535952795220F331F220F331F220F4F
S11354E0331F282B392BC901880F991F820F931F53
S11354F0880F991F880F991F880F991F821B930B80
S1135500F701E80FF91F8091522485831682588190
S113551088812881488190E0807190709595879565
S1135520959587959595879595958795880F991F56
S1135530221F2227221F30E0220F331F220F331F86
S1135540822B932B252F30E020743070022E232FD2
S1135550000C221F330B000C221F331F822B932BB2
S1135560242F30E020723070359527953595279596
S1135570359527953595279535952795220F331F12
S1135580220F331F220F331F282B392BC901880FF9
S1135590991F820F931F880F991F880F991F880FD7
S11355A0991F821B930BF701E80FF91F8091532475
S11355B087831086588188812881488190E0807192
S11355C090709595879595958795959587959595DB
S11355D08795880F991F221F2227221F30E0220F50
S11355E0331F220F331F822B932B252F30E020747F
S11355F03070022E232F000C221F330B000C221FAD
S1135600331F822B932B242F30E02072307035957A
S1135610279535952795359527953595279535956E
S11356202795220F331F220F331F220F331F282BDE
S1135630392BC901880F991F820F931F880F991F57
S1135640880F991F880F991F821B930BF701E80F8E
S1135650F91F80915424818712865881888128817A
S1135660488190E080719070959587959595879580
S11356709595879595958795880F991F221F2227C1
S1135680221F30E0220F331F220F331F822B932B54
S1135690252F30E020743070022E232F000C221F9F
S11356A0330B000C221F331F822B932B242F30E04B
S11356B02072307035952795359527953595279522
S11356C03595279535952795220F331F220F331FC4
S11356D0220F331F282B392BC901880F991F820FE2
S11356E0931F880F991F880F991F880F991F821B7A
S11356F0930BF701E80FF91F8091552483871486D3
S1135700588188812881488190E0807190709595B6
S11357108795959587959595879595958795880F00
S1135720991F221F2227221F30E0220F331F220F2E
S1135730331F822B932B252F30E020743070022EE0
S1135740232F000C221F330B000C221F331F822B2C
S1135750932B242F30E020723070359527953595A2
S11357602795359527953595279535952795220FB6
S1135770331F220F331F220F331F282B392BC9014C
S1135780880F991F820F931F880F991F880F991FE5
S1135790880F991F821B930BF701E80FF91F809163
S11357A0562485871686588188812881488190E00F
S11357B08071907095958795959587959595879522
S11357C095958795880F991F221F2227221F30E065
S11357D0220F331F220F331F822B932B252F30E0F0
S11357E020743070022E232F000C221F330B000C68
S11357F0221F331F822B932B242F30E02072307012
S1135800359527953595279535952795359527957C
S113581035952795220F331F220F331F220F331F75
S1135820282B392BC901880F991F820F931F880FCA
S1135830991F880F991F880F991F821B930BF701DB
S1135840E80FF91F809157248787108A588188812F
S11358502881488190E08071907095958795959501
S113586087959595879595958795880F991F221FFC
S11358702227221F30E0220F331F220F331F822BD7
S1135880932B252F30E020743070022E232F000C30
S1135890221F330B000C221F331F822B932B242F28
S11358A030E02072307035952795359527953595DC
S11358B027953595279535952795220F331F220F68
S11358C0331F220F331F282B392BC901880F991F2F
S11358D0820F931F880F991F880F991F880F991F94
S11358E0821B930BF701E80FF91F80915824818BD9
S11358F0588188812881488190E0807190709595C5
S11359008795959587959595879595958795880F0E
S1135910991F221F2227221F30E0220F331F220F3C
S1135920331F822B932B252F30E020743070022EEE
S1135930232F000C221F330B000C221F331F822B3A
S1135940932B242F30E020723070359527953595B0
S11359502795359527953595279535952795220FC4
S1135960331F220F331F220F331F282B392BC9015A
S1135970880F991F820F931F880F991F880F991FF3
S1135980880F991F821B930BF701E80FF91F809171
S11359905924828B588188812881488190E08071C4
S11359A090709595879595958795959587959595F7
S11359B08795880F991F221F2227221F30E0220F6C
S11359C0331F220F331F822B932B252F30E020749B
S11359D03070022E232F000C221F330B000C221FC9
S11359E0331F822B932B242F30E020723070359597
S11359F0279535952795359527953595279535958B
S1135A002795220F331F220F331F220F331F282BFA
S1135A10392BC901880F991F820F931F880F991F73
S1135A20880F991F880F991F821B930BF701E80FAA
S1135A30F91F80915A24838B588188812881488159
S1135A4090E080719070959587959595879595953B
S1135A50879595958795880F991F221F2227221FC6
S1135A6030E0220F331F220F331F822B932B252F5D
S1135A7030E020743070022E232F000C221F330BD1
S1135A80000C221F331F822B932B242F30E0207213
S1135A903070359527953595279535952795359506
S1135AA0279535952795220F331F220F331F220F79
S1135AB0331F282B392BC901880F991F820F931F7D
S1135AC0880F991F880F991F880F991F821B930BAA
S1135AD0F701E80FF91F80915B24848B588188813A
S1135AE02881488190E0807190709595879595956F
S1135AF087959595879595958795880F991F221F6A
S1135B002227221F30E0220F331F220F331F822B44
S1135B10932B252F30E020743070022E232F000C9D
S1135B20221F330B000C221F331F822B932B242F95
S1135B3030E0207230703595279535952795359549
S1135B4027953595279535952795220F331F220FD5
S1135B50331F220F331F282B392BC901880F991F9C
S1135B60820F931F880F991F880F991F880F991F01
S1135B70821B930BF701E80FF91F80915C24858B3E
S1135B80888148812881688150E040715070559522
S1135B904795559547955595479555954795440F80
S1135BA0551F221F2227221F30E0220F331F220FEE
S1135BB0331F242B352B90E080749070082E892F8E
S1135BC0000C881F990B000C881F991F282B392B58
S1135BD0862F90E08072907095958795959587951E
S1135BE0959587959595879595958795880F991F90
S1135BF0880F991F880F991F822B932B9C01220FCA
S1135C00331F280F391F220F331F220F331F220F78
S1135C10331F281B390BE20EF31E80915D24F7011C
S1135C20868B04FF01C085D3FF91EF91DF91CF9163
S1135C30BF91AF919F918F917F916F915F914F91A0
S1135C403F912F911F910F91FF90EF900F900BBEFA
S1135C500F900ABE0F9009BE0F9008BE0F900FBEA2
S1135C600F901F9018951F920F920FB60F9208B6BF
S1135C700F9209B60F920AB60F920BB60F92112427
S1135C802F933F934F935F936F937F938F939F9340
S1135C90AF93BF93CF93DF93EF93FF93A895809136
S1135CA073248F5F8093732484314CF084E0E0E6A6
S1135CB0F6E0878381E08093A6211092732480917B
S1135CC0A7219091A821A091A921B091AA21019680
S1135CD0A11DB11D8093A7219093A821A093A92170
S1135CE0B093AA218091AF219091B0210097E1F166
