:10000000F9C000001CC100000C94F32F18C10000BF
:1000100016C1000014C1000012C1000010C1000090
:100020000EC100000CC100000AC1000008C10000A0
:1000300006C1000004C100000C94960C0C94CB0C7B
:100040000C94000D0C94350D0C946A0D0C949F0DBE
:100050000C94D40D0C94090E0C943E0E0C94730E5B
:10006000EEC00000ECC00000EAC00000E8C00000E4
:10007000E6C00000E4C00000E2C00000E0C00000F4
:10008000DEC00000DCC00000DAC00000D8C0000004
:10009000D6C00000D4C00000D2C00000D0C0000014
:1000A000CEC00000CCC00000CAC000000C940128E3
:1000B000C6C00000C4C00000C2C000000C9485107F
:1000C0000C94BA100C94EF100C9424110C94591148
:1000D0000C948E110C94C3110C94F8110C942D12E5
:1000E0000C946212ACC00000AAC00000A8C00000BE
:1000F000A6C00000A4C00000A2C00000A0C0000074
:100100009EC000009CC000009AC0000098C0000083
:1001100096C0000094C0000092C0000090C0000093
:100120008EC000008CC000008AC0000088C00000A3
:1001300086C000000C94102E0C94A80E0C94DD0EBA
:100140000C94120F0C94470F0C947C0F0C94B10F6D
:100150000C94E60F0C941B100C94501070C000000F
:100160006EC000006CC000006AC0000068C00000E3
:1001700066C0000064C000000C94A12F0C941C30D9
:100180000C94CA2F0C9445305AC0000058C000008F
:100190000C94613054C0000052C0000050C00000F8
:1001A0000C94932F4CC000004AC0000048C00000CF
:1001B0000C9497120C94CC120C9401130C943613DB
:1001C0000C946B130C94A0130C94D5130C940A1478
:1001D0000C943F140C94741432C000000C946F30D3
:1001E0002EC000002CC000002AC0000028C0000063
:1001F00026C0000011241FBECFEFDFE3DEBFCDBF5E
:1002000000E00CBF18BE19BE1ABE1BBE11E2A0E072
:10021000B0E2EEE2FAE600E00BBF02C007900D92FA
:10022000AC34B107D9F715E2ACE4B1E201C01D92DC
:10023000A533B107E1F70E94A3170C941535E0CE62
:10024000A0E0B0E0E6E2F1E00C942A32EC014B01D0
:10025000FA018881823008F43EC1DB019C91923022
:1002600008F436C1843059F4943009F034C19981CE
:1002700011968C911197981709F027C12CC19430D1
:1002800009F426C19230A9F4823009F024C1CE01CC
:1002900028E0DC010D90CD01DA010D92AD01215075
:1002A000C1F7D40111968C9111979981892381838B
:1002B00011C1823009F40CC1AA80BB80DB01129607
:1002C0004D915C911397CC80DD80EE80FF80149679
:1002D0000D911D912D913C911797C501841B950B94
:1002E000DC0197FF04C0AA27BB27A81BB90BA032CB
:1002F000B1050CF067C01816190684F528013901FC
:100300000A2E04C076946794579447940A94D2F7BF
:1003100041E050E060E070E004C0440F551F661FEC
:10032000771FAA95D2F7415050406040704040235B
:1003300051236223732381E090E0A0E0B0E04115F7
:1003400051056105710519F480E090E0DC018C0134
:100350009D0104291529262937293FC00097E9F175
:10036000AA0EBB1E260137010A2E04C0769467949C
:10037000579447940A94D2F741E050E060E070E06F
:1003800004C0440F551F661F771FAA95D2F741502E
:100390005040604070404C215D216E217F2181E002
:1003A00090E0A0E0B0E0411551056105710519F438
:1003B00080E090E0DC016C017D01C428D528E628AE
:1003C000F7280BC04A155B0524F400E010E0980103
:1003D00004C05A01CC24DD2476018981D401119610
:1003E0009C911197891709F445C0882329F00C19AD
:1003F0001D092E093F0908C0D701C601801B910BBA
:10040000A20BB30B8C019D0137FD04C01182A282A7
:10041000B3820BC081E08183A282B38230952095A4
:10042000109501951F4F2F4F3F4F0483158326834F
:1004300037830DC0880F991FAA1FBB1F8483958324
:10044000A683B7838281938101978283938384817A
:100450009581A681B781AC01BD01415050406040FB
:1004600070404F3F2FEF52072FEF62072FE37207C5
:1004700008F30BC08183A282B3820C0D1D1D2E1DBB
:100480003F1D048315832683378383E08083448163
:1004900055816681778177FF1DC0DB01CA018170BC
:1004A0009070A070B0707695679557954795842B9E
:1004B000952BA62BB72B84839583A683B783828144
:1004C000938101968283938305C0CCE0D0E203C080
:1004D000E40101C0EF01CE01CDB7DEB7E0E10C943D
:1004E0004332A0E2B0E0E7E7F2E00C943832DC01FE
:1004F000CB018D839E83AF83B88729833A834B8357
:100500005C83CE010596BE01675E7F4FB4D4CE01F9
:100510000196BE016F5E7F4FAED4CE014996BE01FB
:100520006F5E7F4FAE01475F5F4F8ADECDD3462FB0
:10053000572F682F792FCB01BA01A096E2E00C94D7
:100540005132A0E2B0E0E7EAF2E00C943832DC018C
:10055000CB018D839E83AF83B88729833A834B83F6
:100560005C83CE010596BE01675E7F4F84D4CE01C9
:100570000196BE016F5E7F4F7ED48A8991E0892704
:100580008A8BCE014996BE016F5E7F4FAE01475FF9
:100590005F4F56DE99D3462F572F682F792FCB0107
:1005A000BA01A096E2E00C945132A0E2B0E0EBED8B
:1005B000F2E00C942A32DC01CB018D839E83AF8361
:1005C000B88729833A834B835C83CE010596BE01AD
:1005D000675E7F4F50D4CE010196BE016F5E7F4FA4
:1005E0004AD4998D923078F089898230C0F0943065
:1005F00019F4823041F4CAC0843019F4923079F48D
:10060000C5C0923051F481E02A8D9A89291709F4E6
:1006100080E08A8FCE014996BBC0823051F481E0E0
:100620002A8D9A89291709F480E08A8BCE01419698
:10063000AFC04D8C5E8C6F8C78A00D891E892F8980
:10064000388DE0E2F0E040E050E0BA0188249924DF
:100650005401CC24DD247601C20181709070009792
:10066000D1F0C00ED11EE21EF31EDB01CA01880DBF
:10067000991DAA1DBB1D41E050E060E070E0C0166E
:10068000D106E206F30618F040E050E0BA01480F48
:10069000591F6A1F7B1F880C991CAA1CBB1C37FFA3
:1006A00008C081E090E0A0E0B0E0882A992AAA2A58
:1006B000BB2A000F111F221F331F76946794579493
:1006C0004794319749F68B8D9C8D2B893C89820FFD
:1006D000931F02968B879C8781E02A8D9A89291720
:1006E00009F480E08A872B853C8517C0CA01817098
:1006F0009070009761F0F694E794D794C79480E0E7
:1007000090E0A0E0B0E8C82AD92AEA2AFB2A769528
:100710006795579547952F5F3F4F77FDE7CFC90105
:100720000BC0440F551F661F771FF7FC4160CC0CB0
:10073000DD1CEE1CFF1C01974030A0E05A07A0E032
:100740006A07A0E47A0768F38B879C87DB01CA01FC
:100750008F779070A070B07080349105A105B105BD
:1007600061F447FD0AC0C114D104E104F10429F089
:10077000405C5F4F6F4F7F4F40784D875E876F873C
:10078000788B83E08987CE01099602C08CE090E2E5
:100790009BD2462F572F682F792FCB01BA01A096F5
:1007A000E0E10C944332A8E1B0E0E9EDF3E00C9411
:1007B0003232DC01CB018D839E83AF83B8872983DE
:1007C0003A834B835C83CE010596BE016F5E7F4FFB
:1007D00052D3CE010196BE01675F7F4F4CD39989FA
:1007E000923008F475C08985823008F474C02A8973
:1007F0003A8523272A8B943011F0923021F49817F0
:1008000009F066C06BC0843039F41D8A1E8A1F8AC5
:10081000188E1B8A1C8A5CC0823019F484E0898B94
:1008200057C02B893C898B859C85281B390B2B8BCA
:100830003C8B8D899E89AF89B88DCD84DE84EF8411
:10084000F8888C159D05AE05BF0540F4880F991FEB
:10085000AA1FBB1F215030402B8B3C8BEFE1F0E0F7
:1008600000E010E020E030E440E050E0BA018C15F8
:100870009D05AE05BF0540F0402B512B622B732B1D
:100880008C199D09AE09BF093695279517950795CF
:10089000880F991FAA1FBB1F319749F78A019B0137
:1008A0000F7710702070307000341105210531056C
:1008B00059F447FD09C00097A105B10529F0405C36
:1008C0005F4F6F4F7F4F40784D8B5E8B6F8B788F74
:1008D000CE01419605C0CE01099602C08CE090E29F
:1008E000F3D1462F572F682F792FCB01BA01689685
:1008F000E8E00C944B32A8E1B0E0E1E8F4E00C94BD
:100900003832DC01CB018D839E83AF83B887298386
:100910003A834B835C83CE010596BE016F5E7F4FA9
:10092000AAD2CE010196BE01675F7F4FA4D289890A
:10093000823050F08985823038F0CE014196BE0178
:10094000675F7F4F01D301C08FEF6896E2E00C94A0
:100950005132A8E1B0E0EFEAF4E00C943832DC0167
:10096000CB018D839E83AF83B88729833A834B83E2
:100970005C83CE010596BE016F5E7F4F7CD2CE01B7
:100980000196BE01675F7F4F76D28989823050F031
:100990008985823038F0CE014196BE01675F7F4F76
:1009A000D3D201C081E06896E2E00C945132CF923C
:1009B000DF92EF92FF92CF93DF93CDB7DEB7289708
:1009C000CDBFDEBF6B017C0183E08983D701C60107
:1009D0008827B7FD83959927AA27BB27282F8A83C5
:1009E000C114D104E104F10419F482E0898334C014
:1009F0008EE190E08B839C83222389F080E0C816EF
:100A000080E0D80680E0E80680E8F80649F1F09436
:100A1000E094D094C094C11CD11CE11CF11CCD8287
:100A2000DE82EF82F886C701B601FBD00197181667
:100A3000190694F4082E04C0CC0CDD1CEE1CFF1C1F
:100A40000A94D2F7CD82DE82EF82F8862EE130E082
:100A5000281B390B2B833C83CE01019635D104C072
:100A600060E070E080E09FEC382F292F862F972FD1
:100A7000A32FB22FBC01CD012896CDBFDEBFDF91E1
:100A8000CF91FF90EF90DF90CF900895ACE0B0E071
:100A9000ECE4F5E00C943632DC01CB0189839A83D7
:100AA000AB83BC83CE010196BE016B5F7F4FE3D168
:100AB0008D81823069F1823058F1843039F02F8194
:100AC000388537FD25C02F31310544F08E818823CC
:100AD00019F100E010E020E030E822C08EE190E063
:100AE000821B930B09851A852B853C8504C036959E
:100AF0002795179507958A95D2F78E81882381F0DF
:100B000030952095109501951F4F2F4F3F4F08C0EE
:100B100000E010E0980104C00FEF1FEF2FEF3FE758
:100B2000B801C9012C96E4E00C944F32A8E0B0E083
:100B3000ECE9F5E00C9432326B017C011A8261150C
:100B400071058105910519F482E089835DC083E018
:100B500089830EE110E00B831C83CD82DE82EF825D
:100B6000F886C701B6015DD09C012150304037FFA7
:100B700038C0EE27FF27E21BF30B81E090E0A0E0F6
:100B8000B0E00E2E04C0880F991FAA1FBB1F0A9445
:100B9000D2F70197A109B1098C219D21AE21BF2176
:100BA00041E050E060E070E00097A105B10519F464
:100BB00040E050E0BA0104C0F694E794D794C7949B
:100BC000EA95D2F7C42AD52AE62AF72ACD82DE8210
:100BD000EF82F8868EE190E0821B930B8B839C83DF
:100BE00013C02115310581F0022E04C0CC0CDD1C90
:100BF000EE1CFF1C0A94D2F7CD82DE82EF82F886CB
:100C0000021B130B0B831C83CE0101965DD0462F74
:100C1000572F682F792FCB01BA012896E8E00C9462
:100C20004B32CF92DF92EF92FF920F931F938B0183
:100C30009C01003080E0180781E0280780E0380739
:100C400050F40F3F11052105310509F088F480E0CB
:100C500090E0DC0116C00030E0E01E07E0E02E0767
:100C6000E1E03E0750F480E190E0A0E0B0E009C090
:100C700088E090E0A0E0B0E004C088E190E0A0E06F
:100C8000B0E040E250E060E070E0481B590B6A0BB6
:100C90007B0B6801790104C0F694E794D794C7945C
:100CA0008A95D2F7D701C6018C5E9F4DFC018081E9
:100CB000481B510961097109CA011F910F91FF90E9
:100CC000EF90DF90CF900895CF92DF92EF92FF9256
:100CD0000F931F93DC0114964D915D916D917C9162
:100CE00017971196EC9111978C91823020F46061E6
:100CF0008FEF90E0A5C0843009F49DC0823009F4E4
:100D000094C0411551056105710509F491C0129611
:100D10008D919C9113972FEF823892070CF059C058
:100D200022E83FEF281B390B2A31310564F56A01AF
:100D30007B01022E04C0F694E794D794C7940A94DA
:100D4000D2F781E090E0A0E0B0E004C0880F991FE6
:100D5000AA1FBB1F2A95D2F70197A109B1098423C5
:100D60009523A623B72341E050E060E070E00097B0
:100D7000A105B10519F440E050E0BA014C295D2904
:100D80006E297F2903C040E050E0BA01DB01CA01AF
:100D90008F779070A070B07080349105A105B10577
:100DA00039F447FF09C0405C5F4F6F4F7F4F04C06D
:100DB000415C5F4F6F4F7F4F81E090E0403020E01B
:100DC000520720E0620720E4720738F580E090E0E7
:100DD00024C0803891057CF58A019B010F77107043
:100DE00020703070003411052105310539F447FFBA
:100DF00009C0405C5F4F6F4F7F4F04C0415C5F4F45
:100E00006F4F7F4F77FD03C081589F4F06C0769587
:100E100067955795479580589F4F97E076956795CA
:100E2000579547959A95D1F70BC080E090E005C0A3
:100E300080E090E005C08FEF90E040E050E0BA0124
:100E4000982F979599279795A62FAF77E795EE2737
:100E5000E79586953A2F392B282F2E2B842F952F07
:100E6000A32FB22FBC01CD011F910F91FF90EF90E6
:100E7000DF90CF900895DC01FB014C9111965C91BD
:100E8000119712968C911297682F6F7770E0982FB8
:100E9000991F9927991F13962C911397822F880FCA
:100EA000892B90E0221F2227221F2183009739F5EA
:100EB000411551056105710511F482E029C082E8F0
:100EC0009FEF8283938327E0440F551F661F771F90
:100ED0002A95D1F783E0808309C0440F551F661F10
:100EE000771F82819381019782839383403080E0D2
:100EF000580780E0680780E4780778F320C08F3FC8
:100F0000910579F4411551056105710519F484E0E5
:100F10008083089564FF03C081E0808310C0108245
:100F20000EC08F5790408283938383E0808387E055
:100F3000440F551F661F771F8A95D1F7706444834D
:100F40005583668377830895CF93FC01DB019081FD
:100F5000923008F44CC08C91823008F448C0943030
:100F600069F42181843039F411968C91119790E0C5
:100F7000821B910944C02223D1F13FC0843021F06B
:100F8000923041F48230B1F111968C9111978823FF
:100F9000A1F12DC0C181823001F111968C91119780
:100FA000C817D9F48281938112962D913C911397A1
:100FB0002817390794F082179307BCF044815581B4
:100FC0006681778114968D919D910D90BC91A02D95
:100FD00084179507A607B70718F4CC2341F00DC076
:100FE000481759076A077B0728F4CC2331F081E0C2
:100FF00090E005C080E090E002C08FEF9FEFCF91BE
:101000000895E4E2F6E09081282F2170220F220F4C
:101010009B7F922B908390E06081AC014270507076
:10102000559547959A01220F331F22953295307FAF
:101030003227207F3227362F3F7D232B208360816C
:10104000AC014470507055954795559547959A0158
:1010500022953295307F3227207F3227362F3F7EF0
:10106000232B2083E4E4F6E04081887090709C019B
:10107000359527953595279535952795C901880F7D
:10108000991F82959295907F9827807F9827942F1B
:101090009F7D892B80830895E0E2F6E08081846063
:1010A0008083808180628083808180618083E0E4AE
:1010B000F6E08081806280830895E0E2F6E080813E
:1010C0008B7F808380818F7D808380818F7E8083F2
:1010D000E0E4F6E080818F7D808308951F93CF93B5
:1010E000DF93182F8FE193E00197F1F700C0000024
:1010F000812F82958F7085DFC4E2D6E0888182607F
:10110000888388818860888395ED9A95F1F700003F
:101110008881877F888385ED8A95F1F70000812F8C
:1011200070DF88818860888395ED9A95F1F70000DB
:101130008881877F8883DF91CF911F9108951F93C6
:10114000CF93DF93182F8150823038F48FE39CE9DE
:101150000197F1F700C0000006C08FE39FE10197FF
:10116000F1F700C00000812F82958F704ADFC4E242
:10117000D6E088818D7F888388818860888395ED1B
:101180009A95F1F700008881877F888385ED8A959D
:10119000F1F70000812F35DF88818860888395ED25
:1011A0009A95F1F700008881877F8883DF91CF913E
:1011B0001F910895CF93DF93C4E2D6E08881877FA3
:1011C00088837BDF8FEF97EEA3E081509040A040B3
:1011D000E1F700C0000060DF83E013DFE0E2F6E04B
:1011E00080818260808380818160808388818D7F1F
:1011F000888388818E7F888380818860808395ED55
:101200009A95F1F70000888188608883A5EDAA95FA
:10121000F1F700008881877F88838FEF93EFA1E04B
:1012200081509040A040E1F700C0000088818860B4
:10123000888395ED9A95F1F700008881877F8883F0
:10124000AFE1B3E01197F1F700C00000888188603A
:101250008883B5EDBA95F1F700008881877F888390
:101260008FE193E00197F1F700C0000082E0C9DE52
:1012700095ED9A95F1F70000888188608883A5ED47
:10128000AA95F1F700008881877F88838FE193E03A
:101290000197F1F700C0000088E251DF88E04FDFDE
:1012A00081E04DDF86E04BDF8CE049DFDF91CF91BD
:1012B0000895CF93DF93EC018881882329F021964C
:1012C0000DDF89918823E1F7DF91CF910895623096
:1012D00031F0633031F0613029F4805C03C08C5E02
:1012E00001C08C5A80682BCFFB01882331F08081AC
:1012F000882331F481E080830895108280E008958E
:1013000080E00895E0E2F7E084812091AD21A09192
:101310001421B0E047E151E2AA0FBB1FA40FB51F93
:1013200080789C91892B82238483E0E0F7E03481EC
:101330008091152190E0880F991F840F951F3078B8
:10134000DC019C91832F892B28232483089580918D
:1013500015218E3031F4809114218F3011F40C94CA
:10136000591608951F93CF93DF93809116218130F2
:1013700009F480C0813020F0823009F017C1EFC03D
:10138000C0E0D7E01C816091A3217091A4218091DD
:10139000A5219091A62124E630E040E050E00E9493
:1013A00006322795222727951F77122B1C8380E86A
:1013B000E0E2F7E08683E0EEF6E060858085208558
:1013C000408550E041705070440F551FE82FF0E009
:1013D000E470F070F595E795F595E795E42B70E0EE
:1013E0006870707075956795759567957595679533
:1013F000AB01440F551F440F551F4E2B30E0227098
:10140000307035952795C901880F991F880F991F4E
:10141000880F991F842B8093152180E180931421DC
:1014200071DF8091E806881F8827881F6FE471E2CA
:101430005BDF882329F0809116218F5F809316212E
:101440008091A80690E0807190709595879595950C
:10145000879595958795959587956EE471E244DF1C
:10146000882309F4A3C084E690E080934C219093F4
:101470004D219CC0C0E2D7E01C816091A3217091F6
:10148000A4218091A5219091A62124E630E040E09E
:1014900050E00E9406322795222727951F77122BAE
:1014A0001C8380E8E0E0F7E08583E0EEF6E060850D
:1014B00080852085408550E041705070440F551F55
:1014C000E82FF0E0E470F070F595E795F595E79575
:1014D000E42B70E0687070707595679575956795E9
:1014E00075956795AB01440F551F440F551F4E2B43
:1014F00030E02270307035952795C901880F991F0B
:10150000880F991F880F991F842B80931421FADE6E
:101510008091E806881F8827881F6FE471E2E4DE67
:10152000882329F0809116218F5F80931621809166
:10153000A80690E080719070959587959595879510
:1015400095958795959587956EE471E2CDDE882314
:1015500069F18091162181508093162127C080E87F
:10156000E0E2F7E08583E0E0F7E08583F0DE80915C
:10157000A80690E0807190709595879595958795D0
:1015800095958795959587956EE471E2ADDE8823F4
:1015900069F080911621815080931621C4E1D1E237
:1015A00081E18883D4DE80E18883ACDEDF91CF9156
:1015B0001F910895EF92FF920F931F93CF93DF93A4
:1015C000FF24C5E1D1E28E01015010400F2EF1E160
:1015D000EF2EF02DF882F801E082B9DEF394F0E10D
:1015E000FF16C1F780E1809314218093152110929A
:1015F0001621DF91CF911F910F91FF90EF900895E9
:101600002FB7F894FC01E059FF4F60958081682363
:1016100060832FBF08952FB7F894FC01E059FF4F66
:101620008081682B60832FBF089522E0803092076D
:1016300061F480915021982F9F5F909350218823CF
:10164000A1F481E090E062E0DBCF22E080349207F9
:1016500061F480915121982F9F5F909351218823AD
:1016600021F482E090E062E0CBCF089522E0803068
:10167000920759F480915021815080935021882302
:1016800099F481E090E062E0C6CF22E080349207D6
:1016900059F480915121815080935121882321F464
:1016A00082E090E062E0B7CF08951F93CF93DF937D
:1016B000EC011FB7F894B9DF8881816088831FBF70
:1016C0008FB7F8949091AF219F5F9093AF218FBF18
:1016D000DF91CF911F910895DF92EF92FF920F93C8
:1016E0001F93CF93DF938C017B0182E000301807BA
:1016F00081F482E061E270E0C5D0C82F82E060E250
:1017000070E0C0D03C2F20E0C82FD0E0C22BD32BFC
:1017100013C0E2E000341E07C9F582E065E270E024
:10172000B1D0C82F82E064E270E0ACD03C2F20E062
:10173000C82FD0E0C22BD32BDFB6F894C80175DFD9
:10174000F801208182E08083C487D587F7018581F5
:101750009681F801808F918FF7018281F801828351
:10176000F7018481F8018483F7018381F801838381
:10177000F7018181F8018183822F8170F7019081C7
:10178000892BF8018083C80171DFDFBEDF91CF9123
:101790001F910F91FF90EF90DF900895CF92DF920D
:1017A000EF92FF921F93CF93DF936C017A01862F04
:1017B00090E083709070009721F466956695C2E082
:1017C00001C0C0E060FFCF5FC6018096D0E0CC0FC3
:1017D000DD1FCC0FDD1FCC0FDD1FC80FD91F1FB7BA
:1017E000F894C60122DFF7018081888382818A8391
:1017F00081818983C6013ADF1FBFDF91CF911F919D
:10180000FF90EF90DF90CF900895CF92DF92EF920C
:10181000FF921F93CF93DF936C017A01862F90E0A4
:1018200083709070009721F466956695C2E001C0C0
:10183000C0E060FFCF5FC6018096D0E0CC0FDD1F17
:10184000CC0FDD1FCC0FDD1FC80FD91F1FB7F894B9
:10185000C601EBDE8881F70180838A8182838981DA
:101860008183C60103DF1FBFDF91CF911F91FF90DE
:10187000EF90DF90CF9008951BBEFC0128ED24BFB0
:10188000608308954091CA01E62FF72F8093CA0123
:1018900084914093CA010895CF92DF92EF92FF9214
:1018A0000F931F93CF93DF93EC016A017B01DB0160
:1018B000CA010197A109B109080F191F2A1F3B1F6F
:1018C000C901B801A70196010E94063289019A0157
:1018D0000138110521053105F8F4013460F40132B5
:1018E00060F4013160F4093060F4053060F40330D5
:1018F00060F090E00BC093E009C092E007C092E86E
:1019000005C091E003C091E801C090E888818C7720
:10191000892B888381E001C08FEFDF91CF911F91E8
:101920000F91FF90EF90DF90CF9008951F920F924C
:101930000FB60F9208B60F9209B60F920BB60F9220
:1019400011242F933F934F935F936F937F938F93C4
:101950009F93AF93BF93EF93FF93E0915221F09148
:101960005321309709F01995FF91EF91BF91AF91F5
:101970009F918F917F916F915F914F913F912F91A7
:101980000F900BBE0F9009BE0F9008BE0F900FBEB8
:101990000F901F9018951F920F920FB60F9208B6D6
:1019A0000F9209B60F920BB60F9211242F933F930B
:1019B0004F935F936F937F938F939F93AF93BF9357
:1019C000EF93FF93E0915421F0915521309709F066
:1019D0001995FF91EF91BF91AF919F918F917F9159
:1019E0006F915F914F913F912F910F900BBE0F9090
:1019F00009BE0F9008BE0F900FBE0F901F90189554
:101A00001F920F920FB60F9208B60F9209B60F925F
:101A10000BB60F9211242F933F934F935F936F93C5
:101A20007F938F939F93AF93BF93EF93FF93E09137
:101A30005621F0915721309709F01995FF91EF91B8
:101A4000BF91AF919F918F917F916F915F914F91D6
:101A50003F912F910F900BBE0F9009BE0F9008BEC3
:101A60000F900FBE0F901F9018951F920F920FB6F8
:101A70000F9208B60F9209B60F920BB60F9211246F
:101A80002F933F934F935F936F937F938F939F9386
:101A9000AF93BF93EF93FF93E0915821F0915921B9
:101AA000309709F01995FF91EF91BF91AF919F91F8
:101AB0008F917F916F915F914F913F912F910F90F7
:101AC0000BBE0F9009BE0F9008BE0F900FBE0F9077
:101AD0001F9018951F920F920FB60F9208B60F9293
:101AE00009B60F920BB60F9211242F933F934F9389
:101AF0005F936F937F938F939F93AF93BF93EF9376
:101B0000FF93E0915A21F0915B21309709F01995EC
:101B1000FF91EF91BF91AF919F918F917F916F91C5
:101B20005F914F913F912F910F900BBE0F9009BE87
:101B30000F9008BE0F900FBE0F901F9018951F9228
:101B40000F920FB60F9208B60F9209B60F920BB60E
:101B50000F9211242F933F934F935F936F937F9333
:101B60008F939F93AF93BF93EF93FF93E0915C218B
:101B7000F0915D21309709F01995FF91EF91BF9198
:101B8000AF919F918F917F916F915F914F913F9115
:101B90002F910F900BBE0F9009BE0F9008BE0F90B3
:101BA0000FBE0F901F9018951F920F920FB60F92B5
:101BB00008B60F9209B60F920BB60F9211242F930D
:101BC0003F934F935F936F937F938F939F93AF93C5
:101BD000BF93EF93FF93E0915E21F0915F213097E7
:101BE00009F01995FF91EF91BF91AF919F918F915E
:101BF0007F916F915F914F913F912F910F900BBE0D
:101C00000F9009BE0F9008BE0F900FBE0F901F904F
:101C100018951F920F920FB60F9208B60F9209B641
:101C20000F920BB60F9211242F933F934F935F9314
:101C30006F937F938F939F93AF93BF93EF93FF9394
:101C4000E0916021F0916121309709F01995FF91A1
:101C5000EF91BF91AF919F918F917F916F915F9124
:101C60004F913F912F910F900BBE0F9009BE0F9097
:101C700008BE0F900FBE0F901F9018951F920F92E5
:101C80000FB60F9208B60F9209B60F920BB60F92CD
:101C900011242F933F934F935F936F937F938F9371
:101CA0009F93AF93BF93EF93FF93E0916221F091E5
:101CB0006321309709F01995FF91EF91BF91AF9192
:101CC0009F918F917F916F915F914F913F912F9154
:101CD0000F900BBE0F9009BE0F9008BE0F900FBE65
:101CE0000F901F9018951F920F920FB60F9208B683
:101CF0000F9209B60F920BB60F9211242F933F93B8
:101D00004F935F936F937F938F939F93AF93BF9303
:101D1000EF93FF93E0916421F0916521309709F0F2
:101D20001995FF91EF91BF91AF919F918F917F9105
:101D30006F915F914F913F912F910F900BBE0F903C
:101D400009BE0F9008BE0F900FBE0F901F90189500
:101D50001F920F920FB60F9208B60F9209B60F920C
:101D60000BB60F9211242F933F934F935F936F9372
:101D70007F938F939F93AF93BF93EF93FF93E091E4
:101D80006621F0916721309709F01995FF91EF9145
:101D9000BF91AF919F918F917F916F915F914F9183
:101DA0003F912F910F900BBE0F9009BE0F9008BE70
:101DB0000F900FBE0F901F9018951F920F920FB6A5
:101DC0000F9208B60F9209B60F920BB60F9211241C
:101DD0002F933F934F935F936F937F938F939F9333
:101DE000AF93BF93EF93FF93E0916821F091692146
:101DF000309709F01995FF91EF91BF91AF919F91A5
:101E00008F917F916F915F914F913F912F910F90A3
:101E10000BBE0F9009BE0F9008BE0F900FBE0F9023
:101E20001F9018951F920F920FB60F9208B60F923F
:101E300009B60F920BB60F9211242F933F934F9335
:101E40005F936F937F938F939F93AF93BF93EF9322
:101E5000FF93E0916A21F0916B21309709F0199579
:101E6000FF91EF91BF91AF919F918F917F916F9172
:101E70005F914F913F912F910F900BBE0F9009BE34
:101E80000F9008BE0F900FBE0F901F9018951F92D5
:101E90000F920FB60F9208B60F9209B60F920BB6BB
:101EA0000F9211242F933F934F935F936F937F93E0
:101EB0008F939F93AF93BF93EF93FF93E0916C2128
:101EC000F0916D21309709F01995FF91EF91BF9135
:101ED000AF919F918F917F916F915F914F913F91C2
:101EE0002F910F900BBE0F9009BE0F9008BE0F9060
:101EF0000FBE0F901F9018951F920F920FB60F9262
:101F000008B60F9209B60F920BB60F9211242F93B9
:101F10003F934F935F936F937F938F939F93AF9371
:101F2000BF93EF93FF93E0916E21F0916F21309773
:101F300009F01995FF91EF91BF91AF919F918F910A
:101F40007F916F915F914F913F912F910F900BBEB9
:101F50000F9009BE0F9008BE0F900FBE0F901F90FC
:101F600018951F920F920FB60F9208B60F9209B6EE
:101F70000F920BB60F9211242F933F934F935F93C1
:101F80006F937F938F939F93AF93BF93EF93FF9341
:101F9000E0917021F0917121309709F01995FF912E
:101FA000EF91BF91AF919F918F917F916F915F91D1
:101FB0004F913F912F910F900BBE0F9009BE0F9044
:101FC00008BE0F900FBE0F901F9018951F920F9292
:101FD0000FB60F9208B60F9209B60F920BB60F927A
:101FE00011242F933F934F935F936F937F938F931E
:101FF0009F93AF93BF93EF93FF93E0917221F09182
:102000007321309709F01995FF91EF91BF91AF912E
:102010009F918F917F916F915F914F913F912F9100
:102020000F900BBE0F9009BE0F9008BE0F900FBE11
:102030000F901F9018951F920F920FB60F9208B62F
:102040000F9209B60F920BB60F9211242F933F9364
:102050004F935F936F937F938F939F93AF93BF93B0
:10206000EF93FF93E0917421F0917521309709F07F
:102070001995FF91EF91BF91AF919F918F917F91B2
:102080006F915F914F913F912F910F900BBE0F90E9
:1020900009BE0F9008BE0F900FBE0F901F901895AD
:1020A0001F920F920FB60F9208B60F9209B60F92B9
:1020B0000BB60F9211242F933F934F935F936F931F
:1020C0007F938F939F93AF93BF93EF93FF93E09191
:1020D0007621F0917721309709F01995FF91EF91D2
:1020E000BF91AF919F918F917F916F915F914F9130
:1020F0003F912F910F900BBE0F9009BE0F9008BE1D
:102100000F900FBE0F901F9018951F920F920FB651
:102110000F9208B60F9209B60F920BB60F921124C8
:102120002F933F934F935F936F937F938F939F93DF
:10213000AF93BF93EF93FF93E0917821F0917921D2
:10214000309709F01995FF91EF91BF91AF919F9151
:102150008F917F916F915F914F913F912F910F9050
:102160000BBE0F9009BE0F9008BE0F900FBE0F90D0
:102170001F9018951F920F920FB60F9208B60F92EC
:1021800009B60F920BB60F9211242F933F934F93E2
:102190005F936F937F938F939F93AF93BF93EF93CF
:1021A000FF93E0917A21F0917B21309709F0199506
:1021B000FF91EF91BF91AF919F918F917F916F911F
:1021C0005F914F913F912F910F900BBE0F9009BEE1
:1021D0000F9008BE0F900FBE0F901F9018951F9282
:1021E0000F920FB60F9208B60F9209B60F920BB668
:1021F0000F9211242F933F934F935F936F937F938D
:102200008F939F93AF93BF93EF93FF93E0917C21C4
:10221000F0917D21309709F01995FF91EF91BF91D1
:10222000AF919F918F917F916F915F914F913F916E
:102230002F910F900BBE0F9009BE0F9008BE0F900C
:102240000FBE0F901F9018951F920F920FB60F920E
:1022500008B60F9209B60F920BB60F9211242F9366
:102260003F934F935F936F937F938F939F93AF931E
:10227000BF93EF93FF93E0917E21F0917F21309700
:1022800009F01995FF91EF91BF91AF919F918F91B7
:102290007F916F915F914F913F912F910F900BBE66
:1022A0000F9009BE0F9008BE0F900FBE0F901F90A9
:1022B00018951F920F920FB60F9208B60F9209B69B
:1022C0000F920BB60F9211242F933F934F935F936E
:1022D0006F937F938F939F93AF93BF93EF93FF93EE
:1022E000E0918021F0918121309709F01995FF91BB
:1022F000EF91BF91AF919F918F917F916F915F917E
:102300004F913F912F910F900BBE0F9009BE0F90F0
:1023100008BE0F900FBE0F901F9018951F920F923E
:102320000FB60F9208B60F9209B60F920BB60F9226
:1023300011242F933F934F935F936F937F938F93CA
:102340009F93AF93BF93EF93FF93E0918221F0911E
:102350008321309709F01995FF91EF91BF91AF91CB
:102360009F918F917F916F915F914F913F912F91AD
:102370000F900BBE0F9009BE0F9008BE0F900FBEBE
:102380000F901F9018951F920F920FB60F9208B6DC
:102390000F9209B60F920BB60F9211242F933F9311
:1023A0004F935F936F937F938F939F93AF93BF935D
:1023B000EF93FF93E0918421F0918521309709F00C
:1023C0001995FF91EF91BF91AF919F918F917F915F
:1023D0006F915F914F913F912F910F900BBE0F9096
:1023E00009BE0F9008BE0F900FBE0F901F9018955A
:1023F0001F920F920FB60F9208B60F9209B60F9266
:102400000BB60F9211242F933F934F935F936F93CB
:102410007F938F939F93AF93BF93EF93FF93E0913D
:102420008621F0918721309709F01995FF91EF915E
:10243000BF91AF919F918F917F916F915F914F91DC
:102440003F912F910F900BBE0F9009BE0F9008BEC9
:102450000F900FBE0F901F9018951F920F920FB6FE
:102460000F9208B60F9209B60F920BB60F92112475
:102470002F933F934F935F936F937F938F939F938C
:10248000AF93BF93EF93FF93E0918821F09189215F
:10249000309709F01995FF91EF91BF91AF919F91FE
:1024A0008F917F916F915F914F913F912F910F90FD
:1024B0000BBE0F9009BE0F9008BE0F900FBE0F907D
:1024C0001F9018951F920F920FB60F9208B60F9299
:1024D00009B60F920BB60F9211242F933F934F938F
:1024E0005F936F937F938F939F93AF93BF93EF937C
:1024F000FF93E0918A21F0918B21309709F0199593
:10250000FF91EF91BF91AF919F918F917F916F91CB
:102510005F914F913F912F910F900BBE0F9009BE8D
:102520000F9008BE0F900FBE0F901F9018951F922E
:102530000F920FB60F9208B60F9209B60F920BB614
:102540000F9211242F933F934F935F936F937F9339
:102550008F939F93AF93BF93EF93FF93E0918C2161
:10256000F0918D21309709F01995FF91EF91BF916E
:10257000AF919F918F917F916F915F914F913F911B
:102580002F910F900BBE0F9009BE0F9008BE0F90B9
:102590000FBE0F901F9018951F920F920FB60F92BB
:1025A00008B60F9209B60F920BB60F9211242F9313
:1025B0003F934F935F936F937F938F939F93AF93CB
:1025C000BF93EF93FF93E0918E21F0918F2130978D
:1025D00009F01995FF91EF91BF91AF919F918F9164
:1025E0007F916F915F914F913F912F910F900BBE13
:1025F0000F9009BE0F9008BE0F900FBE0F901F9056
:1026000018951F920F920FB60F9208B60F9209B647
:102610000F920BB60F9211242F933F934F935F931A
:102620006F937F938F939F93AF93BF93EF93FF939A
:10263000E0919021F0919121309709F01995FF9147
:10264000EF91BF91AF919F918F917F916F915F912A
:102650004F913F912F910F900BBE0F9009BE0F909D
:1026600008BE0F900FBE0F901F9018951F920F92EB
:102670000FB60F9208B60F9209B60F920BB60F92D3
:1026800011242F933F934F935F936F937F938F9377
:102690009F93AF93BF93EF93FF93E0919221F091BB
:1026A0009321309709F01995FF91EF91BF91AF9168
:1026B0009F918F917F916F915F914F913F912F915A
:1026C0000F900BBE0F9009BE0F9008BE0F900FBE6B
:1026D0000F901F9018951F920F920FB60F9208B689
:1026E0000F9209B60F920BB60F9211242F933F93BE
:1026F0004F935F936F937F938F939F93AF93BF930A
:10270000EF93FF93E0919421F0919521309709F098
:102710001995FF91EF91BF91AF919F918F917F910B
:102720006F915F914F913F912F910F900BBE0F9042
:1027300009BE0F9008BE0F900FBE0F901F90189506
:102740001F920F920FB60F9208B60F9209B60F9212
:102750000BB60F9211242F933F934F935F936F9378
:102760007F938F939F93AF93BF93EF93FF93E091EA
:102770009621F0919721309709F01995FF91EF91EB
:10278000BF91AF919F918F917F916F915F914F9189
:102790003F912F910F900BBE0F9009BE0F9008BE76
:1027A0000F900FBE0F901F9018951F920F920FB6AB
:1027B0000F9208B60F9209B60F920BB60F92112422
:1027C0002F933F934F935F936F937F938F939F9339
:1027D000AF93BF93EF93FF93E0919821F0919921EC
:1027E000309709F01995FF91EF91BF91AF919F91AB
:1027F0008F917F916F915F914F913F912F910F90AA
:102800000BBE0F9009BE0F9008BE0F900FBE0F9029
:102810001F9018951F920F920FB60F9208B60F9245
:1028200009B60F920BB60F9211242F933F934F933B
:102830005F936F937F938F939F93AF93BF93EF9328
:10284000FF93E0919A21F0919B21309709F019951F
:10285000FF91EF91BF91AF919F918F917F916F9178
:102860005F914F913F912F910F900BBE0F9009BE3A
:102870000F9008BE0F900FBE0F901F9018951F92DB
:102880000F920FB60F9208B60F9209B60F920BB6C1
:102890000F9211242F933F934F935F936F937F93E6
:1028A0008F939F93AF93BF93EF93FF93E0919C21FE
:1028B000F0919D21309709F01995FF91EF91BF910B
:1028C000AF919F918F917F916F915F914F913F91C8
:1028D0002F910F900BBE0F9009BE0F9008BE0F9066
:1028E0000FBE0F901F9018951F920F920FB60F9268
:1028F00008B60F9209B60F920BB60F9211242F93C0
:102900003F934F935F936F937F938F939F93AF9377
:10291000BF93EF93FF93E0919E21F0919F21309719
:1029200009F01995FF91EF91BF91AF919F918F9110
:102930007F916F915F914F913F912F910F900BBEBF
:102940000F9009BE0F9008BE0F900FBE0F901F9002
:102950001895CF93CFB7F89428E08030920759F4B8
:1029600083E090E061E00E94000B83E090E064E08F
:102970000E94000B6BC028E08034920759F483E07A
:1029800090E062E00E94000B83E090E064E00E942F
:10299000000B5CC029E08030920759F484E090E09D
:1029A00061E00E94000B84E090E064E00E94000B74
:1029B0004DC029E08034920759F484E090E062E051
:1029C0000E94000B84E090E064E00E94000B3EC097
:1029D0002AE08030920759F485E090E061E00E949F
:1029E000000B85E090E064E00E94000B2FC02AE01D
:1029F0008034920759F485E090E062E00E94000B79
:102A000085E090E064E00E94000B20C02BE0803065
:102A1000920759F486E090E061E00E94000B86E0A6
:102A200090E064E00E94000B11C02BE0803492071C
:102A300059F486E090E062E00E94000B86E090E0AE
:102A400064E00E94000B02C0CFBF09C08FB7F894AA
:102A50009091AF219F5F9093AF218FBFCFBFCF9158
:102A60000895FC01818185FFFDCF608380E090E0C7
:102A700008956F927F928F929F92AF92BF92CF9262
:102A8000DF92EF92FF920F931F93CF933C014A0185
:102A90005B0168017901D901C801689412F8B69503
:102AA000A795979587951694D1F7B901A801032E9C
:102AB00036E176956795579547953A95D1F7302D3C
:102AC000F301248122FD08C0B695A79597958795B7
:102AD000769567955795479588159905AA05BB057D
:102AE00008F4C2C084169506A606B70608F4BEC050
:102AF000D30114968C91149782FD04C0880C991C04
:102B0000AA1CBB1CC701B601A50194010E94063294
:102B100089019A010F3F11052105310508F4B5C05F
:102B20008FEF90E0A0E0B0E0C9EF05C008171907EB
:102B30002A073B0760F0880F991FAA1FBB1FCD3FD4
:102B40000CF48160CF5FC73089F72C2F5DC02C2F2C
:102B5000CC230CF059C0D501C401880F991FAA1FBE
:102B6000BB1F880F991FAA1FBB1F880F991FAA1F81
:102B7000BB1FC81AD90AEA0AFB0ACE3F34F58C2FCC
:102B8000992787FD90954DEF5FEF481B590BD701B3
:102B9000C60104C0880F991FAA1FBB1F4A95D2F710
:102BA000AC01BD01D501C401B695A7959795879550
:102BB000840F951FA61FB71FBC01CD01A50194016D
:102BC0000E94063289019A0141C08C2F992787FD06
:102BD0009095039604C0880C991CAA1CBB1C8A956E
:102BE000D2F7B501A4017695679557954795CB0126
:102BF000BA016C0D7D1D8E1D9F1DA50194010E94C3
:102C0000063289019A0122C0332727FD30952D5FB6
:102C10003F4FD501C40104C0880F991FAA1FBB1FD5
:102C20002A95D2F79C01AD01B695A7959795879502
:102C3000C80ED91EEA1EFB1EC701B6010E9406324D
:102C400089019A010150104020403040812F8F703F
:102C5000C295C07FC82BD3011796CC9317971696B1
:102C60000C93169781E003C080E001C080E0CF9113
:102C70001F910F91FF90EF90DF90CF90BF90AF909A
:102C80009F908F907F906F900895D501C401880F19
:102C9000991FAA1FBB1F880F991FAA1FBB1F880F50
:102CA000991FAA1FBB1FC81AD90AEA0AFB0AC9EF53
:102CB00066CF80E890E063E00E943C0CE0E8F0E042
:102CC000828180FDFDCF81E890E06BE20E943C0CA8
:102CD000E0E8F0E0828180FDFDCFA895FFCFE0E540
:102CE000F0E0808182608083E1E5F0E0808181FF17
:102CF000FDCF88ED84BF81E080934000E0E5F0E007
:102D00008081827E8083089580E48093210687E419
:102D1000809341061092530691E09093490688E013
:102D200080934A062EE22093610622EB20938106CF
:102D3000E0E9F6E0208122602083E9E8F6E02081E6
:102D400021602083EAE8F6E020812160208320E1F1
:102D50002093AA068093A1068093A5062FEF2093C7
:102D60002007209300071092D0071092D30725E088
:102D70002093C9079093CA078093CB071092F5065A
:102D80009093F7062093E90680E28093EA068FE8A5
:102D90008093EB060895E0E0F8E08081807F866014
:102DA00080838181887F836081838FEF90E086A319
:102DB00097A380858E6F80878181806181838181E7
:102DC0008062818380E098E0C4CDE0E0F9E080811A
:102DD000807F866080838181887F818386818C7FEC
:102DE00086838681826086838DE790E086A397A3A1
:102DF00080858E6F808780E099E0ABCD0F931F9325
:102E000080EC9AE040E052E16AE770E000E018E40C
:102E100028EE31E00E944C0CE0ECFAE08081806109
:102E200080838081806480831F910F9108950F9328
:102E30001F93CF93DF93C0EADBE08D818F738D8387
:102E400083E08D838B818F7C80628B8380EA9BE023
:102E500040E855E260E070E000E018E428EE31E080
:102E600008DE8C8188608C838C8180618C83DF910B
:102E7000CF911F910F9108950F931F93CF93DF93DD
:102E8000C0EBDBE08D818F738D8383E08D8380EBDE
:102E90009BE040E855E260E070E000E018E428EED6
:102EA00031E0E7DD8C8188608C83DF91CF911F91C9
:102EB0000F910895CF93DF93CDB7DEB72A97CDBF9B
:102EC000DEBF82E061E270E00E94420C82E060E2DC
:102ED00070E00E94420C8A81897E9B819F7C906277
:102EE0009B8392E09D8388608A831C8280E092E0CD
:102EF000BE016F5F7F4F0E946C0B80E092E061E04B
:102F0000AE01485F5F4F0E94050C81E0888788E131
:102F1000898780E092E061E0AE01485F5F4F0E94E8
:102F2000CE0B80E092E00E94550B8FB7F894E0E062
:102F3000F2E09081946090838FBF2A96CDBFDEBF70
:102F4000DF91CF910895CF93DF93CDB7DEB7AE97E2
:102F5000CDBFDEBFC4DEE2EAF0E08081876080831F
:102F6000D3DE33DF18DF63DF87DFA4DF0E94DA08F8
:102F7000E8E0F6E0508180814081608190E08071DE
:102F80009070959587959595879595958795959545
:102F900087959C01220F331F842F881F8827881F45
:102FA000880F880F282B852F90E080749070082E52
:102FB000892F000C881F990B000C881F991F282B44
:102FC000862F90E08072907095958795959587955E
:102FD000959587959595879595958795880F991FD0
:102FE000880F991F880F991F822B8093BE2482E23D
:102FF0008093BF2483E38093C02484E48093C1241E
:1030000085E58093C224789488EB9BE0A0E0B0E053
:103010008093432190934421A0934521B09346216E
:1030200024EF31E02093D6243093D7248093472196
:1030300090934821A0934921B0934A2184E690E0DF
:103040008093E9229093EA2288EE93E0A0E0B0E03A
:1030500080933F2190934021A0934121B09342213E
:1030600088EC90E0809304259093052580ED97E00F
:10307000A0E0B0E080933B2190933C21A0933D21C0
:10308000B0933E2186E990E08093312390933223E0
:103090000F2EF0E8AF2EF6E0BF2EF02D12E0D50196
:1030A00016961C93ABDEBAE6BA95F1F700C08FEF27
:1030B00093ECA9E081509040A040E1F700C00000EF
:1030C0000E9482310E94FB300E94ED30D50116969D
:1030D0001C9381E061E048E02EEB34E205E0EE2451
:1030E0006894E5F80F2EF6E0CF2EF02D0E94CE3139
:1030F000F50115838FE094E00197F1F700C000001F
:10310000ABE7B4E21297AD8FBE8FE9E0F5E23296FD
:10311000EBA3FCA32FE135E22E5F3F4F2DA33EA38F
:103120008FEA94E202968FA398A71696A9A7BAA74A
:10313000AFE7B4E21296ABA7BCA7EDE0F5E232969A
:10314000EDA7FEA7A8958091A221882311F40C94E5
:10315000FB27ABE7B4E2AD90BC90A0927D24B09287
:103160007E24ED8DFE8D60817181882777FD8095AD
:10317000982F0E94D70420E030E040EF50E40E94F6
:10318000D5020E9446058B01AD8DBE8D1D921C920D
:10319000B501882777FD8095982F0E94D7046B0191
:1031A0007C01B8016A197B09882777FD8095982FE3
:1031B0000E94D7042EEA37E441EE5DE30E94D50277
:1031C0009B01AC01C701B6010E9471020E94460535
:1031D000DC01CB014C01EBE7F4E280839183A9E0B1
:1031E000B5E20D911C911197EBA1FCA10083118315
:1031F0007E916E916D01882777FD8095982F0E94B2
:10320000D70420E030E040EF50E40E94D5020E9455
:1032100046055B01F60110821182B801882777FD0F
:103220008095982F0E94D7046B017C01B501601B2B
:10323000710B882777FD8095982F0E94D7042EEA7E
:1032400037E441EE5DE30E94D5029B01AC01C7016A
:10325000B6010E9471020E944605DC01CB012C01DF
:10326000E9E0F5E280839183AFE1B5E20D911C9135
:103270001197EDA1FEA1008311837E916E916D01E6
:10328000882777FD8095982F0E94D70420E030E0B2
:1032900040EF50E40E94D5020E9446055B01F60112
:1032A00010821182B801882777FD8095982F0E949F
:1032B000D7046B017C01B501601B710B882777FD7A
:1032C0008095982F0E94D7042EEA37E441EE5DE303
:1032D0000E94D5029B01AC01C701B6010E94710298
:1032E0000E944605DC01CB018F8F98A3EFE1F5E248
:1032F00080839183AFEAB4E20D911C911197EFA105
:10330000F8A5008311837E916E916D01882777FD6A
:103310008095982F0E94D70420E030E040EF50E4E1
:103320000E94D5020E9446055B01F60110821182BF
:10333000B801882777FD8095982F0E94D7046B01EC
:103340007C01B501601B710B882777FD8095982F54
:103350000E94D7042EEA37E441EE5DE30E94D502D5
:103360009B01AC01C701B6010E9471020E94460593
:10337000DC01CB0189A39AA3EFEAF4E28083918375
:103380000F2EF8E0CF2EF6E0DF2EF02DD6013C9187
:103390008C912C916C9190E08071907095958795AF
:1033A000959587959595879595958795AC01440F4B
:1033B000551F822F881F8827881F90E0880F991F2C
:1033C000880F991F482B592B832F90E080749070A1
:1033D000082E892F000C881F990B000C881F991F3D
:1033E000482B592B862F90E0807290709595879589
:1033F00095958795959587959595879595958795B5
:10340000880F991F880F991F880F991F9A01282BE1
:10341000392B06EB11E2C901880F991F820F931F08
:10342000880F991F880F991F880F991F821B930B74
:10343000800F911FFC01648970E080E090E00E94A1
:10344000960520E030E048EC52E40E94D303698303
:103450007A838B839C83372F482F592F862F932F66
:10346000A42FB52F8093312590933225A093332537
:10347000B0933425D6013C918C912C916C9190E0C5
:103480008071907095958795959587959595879579
:1034900095958795AC01440F551F822F881F88276B
:1034A000881F90E0880F991F880F991F482B592B70
:1034B000832F90E080749070082E892F000C881F55
:1034C000990B000C881F991F482B592B862F90E0D1
:1034D0008072907095958795959587959595879528
:1034E0009595879595958795880F991F880F991FB2
:1034F000880F991F9A01282B392BC901880F991F12
:10350000820F931F880F991F880F991F880F991F8B
:10351000821B930B800F911FFC01658970E080E096
:1035200090E00E94960520E030E048EC52E40E94D2
:10353000D303362E272E8D839E83482F592F862F17
:10354000922DA42FB52F8093C5249093C624A093C9
:10355000C724B093C824D6013C918C912C916C91D6
:1035600090E0807190709595879595958795959544
:10357000879595958795AC01440F551F822F881F1D
:103580008827881F90E0880F991F880F991F482B64
:10359000592B832F90E080749070082E892F000C97
:1035A000881F990B000C881F991F482B592B862FB9
:1035B00090E08072907095958795959587959595F3
:1035C00087959595879595958795880F991F880F6D
:1035D000991F880F991F9A01282B392BC901880F31
:1035E000991F820F931F880F991F880F991F880FAB
:1035F000991F821B930B800F911FFC01668970E05D
:1036000080E090E00E94960520E030E048EC52E433
:103610000E94D3036F83788789879A87372F482F33
:10362000592F862F932FA42FB52F8093CC229093C0
:10363000CD22A093CE22B093CF221092A221D60108
:10364000FC917C91EC91FC903C918C912C916C9133
:1036500090E0807190709595879595958795959553
:10366000879595958795AC01440F551F822F881F2C
:103670008827881F90E0880F991F880F991F482B73
:10368000592B832F90E080749070082E892F000CA6
:10369000881F990B000C881F991F482B592B862FC8
:1036A00090E0807290709595879595958795959502
:1036B00087959595879595958795880F991F880F7C
:1036C000991F880F991F9A01282B392BC901880F40
:1036D000991F820F931F880F991F880F991F880FBA
:1036E000991F821B930B800F911FDC011196BC91D7
:1036F000BC871B86872F90E0807190709595879589
:103700009595879595958795959587959C01220F19
:10371000331F8E2F881F8827881F90E0880F991FDE
:10372000880F991F282B392B8F2F90E08074907071
:10373000082E892F000C881F990B000C881F991FD9
:10374000282B392B8F2D90E080729070959587955E
:103750009595879595958795959587959595879551
:10376000880F991F880F991F880F991F822B932B01
:10377000FC01EE0FFF1FE80FF91FEE0FFF1FEE0F0A
:10378000FF1FEE0FFF1FE81BF90BE00FF11F8381F6
:103790009481EB85FC858E2B9F2B3C016818790862
:1037A000A9A5BAA58D919C911197F301E81BF90B7E
:1037B000CF019F01220F331F880F991F880F991F78
:1037C000880F991F5901A80EB91EC501C1968336ED
:1037D000910558F0F1E6AF16F9E0BF064CF420EA87
:1037E000A21626EFB2063CF008C0AA24BB2405C0EE
:1037F000AA24BB2402C0AA24BB24B301882777FDD6
:103800008095982F0E94D7046B017C0129813A8111
:103810004B815C81822F932FA42FB52FBC01CD014A
:10382000A70196010E94D5020E944605962E872E7A
:103830004D815E81832D922DA42FB52FBC01CD012A
:10384000A70196010E94D5022AE037ED43EA5CE326
:103850000E94D502209183243091842440918524B4
:10386000509186240E947102C62EF72E182F092F20
:10387000862F9F2DA12FB02F809383249093842493
:10388000A0938524B0938624BC01CD0120E030E0D4
:1038900040EF52E40E947B0418166CF480E090E044
:1038A000A0EFB2E48093832490938424A093852492
:1038B000B09386241AC08C2D9F2DA12FB02FBC0150
:1038C000CD0120E030E046E954EC0E94A9048823B1
:1038D00064F480E090E0A0EFB2EC809383249093B6
:1038E0008424A0938524B0938624892D982D803834
:1038F000910514F08FE790E03FEF8138930714F4BF
:1039000081E89FEFDC01BD01882777FD8095982F26
:103910000E94D704209183243091842440918524EF
:10392000509186240E9471026B017C01B5018827A9
:1039300077FD8095982F0E94D7049B01AC016F8181
:103940007885E985FA85862F972FAE2FBF2FBC018A
:10395000CD010E94D5029B01AC01C701B6010E94B6
:1039600071020E944605862F972F8038910514F02A
:103970008FE790E0EFE7F4E260827182ABA5BCA52F
:10398000AD92BC921197BFEF81389B0714F481E888
:103990009FEF80938924E8E0F6E0B0817081A081F8
:1039A0001081308180812081608190E080719070F1
:1039B00095958795959587959595879595958795EF
:1039C000AC01440F551F822F881F8827881F90E065
:1039D000880F991F880F991F482B592B832F90E030
:1039E00080749070082E892F000C881F990B000C92
:1039F000881F991F482B592B862F90E0807290705A
:103A0000959587959595879595958795959587959E
:103A100095958795880F991F880F991F880F991F73
:103A20009A01282B392B46EB51E2C901880F991FC7
:103A3000820F931F880F991F880F991F880F991F56
:103A4000821B930B840F951FFC01F581FE871D8659
:103A5000872F90E0807190709595879595958795C3
:103A600095958795959587959C01220F331F8A2FF1
:103A7000881F8827881F90E0880F991F880F991F3B
:103A8000282B392B8B2F90E080749070082E892F73
:103A9000000C881F990B000C881F991F282B392BAD
:103AA000812F90E080729070959587959595879578
:103AB000959587959595879595958795880F991FE5
:103AC000880F991F880F991F822B932BFC01EE0FF3
:103AD000FF1FE80FF91FEE0FFF1FEE0FFF1FEE0F86
:103AE000FF1FE81BF90BE40FF51F878190852D85DB
:103AF0003E85822B932BDC01A419B5092D01EDE045
:103B0000F5E2808191819D01281B390BC901220FAB
:103B1000331F880F991F880F991F880F991F39012C
:103B2000680E791EC301C1968336910558F031E6BF
:103B3000631639E073064CF480EA681686EF78065F
:103B40003CF008C06624772405C06624772402C0B0
:103B500066247724B201882777FD8095982F0E94EC
:103B6000D7046B017C0129813A814B815C81822FD2
:103B7000932FA42FB52FBC01CD01A70196010E9460
:103B8000D5020E944605A62E972E4D815E81832D7B
:103B9000922DA42FB52FBC01CD01A70196010E9443
:103BA000D5022AE037ED43EA5CE30E94D50220917A
:103BB00011253091122540911325509114250E9412
:103BC0007102C62EF72E182F092F862F9F2DA12F99
:103BD000B02F8093112590931225A0931325B093B5
:103BE0001425BC01CD0120E030E040EF52E40E94FA
:103BF0007B0418166CF480E090E0A0EFB2E48093B0
:103C0000112590931225A0931325B09314251AC063
:103C10008C2D9F2DA12FB02FBC01CD0120E030E0D5
:103C200046E954EC0E94A904882364F480E090E003
:103C3000A0EFB2EC8093112590931225A093132549
:103C4000B09314258A2D992D8038910514F08FE7B3
:103C500090E0AFEF81389A0714F481E89FEFFC0100
:103C6000BF01882777FD8095982F0E94D704209167
:103C700011253091122540911325509114250E9451
:103C800071026B017C01B301882777FD8095982F25
:103C90000E94D7049B01AC016F817885E985FA8584
:103CA000862F972FAE2FBF2FBC01CD010E94D502CA
:103CB0009B01AC01C701B6010E9471020E9446053A
:103CC000862F972F8038910514F08FE790E0ADE0B4
:103CD000B5E24D925C921197EDA5FEA560827182CE
:103CE000FFEF81389F0714F481E89FEF8093172539
:103CF000E8E0F6E0B0817081A081108130818081A0
:103D00002081608190E08071907095958795959560
:103D100087959595879595958795AC01440F551F87
:103D2000822F881F8827881F90E0880F991F880F8F
:103D3000991F482B592B832F90E080749070082E88
:103D4000892F000C881F990B000C881F991F482B86
:103D5000592B862F90E08072907095958795959558
:103D60008795959587959595879595958795880FCE
:103D7000991F880F991F880F991F9A01282B392B9B
:103D800046EB51E2C901880F991F820F931F880FDC
:103D9000991F880F991F880F991F821B930B840FFF
:103DA000951FFC01F185F88B1F86872F90E08071AD
:103DB0009070959587959595879595958795959507
:103DC00087959C01220F331F8A2F881F8827881F01
:103DD00090E0880F991F880F991F282B392B8B2F64
:103DE00090E080749070082E892F000C881F990B2A
:103DF000000C881F991F282B392B812F90E080728F
:103E000090709595879595958795959587959595B6
:103E1000879595958795880F991F880F991F880F0B
:103E2000991F822B932BFC01EE0FFF1FE80FF91F48
:103E3000EE0FFF1FEE0FFF1FEE0FFF1FE81BF90B2A
:103E4000E40FF51F838594852F853889822B932B6A
:103E50002C01AF8DB8A14A1A5B0A8091232590915D
:103E60002425F201E81BF90BCF019F01220F331F1C
:103E7000880F991F880F991F880F991F3901680EA5
:103E8000791EC301C1968336910558F0F1E66F168D
:103E9000F9E07F064CF420EA621626EF72063CF049
:103EA00008C06624772405C06624772402C06624EF
:103EB0007724B201882777FD8095982F0E94D70438
:103EC0006B017C0129813A814B815C81822F932F88
:103ED000A42FB52FBC01CD01A70196010E94D502E8
:103EE0000E944605A62E972E4D815E81832D922D30
:103EF000A42FB52FBC01CD01A70196010E94D502C8
:103F00002AE037ED43EA5CE30E94D50220912725A1
:103F1000309128254091292550912A250E9471022F
:103F2000C62EF72E182F092F862F9F2DA12FB02FC9
:103F30008093272590932825A0932925B0932A259F
:103F4000BC01CD0120E030E040EF52E40E947B0450
:103F500018166CF480E090E0A0EFB2E4809327257F
:103F600090932825A0932925B0932A251AC08C2D3B
:103F70009F2DA12FB02FBC01CD0120E030E046E9FC
:103F800054EC0E94A904882364F480E090E0A0EF40
:103F9000B2EC8093272590932825A0932925B093F0
:103FA0002A258A2D992D8038910514F08FE790E00D
:103FB0003FEF8138930714F481E89FEFDC01BD01E6
:103FC000882777FD8095982F0E94D7042091272578
:103FD000309128254091292550912A250E9471026F
:103FE0006B017C01B301882777FD8095982F0E9493
:103FF000D7049B01AC016F817885E985FA85862F0E
:10400000972FAE2FBF2FBC01CD010E94D5029B017F
:10401000AC01C701B6010E9471020E944605862FBD
:10402000972F8038910514F08FE790E04092232578
:10403000509224256092252570922625BFEF813865
:104040009B0714F481E89FEF80932D25E8E0F6E0CC
:10405000B0817081A0811081308180812081608158
:1040600090E0807190709595879595958795959539
:10407000879595958795AC01440F551F822F881F12
:104080008827881F90E0880F991F880F991F482B59
:10409000592B832F90E080749070082E892F000C8C
:1040A000881F990B000C881F991F482B592B862FAE
:1040B00090E08072907095958795959587959595E8
:1040C00087959595879595958795880F991F880F62
:1040D000991F880F991F9A01282B392B46EB51E223
:1040E000C901880F991F820F931F880F991F880F8E
:1040F000991F880F991F821B930B840F951FFC013A
:10410000F585FA8B198A872F90E0807190709595CC
:1041100087959595879595958795959587959C0114
:10412000220F331F8A2F881F8827881F90E0880F4F
:10413000991F880F991F282B392B8B2F90E08074A3
:104140009070082E892F000C881F990B000C881F77
:10415000991F282B392B812F90E0807290709595B4
:104160008795959587959595879595958795959537
:104170008795880F991F880F991F880F991F822B89
:10418000932BFC01EE0FFF1FE80FF91FEE0FFF1F2F
:10419000EE0FFF1FEE0FFF1FE81BF90BE40FF51FDB
:1041A0008785908929893A89822B932B3C01A9A183
:1041B000BAA16A1A7B0A8091B3249091B424F301C6
:1041C000E81BF90BCF019F01220F331F880F991FA6
:1041D000880F991F880F991F5901A80EB91EC50194
:1041E000C1968336910558F0F1E6AF16F9E0BF06A7
:1041F0004CF420EAA21626EFB2063CF008C0AA242E
:10420000BB2405C0AA24BB2402C0AA24BB24B3013A
:10421000882777FD8095982F0E94D7046B017C0139
:1042200029813A814B815C81822F932FA42FB52F56
:10423000BC01CD01A70196010E94D5020E9446054E
:10424000962E872E4D815E81832D922DA42FB52F22
:10425000BC01CD01A70196010E94D5022AE037EDED
:1042600043EA5CE30E94D5022091B7243091B82440
:104270004091B9245091BA240E947102C62EF72EA3
:10428000182F092F862F9F2DA12FB02F8093B72491
:104290009093B824A093B924B093BA24BC01CD0163
:1042A00020E030E040EF52E40E947B0418166CF4EA
:1042B00080E090E0A0EFB2E48093B7249093B8241C
:1042C000A093B924B093BA241AC08C2D9F2DA12F8E
:1042D000B02FBC01CD0120E030E046E954EC0E9453
:1042E000A904882364F480E090E0A0EFB2EC80930E
:1042F000B7249093B824A093B924B093BA24892DFD
:10430000982D8038910514F08FE790E03FEF8138C9
:10431000930714F481E89FEFDC01BD01882777FD46
:104320008095982F0E94D7042091B7243091B8240B
:104330004091B9245091BA240E9471026B017C0112
:10434000B501882777FD8095982F0E94D7049B019F
:10435000AC016F817885E985FA85862F972FAE2F7E
:10436000BF2FBC01CD010E94D5029B01AC01C7014A
:10437000B6010E9471020E944605862F972F803851
:10438000910514F08FE790E06092B3247092B4240A
:10439000A092B524B092B624BFEF81389B0714F4E5
:1043A00081E89FEF8093BD2480EA9BE06AE20E944F
:1043B000311580EA9BE06EE70E94311580EA9BE0B0
:1043C000609189240E94311580EA9BE06091172555
:1043D0000E94311580EA9BE060912D250E943115E5
:1043E00080EA9BE06091BD240E94311580EA9BE049
:1043F00063E20E9431152FB7F894E0E0F2E084A167
:1044000095A12FBF8093A7219093A821E4E0893D37
:104410009E073CF4E0E4F6E080E4858384E0858355
:1044200006C0E0E4F6E080E4868384E0868380E0F2
:1044300060E00E9467092DB73EB7285030402DBF7D
:104440003EBFEDB7FEB731960AED14E2ADB7BEB789
:1044500011960D931C93129780E090E282839383D0
:10446000B0911322BC8B1B8A809115229091162249
:104470002B893C89822B932B8483958380914D24B7
:10448000868317820E9459328DB79EB708968DBFDA
:104490009EBFC8010E94590980E061E00E9467093F
:1044A00000D000D0EDB7FEB73196ADB7BEB71196CC
:1044B0000D931C93129788E090E282839383ABE77D
:1044C000B4E28D919C91848395830E945932EDB71B
:1044D000FEB73696EDBFFEBFC8010E945909E8E05D
:1044E000F6E0308180812081608190E08071907061
:1044F00095958795959587959595879595958795A4
:10450000AC01440F551F822F881F8827881F90E019
:10451000880F991F880F991F482B592B832F90E0E4
:1045200080749070082E892F000C881F990B000C46
:10453000881F991F482B592B862F90E0807290700E
:104540009595879595958795959587959595879553
:1045500095958795880F991F880F991F880F991F28
:104560009A01282B392BC901880F991F820F931F9D
:10457000880F991F880F991F880F991F821B930B13
:104580008A549E4DDC0151968C915197882309F4F1
:1045900057C0308180812081608190E0807190706F
:1045A00095958795959587959595879595958795F3
:1045B000AC01440F551F822F881F8827881F90E069
:1045C000880F991F880F991F482B592B832F90E034
:1045D00080749070082E892F000C881F990B000C96
:1045E000881F991F482B592B862F90E0807290705E
:1045F00095958795959587959595879595958795A3
:1046000095958795880F991F880F991F880F991F77
:104610009A01282B392BC901880F991F820F931FEC
:10462000880F991F880F991F880F991F821B930B62
:104630008A549E4DFC0181898093A9211092AA2160
:10464000E8E0F6E0308180812081608190E0807137
:10465000907095958795959587959595879595955E
:104660008795AC01440F551F822F881F8827881F0C
:1046700090E0880F991F880F991F482B592B832F83
:1046800090E080749070082E892F000C881F990B81
:10469000000C881F991F482B592B862F90E08072A1
:1046A000907095958795959587959595879595950E
:1046B000879595958795880F991F880F991F880F63
:1046C000991F9A01282B392BC901880F991F820F36
:1046D000931F880F991F880F991F880F991F821B9E
:1046E000930B8A549E4DDC0152968C9152978823ED
:1046F00019F0E0E6F6E08085E0E0F6E0808582FFF4
:1047000016C0E0E2F6E0848180648483EAE2F8E0A7
:104710008FEF90E0808391838FEF93ECA9E081503D
:104720009040A040E1F700C0000010821182ABE78A
:10473000B4E28C9190917C2480938B2490938C2470
:10474000E9E0F5E2808190910A2580938D24909391
:104750008E24AFE1B5E28C919091202580938F2437
:1047600090939024EFEAF4E280819091B0248093BA
:104770009124909392248091A7219091A8219595BE
:104780008795959587959595879595958795809328
:10479000932480939424E8E0F6E0308180812081A6
:1047A0006081908190819081908190E08071907083
:1047B00095958795959587959595879595958795E1
:1047C000AC01440F551F822F881F8827881F90E057
:1047D000880F991F880F991F482B592B832F90E022
:1047E00080749070082E892F000C881F990B000C84
:1047F000881F991F482B592B862F90E0807290704C
:104800009595879595958795959587959595879590
:1048100095958795880F991F880F991F880F991F65
:104820009A01282B392B06EB11E2C901880F991F39
:10483000820F931F880F991F880F991F880F991F48
:10484000821B930B800F911FDC0113968C91809338
:104850009524F0807081C080A0803081808120818B
:10486000608190E08071907095958795959587957A
:104870009595879595958795AC01440F551F822F87
:10488000881F8827881F90E0880F991F880F991F1D
:10489000482B592B832F90E080749070082E892F1D
:1048A000000C881F990B000C881F991F482B592B4F
:1048B000862F90E080729070959587959595879555
:1048C000959587959595879595958795880F991FC7
:1048D000880F991F880F991F9A01282B392BC9011E
:1048E000880F991F820F931F880F991F880F991F98
:1048F000880F991F821B930B800F911FDC0111966B
:10490000BC91BE8B1D8A872F90E080719070959529
:1049100087959595879595958795959587959C010C
:10492000220F331F8C2D881F8827881F90E0880F47
:10493000991F880F991F282B392B8F2D90E0807499
:104940009070082E892F000C881F990B000C881F6F
:10495000991F282B392B8A2D90E0807290709595A5
:10496000879595958795959587959595879595952F
:104970008795880F991F880F991F880F991F282BDB
:10498000392BC901880F991F820F931F880F991F18
:10499000880F991F880F991F821B930B800F911FFF
:1049A000DC0113968D919C9114972D893E89822B61
:1049B000932B909396243081808120816081908117
:1049C00090819081908190E080719070959587950D
:1049D000959587959595879595958795AC01440F05
:1049E000551F822F881F8827881F90E0880F991FE6
:1049F000880F991F482B592B832F90E0807490705B
:104A0000082E892F000C881F990B000C881F991FF6
:104A1000482B592B862F90E0807290709595879542
:104A2000959587959595879595958795959587956E
:104A3000880F991F880F991F880F991F9A01282B9B
:104A4000392BC901880F991F820F931F880F991F57
:104A5000880F991F880F991F821B930B800F911F3E
:104A6000DC0117968C9180939724F0807081C08030
:104A7000A080308180812081608190E08071907081
:104A8000959587959595879595958795959587950E
:104A9000AC01440F551F822F881F8827881F90E084
:104AA000880F991F880F991F482B592B832F90E04F
:104AB00080749070082E892F000C881F990B000CB1
:104AC000881F991F482B592B862F90E08072907079
:104AD00095958795959587959595879595958795BE
:104AE00095958795880F991F880F991F880F991F93
:104AF0009A01282B392BC901880F991F820F931F08
:104B0000880F991F880F991F880F991F821B930B7D
:104B1000800F911FDC011596BC91B88F1F8A872FDB
:104B200090E080719070959587959595879595956E
:104B30008795959587959C01220F331F8C2D881F93
:104B40008827881F90E0880F991F880F991F282BAE
:104B5000392B8F2D90E080749070082E892F000CD7
:104B6000881F990B000C881F991F282B392B8A2D21
:104B700090E080729070959587959595879595951D
:104B800087959595879595958795880F991F880F97
:104B9000991F880F991F282B392BC901880F991F3E
:104BA000820F931F880F991F880F991F880F991FD5
:104BB000821B930B800F911FDC0117968D919C91A6
:104BC00018972F89388D822B932B909398243081BE
:104BD000808120816081908190819081908190E09E
:104BE0008071907095958795959587959595879502
:104BF00095958795AC01440F551F822F881F8827F4
:104C0000881F90E0880F991F880F991F482B592BF8
:104C1000832F90E080749070082E892F000C881FDD
:104C2000990B000C881F991F482B592B862F90E059
:104C300080729070959587959595879595958795B0
:104C40009595879595958795880F991F880F991F3A
:104C5000880F991F9A01282B392BC901880F991F9A
:104C6000820F931F880F991F880F991F880F991F14
:104C7000821B930B800F911FDC011B968C918093FC
:104C80009924F0807081C080A08030818081208153
:104C9000608190E080719070959587959595879546
:104CA0009595879595958795AC01440F551F822F53
:104CB000881F8827881F90E0880F991F880F991FE9
:104CC000482B592B832F90E080749070082E892FE9
:104CD000000C881F990B000C881F991F482B592B1B
:104CE000862F90E080729070959587959595879521
:104CF000959587959595879595958795880F991F93
:104D0000880F991F880F991F9A01282B392BC901E9
:104D1000880F991F820F931F880F991F880F991F63
:104D2000880F991F821B930B800F911FDC0119962E
:104D3000BC91BA8F198E872F90E0807190709595F5
:104D400087959595879595958795959587959C01D8
:104D5000220F331F8C2D881F8827881F90E0880F13
:104D6000991F880F991F282B392B8F2D90E0807465
:104D70009070082E892F000C881F990B000C881F3B
:104D8000991F282B392B8A2D90E080729070959571
:104D900087959595879595958795959587959595FB
:104DA0008795880F991F880F991F880F991F282BA7
:104DB000392BC901880F991F820F931F880F991FE4
:104DC000880F991F880F991F821B930B800F911FCB
:104DD000DC011B968D919C911C97298D3A8D822B1D
:104DE000932B90939A2430818081208160819081DF
:104DF00090819081908190E08071907095958795D9
:104E0000959587959595879595958795AC01440FD0
:104E1000551F822F881F8827881F90E0880F991FB1
:104E2000880F991F482B592B832F90E08074907026
:104E3000082E892F000C881F990B000C881F991FC2
:104E4000482B592B862F90E080729070959587950E
:104E5000959587959595879595958795959587953A
:104E6000880F991F880F991F880F991F9A01282B67
:104E7000392BC901880F991F820F931F880F991F23
:104E8000880F991F880F991F821B930B800F911F0A
:104E9000DC011F968C9180939B24B0817081A0814E
:104EA000F080308180812081608190E080719070FD
:104EB00095958795959587959595879595958795DA
:104EC000AC01440F551F822F881F8827881F90E050
:104ED000880F991F880F991F482B592B832F90E01B
:104EE00080749070082E892F000C881F990B000C7D
:104EF000881F991F482B592B862F90E08072907045
:104F00009595879595958795959587959595879589
:104F100095958795880F991F880F991F880F991F5E
:104F20009A01282B392BC901880F991F820F931FD3
:104F3000880F991F880F991F880F991F821B930B49
:104F4000800F911FFC01F585FC8F1B8E872F90E051
:104F5000807190709595879595958795959587958E
:104F6000959587959C01220F331F8A2F881F8827CC
:104F7000881F90E0880F991F880F991F282B392BC5
:104F80008B2F90E080749070082E892F000C881F62
:104F9000990B000C881F991F282B392B8F2D90E01F
:104FA000807290709595879595958795959587953D
:104FB0009595879595958795880F991F880F991FC7
:104FC000880F991F822B932BFC01EE0FFF1FE80F18
:104FD000F91FEE0FFF1FEE0FFF1FEE0FFF1FE81B65
:104FE000F90BE00FF11F878590892B8D3C8D822B6B
:104FF000932B90939C243AE03A95F1F700C00C94DF
:10500000A2181F920F920FB60F9208B60F9209B610
:105010000F920BB60F9211242F923F924F925F92F4
:105020006F927F928F929F92AF92BF92CF92DF92B8
:10503000EF92FF920F931F932F933F934F935F93A2
:105040006F937F938F939F93AF93BF93EF93FF9350
:10505000CF93DF93CDB7DEB72B97CDBFDEBFA8953B
:1050600087E260E30E946C31082F86FFAAC588E0C2
:10507000E0E6F6E087830F2EF9E4CF2EF4E2DF2E90
:10508000F02D06EB11E20F2EFAE4EF2EF4E2FF2EE4
:10509000F02D57010894A11CB11C88249924689410
:1050A00081F88E0C9F1C0F2EF3E06F2E7724F02DCD
:1050B0006E0C7F1C44245524689442F84E0C5F1CEF
:1050C0000F2EF5E02F2E3324F02D2E0C3F1CC701A0
:1050D000069689839A83F7013796EB83FC83C70191
:1050E00008968D839E83F7013996EF83F887C70171
:1050F0000A9689879A87A895C60160E270E00E94A7
:105100006731F6017081E8E0F6E03081808120812E
:105110006081E72FF0E090E0807190709595879521
:10512000959587959595879595958795AC01440FAD
:10513000551F822F881F8827881F90E0880F991F8E
:10514000880F991F482B592B832F90E08074907003
:10515000082E892F000C881F990B000C881F991F9F
:10516000482B592B862F90E08072907095958795EB
:105170009595879595958795959587959595879517
:10518000880F991F880F991F880F991F842B952BC3
:10519000E817F90709F00CC51092AB211092AC2169
:1051A000A8E0B6E03C918C912C916C9190E08071DC
:1051B00090709595879595958795959587959595F3
:1051C0008795AC01440F551F822F881F8827881FA1
:1051D00090E0880F991F880F991F482B592B832F18
:1051E00090E080749070082E892F000C881F990B16
:1051F000000C881F991F482B592B862F90E0807236
:1052000090709595879595958795959587959595A2
:10521000879595958795880F991F880F991F880FF7
:10522000991F9A01282B392BC901880F991F820FCA
:10523000931F880F991F880F991F880F991F821B32
:10524000930B800F911FFC0170833C918C912C91EA
:105250006C9190E080719070959587959595879564
:105260009595879595958795AC01440F551F822F8D
:10527000881F8827881F90E0880F991F880F991F23
:10528000482B592B832F90E080749070082E892F23
:10529000000C881F990B000C881F991F482B592B55
:1052A000862F90E08072907095958795959587955B
:1052B000959587959595879595958795880F991FCD
:1052C000880F991F880F991F842B952BFC01EE0FD7
:1052D000FF1FE80FF91FEE0FFF1FEE0FFF1FEE0F6E
:1052E000FF1FE81BF90B9F01200F311FF701808181
:1052F000F901818312823C918C912C916C9190E008
:1053000080719070959587959595879595958795DA
:1053100095958795AC01440F551F822F881F8827CC
:10532000881F90E0880F991F880F991F482B592BD1
:10533000832F90E080749070082E892F000C881FB6
:10534000990B000C881F991F482B592B862F90E032
:105350008072907095958795959587959595879589
:105360009595879595958795880F991F880F991F13
:10537000880F991F842B952BFC01EE0FFF1FE80F60
:10538000F91FEE0FFF1FEE0FFF1FEE0FFF1FE81BB1
:10539000F90B9F01200F311FF5018081F9018383F3
:1053A00014823C918C912C916C9190E08071907062
:1053B00095958795959587959595879595958795D5
:1053C000AC01440F551F822F881F8827881F90E04B
:1053D000880F991F880F991F482B592B832F90E016
:1053E00080749070082E892F000C881F990B000C78
:1053F000881F991F482B592B862F90E08072907040
:105400009595879595958795959587959595879584
:1054100095958795880F991F880F991F880F991F59
:10542000842B952BFC01EE0FFF1FE80FF91FEE0FE9
:10543000FF1FEE0FFF1FEE0FFF1FE81BF90B9F0171
:10544000200F311FF4018081F901858316823C9180
:105450008C912C916C9190E08071907095958795CE
:10546000959587959595879595958795AC01440F6A
:10547000551F822F881F8827881F90E0880F991F4B
:10548000880F991F482B592B832F90E080749070C0
:10549000082E892F000C881F990B000C881F991F5C
:1054A000482B592B862F90E08072907095958795A8
:1054B00095958795959587959595879595958795D4
:1054C000880F991F880F991F880F991F842B952B80
:1054D000FC01EE0FFF1FE80FF91FEE0FFF1FEE0F8D
:1054E000FF1FEE0FFF1FE81BF90B9F01200F311F5D
:1054F000F3018081F901878310863C918C912C9176
:105500006C9190E0807190709595879595958795B1
:105510009595879595958795AC01440F551F822FDA
:10552000881F8827881F90E0880F991F880F991F70
:10553000482B592B832F90E080749070082E892F70
:10554000000C881F990B000C881F991F482B592BA2
:10555000862F90E0807290709595879595958795A8
:10556000959587959595879595958795880F991F1A
:10557000880F991F880F991F842B952BFC01EE0F24
:10558000FF1FE80FF91FEE0FFF1FEE0FFF1FEE0FBB
:10559000FF1FE81BF90B9F01200F311FF2018081D3
:1055A000F901818712863C918C912C916C9190E04D
:1055B0008071907095958795959587959595879528
:1055C00095958795AC01440F551F822F881F88271A
:1055D000881F90E0880F991F880F991F482B592B1F
:1055E000832F90E080749070082E892F000C881F04
:1055F000990B000C881F991F482B592B862F90E080
:1056000080729070959587959595879595958795D6
:105610009595879595958795880F991F880F991F60
:10562000880F991F842B952BFC01EE0FFF1FE80FAD
:10563000F91FEE0FFF1FEE0FFF1FEE0FFF1FE81BFE
:10564000F90B9F01200F311FF1018081F901838740
:1056500014863C918C912C916C9190E080719070AB
:105660009595879595958795959587959595879522
:10567000AC01440F551F822F881F8827881F90E098
:10568000880F991F880F991F482B592B832F90E063
:1056900080749070082E892F000C881F990B000CC5
:1056A000881F991F482B592B862F90E0807290708D
:1056B00095958795959587959595879595958795D2
:1056C00095958795880F991F880F991F880F991FA7
:1056D000842B952BFC01EE0FFF1FE80FF91FEE0F37
:1056E000FF1FEE0FFF1FEE0FFF1FE81BF90B9F01BF
:1056F000200F311FE981FA818081F90185871686A3
:105700003C918C912C916C9190E08071907095956A
:105710008795959587959595879595958795AC01EE
:10572000440F551F822F881F8827881F90E0880FFD
:10573000991F880F991F482B592B832F90E0807455
:105740009070082E892F000C881F990B000C881F61
:10575000991F482B592B862F90E080729070959559
:105760008795959587959595879595958795959521
:105770008795880F991F880F991F880F991F842B71
:10578000952BFC01EE0FFF1FE80FF91FEE0FFF1F17
:10579000EE0FFF1FEE0FFF1FE81BF90B9F01200FFD
:1057A000311FEB81FC818081F9018787108A3C9150
:1057B0008C912C916C9190E080719070959587956B
:1057C000959587959595879595958795AC01440F07
:1057D000551F822F881F8827881F90E0880F991FE8
:1057E000880F991F482B592B832F90E0807490705D
:1057F000082E892F000C881F990B000C881F991FF9
:10580000482B592B862F90E0807290709595879544
:105810009595879595958795959587959595879570
:10582000880F991F880F991F880F991F9A01282B9D
:10583000392BC901880F991F820F931F880F991F59
:10584000880F991F880F991F821B930B800F911F40
:10585000ED81FE812081FC01218B3C918C912C916A
:105860006C9190E08071907095958795959587954E
:105870009595879595958795AC01440F551F822F77
:10588000881F8827881F90E0880F991F880F991F0D
:10589000482B592B832F90E080749070082E892F0D
:1058A000000C881F990B000C881F991F482B592B3F
:1058B000862F90E080729070959587959595879545
:1058C000959587959595879595958795880F991FB7
:1058D000880F991F880F991F9A01282B392BC9010E
:1058E000880F991F820F931F880F991F880F991F88
:1058F000880F991F821B930B800F911FEF81F885F2
:105900002081FC01228B3C918C912C916C9190E038
:1059100080719070959587959595879595958795C4
:1059200095958795AC01440F551F822F881F8827B6
:10593000881F90E0880F991F880F991F482B592BBB
:10594000832F90E080749070082E892F000C881FA0
:10595000990B000C881F991F482B592B862F90E01C
:105960008072907095958795959587959595879573
:105970009595879595958795880F991F880F991FFD
:10598000880F991F9A01282B392BC901880F991F5D
:10599000820F931F880F991F880F991F880F991FD7
:1059A000821B930B800F911FE985FA852081FC01F2
:1059B000238B3C918C912C916C9190E08071907034
:1059C00095958795959587959595879595958795BF
:1059D000AC01440F551F822F881F8827881F90E035
:1059E000880F991F880F991F482B592B832F90E000
:1059F00080749070082E892F000C881F990B000C62
:105A0000881F991F482B592B862F90E08072907029
:105A1000959587959595879595958795959587956E
:105A200095958795880F991F880F991F880F991F43
:105A30009A01282B392BC901880F991F820F931FB8
:105A4000880F991F880F991F880F991F821B930B2E
:105A5000800F911FF7012385FC01248B3C918C91D1
:105A60002C916C9190E080719070959587959595AB
:105A700087959595879595958795AC01440F551F0A
:105A8000822F881F8827881F90E0880F991F880F12
:105A9000991F482B592B832F90E080749070082E0B
:105AA000892F000C881F990B000C881F991F482B09
:105AB000592B862F90E080729070959587959595DB
:105AC0008795959587959595879595958795880F51
:105AD000991F880F991F880F991F9A01282B392B1E
