:10000000F9C000001DC100000C94251719C10000A3
:1000100017C1000015C1000013C1000011C100008C
:100020000FC100000DC100000BC1000009C100009C
:1000300007C1000005C1000044C500007AC50000EA
:10004000B0C50000E6C500001CC6000052C6000096
:1000500088C60000BEC60000F4C600002AC7000023
:10006000EFC00000EDC00000EBC00000E9C00000E0
:10007000E7C00000E5C00000E3C00000E1C00000F0
:10008000DFC00000DDC00000DBC00000D9C0000000
:10009000D7C00000D5C00000D3C00000D1C0000010
:1000A000CFC00000CDC00000CBC000000C94D91020
:1000B000C7C00000C5C00000C3C000000C9489097F
:1000C0000C94C1090C94F9090C94310A0C94690A36
:1000D0000C94A10A0C94D90A0C94110B0C94490BA2
:1000E0000C94810BADC00000ABC00000A9C00000A3
:1000F000A7C00000A5C00000A3C00000A1C0000070
:100100009FC000009DC000009BC0000099C000007F
:1001100097C0000095C0000093C0000091C000008F
:100120008FC000008DC000008BC0000089C000009F
:1001300087C000000C944615F4C600002AC70000D2
:1001400060C7000096C70000CCC700000C94A90847
:100150000C94E1080C9419090C94510971C0000029
:100160006FC000006DC000006BC0000069C00000DF
:1001700067C0000065C000000C94D1160C944F17A6
:100180000C94FB160C9479175BC0000059C000005A
:100190000C94881755C0000053C0000051C00000E7
:1001A0000C94C2164DC000004BC0000049C00000B6
:1001B0000C94B90B0C94F10B0C94290C0C94610C5D
:1001C0000C94990C0C94D10C0C94090D0C94410DC9
:1001D0000C94790D0C94B10D33C000000C943E23A7
:1001E0002FC000002DC000000C94B72329C00000D0
:1001F00027C0000011241FBECFEFCDBFDFE3DEBF5D
:1002000000E00CBF18BE19BE1ABE1BBE10E2A0E073
:10021000B0E2ECEAF4E500E00BBF02C007900D92FB
:10022000A834B107D9F71BBE24E2A8E4B0E201C0AC
:100230001D92A632B207E1F70E9401180C94542ACD
:10024000DFCEE4E2F6E09081A82FA170B0E0AA0F23
:10025000BB1FAA0FBB1F9B7FA92BA083908181FB93
:10026000662760F970E0660F771F62957295707F60
:100270007627607F76279F7D692B6083908182FB44
:10028000442740F950E042955295507F5427407FD3
:1002900054279F7E492B4083E4E4F6E0908183FB62
:1002A000222720F930E0220F331F22953295307F2C
:1002B0003227207F3227892F8F7D282B2083089596
:1002C000E0E2F6E0808184608083808180628083C8
:1002D000808180618083E0E4F6E0808180628083B9
:1002E0000895E0E2F6E080818B7F808380818F7DBE
:1002F000808380818F7E8083E0E4F6E080818F7D43
:1003000080830895CF93C82F8FE193E00197F1F791
:1003100000C000008C2F82958F7093DFE4E2F6E03E
:1003200080818260808380818860808395ED9A954A
:10033000F1F700008081877F808385ED8A95F1F752
:1003400000008C2F7EDFE4E2F6E08081886080830D
:1003500095ED9A95F1F700008081877F8083CF919A
:100360000895CF93C82F8FEF8C0F823038F48FE32E
:100370009CE90197F1F700C0000006C08FE39FE100
:100380000197F1F700C000008C2F82958F7059DF24
:10039000E4E2F6E080818D7F8083808188608083C5
:1003A00095ED9A95F1F700008081877F808385ED38
:1003B0008A95F1F700008C2F44DFE4E2F6E08081BB
:1003C0008860808395ED9A95F1F700008081877FA2
:1003D0008083CF910895E4E2F6E08081877F808377
:1003E00080DF2FEF87EE93E0215080409040E1F7CF
:1003F00000C0000065DF83E024DFE0E2F6E08081FA
:1004000082608083808181608083A4E2B6E08C91E9
:100410008D7F8C938C918E7F8C938081886080837C
:1004200025ED2A95F1F70000E4E2F6E0808188608E
:10043000808385ED8A95F1F700008081877F808336
:100440009FEF23EF81E0915020408040E1F700C012
:10045000000080818860808395ED9A95F1F7000017
:100460008081877F80838FE193E00197F1F700C05F
:10047000000080818860808395ED9A95F1F70000F7
:100480008081877F80838FE193E00197F1F700C03F
:10049000000082E0D6DE95ED9A95F1F70000E4E2E7
:1004A000F6E080818860808325ED2A95F1F70000D1
:1004B0008081877F80838FE193E00197F1F700C00F
:1004C000000088E24EDF88E04CDF81E04ADF86E012
:1004D00048DF8CE046CF0895CF93DF93EC0121965F
:1004E000FC018081882321F00DDF89918111FCCFEF
:1004F000DF91CF910895623031F0633031F0613097
:1005000029F4805C03C08C5E01C08C5A806829CFBE
:100510000895882339F0FB018081811107C081E0B3
:1005200080830895FB01108280E0089580E00895A3
:10053000E0E0F7E094818091AB20A0910020B0E052
:10054000AA0FBB1FA85FBF4D90782C91922B9823C8
:100550009483E0EEF6E09481A0910120B0E0AA0F30
:10056000BB1FA85FBF4D90782C91922B8923848369
:100570000895809101208E3031F4809100208F30D9
:1005800011F40C94840F0895EF92FF920F931F9330
:10059000CF93DF93F12C01E010E2C0E0D0E20F2E08
:1005A000F1E1EF2EF02DF801F082E882E2DFF39422
:1005B000F0E1FF12F8CF80E18093002080930120CA
:1005C00010920220DF91CF911F910F91FF90EF9039
:1005D00008958F929F92AF92BF92CF92DF92EF9247
:1005E000FF920F931F93CF93DF938091022081306E
:1005F00009F465C020F0823009F4C2C0DFC0C0EE4B
:10060000D6E01C8160919F207091A0208091A12054
:100610009091A22024E630E040E050E00E94612565
:1006200020FB17F91C8380E8E0E0F7E086839885DB
:1006300028858885388530FB882480F8912C880CA3
:10064000991C22FB222720F9822A93FBAA24A0F8D6
:10065000B12CAA0CBB1CAA0CBB1CA82881FBCC2467
:10066000C0F8D12CCC0CDD1CCC0CDD1CCC0CDD1C62
:10067000CA28C092012080E18093002059DF809138
:10068000E8066BE470E2881F8827881F42DF882312
:1006900029F0E2E0F0E280818F5F80838091A806FC
:1006A0006AE470E28295817034DF882309F486C0A1
:1006B00084E690E080934820909349207FC00F2EDD
:1006C000C12CF7E0DF2EF02DF601B48060919F2061
:1006D0007091A0208091A1209091A22024E630E08A
:1006E00040E050E00E94612520FBB7F8F601B4829B
:1006F000E0EEF6E080E88583908520858085308572
:1007000030FBEE24E0F8F12CEE0CFF1C22FB22273C
:1007100020F9E22A93FB002700F910E0000F111FD7
:10072000000F111F0E2986958170C82FF0E0DF2F72
:10073000CC0FDD1FCC0FDD1FCC0FDD1FC02BC093F6
:100740000020F6DE8091E8066BE470E2881F8827BF
:10075000881FDFDE882329F0E2E0F0E280818F5FEE
:1007600080838091A8066AE470E282958170D1DE70
:10077000882321F1E2E0F0E28081815080831EC075
:1007800080E8E0E0F7E08583E0EEF6E08583F1DEE7
:100790008091A8066AE470E282958170BADE8823AF
:1007A00069F0E2E0F0E2808181508083C0E0D0E235
:1007B00081E18883DEDE80E18883BADEDF91CF913C
:1007C0001F910F91FF90EF90DF90CF90BF90AF906F
:1007D0009F908F9008952FB7F894FC01E059FF4F38
:1007E00060958081682360832FBF08952FB7F894A8
:1007F000FC01E059FF4F8081682B60832FBF089573
:10080000811522E0920769F480914D2091E0980FC4
:1008100090934D20811114C062E081E090E0DBCF25
:1008200008958034924061F480914C2091E0980FBB
:1008300090934C20811104C062E082E090E0CBCF25
:100840000895811522E0920761F480914D20815036
:1008500080934D20811113C062E081E090E0C6CF0B
:1008600008958034924059F480914C2081508093B7
:100870004C20811104C062E082E090E0B7CF08957F
:100880001F93CF93DF93EC011FB7F894B9DF8881F2
:10089000816088831FBF8FB7F894EDEAF0E2908102
:1008A0009F5F90838FBFDF91CF911F910895DF925B
:1008B000EF92FF920F931F93CF93DF93EC018B0185
:1008C000C11522E0D20771F461E270E082E0A7D0A6
:1008D000E82EF12C60E270E082E0A1D0FE2CEE2444
:1008E000E82A10C08034924059F565E270E082E059
:1008F00096D0E82EF12C64E270E082E090D0FE2CDD
:10090000EE24E82ADFB6F894CE017ADF288182E06F
:100910008883EC86FD86F80185819681888F998F82
:1009200082818A8384818C8383818B838181898383
:10093000822F81709081892B8883CE0182DFDFBE78
:10094000DF91CF911F910F91FF90EF90DF9008956D
:10095000DF92EF92FF920F931F93CF93DF937C016F
:100960008A01862F837021F46695669582E001C026
:1009700080E060FF8F5FE701A09698E0899FC00D3F
:10098000D11D1124DFB6F894C7013ADFF801808148
:10099000888382818A8381818983C70152DFDFBE98
:1009A000DF91CF911F910F91FF90EF90DF9008950D
:1009B000DF92EF92FF920F931F93CF93DF937C010F
:1009C000EA01862F837021F46695669582E001C066
:1009D00080E060FF8F5F8701005E1F4F98E0899F76
:1009E000000D111D1124DFB6F894C70109DFF801CD
:1009F0008081888382818A8381818983C70121DF05
:100A0000DFBEDF91CF911F910F91FF90EF90DF90AC
:100A100008951BBEFC0128ED24BF6083089540911A
:100A2000CA01E62FF72F8093CA0184914093CA012F
:100A30000895CF92DF92EF92FF920F931F93CF937F
:100A4000DF93EC016A017B01DB01CA010197A10977
:100A5000B109BC01CD01600F711F821F931FA70157
:100A600096010E9461252138310541055105F8F4B0
:100A7000213460F4213260F4213160F4293060F4D3
:100A8000253060F4233060F090E00BC093E009C0A3
:100A900092E007C092E805C091E003C091E801C070
:100AA00090E888818C77892B888381E001C08FEF63
:100AB000DF91CF911F910F91FF90EF90DF90CF903A
:100AC00008951F920F920FB60F92112408B60F923D
:100AD00018BE09B60F9219BE0BB60F921BBE2F930C
:100AE0003F934F935F936F937F938F939F93AF93B6
:100AF000BF93EF93FF93E0919A20F0919B20309762
:100B000009F01995FF91EF91BF91AF919F918F914E
:100B10007F916F915F914F913F912F910F900BBEFD
:100B20000F9009BE0F9008BE0F900FBE0F901F9040
:100B300018951F920F920FB60F92112408B60F92BC
:100B400018BE09B60F9219BE0BB60F921BBE2F939B
:100B50003F934F935F936F937F938F939F93AF9345
:100B6000BF93EF93FF93E0919820F09199203097F5
:100B700009F01995FF91EF91BF91AF919F918F91DE
:100B80007F916F915F914F913F912F910F900BBE8D
:100B90000F9009BE0F9008BE0F900FBE0F901F90D0
:100BA00018951F920F920FB60F92112408B60F924C
:100BB00018BE09B60F9219BE0BB60F921BBE2F932B
:100BC0003F934F935F936F937F938F939F93AF93D5
:100BD000BF93EF93FF93E0919620F0919720309789
:100BE00009F01995FF91EF91BF91AF919F918F916E
:100BF0007F916F915F914F913F912F910F900BBE1D
:100C00000F9009BE0F9008BE0F900FBE0F901F905F
:100C100018951F920F920FB60F92112408B60F92DB
:100C200018BE09B60F9219BE0BB60F921BBE2F93BA
:100C30003F934F935F936F937F938F939F93AF9364
:100C4000BF93EF93FF93E0919420F091952030971C
:100C500009F01995FF91EF91BF91AF919F918F91FD
:100C60007F916F915F914F913F912F910F900BBEAC
:100C70000F9009BE0F9008BE0F900FBE0F901F90EF
:100C800018951F920F920FB60F92112408B60F926B
:100C900018BE09B60F9219BE0BB60F921BBE2F934A
:100CA0003F934F935F936F937F938F939F93AF93F4
:100CB000BF93EF93FF93E0919220F09193203097B0
:100CC00009F01995FF91EF91BF91AF919F918F918D
:100CD0007F916F915F914F913F912F910F900BBE3C
:100CE0000F9009BE0F9008BE0F900FBE0F901F907F
:100CF00018951F920F920FB60F92112408B60F92FB
:100D000018BE09B60F9219BE0BB60F921BBE2F93D9
:100D10003F934F935F936F937F938F939F93AF9383
:100D2000BF93EF93FF93E0919020F0919120309743
:100D300009F01995FF91EF91BF91AF919F918F911C
:100D40007F916F915F914F913F912F910F900BBECB
:100D50000F9009BE0F9008BE0F900FBE0F901F900E
:100D600018951F920F920FB60F92112408B60F928A
:100D700018BE09B60F9219BE0BB60F921BBE2F9369
:100D80003F934F935F936F937F938F939F93AF9313
:100D9000BF93EF93FF93E0918E20F0918F203097D7
:100DA00009F01995FF91EF91BF91AF919F918F91AC
:100DB0007F916F915F914F913F912F910F900BBE5B
:100DC0000F9009BE0F9008BE0F900FBE0F901F909E
:100DD00018951F920F920FB60F92112408B60F921A
:100DE00018BE09B60F9219BE0BB60F921BBE2F93F9
:100DF0003F934F935F936F937F938F939F93AF93A3
:100E0000BF93EF93FF93E0918C20F0918D2030976A
:100E100009F01995FF91EF91BF91AF919F918F913B
:100E20007F916F915F914F913F912F910F900BBEEA
:100E30000F9009BE0F9008BE0F900FBE0F901F902D
:100E400018951F920F920FB60F92112408B60F92A9
:100E500018BE09B60F9219BE0BB60F921BBE2F9388
:100E60003F934F935F936F937F938F939F93AF9332
:100E7000BF93EF93FF93E0918A20F0918B203097FE
:100E800009F01995FF91EF91BF91AF919F918F91CB
:100E90007F916F915F914F913F912F910F900BBE7A
:100EA0000F9009BE0F9008BE0F900FBE0F901F90BD
:100EB00018951F920F920FB60F92112408B60F9239
:100EC00018BE09B60F9219BE0BB60F921BBE2F9318
:100ED0003F934F935F936F937F938F939F93AF93C2
:100EE000BF93EF93FF93E0918820F0918920309792
:100EF00009F01995FF91EF91BF91AF919F918F915B
:100F00007F916F915F914F913F912F910F900BBE09
:100F10000F9009BE0F9008BE0F900FBE0F901F904C
:100F200018951F920F920FB60F92112408B60F92C8
:100F300018BE09B60F9219BE0BB60F921BBE2F93A7
:100F40003F934F935F936F937F938F939F93AF9351
:100F5000BF93EF93FF93E0918620F0918720309725
:100F600009F01995FF91EF91BF91AF919F918F91EA
:100F70007F916F915F914F913F912F910F900BBE99
:100F80000F9009BE0F9008BE0F900FBE0F901F90DC
:100F900018951F920F920FB60F92112408B60F9258
:100FA00018BE09B60F9219BE0BB60F921BBE2F9337
:100FB0003F934F935F936F937F938F939F93AF93E1
:100FC000BF93EF93FF93E0918420F09185203097B9
:100FD00009F01995FF91EF91BF91AF919F918F917A
:100FE0007F916F915F914F913F912F910F900BBE29
:100FF0000F9009BE0F9008BE0F900FBE0F901F906C
:1010000018951F920F920FB60F92112408B60F92E7
:1010100018BE09B60F9219BE0BB60F921BBE2F93C6
:101020003F934F935F936F937F938F939F93AF9370
:10103000BF93EF93FF93E0918220F091832030974C
:1010400009F01995FF91EF91BF91AF919F918F9109
:101050007F916F915F914F913F912F910F900BBEB8
:101060000F9009BE0F9008BE0F900FBE0F901F90FB
:1010700018951F920F920FB60F92112408B60F9277
:1010800018BE09B60F9219BE0BB60F921BBE2F9356
:101090003F934F935F936F937F938F939F93AF9300
:1010A000BF93EF93FF93E0918020F09181203097E0
:1010B00009F01995FF91EF91BF91AF919F918F9199
:1010C0007F916F915F914F913F912F910F900BBE48
:1010D0000F9009BE0F9008BE0F900FBE0F901F908B
:1010E00018951F920F920FB60F92112408B60F9207
:1010F00018BE09B60F9219BE0BB60F921BBE2F93E6
:101100003F934F935F936F937F938F939F93AF938F
:10111000BF93EF93FF93E0917E20F0917F20309773
:1011200009F01995FF91EF91BF91AF919F918F9128
:101130007F916F915F914F913F912F910F900BBED7
:101140000F9009BE0F9008BE0F900FBE0F901F901A
:1011500018951F920F920FB60F92112408B60F9296
:1011600018BE09B60F9219BE0BB60F921BBE2F9375
:101170003F934F935F936F937F938F939F93AF931F
:10118000BF93EF93FF93E0917C20F0917D20309707
:1011900009F01995FF91EF91BF91AF919F918F91B8
:1011A0007F916F915F914F913F912F910F900BBE67
:1011B0000F9009BE0F9008BE0F900FBE0F901F90AA
:1011C00018951F920F920FB60F92112408B60F9226
:1011D00018BE09B60F9219BE0BB60F921BBE2F9305
:1011E0003F934F935F936F937F938F939F93AF93AF
:1011F000BF93EF93FF93E0917A20F0917B2030979B
:1012000009F01995FF91EF91BF91AF919F918F9147
:101210007F916F915F914F913F912F910F900BBEF6
:101220000F9009BE0F9008BE0F900FBE0F901F9039
:1012300018951F920F920FB60F92112408B60F92B5
:1012400018BE09B60F9219BE0BB60F921BBE2F9394
:101250003F934F935F936F937F938F939F93AF933E
:10126000BF93EF93FF93E0917820F091792030972E
:1012700009F01995FF91EF91BF91AF919F918F91D7
:101280007F916F915F914F913F912F910F900BBE86
:101290000F9009BE0F9008BE0F900FBE0F901F90C9
:1012A00018951F920F920FB60F92112408B60F9245
:1012B00018BE09B60F9219BE0BB60F921BBE2F9324
:1012C0003F934F935F936F937F938F939F93AF93CE
:1012D000BF93EF93FF93E0917620F09177203097C2
:1012E00009F01995FF91EF91BF91AF919F918F9167
:1012F0007F916F915F914F913F912F910F900BBE16
:101300000F9009BE0F9008BE0F900FBE0F901F9058
:1013100018951F920F920FB60F92112408B60F92D4
:1013200018BE09B60F9219BE0BB60F921BBE2F93B3
:101330003F934F935F936F937F938F939F93AF935D
:10134000BF93EF93FF93E0917420F0917520309755
:1013500009F01995FF91EF91BF91AF919F918F91F6
:101360007F916F915F914F913F912F910F900BBEA5
:101370000F9009BE0F9008BE0F900FBE0F901F90E8
:1013800018951F920F920FB60F92112408B60F9264
:1013900018BE09B60F9219BE0BB60F921BBE2F9343
:1013A0003F934F935F936F937F938F939F93AF93ED
:1013B000BF93EF93FF93E0917220F09173203097E9
:1013C00009F01995FF91EF91BF91AF919F918F9186
:1013D0007F916F915F914F913F912F910F900BBE35
:1013E0000F9009BE0F9008BE0F900FBE0F901F9078
:1013F00018951F920F920FB60F92112408B60F92F4
:1014000018BE09B60F9219BE0BB60F921BBE2F93D2
:101410003F934F935F936F937F938F939F93AF937C
:10142000BF93EF93FF93E0917020F091712030977C
:1014300009F01995FF91EF91BF91AF919F918F9115
:101440007F916F915F914F913F912F910F900BBEC4
:101450000F9009BE0F9008BE0F900FBE0F901F9007
:1014600018951F920F920FB60F92112408B60F9283
:1014700018BE09B60F9219BE0BB60F921BBE2F9362
:101480003F934F935F936F937F938F939F93AF930C
:10149000BF93EF93FF93E0916E20F0916F20309710
:1014A00009F01995FF91EF91BF91AF919F918F91A5
:1014B0007F916F915F914F913F912F910F900BBE54
:1014C0000F9009BE0F9008BE0F900FBE0F901F9097
:1014D00018951F920F920FB60F92112408B60F9213
:1014E00018BE09B60F9219BE0BB60F921BBE2F93F2
:1014F0003F934F935F936F937F938F939F93AF939C
:10150000BF93EF93FF93E0916C20F0916D203097A3
:1015100009F01995FF91EF91BF91AF919F918F9134
:101520007F916F915F914F913F912F910F900BBEE3
:101530000F9009BE0F9008BE0F900FBE0F901F9026
:1015400018951F920F920FB60F92112408B60F92A2
:1015500018BE09B60F9219BE0BB60F921BBE2F9381
:101560003F934F935F936F937F938F939F93AF932B
:10157000BF93EF93FF93E0916A20F0916B20309737
:1015800009F01995FF91EF91BF91AF919F918F91C4
:101590007F916F915F914F913F912F910F900BBE73
:1015A0000F9009BE0F9008BE0F900FBE0F901F90B6
:1015B00018951F920F920FB60F92112408B60F9232
:1015C00018BE09B60F9219BE0BB60F921BBE2F9311
:1015D0003F934F935F936F937F938F939F93AF93BB
:1015E000BF93EF93FF93E0916820F09169203097CB
:1015F00009F01995FF91EF91BF91AF919F918F9154
:101600007F916F915F914F913F912F910F900BBE02
:101610000F9009BE0F9008BE0F900FBE0F901F9045
:1016200018951F920F920FB60F92112408B60F92C1
:1016300018BE09B60F9219BE0BB60F921BBE2F93A0
:101640003F934F935F936F937F938F939F93AF934A
:10165000BF93EF93FF93E0916620F091672030975E
:1016600009F01995FF91EF91BF91AF919F918F91E3
:101670007F916F915F914F913F912F910F900BBE92
:101680000F9009BE0F9008BE0F900FBE0F901F90D5
:1016900018951F920F920FB60F92112408B60F9251
:1016A00018BE09B60F9219BE0BB60F921BBE2F9330
:1016B0003F934F935F936F937F938F939F93AF93DA
:1016C000BF93EF93FF93E0916420F09165203097F2
:1016D00009F01995FF91EF91BF91AF919F918F9173
:1016E0007F916F915F914F913F912F910F900BBE22
:1016F0000F9009BE0F9008BE0F900FBE0F901F9065
:1017000018951F920F920FB60F92112408B60F92E0
:1017100018BE09B60F9219BE0BB60F921BBE2F93BF
:101720003F934F935F936F937F938F939F93AF9369
:10173000BF93EF93FF93E0916220F0916320309785
:1017400009F01995FF91EF91BF91AF919F918F9102
:101750007F916F915F914F913F912F910F900BBEB1
:101760000F9009BE0F9008BE0F900FBE0F901F90F4
:1017700018951F920F920FB60F92112408B60F9270
:1017800018BE09B60F9219BE0BB60F921BBE2F934F
:101790003F934F935F936F937F938F939F93AF93F9
:1017A000BF93EF93FF93E0916020F0916120309719
:1017B00009F01995FF91EF91BF91AF919F918F9192
:1017C0007F916F915F914F913F912F910F900BBE41
:1017D0000F9009BE0F9008BE0F900FBE0F901F9084
:1017E00018951F920F920FB60F92112408B60F9200
:1017F00018BE09B60F9219BE0BB60F921BBE2F93DF
:101800003F934F935F936F937F938F939F93AF9388
:10181000BF93EF93FF93E0915E20F0915F203097AC
:1018200009F01995FF91EF91BF91AF919F918F9121
:101830007F916F915F914F913F912F910F900BBED0
:101840000F9009BE0F9008BE0F900FBE0F901F9013
:1018500018951F920F920FB60F92112408B60F928F
:1018600018BE09B60F9219BE0BB60F921BBE2F936E
:101870003F934F935F936F937F938F939F93AF9318
:10188000BF93EF93FF93E0915C20F0915D20309740
:1018900009F01995FF91EF91BF91AF919F918F91B1
:1018A0007F916F915F914F913F912F910F900BBE60
:1018B0000F9009BE0F9008BE0F900FBE0F901F90A3
:1018C00018951F920F920FB60F92112408B60F921F
:1018D00018BE09B60F9219BE0BB60F921BBE2F93FE
:1018E0003F934F935F936F937F938F939F93AF93A8
:1018F000BF93EF93FF93E0915A20F0915B203097D4
:1019000009F01995FF91EF91BF91AF919F918F9140
:101910007F916F915F914F913F912F910F900BBEEF
:101920000F9009BE0F9008BE0F900FBE0F901F9032
:1019300018951F920F920FB60F92112408B60F92AE
:1019400018BE09B60F9219BE0BB60F921BBE2F938D
:101950003F934F935F936F937F938F939F93AF9337
:10196000BF93EF93FF93E0915820F0915920309767
:1019700009F01995FF91EF91BF91AF919F918F91D0
:101980007F916F915F914F913F912F910F900BBE7F
:101990000F9009BE0F9008BE0F900FBE0F901F90C2
:1019A00018951F920F920FB60F92112408B60F923E
:1019B00018BE09B60F9219BE0BB60F921BBE2F931D
:1019C0003F934F935F936F937F938F939F93AF93C7
:1019D000BF93EF93FF93E0915620F09157203097FB
:1019E00009F01995FF91EF91BF91AF919F918F9160
:1019F0007F916F915F914F913F912F910F900BBE0F
:101A00000F9009BE0F9008BE0F900FBE0F901F9051
:101A100018951F920F920FB60F92112408B60F92CD
:101A200018BE09B60F9219BE0BB60F921BBE2F93AC
:101A30003F934F935F936F937F938F939F93AF9356
:101A4000BF93EF93FF93E0915420F091552030978E
:101A500009F01995FF91EF91BF91AF919F918F91EF
:101A60007F916F915F914F913F912F910F900BBE9E
:101A70000F9009BE0F9008BE0F900FBE0F901F90E1
:101A800018951F920F920FB60F92112408B60F925D
:101A900018BE09B60F9219BE0BB60F921BBE2F933C
:101AA0003F934F935F936F937F938F939F93AF93E6
:101AB000BF93EF93FF93E0915220F0915320309722
:101AC00009F01995FF91EF91BF91AF919F918F917F
:101AD0007F916F915F914F913F912F910F900BBE2E
:101AE0000F9009BE0F9008BE0F900FBE0F901F9071
:101AF00018951F920F920FB60F92112408B60F92ED
:101B000018BE09B60F9219BE0BB60F921BBE2F93CB
:101B10003F934F935F936F937F938F939F93AF9375
:101B2000BF93EF93FF93E0915020F09151203097B5
:101B300009F01995FF91EF91BF91AF919F918F910E
:101B40007F916F915F914F913F912F910F900BBEBD
:101B50000F9009BE0F9008BE0F900FBE0F901F9000
:101B600018951F920F920FB60F92112408B60F927C
:101B700018BE09B60F9219BE0BB60F921BBE2F935B
:101B80003F934F935F936F937F938F939F93AF9305
:101B9000BF93EF93FF93E0914E20F0914F20309749
:101BA00009F01995FF91EF91BF91AF919F918F919E
:101BB0007F916F915F914F913F912F910F900BBE4D
:101BC0000F9009BE0F9008BE0F900FBE0F901F9090
:101BD0001895CF93CFB7F894282F392F211588E087
:101BE000380759F461E083E090E00E94EB0364E081
:101BF00083E090E00E94EB036AC0203488E038075D
:101C000059F462E083E090E00E94EB0364E083E03B
:101C100090E00E94EB035BC0211589E0380759F47E
:101C200061E084E090E00E94EB0364E084E090E0F7
:101C30000E94EB034CC0203489E0380759F462E07D
:101C400084E090E00E94EB0364E084E090E00E9476
:101C5000EB033DC021158AE0380759F461E085E0C7
:101C600090E00E94EB0364E085E090E00E94EB03CB
:101C70002EC020348AE0380759F462E085E090E015
:101C80000E94EB0364E085E090E00E94EB031FC03C
:101C900021158BE0380759F461E086E090E00E945E
:101CA000EB0364E086E090E00E94EB0310C0203478
:101CB0003B4059F462E086E090E00E94EB0364E070
:101CC00086E090E00E94EB0302C0CFBF09C08FB74F
:101CD000F894EDEAF0E290819F5F90838FBFCFBFD1
:101CE000CF910895FC01818185FFFDCF608380E065
:101CF00090E008954F925F926F927F928F929F92A1
:101D0000AF92BF92CF92DF92EF92FF920F931F9309
:101D1000CF93DF93EC014A015B0128013901D9011E
:101D2000C801689412F8B695A7959795879516946B
:101D3000D1F7B901A801032E36E17695679557953D
:101D400047953A95D1F7302D2C8122FD08C0B695E4
:101D5000A795979587957695679557954795881593
:101D60009905AA05BB0508F4A6C084169506A60623
:101D7000B70608F4A2C08C8182FD04C0880C991CAF
:101D8000AA1CBB1CC301B201A50194010E946125DC
:101D90002F3F31054105510508F491C0C12CD12CCC
:101DA0007601CA9419EF05C02C153D054E055F0557
:101DB00068F0CC0CDD1CEE1CFF1C1D3F14F4689475
:101DC000C0F81F5F173081F7212F50C0212F11233A
:101DD0000CF04CC0D501C401880F991FAA1FBB1F6E
:101DE000880F991FAA1FBB1F880F991FAA1FBB1F0F
:101DF000481A590A6A0A7B0A1E3FF4F46DEF7FEF16
:101E0000611B710917FD739504C0440C551C661CB9
:101E1000771C6A95D2F7D501C401B695A795979519
:101E20008795BC01CD01640D751D861D971DA5010B
:101E300094010E94612536C023E0210FD501C40121
:101E400004C0880F991FAA1FBB1F2A95D2F79C01B7
:101E5000AD01B695A79597958795BC01CD01640D09
:101E6000751D861D971D0E9461251CC02D5FD50123
:101E7000C40104C0880F991FAA1FBB1F2A95D2F75F
:101E80009C01AD01B695A79597958795BC01CD01AD
:101E9000640D751D861D971D0E9461252150310915
:101EA00041095109832F8F701295107F182B1F83C2
:101EB0002E8381E018C080E016C080E014C0D501F8
:101EC000C401880F991FAA1FBB1F880F991FAA1F43
:101ED000BB1F880F991FAA1FBB1F481A590A6A0AFD
:101EE0007B0A19EF8BCFDF91CF911F910F91FF905C
:101EF000EF90DF90CF90BF90AF909F908F907F90AA
:101F00006F905F904F90089563E080E890E00E94AA
:101F10000905E0E8F0E0828180FDFDCF6BE281E819
:101F200090E00E940905E0E8F0E0828180FDFDCFAD
:101F3000A895FFCFE0E5F0E0808182608083E1E555
:101F4000F0E0808181FFFDCF88ED84BF81E0809348
:101F50004000E0E5F0E08081827E8083089580E4A7
:101F60008093210687E4809341061092530681E016
:101F70008093490698E090934A062EE220936106EA
:101F80002AEB20938106E0E9F6E02081226020839D
:101F9000E9E8F6E0208121602083EAE8F6E020818C
:101FA0002160208320E12093AA069093A1069093BC
:101FB000A5062FEF2093200720930007809330077A
:101FC0008093290720E820932A071092D0071092C7
:101FD000D30725E02093C9078093CA079093CB07C6
:101FE0008093F5068093E90680E28093EA060895DF
:101FF000E0E0F8E08081807F866080838181887F57
:10200000836081838FEF90E086A397A380858E6F96
:10201000808781818061818381818062818380E08A
:1020200098E0D7CD0895E0E0F9E08081807F866078
:1020300080838181887F818386818C7F868386816E
:10204000826086838DE790E086A397A380858E6F5C
:10205000808780E099E0BDCD08950F931F9300E045
:1020600018E428EE31E040E052E16AE770E080ECED
:102070009AE00E941905E0ECFAE08081806180839B
:102080008081806480831F910F9108950F931F9327
:10209000CF93DF93C0EADBE08D818F738D8383E084
:1020A0008D838B818F7C80628B8300E018E428EE27
:1020B00031E040E855E260E070E080EA9BE01ADE43
:1020C0008C8188608C838C8180618C83DF91CF913F
:1020D0001F910F9108950F931F93CF93DF93C0EB40
:1020E000DBE08D818F738D8383E08D838B818F7C8B
:1020F00080628B8300E018E428EE31E040E855E28E
:1021000060E070E080EB9BE0F5DD8C8188608C8383
:102110008C8180618C83DF91CF911F910F91089505
:10212000CF93DF93CDB7DEB72A97CDBFDEBF61E295
:1021300070E082E00E940F0560E270E082E00E94A1
:102140000F058A81897E9B819F7C90629B8392E0B0
:102150009D8388608A831C82BE016F5F7F4F80E011
:1021600092E00E945704AE01485F5F4F61E080E05B
:1021700092E00E94D80481E0888788E18987AE01D7
:10218000485F5F4F61E080E092E00E94A80480E039
:1021900092E00E9440048FB7F894E0E0F2E0908172
:1021A000946090838FBF2A96CDBFDEBFDF91CF9121
:1021B00008951F920F920FB60F92112408B60F9236
:1021C00018BE09B60F9219BE0AB60F921ABE0BB608
:1021D0000F921BBE2F923F924F925F927F928F92EF
:1021E0009F92AF92BF92CF92DF92EF92FF920F93A6
:1021F0001F932F933F934F935F936F937F938F938F
:102200009F93AF93BF93EF93FF93CF93DF93CDB79C
:10221000DEB7C455D109CDBFDEBF60E787E20E94BB
:102220005524782E86FFF6C388E0E0E6F6E0878343
:1022300060E270E087E493E20E94AA240F2EF7E4A4
:102240008F2EF3E29F2EF02DD4016D914D0180EA87
:102250009AE048DDB7E68B16B3E29B06A9F74091FA
:102260004723E8E0F6E07081608120815081842F6F
:1022700090E0221F2227221F30E0220F331F220F5F
:10228000331F76FBCC24C0F8D12CC22AD32A64FB9E
:10229000EE24E0F8F12CEE0CFF1CCE28DF2855FBD5
:1022A000002700F910E09801220F331F220F331F7F
:1022B000220F331F8601022B132B8017910709F081
:1022C000A9C31092A9201092AA2050813081808148
:1022D0002081881F8827881F90E0880F991F880F0A
:1022E000991F56FBAA24A0F8B12CA82AB92A329526
:1022F000317039831A8289819A81880F991FA82A9F
:10230000B92A25FB442440F8512CC201880F991F9B
:10231000880F991F880F991F2501482A592A57E1CC
:10232000549DD001559DB00D1124AC54BF4D4C931C
:102330004081308180812081881F8827881F90E01C
:10234000880F991F880F991F46FB222420F8312CF3
:10235000282A392A329531703B831C828B819C81DB
:10236000880F991F282A392A25FB222720F92D8337
:102370001E828D819E81880F991F880F991F880F5B
:10238000991F282A392A529DD001539DB00D11243E
:10239000AC54BF4D8091482390E011968D939C934F
:1023A00012973081208180814081881F8827881F73
:1023B00090E0880F991F880F991F36FB332730F95B
:1023C0003F8318866F817885862B972B2295217005
:1023D00029871A8629853A85220F331F822B932B52
:1023E00045FB442740F94B871C862B853C85220FF3
:1023F000331F220F331F220F331F822B932B589F23
:10240000D001599FB00D1124AC54BF4D8091492388
:1024100090E013968D939C93149730812081808156
:102420004081881F8827881F90E0880F991F880F98
:10243000991F36FB332730F93D871E86AD85BE8553
:102440008A2B9B2B229521702F87188A2F853889FC
:10245000220F331F822B932B45FB442740F9498BD6
:102460001A8A29893A89220F331F220F331F220F1C
:10247000331F822B932B589FD001599FB00D1124ED
:10248000AC54BF4D80914A2390E015968D939C9358
:1024900016973081208180814081881F8827881F7E
:1024A00090E0880F991F880F991F36FB332730F96A
:1024B0003B8B1C8A6B897C89862B972B22952170FC
:1024C0002D8B1E8A2D893E89220F331F822B932B41
:1024D00045FB442740F94F8B188E2F89388D220FEA
:1024E000331F220F331F220F331F822B932B589F32
:1024F000D001599FB00D1124AC54BF4D80914B2396
:1025000090E017968D939C9318973081208180815D
:102510004081881F8827881F90E0880F991F880FA7
:10252000991F36FB332730F9398F1A8EA98DBA8D52
:102530008A2B9B2B229521702B8F1C8E2B8D3C8DF3
:10254000220F331F822B932B45FB442740F94D8FDD
:102550001E8E2D8D3E8D220F331F220F331F220F13
:10256000331F822B932B589FD001599FB00D1124FC
:10257000AC54BF4D80914C2390E019968D939C9361
:102580001A973081208180814081881F8827881F89
:1025900090E0880F991F880F991F36FB332730F979
:1025A0003F8F18A26F8D78A1862B972B22952170D3
:1025B00029A31AA229A13AA1220F331F822B932B00
:1025C00045FB442740F94BA31CA22BA13CA1220FA1
:1025D000331F220F331F220F331F822B932B589F41
:1025E000D001599FB00D1124AC54BF4D80914D23A3
:1025F00090E01B968D939C931C9730812081808165
:102600004081881F8827881F90E0880F991F880FB6
:10261000991F36FB332730F93DA31EA2ADA1BEA101
:102620008A2B9B2B229521702FA318A62FA138A5AA
:10263000220F331F822B932B45FB442740F949A7D8
:102640001AA629A53AA5220F331F220F331F220FE6
:10265000331F822B932B589FD001599FB00D11240B
:10266000AC54BF4D80914E2390E01D968D939C936A
:102670001E973081208180814081881F8827881F94
:1026800090E0880F991F880F991F36FB332730F988
:102690003BA71CA66BA57CA5862B972B22952170AA
:1026A0002DA71EA62DA53EA5220F331F822B932BEF
:1026B00045FB442740F94FA718AA2FA538A9220F98
:1026C000331F220F331F220F331F822B932B589F50
:1026D000D001599FB00D1124AC54BF4D80914F23B0
:1026E00090E01F968D939C9350973081208180813C
:1026F0004081881F8827881F90E0880F991F880FC6
:10270000991F36FB332730F939AB1AAAA9A9BAA900
:102710008A2B9B2B229521702BAB1CAA2BA93CA9A1
:10272000220F331F822B932B45FB442740F94DABDF
:102730001EAA2DA93EA9220F331F220F331F220FDD
:10274000331F822B932B589FD001599FB00D11241A
:10275000AC54BF4D8091502351968C933081208191
:1027600080814081881F8827881F90E0880F991FEB
:10277000880F991F36FB332730F93FAB18AE6FA98E
:1027800078AD862B972B2295217029AF1AAE29ADF3
:102790003AAD220F331F822B932B45FB442740F980
:1027A0004BAF1CAE2BAD3CAD220F331F220F331F9E
:1027B000220F331F822B932B589FD001599FB00DAE
:1027C0001124AC54BF4D8091512352968C9330818B
:1027D000208180814081881F8827881F90E0880F92
:1027E000991F880F991F36FB332730F93DAF1EAE76
:1027F000ADADBEAD8A2B9B2B229521702FAF2196BC
:102800001FAE219721962EAD3FAD2197220F331F8A
:10281000822B932B45FB442740F922964FAF2297FA
:1028200023961FAE239723962EAD3FAD2397220FFD
:10283000331F220F331F220F331F822B932B589FDE
:10284000D001599FB00D1124AC54BF4D809152233B
:1028500053968C933081208180814081881F882706
:10286000881F90E0880F991F880F991F36FB332728
:1028700030F924963FAF249725961FAE25972596CD
:102880006EAD7FAD2597862B972B229521702696CE
:102890002FAF269727961FAE279727962EAD3FADD1
:1028A0002797220F331F822B932B45FB442740F998
:1028B00028964FAF289729961FAE299729962EADB7
:1028C0003FAD2997220F331F220F331F220F331FD3
:1028D000822B932B589FD001599FB00D1124AC54DB
:1028E000BF4D8091532354968C93308120818081F9
:1028F0004081881F8827881F90E0880F991F880FC4
:10290000991F36FB332730F92A963FAF2A972B962B
:102910001FAE2B972B96AEADBFAD2B978A2B9B2B63
:10292000229521702C962FAF2C972D961FAE2D97A8
:102930002D962EAD3FAD2D97220F331F822B932B5B
:1029400045FB442740F92E964FAF2E972F961FAE8A
:102950002F972F962EAD3FAD2F97220F331F220FAB
:10296000331F220F331F822B932B589FD001599F67
:10297000B00D1124AC54BF4D8091542355968C93C7
:102980003081208180814081881F8827881F90E0C6
:10299000880F991F880F991F36FB332730F96096EF
:1029A0003FAF609761961FAE61976196EEADFFAD48
:1029B00061978E2B9F2B2295217062962FAF629785
:1029C00063961FAE639763962EAD3FAD6397220F5C
:1029D000331F822B932B45FB442740F964964FAF5E
:1029E000649765961FAE659765962EAD3FAD65976A
:1029F000220F331F220F331F220F331F822B932BE3
:102A0000589FF001599FF00D1124EC54FF4D809117
:102A10005523868B75FE04C080E2E0E6F6E08783EE
:102A200074FE06C084E0E0E6F6E087830E94452558
:102A3000CC5ADF4FCDBFDEBFDF91CF91FF91EF9139
:102A4000BF91AF919F918F917F916F915F914F91C6
:102A50003F912F911F910F91FF90EF90DF90CF90BA
:102A6000BF90AF909F908F907F905F904F903F90DE
:102A70002F900F900BBE0F900ABE0F9009BE0F90C3
:102A800008BE0F900FBE0F901F9018951F920F92C7
:102A90000FB60F92112408B60F9218BE09B60F9206
:102AA00019BE0AB60F921ABE0BB60F921BBEAF929A
:102AB000BF92DF92EF92FF920F931F932F933F935A
:102AC0004F935F936F937F938F939F93AF93BF9336
:102AD000CF93DF93EF93FF93A89580916B238F5F44
:102AE00080936B23843174F081E080939E20109258
:102AF0006B238091A3209091A42001968093A32022
:102B00009093A42080919F209091A020A091A1203B
:102B1000B091A2200196A11DB11D80939F2090939A
:102B2000A020A093A120B093A220E090A520F09037
:102B3000A620E114F10409F45CC08091CE219091AB
:102B4000CF21A091D021B091D1210196A11DB11D1D
:102B50008093CE219093CF21A093D021B093D12107
:102B600084369105A105B105E0F4A0E2B6E0149623
:102B70008C911497806414968C931497E0922A0891
:102B8000F0922B0814968C911497806414968C9371
:102B90008091A5209091A6208093280890932908E1
:102BA00028C0893B9B40A105B10560F01092CE2161
:102BB0001092CF211092D0211092D1211092A520F5
:102BC0001092A62010922A0810922B08A0E2B6E0DC
:102BD00014968C9114978F7B14968C931497109263
:102BE00028081092290814968C9114978F7B1496BC
:102BF0008C938091A9209091AA2001968093A9207E
:102C00009093AA208091482090914920813091058D
:102C100081F41092AB200E9498020E94C40280911D
:102C20004820909149200197809348209093492013
:102C300087C08230910508F10197809348209093D6
:102C400049200E94E9028091482090914920883BC8
:102C50002BE0920708F074C0A0E0B0E080932C2035
:102C600090932D20A0932E20B0932F2088EC90E0FD
:102C700080932F229093302263C0A8E0B6E0DC90CE
:102C8000EC908C91FC90881F8827881F90E0880F1B
:102C9000991F880F991FD6FA002700F910E0082B1A
:102CA000192BE4FAEE24E0F8CE2D80E0D82FCC0FDB
:102CB000DD1F0C2B1D2BF5FAEE27E0F9F0E0CF011C
:102CC000880F991F880F991F880F991FF801E82B0B
:102CD000F92BEE0FFF1FE85FFF4D8081E0E0F7E08A
:102CE0008483CC919C91EC918C91EE1FEE27EE1F8A
:102CF000F0E0EE0FFF1FEE0FFF1FC6FB662760F927
:102D000070E0E62BF72B94FB442740F950E0440F8A
:102D1000551FE42BF52B85FBAA24A0F8B12C9501B7
:102D2000220F331F220F331F220F331FE22BF32BEF
:102D3000EE0FFF1FE85FFF4D8081E0EEF6E0848339
:102D4000FF91EF91DF91CF91BF91AF919F918F91C3
:102D50007F916F915F914F913F912F911F910F91B3
:102D6000FF90EF90DF90BF90AF900F900BBE0F9051
:102D70000ABE0F9009BE0F9008BE0F900FBE0F90B5
:102D80001F9018951F920F920FB60F92112408B63C
:102D90000F9218BE0F9008BE0F900FBE0F901F909D
:102DA00018951F920F920FB60F92112408B60F922A
:102DB00018BE2F933F938F939F932091FC233091C4
:102DC000FD238091C80781FF03C08FEF9FEF02C0F2
:102DD00081E090E0820F931F8093FC239093FD236A
:102DE0009F918F913F912F910F9008BE0F900FBE32
:102DF0000F901F9018951F920F920FB60F921124EB
:102E000008B60F9218BE2F933F938F939F932091F4
:102E10007723309178238091E80684FF03C08FEFF9
:102E20009FEF02C081E090E0820F931F8093772391
:102E3000909378239F918F913F912F910F9008BE8F
:102E40000F900FBE0F901F9018951F920F920FB604
:102E50000F92112408B60F9218BE2F933F938F93B1
:102E60009F932091A9233091AA238091480684FF43
:102E700003C08FEF9FEF02C081E090E0820F931FAD
:102E80008093A9239093AA239F918F913F912F9193
:102E90000F9008BE0F900FBE0F901F9018951F92B5
:102EA0000F920FB60F92112408B60F9218BE2F93EF
:102EB0003F938F939F932091102430911124809100
:102EC000C80782FF03C08FEF9FEF02C081E090E050
:102ED000820F931F80931024909311249F918F91C0
:102EE0003F912F910F9008BE0F900FBE0F901F9033
:102EF00018951F920F920FB60F92112408B60F92D9
:102F000018BE0F9008BE0F900FBE0F901F9018951F
:102F10001F920F920FB60F92112408B60F9218BE8F
:102F200009B60F9219BE0BB60F921BBE2F933F939B
:102F30004F935F936F937F938F939F93AF93BF93C1
:102F4000EF93FF938091482090914920892B89F439
:102F50008091E8066BE470E2881F8827881F0E9432
:102F600089028091A8066AE470E2829581700E94CD
:102F7000890280E395E780934820909349208FEF62
:102F80008093AB200E949802FF91EF91BF91AF9187
:102F90009F918F917F916F915F914F913F912F9171
:102FA0000F900BBE0F9009BE0F9008BE0F900FBE82
:102FB0000F901F901895813061F028F0823079F0E1
:102FC000833099F018C060E080EA9BE00C94720EA8
:102FD000089561E080EA9BE00C94720E089562E02F
:102FE00080EA9BE00C94720E089563E080EA9BE017
:102FF0000C94720E08956FEF80EA9BE00C94720EB1
:103000000895CF93DF93CDB7DEB7C058D109CDBFB8
:10301000DEBF0E949A0FE2EAF0E080818760808341
:103020000E94AF0F00D80E94F80F30D854D878D83B
:103030000E94EB01789488EB9BE0A0E0B0E08093E5
:10304000342090933520A0933620B093372024EF7E
:1030500031E02093CB233093CC238093382090937E
:103060003920A0933A20B0933B2084E690E08093EF
:10307000E7219093E82188EE93E0A0E0B0E0809310
:10308000302090933120A0933220B093332088ECED
:1030900090E08093F9239093FA2380ED97E0A0E0ED
:1030A000B0E080932C2090932D20A0932E20B093FD
:1030B0002F2086E990E080932F2290933022E8E041
:1030C000F6E09081308180814081E3E0F0E2881F6A
:1030D0008827881F282F220F220F96FB882780F928
:1030E000282B34FB882480F8912CC401880F991F69
:1030F000282B45FB002700F910E0C801880F991F15
:10310000880F991F880F991F822B9081890F8083C8
:1031100082E0E0E8F6E086830E942D102AE62A95F8
:10312000F1F700C03FEF43EC59E0315040405040D0
:10313000E1F700C000000E947E240E9445250E9405
:10314000532582E0E0E8F6E08683E8E0F6E02081BF
:10315000308180814081881F8827881F90E0880FF8
:10316000991F880F991F26FBEE24E0F8F12CE82A1E
:10317000F92A34FBCC24C0F8D12CC601880F991F42
:10318000E82AF92A45FBAA24A0F8B12CC501880F2A
:10319000991F880F991F880F991F8E299F290397C0
:1031A00084F40F2EF6E0CF2EF02D6894EE24E5F88F
:1031B00005E023E030E248E062E380E00E9405257C
:1031C0000FC00F2EF6E0CF2EF02D6894EE24E5F818
:1031D00005E023E030E248E061E080E00E94052560
:1031E00061E08CE30E94552466E08DE30E94552443
:1031F00082E0E0E8F6E085838FE094E00197F1F764
:1032000000C000000F2EF7E72F2EF3E23F2EF02D27
:10321000A89580919E20882311F40C943823A9E767
:10322000B3E20D911C91EBE7F3E200831183D1012E
:103230008D919C91BC01882777FD8095982F0E94E5
:10324000872620E030E040EF50E40E943B270E94B8
:1032500054266B017C01F10110821182B80188278C
:1032600077FD8095982F0E9487264B015C01C01A3C
:10327000D10AB601882777FD8095982F0E9487266E
:103280002EEA37E441EE5DE30E943B279B01AC014F
:10329000C501B4010E9484250E9454264B015C01A3
:1032A000A9E7B3E26D937C93EEEFF3E20081118125
:1032B000A0E0B4E20D931C93ECEFF3E280819181E6
:1032C000BC01882777FD8095982F0E94872620E0F3
:1032D00030E040EF50E40E943B270E9454266B01EF
:1032E0007C01ACEFB3E21D921C92B801882777FDF8
:1032F0008095982F0E9487262B013C01C01AD10A85
:10330000B601882777FD8095982F0E9487262EEAA0
:1033100037E441EE5DE30E943B279B01AC01C30112
:10332000B2010E9484250E94542669877A878B8780
:103330009C87EEEFF3E260837183A2E1B4E20D912A
:103340001C91E4E1F4E200831183A0E1B4E28D91E9
:103350009C91BC01882777FD8095982F0E94872635
:1033600020E030E040EF50E40E943B270E945426CA
:103370006B017C01E0E1F4E210821182B801882740
:1033800077FD8095982F0E9487262B013C01C01A5B
:10339000D10AB601882777FD8095982F0E9487264D
:1033A0002EEA37E441EE5DE30E943B279B01AC012E
:1033B000C301B2010E9484250E9454266D877E8736
:1033C0008F87988BA2E1B4E26D937C93EBEAF3E2F2
:1033D00000811181ADEAB3E20D931C93E9EAF3E2B7
:1033E00060817181882777FD8095982F0E948726BC
:1033F00020E030E040EF50E40E943B270E9454263A
:103400006B017C01A9EAB3E21D921C92B8018827E6
:1034100077FD8095982F0E9487262B013C01C01ACA
:10342000D10AB601882777FD8095982F0E948726BC
:103430002EEA37E441EE5DE30E943B279B01AC019D
:10344000C301B2010E9484250E945426698B7A8BA5
:103450008B8B9C8BEBEAF3E2608371830F2EF8E099
:103460006F2EF6E07F2EF02DD3019C918C912C9144
:103470004C91221F2227221F30E0220F331F220FE0
:10348000331F96FB992790F99D8B1E8AED89FE8943
:103490002E2B3F2B829581708F8B188E8F89988D64
:1034A000880F991F282B392B45FB442740F9498F5A
:1034B0001A8E898D9A8D880F991F880F991F880FF2
:1034C000991F282B392B17E1129FC001139F900DD4
:1034D0001124FC01EC54FF4D648970E080E090E021
:1034E0000E94852620E030E048EC52E40E94EC2562
:1034F00069837A838B839C83609322247093232433
:103500008093242490932524D3019C918C912C9119
:103510004C91221F2227221F30E0220F331F220F3F
:10352000331F96FB992790F99B8F1C8EEB8DFC8D9A
:103530002E2B3F2B829581708D8F1E8E8D8D9E8DB3
:10354000880F991F282B392B45FB442740F94F8FB3
:1035500018A28F8D98A1880F991F880F991F880F27
:10356000991F282B392B129FC001139F900D1124F6
:10357000FC01EC54FF4D658970E080E090E00E9412
:10358000852620E030E048EC52E40E94EC256B01F7
:103590007C016093BA237093BB238093BC239093E8
:1035A000BD23D3019C918C912C914C91221F2227F9
:1035B000221F30E0220F331F220F331F96FB992763
:1035C00090F999A31AA2E9A1FAA12E2B3F2B82957B
:1035D00081708BA31CA28BA19CA1880F991F282B03
:1035E000392B45FB442740F94DA31EA28DA19EA176
:1035F000880F991F880F991F880F991F282B392B27
:10360000129FC001139F900D1124FC01EC54FF4D3B
:10361000668970E080E090E00E94852620E030E03E
:1036200048EC52E40E94EC256D837E838F8398875B
:103630006093CA217093CB218093CC219093CD21AC
:1036400010929E20D3016C915C917C914C919C9145
:103650008C912C91EC91221F2227221F30E0220F07
:10366000331F220F331F96FB992790F99FA318A6AB
:10367000AFA1B8A52A2B3B2B8295817089A71AA6EA
:1036800089A59AA5880F991F282B392BE5FBEE27D2
:10369000E0F9EBA71CA68BA59CA5880F991F880FA6
:1036A000991F880F991F282B392B129FC001139F38
:1036B000900D1124FC01EC54FF4DB181BEA71DA655
:1036C000771F7727771F872F90E0880F991F880F24
:1036D000991F66FB662760F96FA718AAEFA5F8A9DE
:1036E0008E2B9F2B5295517059AB1AAA29A93AA932
:1036F000220F331F822B932B45FB442740F94BAB02
:103700001CAA2BA93CA9220F331F220F331F220F03
:10371000331F822B932B189F9001199F300D11247A
:10372000F901EC54FF4D038114812DA53EA5022B18
:10373000132B08191909D10116968D919C91179791
:10374000F801E81BF90BCF019F01220F331F880FEF
:10375000991F880F991F880F991FAC01420F531FA3
:10376000C158DF4F48835983CF57D040CA01C19613
:103770008336910540F0413669E056075CF4403AE3
:10378000564F7CF014C0C158DF4F18821982CF57B2
:10379000D0400DC0C158DF4F18821982CF57D0409A
:1037A00006C0C158DF4F18821982CF57D040B801E8
:1037B000882777FD8095982F0E9487264B015C0112
:1037C0009B01AC0169817A818B819C810E943B279E
:1037D0000E9454262B013C01A5019401C701B601AA
:1037E0000E943B272AE037ED43EA5CE30E943B2737
:1037F000D1011A962D913D914D915C911D970E949A
:1038000084254B015C01F10162877387848795876A
:1038100020E030E040EF52E40E943727181654F4BD
:1038200080E090E0A0EFB2E4F10182879387A48763
:10383000B58715C020E030E046E954ECC501B4017D
:103840000E94E82588235CF420E030E040EF52EC51
:10385000D1011A962D933D934D935C931D97C20110
:103860008038910514F08FE790E0BC018138BFEFFC
:103870009B0714F461E87FEF882777FD8095982FE8
:103880000E948726F10122853385448555850E9453
:1038900084254B015C01C158DF4F28813981CF5706
:1038A000D040B901882777FD8095982F0E94872600
:1038B0009B01AC016D817E818F8198850E943B27A1
:1038C0009B01AC01C501B4010E9484250E945426CD
:1038D0006038710514F06FE770E0D10116960D9312
:1038E0001C931797C158DF4FE881F981CF57D0401B
:1038F0001896ED93FC9319976138FFEF7F0714F446
:1039000061E87FEF60938523E8E0F6E06081508115
:1039100070814081908180812081E081221F222757
:10392000221F30E0220F331F220F331F96FB9927EF
:1039300090F99DAB1EAAADA9BEA92A2B3B2B82955F
:1039400081708FAB18AE8FA998AD880F991F282B67
:10395000392BE5FBEE27E0F9E9AF1AAE89AD9AAD58
:10396000880F991F880F991F880F991F282B392BB3
:10397000F7E1F29FC001F39F900D1124DC01AC54DC
:10398000BF4D1596EC91ECAF1BAE771F7727771FD5
:10399000872F90E0880F991F880F991F66FB662775
:1039A00060F96DAF1EAE2DAD3EAD822B932B5295BF
:1039B00051705FAF21961FAE219721962EAD3FAD7E
:1039C0002197220F331F822B932B45FB442740F96D
:1039D00022964FAF229723961FAE239723962EADA4
:1039E0003FAD2397220F331F220F331F220F331FA8
:1039F000822B932BF89F9001F99F300D1124F90130
:103A0000EC54FF4D078110854BAD5CAD042B152B9D
:103A100069857A85061B170B8091022490910324F7
:103A2000D801A81BB90BCD019D01220F331F880FB0
:103A3000991F880F991F880F991FFC01E20FF31F30
:103A4000E987FA87CF01C1968336910540F0E136C8
:103A500029E0F2073CF4E03AF64F3CF008C0198642
:103A60001A8605C019861A8602C019861A86B801F8
:103A7000882777FD8095982F0E9487264B015C014F
:103A80009B01AC0169817A818B819C810E943B27DB
:103A90000E9454262B013C01A5019401C701B601E7
:103AA0000E943B272AE037ED43EA5CE30E943B2774
:103AB0002091062430910724409108245091092434
:103AC0000E9484254B015C016093062470930724B7
:103AD000809308249093092420E030E040EF52E4E2
:103AE0000E94372718166CF480E090E0A0EFB2E453
:103AF0008093062490930724A0930824B09309246C
:103B000016C020E030E046E954ECC501B4010E9443
:103B1000E825882364F440E050E060EF72EC4093C5
:103B20000624509307246093082470930924C2014B
:103B30008038910514F08FE790E0BC0181385FEF89
:103B4000950714F461E87FEF882777FD8095982F1B
:103B50000E94872620910624309107244091082452
:103B600050910924D1D74B015C01A985BA85BD01CB
:103B7000882777FD8095982F0E9487269B01AC01AE
:103B80006D817E818F8198850E943B279B01AC01CE
:103B9000C501B401B9D70E9454266038710514F0EC
:103BA0006FE770E00093022410930324E985FA85FF
:103BB000E0930424F09305246138FFEF7F0714F4A9
:103BC00061E87FEF60930A24E8E0F6E060815081CD
:103BD00070814081908180812081E081221F222795
:103BE000221F30E0220F331F220F331F96FB99272D
:103BF00090F924969FAF249725961FAE259725967A
:103C0000AEADBFAD25972A2B3B2B829581702696B2
:103C10008FAF269727961FAE279727968EAD9FAD1D
:103C20002797880F991F282B392BE5FBEE27E0F902
:103C30002896EFAF289729961FAE299729968EAD23
:103C40009FAD2997880F991F880F991F880F991F7B
:103C5000282B392BF7E1F29FC001F39F900D11241F
:103C6000DC01AC54BF4D1996EC912B96EFAF2B971E
:103C70002A961FAE2A97771F7727771F872F90E006
:103C8000880F991F880F991F66FB662760F92C968D
:103C90006FAF2C972D961FAE2D972D962EAD3FAD65
:103CA0002D97822B932B529551702E965FAF2E97A6
:103CB0002F961FAE2F972F962EAD3FAD2F97220F29
:103CC000331F822B932B45FB442740F960964FAF5F
:103CD000609761961FAE619761962EAD3FAD61977B
:103CE000220F331F220F331F220F331F822B932BE0
:103CF000F89F9001F99F300D1124F901EC54FF4D0C
:103D0000038514852B964EAD5FAD2B97042B152B99
:103D10006D857E85061B170B8091162490911724C4
:103D2000D801A81BB90BCD019D01220F331F880FAD
:103D3000991F880F991F880F991FFC01E20FF31F2D
:103D4000E987FA87CF01C1968336910540F0E136C5
:103D500029E0F2073CF4E03AF64F3CF008C019863F
:103D60001A8605C019861A8602C019861A86B801F5
:103D7000882777FD8095982FCAD74B015C019B015E
:103D8000AC0169817A818B819C810E943B278CD711
:103D90002B013C01A5019401C701B6010E943B27FC
:103DA0002AE037ED43EA5CE30E943B2720911A2486
:103DB00030911B2440911C2450911D24A5D64B0109
:103DC0005C0160931A2470931B2480931C249093AD
:103DD0001D2420E030E040EF52E40E9437271816FF
:103DE0006CF480E090E0A0EFB2E480931A2490930A
:103DF0001B24A0931C24B0931D2415C020E030E0A8
:103E000046E954ECC501B401E3D6882364F440E0EC
:103E100050E060EF72EC40931A2450931B2460939F
:103E20001C2470931D24C2018038910514F08FE783
:103E300090E0BC0181385FEF950714F461E87FEFF3
:103E4000882777FD8095982F62D720911A2430918A
:103E50001B2440911C2450911D2456D64B015C011B
:103E6000A985BA85BD01882777FD8095982F4FD702
:103E70009B01AC016D817E818F819885FCD79B0170
:103E8000AC01C501B40140D60FD76038710514F0FC
:103E90006FE770E00093162410931724E985FA85E4
:103EA000E0931824F09319246138FFEF7F0714F48E
:103EB00061E87FEF60931E24E8E0F6E060815081C6
:103EC00070814081908180812081E081221F2227A2
:103ED000221F30E0220F331F220F331F96FB99273A
:103EE00090F962969FAF629763961FAE6397639651
:103EF000AEADBFAD63972A2B3B2B82958170649644
:103F00008FAF649765961FAE659765968EAD9FAD32
:103F10006597880F991F282B392BE5FBEE27E0F9D1
:103F20006696EFAF669767961FAE679767968EADFA
:103F30009FAD6797880F991F880F991F880F991F4A
:103F4000282B392BF7E1F29FC001F39F900D11242C
:103F5000DC01AC54BF4D1D96EC916996EFAF6997AB
:103F600068961FAE6897771F7727771F872F90E097
:103F7000880F991F880F991F66FB662760F96A965C
:103F80006FAF6A976B961FAE6B976B962EAD3FAD7A
:103F90006B97822B932B529551706C965FAF6C97F9
:103FA0006D961FAE6D976D962EAD3FAD6D97220F3E
:103FB000331F822B932B45FB442740F96E964FAF5E
:103FC0006E976F961FAE6F976F962EAD3FAD6F9742
:103FD000220F331F220F331F220F331F822B932BED
:103FE000F89F9001F99F300D1124F901EC54FF4D19
:103FF0000785108969964EAD5FAD6997042B152B27
:1040000069897A89061B170B8091AF239091B023A1
:10401000D801A81BB90BCD019D01220F331F880FBA
:10402000991F880F991F880F991FFC01E20FF31F3A
:10403000E987FA87CF01C1968336910540F0E136D2
:1040400029E0F2073CF4E03AF64F3CF008C019864C
:104050001A8605C019861A8602C019861A86B80102
:10406000882777FD8095982F52D64B015C019B01E4
:10407000AC0169817A818B819C81FDD615D62B019B
:104080003C01A5019401C701B601F5D62AE037ED40
:1040900043EA5CE3F0D62091B3233091B4234091FE
:1040A000B5235091B62330D56B017C016093B323C7
:1040B0007093B4238093B5239093B62320E030E02F
:1040C00040EF52E4D4D618166CF480E090E0A0EFF4
:1040D000B2E48093B3239093B423A093B523B09319
:1040E000B62315C020E030E046E954ECC701B60124
:1040F0006FD5882364F440E050E060EF72EC4093A9
:10410000B3235093B4236093B5237093B623C201B5
:104110008038910514F08FE790E081385FEF9507C4
:1041200014F481E89FEFBC01882777FD8095982FD4
:10413000EED52091B3233091B4234091B523509113
:10414000B623E2D46B017C01A985BA85BD0188271D
:1041500077FD8095982FDBD59B01AC016D817E8129
:104160008F81988588D69B01AC01C701B601CCD45C
:104170009BD5CB016038710514F08FE790E0009378
:10418000AF231093B023E985FA85E093B123F09330
:10419000B2238138FFEF9F0714F481E89FEF8093EB
:1041A000B7236AE280EA9BE00E94720E6EE780EA23
:1041B0009BE00E94720E6091852380EA9BE00E9442
:1041C000720E60910A2480EA9BE00E94720E609158
:1041D0001E2480EA9BE00E94720E6091B72380EA61
:1041E0009BE00E94720E809152230E94DB1763E2D3
:1041F00080EA9BE00E94720E2FB7F894E0E0F2E0B4
:1042000084A195A12FBF8093A7209093A820893DDA
:1042100094403CF4E0E4F6E080E4858384E0858328
:1042200006C0E0E4F6E080E4868384E0868360E014
:1042300080E00E947B020F2EF8E0CF2EF6E0DF2E0A
:10424000F02DD6016C915C917C914C911C91FC916C
:104250008C91EC9190918523292F332727FD309560
:104260003F939F93881F8827881F90E0880F991F8E
:10427000880F991F16FB112710F9A0961FAFA09762
:10428000A1961FAEA197A1962EAD3FADA197822B0F
:10429000932BF295F170A296FFAFA297A3961FAE53
:1042A000A397A3962EAD3FADA397220F331F822B6A
:1042B000932BE5FBEE27E0F9A496EFAFA497A59624
:1042C0001FAEA597A5962EAD3FADA597220F331F24
:1042D000220F331F220F331F822B932B0F2EF7E158
:1042E000FF2EF02DF89EF001F99EF00D1124EC54F4
:1042F000FF4D3181A7963FAFA797A6961FAEA69711
:10430000771F7727771F872F90E0880F991F880FD7
:10431000991F66FB662760F9A8966FAFA897A996C4
:104320001FAEA997A9966EAD7FADA997862B972B47
:1043300052955170AA965FAFAA97AB961FAEAB97F6
:10434000AB962EAD3FADAB97220F331F822B932B35
:1043500045FB442740F9AC964FAFAC97AD961FAEE6
:10436000AD97AD962EAD3FADAD97220F331F220F07
:10437000331F220F331F822B932BF89EA001F99E2F
:10438000500D1124FA01EC54FF4D83819481A796BE
:10439000AEADBFADA7978A2B9B2B9F938F938CE3DA
:1043A00090E29F938F930FEC13E21F930F93C6D568
:1043B000C8010E946C0261E080E00E947B02809153
:1043C0007A238F93E9E7F3E280818F9384E490E28C
:1043D0009F938F931F930F93B1D5C8010E946C02D6
:1043E000D6019C918C912C914C91221F2227221F47
:1043F00030E0220F331F220F331F96FB992790F9CD
:10440000AE969FAFAE97AF961FAEAF97AF96EEAD9D
:10441000FFADAF972E2B3F2B82958170E0968FAF2B
:10442000E097E1961FAEE197E1968EAD9FADE197E3
:10443000880F991F282B392B45FB442740F9E2961A
:104440004FAFE297E3961FAEE397E3968EAD9FAD35
:10445000E397880F991F880F991F880F991F282BA2
:10446000392BF29EC001F39E900D1124FC01EC54F7
:10447000FF4DCDBFDEBF8189882309F451C0E8E03C
:10448000F6E09081808120814081221F2227221F17
:1044900030E0220F331F220F331F96FB992790F92C
:1044A000EA969FAFEA97EB961FAEEB97EB966EAD51
:1044B0007FADEB97262B372B82958170EC968FAFD3
:1044C000EC97ED961FAEED97ED968EAD9FADED9707
:1044D000880F991F282B392B45FB442740F9EE966E
:1044E0004FAFEE97EF961FAEEF97EF968EAD9FAD65
:1044F000EF97880F991F880F991F880F991F282BF6
:10450000392B47E1429FC001439F900D1124FC01CC
:10451000EC54FF4D818990E08093A5209093A620D4
:10452000E8E0F6E09081808120814081221F2227EF
:10453000221F30E0220F331F220F331F96FB9927D3
:1045400090F9E4969FAFE497E5961FAEE597E59660
:10455000AEADBFADE5972A2B3B2B82958170E696D9
:104560008FAFE697E7961FAEE797E7968EAD9FADC4
:10457000E797880F991F282B392B45FB442740F9D3
:10458000E8964FAFE897E9961FAEE997E9968EADAA
:104590009FADE997880F991F880F991F880F991F62
:1045A000282B392B47E1429FC001439F900D1124D6
:1045B000FC01EC54FF4D8289882319F0E0E6F6E017
:1045C0008085E0E0F6E0808582FF18C0E0E2F6E05A
:1045D00084818064848384E690E080932A089093A9
:1045E0002B08BFEFE3ECF9E0B150E040F040E1F719
:1045F00000C0000010922A0810922B0890916F239F
:1046000080917023909387238093882390938923AC
:1046100080938A2390938B2380938C2390938D2374
:1046200080938E238091D52180938F2310929023A5
:10463000809391231092922380939323109294233A
:1046400080939523109296238091A7209091A82083
:104650009595879595958795959587959595879542
:104660008093972360E270E087E893E209D2F8D064
:104670002AE02A95F1F700C00C9408191F920F92B6
:104680000FB60F92112408B60F9218BE0BB60F92F8
:104690001BBE2F938F939F93EF93FF932091A00BBB
:1046A00080919C2090919D208230910519F12CF4ED
:1046B000009749F0019789F04CC08330910551F182
:1046C000049789F146C02A3209F043C081E090E0A6
:1046D00080939C2090939D203CC0822F90E08093FB
:1046E000B8239093B92382E090E080939C2090932C
:1046F0009D202FC08091B8239091B923922B809355
:10470000B8239093B92383E090E080939C2090930A
:104710009D201FC02093C82384E090E080939C20BC
:1047200090939D2016C0233281F480E2E0E6F6E00B
:1047300087838091B8239091B92380936F239093BE
:1047400070238091C8238093D52110929C201092D1
:104750009D20FF91EF919F918F912F910F900BBE14
:104760000F9008BE0F900FBE0F901F9018951F92CC
:104770000F920FB60F92112408B60F9218BE0BB607
:104780000F921BBE2F938F939F93EF93FF932091D4
:10479000B00B80919C2090919D208230910519F161
:1047A0002CF4009749F0019789F04CC083309105B3
:1047B00051F1049789F146C02A3209F043C081E0E3
:1047C00090E080939C2090939D203CC0822F90E0AD
:1047D0008093B8239093B92382E090E080939C204B
:1047E00090939D202FC08091B8239091B923922B54
:1047F0008093B8239093B92383E090E080939C202A
:1048000090939D201FC02093C82384E090E0809364
:104810009C2090939D2016C0233281F488E0E0E62E
:10482000F6E087838091B8239091B92380936F231A
:10483000909370238091C8238093D52110929C205F
:1048400010929D20FF91EF919F918F912F910F904A
:104850000BBE0F9008BE0F900FBE0F901F901895C3
:10486000E0E8F6E082E0868385838AE68A95F1F7C0
:1048700000C082E086830895E0ECFAE083838281C1
:104880008823ECF7E0ECFAE0838108951F93CF933F
:10489000DF93C0E8D6E010E11E83EEDF8FEFECDFA0
:1048A0001D83DF91CF911F910895FF920F931F9366
:1048B000CF93DF93F62EC0E8D6E010E11E83DCDF55
:1048C000082F8F2DD9DF1D83802FDF91CF911F916E
:1048D0000F91FF900895682F6F7785E2E6CF0895D6
:1048E000CF93C82F682F84E2E0DF6C2F81E2DDDFF9
:1048F000CF91089563E083E2D8CF089560E787E21F
:10490000D4CF0895DF92EF92FF920F931F93CF932E
:10491000DF937B018A0190E1E0E8F6E09683ACDF6B
:10492000D82E101611064CF4E7010E0D1F1D8FEF47
:10493000A3DF8993C017D107D1F780E1E0E8F6E063
:1049400085838D2DDF91CF911F910F91FF90EF9077
:10495000DF900895AB01BC0181E6D4CF0895DF92CA
:10496000EF92FF920F931F93CF93DF937B018A0106
:1049700090E1E0E8F6E096837FDFD82E101611066E
:1049800044F4E7010E0D1F1D899176DFC017D10792
:10499000D9F780E1E0E8F6E085838D2DDF91CF91B6
:1049A0001F910F91FF90EF90DF900895EF92FF928B
:1049B0000F931F93CF93DF93F82EEB018A01E22E22
:1049C00082E064DF41E050E00F2C02C0440F551F2D
:1049D0000A94E2F7682F642B82E267DF81E18F0D92
:1049E0006E2D806262DF8AE08F0DA801BE018062B9
:1049F000B6DFDF91CF911F910F91FF90EF90089557
:104A0000AB01BC0180E3ABCF0895CF92DF92EF9270
:104A1000FF920F931F93CF93DF93F82ED62E142F70
:104A2000E90180E05DDF61E081E23FDF6FE284E287
:104A30003CDF1160612F6C2986E237DF802F5ADF5F
:104A4000112707FD10952E2DA801BE0180E0AEDFD5
:104A50008D2D41DFB801CE01D3DF6F2D6A6080E27A
:104A600024DF8FED9EE20197F1F700C00000DF9197
:104A7000CF911F910F91FF90EF90DF90CF9008950D
:104A8000AB01BC0180EA6BCF08951F93CF93DF93F6
:104A9000C0E8D6E010E11E8381EEEEDE1D83DF91DB
:104AA000CF911F9108951F93CF93DF93C0E8D6E075
:104AB00010E11E8382EEE0DE1D83DF91CF911F9116
:104AC0000895A1E21A2EAA1BBB1BFD010DC0AA1F4F
:104AD000BB1FEE1FFF1FA217B307E407F50720F067
:104AE000A21BB30BE40BF50B661F771F881F991FE2
:104AF0001A9469F760957095809590959B01AC012B
:104B0000BD01CF0108955058BB27AA270ED075C10B
:104B100066D130F06BD120F031F49F3F11F41EF4D8
:104B20005BC10EF4E095E7FB51C1E92F77D180F32B
:104B3000BA17620773078407950718F071F49EF59A
:104B40008FC10EF4E0950B2EBA2FA02D0B01B901E9
:104B500090010C01CA01A0011124FF27591B99F0F3
:104B6000593F50F4503E68F11A16F040A22F232FFF
:104B7000342F4427585FF3CF469537952795A7954F
:104B8000F0405395C9F77EF41F16BA0B620B730BF6
:104B9000840BBAF09150A1F0FF0FBB1F661F771F67
:104BA000881FC2F70EC0BA0F621F731F841F48F41C
:104BB000879577956795B795F7959E3F08F0B3CFA2
:104BC0009395880F08F09927EE0F9795879508958C
:104BD000D9D008F481E008950CD00FC107D140F07E
:104BE000FED030F021F45F3F19F0F0C0511139C10F
:104BF000F3C014D198F39923C9F35523B1F3951B4E
:104C0000550BBB27AA2762177307840738F09F5FED
:104C10005F4F220F331F441FAA1FA9F333D00E2E5C
:104C20003AF0E0E830D091505040E695001CCAF7C9
:104C300029D0FE2F27D0660F771F881FBB1F26178E
:104C400037074807AB07B0E809F0BB0B802DBF0161
:104C5000FF2793585F4F2AF09E3F510568F0B6C07A
:104C600000C15F3FECF3983EDCF38695779567953E
:104C7000B795F7959F5FC9F7880F911D9695879512
:104C800097F90895E1E0660F771F881FBB1F621731
:104C900073078407BA0720F0621B730B840BBA0BEF
:104CA000EE1F88F7E095089504D06894B111D9C03B
:104CB0000895BCD088F09F5790F0B92F9927B7512D
:104CC000A0F0D1F0660F771F881F991F1AF0BA95D0
:104CD000C9F712C0B13081F0C3D0B1E00895C0C0AF
:104CE000672F782F8827B85F39F0B93FCCF38695C6
:104CF00077956795B395D9F73EF490958095709523
:104D000061957F4F8F4F9F4F0895E89409C097FB9F
:104D10003EF490958095709561957F4F8F4F9F4F92
:104D20009923A9F0F92F96E9BB279395F6958795D6
:104D300077956795B795F111F8CFFAF4BB0F11F499
:104D400060FF1BC06F5F7F4F8F4F9F4F16C0882340
:104D500011F096E911C0772321F09EE8872F762F76
:104D600005C0662371F096E8862F70E060E02AF0B7
:104D70009A95660F771F881FDAF7880F96958795A3
:104D800097F90895990F0008550FAA0BE0E8FEEF78
:104D900016161706E807F907C0F012161306E407FF
:104DA000F50798F0621B730B840B950B39F40A26F8
:104DB00061F0232B242B252B21F408950A2609F4D6
:104DC000A140A6958FEF811D811D089597F99F67DA
:104DD00080E870E060E008959FEF80EC0895002483
:104DE0000A941616170618060906089500240A9450
:104DF00012161306140605060895092E0394000CD6
:104E000011F4882352F0BB0F40F4BF2B11F460FF64
:104E100004C06F5F7F4F8F4F9F4F089557FD90588D
:104E2000440F551F59F05F3F71F04795880F97FB6E
:104E3000991F61F09F3F79F0879508951216130628
:104E40001406551FF2CF4695F1DF08C01616170657
:104E50001806991FF1CF869571056105089408958C
:104E6000E894BB2766277727CB0197F908958ADF57
:104E700008F48FEF08950BD0C0CFB1DF28F0B6DF74
:104E800018F0952309F0A2CFA7CF1124EACFC6DFEF
:104E9000A0F3959FD1F3950F50E0551F629FF0014D
:104EA000729FBB27F00DB11D639FAA27F00DB11DA6
:104EB000AA1F649F6627B00DA11D661F829F22272F
:104EC000B00DA11D621F739FB00DA11D621F839FB6
:104ED000A00D611D221F749F3327A00D611D231F8C
:104EE000849F600D211D822F762F6A2F11249F57DA
:104EF00050408AF0E1F088234AF0EE0FFF1FBB1FFD
:104F0000661F771F881F91505040A9F79E3F51059B
:104F100070F05CCFA6CF5F3FECF3983EDCF3869554
:104F200077956795B795F795E7959F5FC1F7FE2B46
:104F3000880F911D9695879597F908950F931F9364
:104F4000CF93DF93CDB7DEB72E97CDBFDEBF0E89EF
:104F50001F8986E08C8309831A838FEF9FE78D83F7
:104F60009E83AE01465E5F4F688D798DCE010196BE
:104F70000DD0EF81F885E00FF11F10822E96CDBF86
:104F8000DEBFDF91CF911F910F9108952F923F9235
:104F90004F925F926F927F928F929F92AF92BF9249
:104FA000CF92DF92EF92FF920F931F93CF93DF93F5
:104FB000CDB7DEB72C97CDBFDEBF7C016B018A0178
:104FC000FC0116821782838181FFB0C1CE01019658
:104FD0004C01F7019381F60193FD859193FF819137
:104FE0006F01882309F49EC1853239F493FD8591C0
:104FF00093FF81916F01853221F4B70190E0C4D114
:10500000E8CF512C312C20E02032A0F48B3269F013
:1050100030F4803259F0833269F420612CC08D3233
:1050200039F0803339F4216026C02260246023C027
:10503000286021C027FD27C030ED380F3A3078F4C2
:1050400026FF06C0FAE05F9E300D1124532E13C0D8
:105050008AE0389E300D1124332E20620CC08E322F
:1050600021F426FD5FC1206406C08C3611F420684F
:1050700002C0883641F4F60193FD859193FF81913A
:105080006F018111C1CF982F9F7D9554933028F4E3
:105090000C5F1F4FFFE3F9830DC0833631F0833778
:1050A00071F0833509F057C021C0F80180818983F0
:1050B0000E5F1F4F44244394512C540114C03801F7
:1050C000F2E06F0E711CF801A080B18026FF03C0D2
:1050D000652D70E002C06FEF7FEFC5012C8749D1CD
:1050E0002C0183012C852F77222E16C03801F2E087
:1050F0006F0E711CF801A080B18026FF03C0652DE2
:1051000070E002C06FEF7FEFC5012C8727D12C0123
:105110002C852068222E830123FC19C0832D90E06A
:1051200048165906A0F4B70180E290E02DD13A94D8
:10513000F5CFF50127FC859127FE81915F01B7012D
:1051400090E022D131103A94F1E04F1A5108411405
:10515000510479F7DEC0843611F0893631F5F80153
:1051600027FF07C060817181828193810C5F1F4F8F
:1051700008C060817181882777FD8095982F0E5F28
:105180001F4F2F76B22E97FF09C09095809570958E
:1051900061957F4F8F4F9F4F2068B22E2AE030E0FD
:1051A000A40124D1A82EA81843C0853729F42F7E46
:1051B000B22E2AE030E025C0F22FF97FBF2E8F36C5
:1051C000C1F018F4883579F0ADC0803719F0883710
:1051D00021F0A8C02F2F2061B22EB4FE0DC08B2D60
:1051E0008460B82E09C024FF0AC09F2F9660B92E94
:1051F00006C028E030E005C020E130E002C020E138
:1052000032E0F801B7FE07C060817181828193812D
:105210000C5F1F4F06C06081718180E090E00E5FDF
:105220001F4FA401E3D0A82EA818FB2DFF77BF2E97
:10523000B6FE0BC02B2D2E7FA51450F4B4FE0AC071
:10524000B2FC08C02B2D2E7E05C07A2C2B2D03C05E
:105250007A2C01C0752C24FF0DC0FE01EA0DF11D52
:105260008081803311F4297E09C022FF06C0739427
:10527000739404C0822F867809F0739423FD12C0C2
:1052800020FF06C05A2C731418F4530C5718732CB3
:10529000731460F4B70180E290E02C8775D07394AA
:1052A0002C85F6CF731410F4371801C0312C24FF6D
:1052B00011C0B70180E390E02C8766D02C8522FFD7
:1052C00016C021FF03C088E590E002C088E790E0A7
:1052D000B7010CC0822F867851F021FD02C080E218
:1052E00001C08BE227FD8DE2B70190E04DD0A514FF
:1052F00030F4B70180E390E047D05A94F8CFAA94F5
:10530000F401EA0DF11D8081B70190E03DD0A110BC
:10531000F6CF332009F45DCEB70180E290E034D0BF
:105320003A94F7CFF7018681978102C08FEF9FEF04
:105330002C96CDBFDEBFDF91CF911F910F91FF90D3
:10534000EF90DF90CF90BF90AF909F908F907F9025
:105350006F905F904F903F902F900895FC010590C3
:10536000615070400110D8F7809590958E0F9F1F67
:105370000895FC016150704001900110D8F78095AC
:1053800090958E0F9F1F08950F931F93CF93DF93D8
:10539000182F092FEB018B8181FD03C08FEF9FEF49
:1053A00020C082FF10C04E815F812C813D81421759
:1053B00053077CF4E881F9819F012F5F3F4F2883D9
:1053C0003983108306C0E885F985812F1995892BCB
:1053D00029F72E813F812F5F3F4F2E833F83812FFF
:1053E000902FDF91CF911F910F910895FA01AA2775
:1053F000283051F1203181F1E8946F936E7F6E5F18
:105400007F4F8F4F9F4FAF4FB1E03ED0B4E03CD0C5
:10541000670F781F891F9A1FA11D680F791F8A1FA8
:10542000911DA11D6A0F711D811D911DA11D20D00F
:1054300009F468943F912AE0269F11243019305DC9
:105440003193DEF6CF010895462F4770405D4193BA
:10545000B3E00FD0C9F7F6CF462F4F70405D4A3307
:1054600018F0495D31FD4052419302D0A9F7EACFCF
:10547000B4E0A6959795879577956795BA95C9F7FE
:1054800000976105710508959B01AC010A2E0694F1
:105490005795479537952795BA95C9F7620F731FAA
:0C54A000841F951FA01D0895F894FFCFF5
:1054AC0010100011223344557B0060003D00750044
:1054BC00660057005F0063007F0077002F005E00DE
:1054CC001B007C001F000F00040000000100000006
:1054DC000100000001000000010000002533642CD5
:0854EC0025336400253464003F
:00000001FF
