S00D000062617365312E737265634B
S1130000F9C000001DC100000C94C52819C10000EE
S113001017C1000015C1000013C1000011C1000088
S11300200FC100000DC100000BC1000009C1000098
S113003007C1000005C1000044C500007AC50000E6
S1130040B0C50000E6C500001CC6000052C6000092
S113005088C60000BEC60000F4C600002AC700001F
S1130060EFC00000EDC00000EBC00000E9C00000DC
S1130070E7C00000E5C00000E3C00000E1C00000EC
S1130080DFC00000DDC00000DBC00000D9C00000FC
S1130090D7C00000D5C00000D3C00000D1C000000C
S11300A0CFC00000CDC00000CBC000000C947B2268
S11300B0C7C00000C5C00000C3C000000C9489097B
S11300C00C94C1090C94F9090C94310A0C94690A32
S11300D00C94A10A0C94D90A0C94110B0C94490B9E
S11300E00C94810BADC00000ABC00000A9C000009F
S11300F0A7C00000A5C00000A3C00000A1C000006C
S11301009FC000009DC000009BC0000099C000007B
S113011097C0000095C0000093C0000091C000008B
S11301208FC000008DC000008BC0000089C000009B
S113013087C000000C94E626F4C600002AC700001D
S113014060C7000096C70000CCC700000C94A90843
S11301500C94E1080C9419090C94510971C0000025
S11301606FC000006DC000006BC0000069C00000DB
S113017067C0000065C000000C9471280C94EF283F
S11301800C949B280C9419295BC0000059C00000F2
S11301900C94372955C0000053C0000051C0000022
S11301A00C9462284DC000004BC0000049C0000000
S11301B00C94B90B0C94F10B0C94290C0C94610C59
S11301C00C94990C0C94D10C0C94090D0C94410DC5
S11301D00C94790D0C94B10D33C000000C948A2951
S11301E02FC000002DC000002BC0000029C000005B
S11301F027C0000011241FBECFEFCDBFDFE3DEBF59
S113020000E00CBF18BE19BE1ABE1BBE10E2A0E06F
S1130210B0E2E0EEFFE500E00BBF02C007900D92F4
S1130220A834B107D9F71BBE24E2A8E4B0E201C0A8
S11302301D92A632B207E1F70E94F4100C94EE2F3F
S1130240DFCEE4E2F6E09081A82FA170B0E0AA0F1F
S1130250BB1FAA0FBB1F9B7FA92BA083908181FB8F
S1130260662760F970E0660F771F62957295707F5C
S11302707627607F76279F7D692B6083908182FB40
S1130280442740F950E042955295507F5427407FCF
S113029054279F7E492B4083E4E4F6E0908183FB5E
S11302A0222720F930E0220F331F22953295307F28
S11302B03227207F3227892F8F7D282B2083089592
S11302C0E0E2F6E0808184608083808180628083C4
S11302D0808180618083E0E4F6E0808180628083B5
S11302E00895E0E2F6E080818B7F808380818F7DBA
S11302F0808380818F7E8083E0E4F6E080818F7D3F
S113030080830895CF93C82F8FE193E00197F1F78D
S113031000C000008C2F82958F7093DFE4E2F6E03A
S113032080818260808380818860808395ED9A9546
S1130330F1F700008081877F808385ED8A95F1F74E
S113034000008C2F7EDFE4E2F6E080818860808309
S113035095ED9A95F1F700008081877F8083CF9196
S11303600895CF93C82F8FEF8C0F823038F48FE32A
S11303709CE90197F1F700C0000006C08FE39FE1FC
S11303800197F1F700C000008C2F82958F7059DF20
S1130390E4E2F6E080818D7F8083808188608083C1
S11303A095ED9A95F1F700008081877F808385ED34
S11303B08A95F1F700008C2F44DFE4E2F6E08081B7
S11303C08860808395ED9A95F1F700008081877F9E
S11303D08083CF910895E4E2F6E08081877F808373
S11303E080DF2FEF87EE93E0215080409040E1F7CB
S11303F000C0000065DF83E024DFE0E2F6E08081F6
S113040082608083808181608083A4E2B6E08C91E5
S11304108D7F8C938C918E7F8C9380818860808378
S113042025ED2A95F1F70000E4E2F6E0808188608A
S1130430808385ED8A95F1F700008081877F808332
S11304409FEF23EF81E0915020408040E1F700C00E
S1130450000080818860808395ED9A95F1F7000013
S11304608081877F80838FE193E00197F1F700C05B
S1130470000080818860808395ED9A95F1F70000F3
S11304808081877F80838FE193E00197F1F700C03B
S1130490000082E0D6DE95ED9A95F1F70000E4E2E3
S11304A0F6E080818860808325ED2A95F1F70000CD
S11304B08081877F80838FE193E00197F1F700C00B
S11304C0000088E24EDF88E04CDF81E04ADF86E00E
S11304D048DF8CE046CF0895CF93DF93EC0121965B
S11304E0FC018081882321F00DDF89918111FCCFEB
S11304F0DF91CF910895623031F0633031F0613093
S113050029F4805C03C08C5E01C08C5A806829CFBA
S11305100895882339F0FB018081811107C081E0AF
S113052080830895FB01108280E0089580E008959F
S1130530E0E0F7E094818091AB20A0910020B0E04E
S1130540AA0FBB1FA85FBF4D90782C91922B9823C4
S11305509483E0EEF6E09481A0910120B0E0AA0F2C
S1130560BB1FA85FBF4D90782C91922B8923848365
S11305700895809101208E3031F4809100208F30D5
S113058011F40C94840F0895EF92FF920F931F932C
S1130590CF93DF93F12C01E010E2C0E0D0E20F2E04
S11305A0F1E1EF2EF02DF801F082E882E2DFF3941E
S11305B0F0E1FF12F8CF80E18093002080930120C6
S11305C010920220DF91CF911F910F91FF90EF9035
S11305D008958F929F92AF92BF92CF92DF92EF9243
S11305E0FF920F931F93CF93DF938091022081306A
S11305F009F465C020F0823009F4C2C0DFC0C0EE47
S1130600D6E01C8160919F207091A0208091A12050
S11306109091A22024E630E040E050E00E94272B95
S113062020FB17F91C8380E8E0E0F7E086839885D7
S113063028858885388530FB882480F8912C880C9F
S1130640991C22FB222720F9822A93FBAA24A0F8D2
S1130650B12CAA0CBB1CAA0CBB1CA82881FBCC2463
S1130660C0F8D12CCC0CDD1CCC0CDD1CCC0CDD1C5E
S1130670CA28C092012080E18093002059DF809134
S1130680E8066BE470E2881F8827881F42DF88230E
S113069029F0E2E0F0E280818F5F80838091A806F8
S11306A06AE470E28295817034DF882309F486C09D
S11306B084E690E080934820909349207FC00F2ED9
S11306C0C12CF7E0DF2EF02DF601B48060919F205D
S11306D07091A0208091A1209091A22024E630E086
S11306E040E050E00E94272B20FBB7F8F601B482CB
S11306F0E0EEF6E080E8858390852085808530856E
S113070030FBEE24E0F8F12CEE0CFF1C22FB222738
S113071020F9E22A93FB002700F910E0000F111FD3
S1130720000F111F0E2986958170C82FF0E0DF2F6E
S1130730CC0FDD1FCC0FDD1FCC0FDD1FC02BC093F2
S11307400020F6DE8091E8066BE470E2881F8827BB
S1130750881FDFDE882329F0E2E0F0E280818F5FEA
S113076080838091A8066AE470E282958170D1DE6C
S1130770882321F1E2E0F0E28081815080831EC071
S113078080E8E0E0F7E08583E0EEF6E08583F1DEE3
S11307908091A8066AE470E282958170BADE8823AB
S11307A069F0E2E0F0E2808181508083C0E0D0E231
S11307B081E18883DEDE80E18883BADEDF91CF9138
S11307C01F910F91FF90EF90DF90CF90BF90AF906B
S11307D09F908F9008952FB7F894FC01E059FF4F34
S11307E060958081682360832FBF08952FB7F894A4
S11307F0FC01E059FF4F8081682B60832FBF08956F
S1130800811522E0920769F480914D2091E0980FC0
S113081090934D20811114C062E081E090E0DBCF21
S113082008958034924061F480914C2091E0980FB7
S113083090934C20811104C062E082E090E0CBCF21
S11308400895811522E0920761F480914D20815032
S113085080934D20811113C062E081E090E0C6CF07
S113086008958034924059F480914C2081508093B3
S11308704C20811104C062E082E090E0B7CF08957B
S11308801F93CF93DF93EC011FB7F894B9DF8881EE
S1130890816088831FBF8FB7F894EDEAF0E29081FE
S11308A09F5F90838FBFDF91CF911F910895DF9257
S11308B0EF92FF920F931F93CF93DF93EC018B0181
S11308C0C11522E0D20771F461E270E082E0A7D0A2
S11308D0E82EF12C60E270E082E0A1D0FE2CEE2440
S11308E0E82A10C08034924059F565E270E082E055
S11308F096D0E82EF12C64E270E082E090D0FE2CD9
S1130900EE24E82ADFB6F894CE017ADF288182E06B
S11309108883EC86FD86F80185819681888F998F7E
S113092082818A8384818C8383818B83818189837F
S1130930822F81709081892B8883CE0182DFDFBE74
S1130940DF91CF911F910F91FF90EF90DF90089569
S1130950DF92EF92FF920F931F93CF93DF937C016B
S11309608A01862F837021F46695669582E001C022
S113097080E060FF8F5FE701A09698E0899FC00D3B
S1130980D11D1124DFB6F894C7013ADFF801808144
S1130990888382818A8381818983C70152DFDFBE94
S11309A0DF91CF911F910F91FF90EF90DF90089509
S11309B0DF92EF92FF920F931F93CF93DF937C010B
S11309C0EA01862F837021F46695669582E001C062
S11309D080E060FF8F5F8701005E1F4F98E0899F72
S11309E0000D111D1124DFB6F894C70109DFF801C9
S11309F08081888382818A8381818983C70121DF01
S1130A00DFBEDF91CF911F910F91FF90EF90DF90A8
S1130A1008951BBEFC0128ED24BF60830895409116
S1130A20CA01E62FF72F8093CA0184914093CA012B
S1130A300895CF92DF92EF92FF920F931F93CF937B
S1130A40DF93EC016A017B01DB01CA010197A10973
S1130A50B109BC01CD01600F711F821F931FA70153
S1130A6096010E94272B2138310541055105F8F4E0
S1130A70213460F4213260F4213160F4293060F4CF
S1130A80253060F4233060F090E00BC093E009C09F
S1130A9092E007C092E805C091E003C091E801C06C
S1130AA090E888818C77892B888381E001C08FEF5F
S1130AB0DF91CF911F910F91FF90EF90DF90CF9036
S1130AC008951F920F920FB60F92112408B60F9239
S1130AD018BE09B60F9219BE0BB60F921BBE2F9308
S1130AE03F934F935F936F937F938F939F93AF93B2
S1130AF0BF93EF93FF93E0919A20F0919B2030975E
S1130B0009F01995FF91EF91BF91AF919F918F914A
S1130B107F916F915F914F913F912F910F900BBEF9
S1130B200F9009BE0F9008BE0F900FBE0F901F903C
S1130B3018951F920F920FB60F92112408B60F92B8
S1130B4018BE09B60F9219BE0BB60F921BBE2F9397
S1130B503F934F935F936F937F938F939F93AF9341
S1130B60BF93EF93FF93E0919820F09199203097F1
S1130B7009F01995FF91EF91BF91AF919F918F91DA
S1130B807F916F915F914F913F912F910F900BBE89
S1130B900F9009BE0F9008BE0F900FBE0F901F90CC
S1130BA018951F920F920FB60F92112408B60F9248
S1130BB018BE09B60F9219BE0BB60F921BBE2F9327
S1130BC03F934F935F936F937F938F939F93AF93D1
S1130BD0BF93EF93FF93E0919620F0919720309785
S1130BE009F01995FF91EF91BF91AF919F918F916A
S1130BF07F916F915F914F913F912F910F900BBE19
S1130C000F9009BE0F9008BE0F900FBE0F901F905B
S1130C1018951F920F920FB60F92112408B60F92D7
S1130C2018BE09B60F9219BE0BB60F921BBE2F93B6
S1130C303F934F935F936F937F938F939F93AF9360
S1130C40BF93EF93FF93E0919420F0919520309718
S1130C5009F01995FF91EF91BF91AF919F918F91F9
S1130C607F916F915F914F913F912F910F900BBEA8
S1130C700F9009BE0F9008BE0F900FBE0F901F90EB
S1130C8018951F920F920FB60F92112408B60F9267
S1130C9018BE09B60F9219BE0BB60F921BBE2F9346
S1130CA03F934F935F936F937F938F939F93AF93F0
S1130CB0BF93EF93FF93E0919220F09193203097AC
S1130CC009F01995FF91EF91BF91AF919F918F9189
S1130CD07F916F915F914F913F912F910F900BBE38
S1130CE00F9009BE0F9008BE0F900FBE0F901F907B
S1130CF018951F920F920FB60F92112408B60F92F7
S1130D0018BE09B60F9219BE0BB60F921BBE2F93D5
S1130D103F934F935F936F937F938F939F93AF937F
S1130D20BF93EF93FF93E0919020F091912030973F
S1130D3009F01995FF91EF91BF91AF919F918F9118
S1130D407F916F915F914F913F912F910F900BBEC7
S1130D500F9009BE0F9008BE0F900FBE0F901F900A
S1130D6018951F920F920FB60F92112408B60F9286
S1130D7018BE09B60F9219BE0BB60F921BBE2F9365
S1130D803F934F935F936F937F938F939F93AF930F
S1130D90BF93EF93FF93E0918E20F0918F203097D3
S1130DA009F01995FF91EF91BF91AF919F918F91A8
S1130DB07F916F915F914F913F912F910F900BBE57
S1130DC00F9009BE0F9008BE0F900FBE0F901F909A
S1130DD018951F920F920FB60F92112408B60F9216
S1130DE018BE09B60F9219BE0BB60F921BBE2F93F5
S1130DF03F934F935F936F937F938F939F93AF939F
S1130E00BF93EF93FF93E0918C20F0918D20309766
S1130E1009F01995FF91EF91BF91AF919F918F9137
S1130E207F916F915F914F913F912F910F900BBEE6
S1130E300F9009BE0F9008BE0F900FBE0F901F9029
S1130E4018951F920F920FB60F92112408B60F92A5
S1130E5018BE09B60F9219BE0BB60F921BBE2F9384
S1130E603F934F935F936F937F938F939F93AF932E
S1130E70BF93EF93FF93E0918A20F0918B203097FA
S1130E8009F01995FF91EF91BF91AF919F918F91C7
S1130E907F916F915F914F913F912F910F900BBE76
S1130EA00F9009BE0F9008BE0F900FBE0F901F90B9
S1130EB018951F920F920FB60F92112408B60F9235
S1130EC018BE09B60F9219BE0BB60F921BBE2F9314
S1130ED03F934F935F936F937F938F939F93AF93BE
S1130EE0BF93EF93FF93E0918820F091892030978E
S1130EF009F01995FF91EF91BF91AF919F918F9157
S1130F007F916F915F914F913F912F910F900BBE05
S1130F100F9009BE0F9008BE0F900FBE0F901F9048
S1130F2018951F920F920FB60F92112408B60F92C4
S1130F3018BE09B60F9219BE0BB60F921BBE2F93A3
S1130F403F934F935F936F937F938F939F93AF934D
S1130F50BF93EF93FF93E0918620F0918720309721
S1130F6009F01995FF91EF91BF91AF919F918F91E6
S1130F707F916F915F914F913F912F910F900BBE95
S1130F800F9009BE0F9008BE0F900FBE0F901F90D8
S1130F9018951F920F920FB60F92112408B60F9254
S1130FA018BE09B60F9219BE0BB60F921BBE2F9333
S1130FB03F934F935F936F937F938F939F93AF93DD
S1130FC0BF93EF93FF93E0918420F09185203097B5
S1130FD009F01995FF91EF91BF91AF919F918F9176
S1130FE07F916F915F914F913F912F910F900BBE25
S1130FF00F9009BE0F9008BE0F900FBE0F901F9068
S113100018951F920F920FB60F92112408B60F92E3
S113101018BE09B60F9219BE0BB60F921BBE2F93C2
S11310203F934F935F936F937F938F939F93AF936C
S1131030BF93EF93FF93E0918220F0918320309748
S113104009F01995FF91EF91BF91AF919F918F9105
S11310507F916F915F914F913F912F910F900BBEB4
S11310600F9009BE0F9008BE0F900FBE0F901F90F7
S113107018951F920F920FB60F92112408B60F9273
S113108018BE09B60F9219BE0BB60F921BBE2F9352
S11310903F934F935F936F937F938F939F93AF93FC
S11310A0BF93EF93FF93E0918020F09181203097DC
S11310B009F01995FF91EF91BF91AF919F918F9195
S11310C07F916F915F914F913F912F910F900BBE44
S11310D00F9009BE0F9008BE0F900FBE0F901F9087
S11310E018951F920F920FB60F92112408B60F9203
S11310F018BE09B60F9219BE0BB60F921BBE2F93E2
S11311003F934F935F936F937F938F939F93AF938B
S1131110BF93EF93FF93E0917E20F0917F2030976F
S113112009F01995FF91EF91BF91AF919F918F9124
S11311307F916F915F914F913F912F910F900BBED3
S11311400F9009BE0F9008BE0F900FBE0F901F9016
S113115018951F920F920FB60F92112408B60F9292
S113116018BE09B60F9219BE0BB60F921BBE2F9371
S11311703F934F935F936F937F938F939F93AF931B
S1131180BF93EF93FF93E0917C20F0917D20309703
S113119009F01995FF91EF91BF91AF919F918F91B4
S11311A07F916F915F914F913F912F910F900BBE63
S11311B00F9009BE0F9008BE0F900FBE0F901F90A6
S11311C018951F920F920FB60F92112408B60F9222
S11311D018BE09B60F9219BE0BB60F921BBE2F9301
S11311E03F934F935F936F937F938F939F93AF93AB
S11311F0BF93EF93FF93E0917A20F0917B20309797
S113120009F01995FF91EF91BF91AF919F918F9143
S11312107F916F915F914F913F912F910F900BBEF2
S11312200F9009BE0F9008BE0F900FBE0F901F9035
S113123018951F920F920FB60F92112408B60F92B1
S113124018BE09B60F9219BE0BB60F921BBE2F9390
S11312503F934F935F936F937F938F939F93AF933A
S1131260BF93EF93FF93E0917820F091792030972A
S113127009F01995FF91EF91BF91AF919F918F91D3
S11312807F916F915F914F913F912F910F900BBE82
S11312900F9009BE0F9008BE0F900FBE0F901F90C5
S11312A018951F920F920FB60F92112408B60F9241
S11312B018BE09B60F9219BE0BB60F921BBE2F9320
S11312C03F934F935F936F937F938F939F93AF93CA
S11312D0BF93EF93FF93E0917620F09177203097BE
S11312E009F01995FF91EF91BF91AF919F918F9163
S11312F07F916F915F914F913F912F910F900BBE12
S11313000F9009BE0F9008BE0F900FBE0F901F9054
S113131018951F920F920FB60F92112408B60F92D0
S113132018BE09B60F9219BE0BB60F921BBE2F93AF
S11313303F934F935F936F937F938F939F93AF9359
S1131340BF93EF93FF93E0917420F0917520309751
S113135009F01995FF91EF91BF91AF919F918F91F2
S11313607F916F915F914F913F912F910F900BBEA1
S11313700F9009BE0F9008BE0F900FBE0F901F90E4
S113138018951F920F920FB60F92112408B60F9260
S113139018BE09B60F9219BE0BB60F921BBE2F933F
S11313A03F934F935F936F937F938F939F93AF93E9
S11313B0BF93EF93FF93E0917220F09173203097E5
S11313C009F01995FF91EF91BF91AF919F918F9182
S11313D07F916F915F914F913F912F910F900BBE31
S11313E00F9009BE0F9008BE0F900FBE0F901F9074
S11313F018951F920F920FB60F92112408B60F92F0
S113140018BE09B60F9219BE0BB60F921BBE2F93CE
S11314103F934F935F936F937F938F939F93AF9378
S1131420BF93EF93FF93E0917020F0917120309778
S113143009F01995FF91EF91BF91AF919F918F9111
S11314407F916F915F914F913F912F910F900BBEC0
S11314500F9009BE0F9008BE0F900FBE0F901F9003
S113146018951F920F920FB60F92112408B60F927F
S113147018BE09B60F9219BE0BB60F921BBE2F935E
S11314803F934F935F936F937F938F939F93AF9308
S1131490BF93EF93FF93E0916E20F0916F2030970C
S11314A009F01995FF91EF91BF91AF919F918F91A1
S11314B07F916F915F914F913F912F910F900BBE50
S11314C00F9009BE0F9008BE0F900FBE0F901F9093
S11314D018951F920F920FB60F92112408B60F920F
S11314E018BE09B60F9219BE0BB60F921BBE2F93EE
S11314F03F934F935F936F937F938F939F93AF9398
S1131500BF93EF93FF93E0916C20F0916D2030979F
S113151009F01995FF91EF91BF91AF919F918F9130
S11315207F916F915F914F913F912F910F900BBEDF
S11315300F9009BE0F9008BE0F900FBE0F901F9022
S113154018951F920F920FB60F92112408B60F929E
S113155018BE09B60F9219BE0BB60F921BBE2F937D
S11315603F934F935F936F937F938F939F93AF9327
S1131570BF93EF93FF93E0916A20F0916B20309733
S113158009F01995FF91EF91BF91AF919F918F91C0
S11315907F916F915F914F913F912F910F900BBE6F
S11315A00F9009BE0F9008BE0F900FBE0F901F90B2
S11315B018951F920F920FB60F92112408B60F922E
S11315C018BE09B60F9219BE0BB60F921BBE2F930D
S11315D03F934F935F936F937F938F939F93AF93B7
S11315E0BF93EF93FF93E0916820F09169203097C7
S11315F009F01995FF91EF91BF91AF919F918F9150
S11316007F916F915F914F913F912F910F900BBEFE
S11316100F9009BE0F9008BE0F900FBE0F901F9041
S113162018951F920F920FB60F92112408B60F92BD
S113163018BE09B60F9219BE0BB60F921BBE2F939C
S11316403F934F935F936F937F938F939F93AF9346
S1131650BF93EF93FF93E0916620F091672030975A
S113166009F01995FF91EF91BF91AF919F918F91DF
S11316707F916F915F914F913F912F910F900BBE8E
S11316800F9009BE0F9008BE0F900FBE0F901F90D1
S113169018951F920F920FB60F92112408B60F924D
S11316A018BE09B60F9219BE0BB60F921BBE2F932C
S11316B03F934F935F936F937F938F939F93AF93D6
S11316C0BF93EF93FF93E0916420F09165203097EE
S11316D009F01995FF91EF91BF91AF919F918F916F
S11316E07F916F915F914F913F912F910F900BBE1E
S11316F00F9009BE0F9008BE0F900FBE0F901F9061
S113170018951F920F920FB60F92112408B60F92DC
S113171018BE09B60F9219BE0BB60F921BBE2F93BB
S11317203F934F935F936F937F938F939F93AF9365
S1131730BF93EF93FF93E0916220F0916320309781
S113174009F01995FF91EF91BF91AF919F918F91FE
S11317507F916F915F914F913F912F910F900BBEAD
S11317600F9009BE0F9008BE0F900FBE0F901F90F0
S113177018951F920F920FB60F92112408B60F926C
S113178018BE09B60F9219BE0BB60F921BBE2F934B
S11317903F934F935F936F937F938F939F93AF93F5
S11317A0BF93EF93FF93E0916020F0916120309715
S11317B009F01995FF91EF91BF91AF919F918F918E
S11317C07F916F915F914F913F912F910F900BBE3D
S11317D00F9009BE0F9008BE0F900FBE0F901F9080
S11317E018951F920F920FB60F92112408B60F92FC
S11317F018BE09B60F9219BE0BB60F921BBE2F93DB
S11318003F934F935F936F937F938F939F93AF9384
S1131810BF93EF93FF93E0915E20F0915F203097A8
S113182009F01995FF91EF91BF91AF919F918F911D
S11318307F916F915F914F913F912F910F900BBECC
S11318400F9009BE0F9008BE0F900FBE0F901F900F
S113185018951F920F920FB60F92112408B60F928B
S113186018BE09B60F9219BE0BB60F921BBE2F936A
S11318703F934F935F936F937F938F939F93AF9314
S1131880BF93EF93FF93E0915C20F0915D2030973C
S113189009F01995FF91EF91BF91AF919F918F91AD
S11318A07F916F915F914F913F912F910F900BBE5C
S11318B00F9009BE0F9008BE0F900FBE0F901F909F
S11318C018951F920F920FB60F92112408B60F921B
S11318D018BE09B60F9219BE0BB60F921BBE2F93FA
S11318E03F934F935F936F937F938F939F93AF93A4
S11318F0BF93EF93FF93E0915A20F0915B203097D0
S113190009F01995FF91EF91BF91AF919F918F913C
S11319107F916F915F914F913F912F910F900BBEEB
S11319200F9009BE0F9008BE0F900FBE0F901F902E
S113193018951F920F920FB60F92112408B60F92AA
S113194018BE09B60F9219BE0BB60F921BBE2F9389
S11319503F934F935F936F937F938F939F93AF9333
S1131960BF93EF93FF93E0915820F0915920309763
S113197009F01995FF91EF91BF91AF919F918F91CC
S11319807F916F915F914F913F912F910F900BBE7B
S11319900F9009BE0F9008BE0F900FBE0F901F90BE
S11319A018951F920F920FB60F92112408B60F923A
S11319B018BE09B60F9219BE0BB60F921BBE2F9319
S11319C03F934F935F936F937F938F939F93AF93C3
S11319D0BF93EF93FF93E0915620F09157203097F7
S11319E009F01995FF91EF91BF91AF919F918F915C
S11319F07F916F915F914F913F912F910F900BBE0B
S1131A000F9009BE0F9008BE0F900FBE0F901F904D
S1131A1018951F920F920FB60F92112408B60F92C9
S1131A2018BE09B60F9219BE0BB60F921BBE2F93A8
S1131A303F934F935F936F937F938F939F93AF9352
S1131A40BF93EF93FF93E0915420F091552030978A
S1131A5009F01995FF91EF91BF91AF919F918F91EB
S1131A607F916F915F914F913F912F910F900BBE9A
S1131A700F9009BE0F9008BE0F900FBE0F901F90DD
S1131A8018951F920F920FB60F92112408B60F9259
S1131A9018BE09B60F9219BE0BB60F921BBE2F9338
S1131AA03F934F935F936F937F938F939F93AF93E2
S1131AB0BF93EF93FF93E0915220F091532030971E
S1131AC009F01995FF91EF91BF91AF919F918F917B
S1131AD07F916F915F914F913F912F910F900BBE2A
S1131AE00F9009BE0F9008BE0F900FBE0F901F906D
S1131AF018951F920F920FB60F92112408B60F92E9
S1131B0018BE09B60F9219BE0BB60F921BBE2F93C7
S1131B103F934F935F936F937F938F939F93AF9371
S1131B20BF93EF93FF93E0915020F09151203097B1
S1131B3009F01995FF91EF91BF91AF919F918F910A
S1131B407F916F915F914F913F912F910F900BBEB9
S1131B500F9009BE0F9008BE0F900FBE0F901F90FC
S1131B6018951F920F920FB60F92112408B60F9278
S1131B7018BE09B60F9219BE0BB60F921BBE2F9357
S1131B803F934F935F936F937F938F939F93AF9301
S1131B90BF93EF93FF93E0914E20F0914F20309745
S1131BA009F01995FF91EF91BF91AF919F918F919A
S1131BB07F916F915F914F913F912F910F900BBE49
S1131BC00F9009BE0F9008BE0F900FBE0F901F908C
S1131BD01895CF93CFB7F894282F392F211588E083
S1131BE0380759F461E083E090E00E94EB0364E07D
S1131BF083E090E00E94EB036AC0203488E0380759
S1131C0059F462E083E090E00E94EB0364E083E037
S1131C1090E00E94EB035BC0211589E0380759F47A
S1131C2061E084E090E00E94EB0364E084E090E0F3
S1131C300E94EB034CC0203489E0380759F462E079
S1131C4084E090E00E94EB0364E084E090E00E9472
S1131C50EB033DC021158AE0380759F461E085E0C3
S1131C6090E00E94EB0364E085E090E00E94EB03C7
S1131C702EC020348AE0380759F462E085E090E011
S1131C800E94EB0364E085E090E00E94EB031FC038
S1131C9021158BE0380759F461E086E090E00E945A
S1131CA0EB0364E086E090E00E94EB0310C0203474
S1131CB03B4059F462E086E090E00E94EB0364E06C
S1131CC086E090E00E94EB0302C0CFBF09C08FB74B
S1131CD0F894EDEAF0E290819F5F90838FBFCFBFCD
S1131CE0CF910895FC01818185FFFDCF608380E061
S1131CF090E008954F925F926F927F928F929F929D
S1131D00AF92BF92CF92DF92EF92FF920F931F9305
S1131D10CF93DF93EC014A015B0128013901D9011A
S1131D20C801689412F8B695A79597958795169467
S1131D30D1F7B901A801032E36E176956795579539
S1131D4047953A95D1F7302D2C8122FD08C0B695E0
S1131D50A79597958795769567955795479588158F
S1131D609905AA05BB0508F4A6C084169506A6061F
S1131D70B70608F4A2C08C8182FD04C0880C991CAB
S1131D80AA1CBB1CC301B201A50194010E94272B0C
S1131D902F3F31054105510508F491C0C12CD12CC8
S1131DA07601CA9419EF05C02C153D054E055F0553
S1131DB068F0CC0CDD1CEE1CFF1C1D3F14F4689471
S1131DC0C0F81F5F173081F7212F50C0212F112336
S1131DD00CF04CC0D501C401880F991FAA1FBB1F6A
S1131DE0880F991FAA1FBB1F880F991FAA1FBB1F0B
S1131DF0481A590A6A0A7B0A1E3FF4F46DEF7FEF12
S1131E00611B710917FD739504C0440C551C661CB5
S1131E10771C6A95D2F7D501C401B695A795979515
S1131E208795BC01CD01640D751D861D971DA50107
S1131E3094010E94272B36C023E0210FD501C40151
S1131E4004C0880F991FAA1FBB1F2A95D2F79C01B3
S1131E50AD01B695A79597958795BC01CD01640D05
S1131E60751D861D971D0E94272B1CC02D5FD50153
S1131E70C40104C0880F991FAA1FBB1F2A95D2F75B
S1131E809C01AD01B695A79597958795BC01CD01A9
S1131E90640D751D861D971D0E94272B2150310945
S1131EA041095109832F8F701295107F182B1F83BE
S1131EB02E8381E018C080E016C080E014C0D501F4
S1131EC0C401880F991FAA1FBB1F880F991FAA1F3F
S1131ED0BB1F880F991FAA1FBB1F481A590A6A0AF9
S1131EE07B0A19EF8BCFDF91CF911F910F91FF9058
S1131EF0EF90DF90CF90BF90AF909F908F907F90A6
S1131F006F905F904F90089563E080E890E00E94A6
S1131F100905E0E8F0E0828180FDFDCF6BE281E815
S1131F2090E00E940905E0E8F0E0828180FDFDCFA9
S1131F30A895FFCFE0E5F0E0808182608083E1E551
S1131F40F0E0808181FFFDCF88ED84BF81E0809344
S1131F504000E0E5F0E08081827E8083089580E4A3
S1131F608093210687E4809341061092530681E012
S1131F708093490698E090934A062EE220936106E6
S1131F802AEB20938106E0E9F6E020812260208399
S1131F90E9E8F6E0208121602083EAE8F6E0208188
S1131FA02160208320E12093AA069093A1069093B8
S1131FB0A5062FEF20932007209300078093300776
S1131FC08093290720E820932A071092D0071092C3
S1131FD0D30725E02093C9078093CA079093CB07C2
S1131FE08093F5068093E90680E28093EA060895DB
S1131FF0E0E0F8E08081807F866080838181887F53
S1132000836081838FEF90E086A397A380858E6F92
S1132010808781818061818381818062818380E086
S113202098E0D7CD0895E0E0F9E08081807F866074
S113203080838181887F818386818C7F868386816A
S1132040826086838DE790E086A397A380858E6F58
S1132050808780E099E0BDCD08950F931F9300E041
S113206018E428EE31E040E052E16AE770E080ECE9
S11320709AE00E941905E0ECFAE080818061808397
S11320808081806480831F910F9108950F931F9323
S1132090CF93DF93C0EADAE08D818F738D8383E081
S11320A08D838B818F7C80628B8300E018E428EE23
S11320B031E040E05BE460E070E080EA9AE01ADE40
S11320C08C8188608C83DF91CF911F910F9108954B
S11320D00F931F93CF93DF93C0EADBE08D818F735F
S11320E08D8383E08D838B818F7C80628B8300E082
S11320F018E428EE31E040E855E260E070E080EA60
S11321009BE0F8DD8C8188608C838C8180618C837A
S1132110DF91CF911F910F9108950F931F93CF9348
S1132120DF93C0EBDBE08D818F738D8383E08D8340
S113213000E018E428EE31E040E855E260E070E0A9
S113214080EB9BE0D7DD8C8188608C83DF91CF911D
S11321501F910F910895CF93DF93CDB7DEB72A97E0
S1132160CDBFDEBF61E270E082E00E940F0560E255
S113217070E082E00E940F058A81897E9B819F7CAA
S113218090629B8392E09D8388608A831C82BE0157
S11321906F5F7F4F80E092E00E945704AE01485F7A
S11321A05F4F61E080E092E00E94D80481E088877C
S11321B088E18987AE01485F5F4F61E080E092E08B
S11321C00E94A80480E092E00E9440048FB7F89433
S11321D0E0E0F2E09081946090838FBF2A96CDBFB7
S11321E0DEBFDF91CF910895CF93DF93CDB7DEB7F4
S11321F0C65FD109CDBFDEBF9DDEE2EAF0E080819B
S113220087608083ACDE0FDFF3DE62DF86DF3EDFD4
S1132210A2DF0E94EB01789488EB9BE0A0E0B0E0A1
S11322208093342090933520A0933620B0933720A8
S113223024EF31E02093CB233093CC2380933820B8
S113224090933920A0933A20B0933B2084E690E009
S11322508093E7219093E82188EE93E0A0E0B0E03A
S11322608093302090933120A0933220B093332078
S113227088EC90E08093F9239093FA2380ED97E023
S1132280A0E0B0E080932C2090932D20A0932E20EA
S1132290B0932F2086E990E080932F2290933022F0
S11322A0E8E0F6E09081308180814081E3E0F0E273
S11322B0881F8827881F282F220F220F96FB882724
S11322C080F9282B34FB882480F8912CC401880FD2
S11322D0991F282B45FB002700F910E0C801880F3F
S11322E0991F880F991F880F991F822B9081890F3E
S11322F0808382E0E0E8F6E08683AFDE2AE62A9572
S1132300F1F700C03FEF53EC69E0315050406040BA
S1132310E1F700C000000E94442A0E940B2B0E9497
S1132320192B82E0E0E8F6E08683E8E0F6E020811D
S1132330308180814081881F8827881F90E0880F22
S1132340991F880F991F26FBEE24E0F8F12CE82A48
S1132350F92A34FBCC24C0F8D12CC601880F991F6C
S1132360E82AF92A45FBAA24A0F8B12CC501880F54
S1132370991F880F991F880F991F8E299F290397EA
S113238084F40F2EF6E0CF2EF02D6894EE24E5F8B9
S113239005E023E030E248E062E380E00E94CB2ADB
S11323A00FC00F2EF6E0CF2EF02D6894EE24E5F842
S11323B005E023E030E248E061E080E00E94CB2ABF
S11323C061E08CE30E941B2A66E08DE30E941B2AD5
S11323D082E0E0E8F6E085838FE094E00197F1F78E
S11323E000C000000F2EF9EA2F2EF3E23F2EF02D4D
S11323F0A89580919E20882311F40C947522A9E756
S1132400B3E2ED90FC90EBE7F3E2E082F182A7E720
S1132410B3E28D919C91BFE0B89F8001B99F100DEC
S11324201124E7E7F3E210821182B701882777FDD0
S11324308095982F0E94492C4B015C01B8016E19BC
S11324407F09882777FD8095982F0E94492C2EEAD2
S113245037E441EE5DE30E94D52C9B01AC01C5013C
S1132460B4010E944A2B0E94162C6B017C01A9E73F
S1132470B3E26D937C93EEEFF3E200811181A0E06F
S1132480B4E20D931C93ECEFF3E280819181FFE0C1
S1132490F89F5001F99FB00C1124ACEFB3E21D92E8
S11324A01C92B801882777FD8095982F0E94492CAB
S11324B02B013C01B501601B710B882777FD8095CA
S11324C0982F0E94492C2EEA37E441EE5DE30E94E6
S11324D0D52C9B01AC01C301B2010E944A2B0E947E
S11324E0162C6D837E838F839887EEEFF3E26083EF
S11324F07183A2E1B4E20D911C91E4E1F4E2008362
S11325001183A0E1B4E28D919C91BFE0B89F3001AA
S1132510B99F700C1124E0E1F4E210821182B80139
S1132520882777FD8095982F0E94492C4B015C01E8
S1132530B301601B710B882777FD8095982F0E944B
S1132540492C2EEA37E441EE5DE30E94D52C9B0131
S1132550AC01C501B4010E944A2B0E94162C698B60
S11325607A8B8B8B9C8BA2E1B4E26D937C93EBEA28
S1132570F3E200811181ADEAB3E20D931C93F10102
S113258080819181FFE0F89F3001F99F700C112444
S1132590D1011D921C92B801882777FD8095982F50
S11325A00E94492C4B015C01B301601B710B88270D
S11325B077FD8095982F0E94492C2EEA37E441EE4E
S11325C05DE30E94D52C9B01AC01C501B4010E94BE
S11325D04A2B0E94162C6D8B7E8B8F8B988FEBEA87
S11325E0F3E260837183A8E0B6E09C918C912C9116
S11325F04C91221F2227221F30E0220F331F220F6B
S1132600331F96FB992790F9998F1A8EE98DFA8DCD
S11326102E2B3F2B829581708B8F1C8E8B8D9C8DE6
S1132620880F991F282B392B45FB442740F94D8FE0
S11326301E8E8D8D9E8D880F991F880F991F880F70
S1132640991F282B392B17E1129FC001139F900D5E
S11326501124FC01EC54FF4D648970E080E090E0AB
S11326600E94472C20E030E048EC52E40E94AE2B5C
S113267069837A838B839C836093222470932324BD
S11326808093242490932524A8E0B6E09C918C9117
S11326902C914C91221F2227221F30E0220F331F3E
S11326A0220F331F96FB992790F99F8F18A2EF8D65
S11326B0F8A12E2B3F2B8295817089A31AA289A1A0
S11326C09AA1880F991F282B392B45FB442740F9E1
S11326D04BA31CA28BA19CA1880F991F880F991F43
S11326E0880F991F282B392B129FC001139F900D1F
S11326F01124FC01EC54FF4D658970E080E090E00A
S11327000E94472C20E030E048EC52E40E94AE2BBB
S113271069877A878B879C876093BA237093BB23DE
S11327208093BC239093BD23A8E0B6E09C918C9148
S11327302C914C91221F2227221F30E0220F331F9D
S1132740220F331F96FB992790F99DA31EA2EDA19A
S1132750FEA12E2B3F2B829581708FA318A68FA1EB
S113276098A5880F991F282B392B45FB442740F93E
S113277049A71AA689A59AA5880F991F880F991F9A
S1132780880F991F282B392B129FC001139F900D7E
S11327901124FC01EC54FF4D668970E080E090E068
S11327A00E94472C20E030E048EC52E40E94AE2B1B
S11327B06D877E878F87988B6093CA217093CB2116
S11327C08093CC219093CD2110929E20A8E0B6E076
S11327D06C915C917C914C919C918C912C91EC919D
S11327E0221F2227221F30E0220F331F220F331F04
S11327F096FB992790F99BA71CA6ABA5BCA52A2BF1
S11328003B2B829581708DA71EA68DA59EA5880F52
S1132810991F282B392BE5FBEE27E0F9EFA718AA1F
S11328208FA598A9880F991F880F991F880F991F42
S1132830282B392B129FC001139F900D1124FC01EA
S1132840EC54FF4DB181BAAB19AA771F7727771FD4
S1132850872F90E0880F991F880F991F66FB6627C2
S113286060F96BAB1CAAEBA9FCA98E2B9F2B52958C
S113287051705DAB1EAA2DA93EA9220F331F822BD6
S1132880932B45FB442740F94FAB18AE2FA938AD25
S1132890220F331F220F331F220F331F822B932B40
S11328A0189FA001199F500D1124FA01EC54FF4DFB
S11328B02381348169A97AA9262B372B48E2429FC8
S11328C0C001439F900D11245C01AC18BD08809198
S11328D07D2390917E23D501A81BB90B9D01220F66
S11328E0331F8D01000F111F000F111F000F111F47
S11328F0020F131FC801C1968336910548F00136B3
S1132900B9E01B0744F4003AE6EF1E073CF008C0A8
S113291000E010E005C000E010E002C000E010E0BC
S1132920B501882777FD8095982F0E94492C6B016B
S11329307C019B01AC0169817A818B819C810E941D
S1132940D52C0E94162CC351DF4F688379838A8368
S11329509B83CD5ED0406091812370918223882730
S113296077FD8095982F0E94492C2B013C01A701EB
S1132970960169857A858B859C850E94D52C2AE0F1
S113298037ED43EA5CE30E94D52C9B01AC01C30103
S1132990B2010E944A2B0E94162C609381237093EB
S11329A08223693771053CF088E790E080938123A6
S11329B0909382230AC06035FBEF7F0734F488E8E4
S11329C09FEF8093812390938223C351DF4F8881AB
S11329D09981CD5ED0408038910514F08FE790E066
S11329E0BC0181382FEF920714F461E87FEF8090E7
S11329F0812390908223680D791D882777FD809527
S1132A00982F0E94492C6B017C01B801882777FD1F
S1132A108095982F0E94492C9B01AC016D857E8581
S1132A208F8598890E94D52C9B01AC01C701B60102
S1132A300E944A2B0E94162C6038710514F06FE72F
S1132A4070E0A0927D23B0927E2300937F231093A5
S1132A508023CB0161383FEF730714F481E89FEFC3
S1132A6080938523A8E0B6E06C915C917C914C91B5
S1132A709C918C912C91EC91221F2227221F30E0F3
S1132A80220F331F220F331F96FB992790F999AF1A
S1132A901AAEA9ADBAAD2A2B3B2B829581708BAFB0
S1132AA01CAE8BAD9CAD880F991F282B392BE5FBF1
S1132AB0EE27E0F9EDAF1EAE8DAD9EAD880F991FE8
S1132AC0880F991F880F991F282B392BF7E1F29F44
S1132AD0C001F39F900D1124DC01AC54BF4D159639
S1132AE0EC912196EFAF21971FAE771F7727771FC1
S1132AF0872F90E0880F991F880F991F66FB662720
S1132B0060F922966FAF229723961FAE23972396E0
S1132B102EAD3FAD2397822B932B52955170249663
S1132B205FAF249725961FAE259725962EAD3FAD12
S1132B302597220F331F822B932B45FB442740F903
S1132B4026964FAF269727961FAE279727962EAD2A
S1132B503FAD2797220F331F220F331F220F331F3E
S1132B60822B932BF89FA001F99F500D1124FA0199
S1132B70EC54FF4D2781308521966EAD7FAD2197B2
S1132B80262B372B48E2429FC001439F900D11240E
S1132B905C01AD81BE81AA1ABB0A80910224909186
S1132BA00324F501E81BF90B9F01220F331F8F014A
S1132BB0000F111F000F111F000F111F020F131F11
S1132BC0C801C1968336910548F00136F9E01F0724
S1132BD044F4003A26EF12073CF008C000E010E08D
S1132BE005C000E010E002C000E010E0B501882755
S1132BF077FD8095982F0E94492C6B017C019B01E5
S1132C00AC0169817A818B819C810E94D52C0E94C0
S1132C10162C6D837E838F83988760910624709130
S1132C200724882777FD8095982F0E94492C2B0133
S1132C303C01A701960169857A858B859C850E9454
S1132C40D52C2AE037ED43EA5CE30E94D52C9B01A6
S1132C50AC01C301B2010E944A2B0E94162C60935E
S1132C60062470930724693771053CF088E790E0E7
S1132C7080930624909307240AC060355BEF7507A0
S1132C8034F488E89FEF80930624909307248D8181
S1132C909E818038910514F08FE790E0BC01613883
S1132CA08FEF780714F461E87FEF8090062490900A
S1132CB00724680D791D882777FD8095982F0E9439
S1132CC0492C6B017C01B801882777FD8095982FEA
S1132CD00E94492C9B01AC016D857E858F85988966
S1132CE00E94D52C9B01AC01C701B6010E944A2B5E
S1132CF00E94162C6038710514F06FE770E0A09202
S1132D000224B09203240093042410930524CB01DD
S1132D106138AFEF7A0714F481E89FEF80930A24B7
S1132D20E8E0F6E06081508170814081908180818B
S1132D302081E081221F2227221F30E0220F331F2F
S1132D40220F331F96FB992790F928969FAF289757
S1132D5029961FAE29972996AEADBFAD29972A2B88
S1132D603B2B829581702A968FAF2A972B961FAEA4
S1132D702B972B968EAD9FAD2B97880F991F282BE1
S1132D80392BE5FBEE27E0F92C96EFAF2C972D9627
S1132D901FAE2D972D968EAD9FAD2D97880F991F41
S1132DA0880F991F880F991F282B392BF7E1F29F61
S1132DB0C001F39F900D1124DC01AC54BF4D199652
S1132DC0EC912F96EFAF2F972E961FAE2E97771F6D
S1132DD07727771F872F90E0880F991F880F991FF7
S1132DE066FB662760F960966FAF609761961FAEC9
S1132DF0619761962EAD3FAD6197822B932B5295CF
S1132E00517062965FAF629763961FAE6397639645
S1132E102EAD3FAD6397220F331F822B932B45FBBF
S1132E20442740F964964FAF649765961FAE659743
S1132E3065962EAD3FAD6597220F331F220F331FCA
S1132E40220F331F822B932BF89FA001F99F500D63
S1132E501124FA01EC54FF4D238534852F966EAD71
S1132E607FAD2F97262B372B48E2429FC001439F0B
S1132E70900D11245C01A989BA89AA1ABB0A809110
S1132E80162490911724F501E81BF90B9F01220FDA
S1132E90331F8F01000F111F000F111F000F111F8F
S1132EA0020F131FC801C1968336910548F00136FD
S1132EB0F9E01F0744F4003A26EF12073CF008C07B
S1132EC000E010E005C000E010E002C000E010E007
S1132ED0B501882777FD8095982F0E94492C6B01B6
S1132EE07C019B01AC0169817A818B819C810E9468
S1132EF0D52C0E94162C6D837E838F8398876091D6
S1132F001A2470911B24882777FD8095982F0E949E
S1132F10492C2B013C01A701960169857A858B8593
S1132F209C850E94D52C2AE037ED43EA5CE30E949D
S1132F30D52C9B01AC01C301B2010E944A2B0E9413
S1132F40162C60931A2470931B24693771053CF086
S1132F5088E790E080931A2490931B240AC060357C
S1132F605BEF750734F488E89FEF80931A249093FD
S1132F701B248D819E818038910514F08FE790E0A9
S1132F80BC0161388FEF780714F461E87FEF80901B
S1132F901A2490901B24680D791D882777FD80954D
S1132FA0982F0E94492C6B017C01B801882777FD7A
S1132FB08095982F0E94492C9B01AC016D857E85DC
S1132FC08F8598890E94D52C9B01AC01C701B6015D
S1132FD00E944A2B0E94162C6038710514F06FE78A
S1132FE070E0A0921624B092172400931824109332
S1132FF01924CB016138AFEF7A0714F481E89FEF0D
S113300080931E24E8E0F6E0608150817081408165
S1133010908180812081E081221F2227221F30E0BD
S1133020220F331F220F331F96FB992790F96696C0
S11330309FAF669767961FAE67976796AEADBFADB5
S113304067972A2B3B2B8295817068968FAF689780
S113305069961FAE699769968EAD9FAD6997880F83
S1133060991F282B392BE5FBEE27E0F96A96EFAF81
S11330706A976B961FAE6B976B968EAD9FAD6B97F1
S1133080880F991F880F991F880F991F282B392B98
S1133090F7E1F29FC001F39F900D1124DC01AC54C1
S11330A0BF4D1D96EC916D96EFAF6D976C961FAE6C
S11330B06C97771F7727771F872F90E0880F991FCA
S11330C0880F991F66FB662760F96E966FAF6E973F
S11330D06F961FAE6F976F962EAD3FAD6F97822B95
S11330E0932B52955170A0965FAFA097A1961FAEF7
S11330F0A197A1962EAD3FADA197220F331F822B2E
S1133100932B45FB442740F9A2964FAFA297A39671
S11331101FAEA397A3962EAD3FADA397220F331FE7
S1133120220F331F220F331F822B932BF89FA001F2
S1133130F99F500D1124FA01EC54FF4D2785308975
S11331406D966EAD7FAD6D97262B372B48E2429F6F
S1133150C001439F900D11245C01AD89BE89AA1A58
S1133160BB0AF101868197819501281B390BC9019E
S1133170220F331F8C01000F111F000F111F000FAE
S1133180111F020F131FC801C1968336910548F021
S1133190013639E0130744F4003A56EF15073CF0C2
S11331A008C000E010E005C000E010E002C000E04C
S11331B010E0B501882777FD8095982F0E94492C4F
S11331C06B017C019B01AC0169817A818B819C81BB
S11331D00E94D52C0E94162C69837A838B839C834E
S11331E0D1011A966D917C911B97882777FD809564
S11331F0982F0E94492C2B013C01A7019601698557
S11332007A858B859C850E94D52C2AE037ED43EA8C
S11332105CE30E94D52C9B01AC01C301B2010E9466
S11332204A2B0E94162CF101628773876937710556
S11332302CF088E790E0828793870BC06035FBEF22
S11332407F073CF488E89FEFD1011A968D939C93F5
S11332501B9789819A818038910514F08FE790E05B
S1133260BC018138BFEF9B0714F461E87FEFF101E3
S113327082849384680D791D882777FD8095982F23
S11332800E94492C6B017C01B801882777FD809549
S1133290982F0E94492C9B01AC016D857E858F85FA
S11332A098890E94D52C9B01AC01C701B6010E94EC
S11332B04A2B0E94162C6038710514F06FE770E0F9
S11332C0D1011696AD92BC92179718960D931C9344
S11332D01997CB016138BFEF7B0714F481E89FEFA6
S11332E08093B7236AE280EA9BE00E94720E6EE745
S11332F080EA9BE00E94720E6091852380EA9BE045
S11333000E94720E60910A2480EA9BE00E94720E71
S113331060911E2480EA9BE00E94720E6091B723A4
S113332080EA9BE00E94720E63E280EA9BE00E94C6
S1133330720E2FB7F894E0E0F2E084A195A12FBFBC
S11333408093A7209093A820893D94403CF4E0E426
S1133350F6E080E4858384E0858306C0E0E4F6E05B
S113336080E4868384E0868360E080E00E947B02C0
S1133370A8E0B6E06C915C917C914C911C91FC911D
S11333808C91EC9190918523292F332727FD30953B
S11333903F939F93881F8827881F90E0880F991F69
S11333A0880F991F16FB112710F9A4961FAFA49735
S11333B0A5961FAEA597A5962EAD3FADA597822BDA
S11333C0932BF295F170A696FFAFA697A7961FAE22
S11333D0A797A7962EAD3FADA797220F331F822B39
S11333E0932BE5FBEE27E0F9A896EFAFA897A996F3
S11333F01FAEA997A9962EAD3FADA997220F331FF3
S1133400220F331F220F331F822B932B0F2EF7E132
S1133410FF2EF02DF89EF001F99EF00D1124EC54CE
S1133420FF4D3181AB963FAFAB97AA961FAEAA97DB
S1133430771F7727771F272F30E0220F331F220FA4
S1133440331F66FB662760F9AC966FAFAC97AD96F9
S11334501FAEAD97AD966EAD7FADAD97262B372BD6
S113346052955170AE965FAFAE97AF961FAEAF97C1
S1133470AF968EAD9FADAF97880F991F822B932B7C
S113348045FB442740F9E0964FAFE097E1961FAE25
S1133490E197E1962EAD3FADE197220F331F220F46
S11334A0331F220F331F822B932BF89EA001F99E0A
S11334B0500D1124FA01EC54FF4D83819481AB9695
S11334C0AEADBFADAB978A2B9B2B9F938F938CE3B1
S11334D090E29F938F930FEC13E21F930F930E943C
S11334E0382DC8010E946C0261E080E00E947B02DA
S11334F080917A238F93E9E7F3E280818F9384E4C8
S113350090E29F938F931F930F930E94382DC801CD
S11335100E946C02A8E0B6E09C918C912C914C9195
S1133520221F2227221F30E0220F331F220F331FB6
S113353096FB992790F9E2969FAFE297E3961FAE28
S1133540E397E396EEADFFADE3972E2B3F2B8295E9
S11335508170E4968FAFE497E5961FAEE597E59604
S11335608EAD9FADE597880F991F282B392B45FB0E
S1133570442740F9E6964FAFE697E7961FAEE797E4
S1133580E7968EAD9FADE797880F991F880F991F17
S1133590880F991F282B392BF29EC001F39E900DA2
S11335A01124FC01EC54FF4DCDBFDEBF818988237B
S11335B009F460C03C912C918C914C91881F882710
S11335C0881F90E0880F991F880F991F36FB3327B7
S11335D030F9CF50DF4F3883C15FD040CE50DF4F3A
S11335E01882C25FD040CF50DF4F68817981C15FBC
S11335F0D040862B972B22952170CD50DF4F288306
S1133600C35FD040CC50DF4F1882C45FD040CD5050
S1133610DF4F28813981C35FD040220F331F822BB3
S1133620932B45FB442740F9CB50DF4F4883C55FBC
S1133630D040CA50DF4F1882C65FD040CB50DF4F16
S113364028813981C55FD040220F331F220F331FD9
S1133650220F331F822B932B27E1289FF001299FF0
S1133660F00D1124EC54FF4D818990E08093A52046
S11336709093A620A8E0B6E03C912C918C914C91BB
S1133680881F8827881F90E0880F991F880F991F2B
S113369036FB332730F9E8963FAFE897E9961FAE3B
S11336A0E997E996EEADFFADE9978E2B9F2B229516
S11336B02170EA962FAFEA97EB961FAEEB97EB9645
S11336C02EAD3FADEB97220F331F822B932B45FB7F
S11336D0442740F9EC964FAFEC97ED961FAEED976B
S11336E0ED962EAD3FADED97220F331F220F331F02
S11336F0220F331F822B932B27E1289FF001299F50
S1133700F00D1124EC54FF4D8289882319F0E0E672
S1133710F6E08085E0E0F6E0808582FF18C0E0E214
S1133720F6E084818064848384E690E080932A08B0
S113373090932B08FFEF23EC39E0F1502040304008
S1133740E1F700C0000010922A0810922B08A8E0AC
S1133750B6E07C915C91BC91E8E0F6E04081308178
S1133760208180816081881F8827881F90E0880FCE
S1133770991F880F991F36FB332730F9EE963FAF18
S1133780EE97EF961FAEEF97EF96EEADFFADEF9786
S11337908E2B9F2B22952170C158DF4F2883CF5742
S11337A0D040C058DF4F1882C058D040C158DF4FB6
S11337B028813981CF57D040220F331F822B932B7E
S11337C065FB662760F9CF57DF4F6883C158D04047
S11337D0CE57DF4F1882C258D040CF57DF4F2881D1
S11337E03981C158D040220F331F220F331F220FBB
S11337F0331F822B932B67E1689FF001699FF00DC3
S11338001124EC54FF4D2181CC57DF4F2883C45839
S1133810D040CD57DF4F1882C358D040AB2FAA1FDA
S1133820AA27AA1FB0E0AA0FBB1FAA0FBB1F76FBD3
S1133830772770F9CB57DF4F7883C558D040CA57E4
S1133840DF4F1882C658D040CB57DF4F888199810B
S1133850C558D040A82BB92B52955170C957DF4F8A
S11338605883C758D040C857DF4F1882C858D04033
S1133870C957DF4F88819981C758D040880F991F55
S11338808A2B9B2B45FB442740F9C757DF4F4883BE
S1133890C958D040C657DF4F1882CA58D040C757BE
S11338A0DF4FA881B981C958D040AA0FBB1FAA0F06
S11338B0BB1FAA0FBB1F8A2B9B2B689F9001699F7C
S11338C0300D1124F901EC54FF4D83819481CD57BF
S11338D0DF4FA881B981C358D0408A2B9B2B78E253
S11338E0879F802D112480938723E8E0F6E01081E0
S11338F0F081A8E0B6E08C91EC913C912C914C9134
S11339009C91441F4427441F50E0440F551F440F0B
S1133910551F36FB332730F9C557DF4F3883CB5853
S1133920D040C457DF4F1882CC58D040C557DF4F22
S1133930A881B981CB58D0404A2B5B2B22952170AA
S1133940C357DF4F2883CD58D040C257DF4F18826A
S1133950CE58D040C357DF4F28813981CD58D0404D
S1133960220F331F422B532B95FB992790F9C157F4
S1133970DF4F9883CF58D040C057DF4F1882C059CB
S1133980D040C157DF4F28813981CF58D040220F12
S1133990331F220F331F220F331F422B532B649FDD
S11339A09001659F300D11242C543F4DD90111967F
S11339B0BC91CE56DF4FB883C259D040CF56DF4FAB
S11339C01882C159D040881F8827881F90E0880F2B
S11339D0991F880F991F16FB112710F9CD56DF4F39
S11339E01883C359D040CC56DF4F1882C459D040F5
S11339F0CD56DF4F28813981C359D040822B932B78
S1133A00F295F170CB56DF4FF883C559D040CA56B2
S1133A10DF4F1882C659D040CB56DF4F28813981F9
S1133A20C559D040220F331F822B932BE5FBEE2781
S1133A30E0F9C956DF4FE883C759D040C856DF4F75
S1133A401882C859D040C956DF4F28813981C759D7
S1133A50D040220F331F220F331F220F331F822B1C
S1133A60932B689F9001699F300D1124F901EC5448
S1133A70FF4D23813481CF56DF4F88819981C1590D
S1133A80D040282B392B729FC001739F900D1124B5
S1133A9090938823A8E0B6E01C91FC918C91EC9162
S1133AA03C912C914C919C91441F4427441F50E01D
S1133AB0440F551F440F551F36FB332730F9C756A3
S1133AC0DF4F3883C959D040C656DF4F1882CA59D0
S1133AD0D040C756DF4FA881B981C959D0404A2B7D
S1133AE05B2B22952170C556DF4F2883CB59D040DC
S1133AF0C456DF4F1882CC59D040C556DF4F2881B9
S1133B003981CB59D040220F331F422B532B95FBC5
S1133B10992790F9C356DF4F9883CD59D040C256A8
S1133B20DF4F1882CE59D040C356DF4F28813981E8
S1133B30CD59D040220F331F220F331F220F331FC2
S1133B40422B532B649F9001659F300D11242C54FC
S1133B503F4DD9011596BC91C056DF4FB883C05A6A
S1133B60D040C156DF4F1882CF59D040881F8827D4
S1133B70881F90E0880F991F880F991F16FB112743
S1133B8010F9CF55DF4F1883C15AD040CE55DF4FBF
S1133B901882C25AD040CF55DF4F28813981C15A8B
S1133BA0D040822B932BF295F170CD55DF4FF883E3
S1133BB0C35AD040CC55DF4F1882C45AD040CD559B
S1133BC0DF4F28813981C35AD040220F331F822B03
S1133BD0932BE5FBEE27E0F9CB55DF4FE883C55A7D
S1133BE0D040CA55DF4F1882C65AD040CB55DF4F5C
S1133BF028813981C55AD040220F331F220F331F29
S1133C00220F331F822B932B689F9001699F300DE5
S1133C101124F901EC54FF4D87819085C156DF4F83
S1133C20A881B981CF59D0408A2B9B2B879F802DA7
S1133C30112480938923E8E0F6E01081F081A8E064
S1133C40B6E08C91EC913C912C914C919C91441F49
S1133C504427441F50E0440F551F440F551F36FBA3
S1133C60332730F9C955DF4F3883C75AD040C85578
S1133C70DF4F1882C85AD040C955DF4FA881B98197
S1133C80C75AD0404A2B5B2B22952170C755DF4F72
S1133C902883C95AD040C655DF4F1882CA5AD0402B
S1133CA0C755DF4F28813981C95AD040220F331FAD
S1133CB0422B532B95FB992790F9C555DF4F9883D9
S1133CC0CB5AD040C455DF4F1882CC5AD040C5558A
S1133CD0DF4F28813981CB5AD040220F331F220F66
S1133CE0331F220F331F422B532B649F9001659F78
S1133CF0300D11242C543F4DD9011596BC91C25559
S1133D00DF4FB883CE5AD040C355DF4F1882CD5A07
S1133D10D040881F8827881F90E0880F991F880F3C
S1133D20991F16FB112710F9C155DF4F1883CF5A7D
S1133D30D040C055DF4F1882C05BD040C155DF4F23
S1133D4028813981CF5AD040822B932BF295F17080
S1133D50CF54DF4FF883C15BD040CE54DF4F18827D
S1133D60C25BD040CF54DF4F28813981C15BD04042
S1133D70220F331F822B932BE5FBEE27E0F9CD5462
S1133D80DF4FE883C35BD040CC54DF4F1882C45B61
S1133D90D040CD54DF4F28813981C35BD040220FFE
S1133DA0331F220F331F220F331F822B932B689F45
S1133DB09001699F300D1124F901EC54FF4D2781C6
S1133DC03085C355DF4F88819981CD5AD040282B47
S1133DD0392B729FC001739F900D112490938A23F5
S1133DE0A8E0B6E01C91FC918C91EC913C912C9153
S1133DF04C919C91441F4427441F50E0440F551F8D
S1133E00440F551F36FB332730F9CB54DF4F38832B
S1133E10C55BD040CA54DF4F1882C65BD040CB5438
S1133E20DF4FA881B981C55BD0404A2B5B2B22951B
S1133E302170C954DF4F2883C75BD040C854DF4F7B
S1133E401882C85BD040C954DF4F28813981C75BD1
S1133E50D040220F331F422B532B95FB992790F907
S1133E60C754DF4F9883C95BD040C654DF4F1882D4
S1133E70CA5BD040C754DF4F28813981C95BD04029
S1133E80220F331F220F331F220F331F422B532BBA
S1133E90649F9001659F300D11242C543F4DD9012E
S1133EA01996BC91C454DF4FB883CC5BD040C55441
S1133EB0DF4F1882CB5BD040881F8827881F90E093
S1133EC0880F991F880F991F16FB112710F9C354E7
S1133ED0DF4F1883CD5BD040C254DF4F1882CE5BD6
S1133EE0D040C354DF4F28813981CD5BD040822B31
S1133EF0932BF295F170C154DF4FF883CF5BD04020
S1133F00C054DF4F1882C05CD040C154DF4F2881B9
S1133F103981CF5BD040220F331F822B932BE5FBDB
S1133F20EE27E0F9CF53DF4FE883C15CD040CE5396
S1133F30DF4F1882C25CD040CF53DF4F28813981D4
S1133F40C15CD040220F331F220F331F220F331FB7
S1133F50822B932B689F9001699F300D1124F901E6
S1133F60EC54FF4D83859485C554DF4FA881B981F6
S1133F70CB5BD0408A2B9B2B879F802D1124809371
S1133F808B23E8E0F6E01081F081A8E0B6E08C91A4
S1133F90EC913C912C914C919C91441F4427441FDB
S1133FA050E0440F551F440F551F36FB332730F99B
S1133FB0CD53DF4F3883C35CD040CC53DF4F1882DE
S1133FC0C45CD040CD53DF4FA881B981C35CD040DD
S1133FD04A2B5B2B22952170CB53DF4F2883C55C82
S1133FE0D040CA53DF4F1882C65CD040CB53DF4F5A
S1133FF028813981C55CD040220F331F422B532BBB
S113400095FB992790F9C953DF4F9883C75CD0403B
S1134010C853DF4F1882C85CD040C953DF4F288192
S11340203981C75CD040220F331F220F331F220F68
S1134030331F422B532B649F9001659F300D112435
S11340402C543F4DD9011996BC91C653DF4FB88308
S1134050CA5CD040C753DF4F1882C95CD040881F68
S11340608827881F90E0880F991F880F991F16FBD7
S1134070112710F9C553DF4F1883CB5CD040C453CC
S1134080DF4F1882CC5CD040C553DF4F2881398183
S1134090CB5CD040822B932BF295F170C353DF4F4E
S11340A0F883CD5CD040C253DF4F1882CE5CD04041
S11340B0C353DF4F28813981CD5CD040220F331F99
S11340C0822B932BE5FBEE27E0F9C153DF4FE88306
S11340D0CF5CD040C053DF4F1882C05DD040C15385
S11340E0DF4F28813981CF5CD040220F331F220F4C
S11340F0331F220F331F822B932B689F9001699FDC
S1134100300D1124F901EC54FF4D23853485C75338
S1134110DF4F88819981C95CD040282B392B729F4D
S1134120C001739F900D112490938C23A8E0B6E0F6
S11341301C91FC918C91EC913C912C914C919C9113
S1134140441F4427441F50E0440F551F440F551F7C
S113415036FB332730F9CF52DF4F3883C15DD0406F
S1134160CE52DF4F1882C25DD040CF52DF4FA881BC
S1134170B981C15DD0404A2B5B2B22952170CD5271
S1134180DF4F2883C35DD040CC52DF4F1882C45D1B
S1134190D040CD52DF4F28813981C35DD040220FFA
S11341A0331F422B532B95FB992790F9CB52DF4FAA
S11341B09883C55DD040CA52DF4F1882C65DD04097
S11341C0CB52DF4F28813981C55DD040220F331F88
S11341D0220F331F220F331F422B532B649F900156
S11341E0659F300D11242C543F4DD9011D96BC916F
S11341F0C852DF4FB883C85DD040C952DF4F188220
S1134200C75DD040881F8827881F90E0880F991FBA
S1134210880F991F16FB112710F9C752DF4F188317
S1134220C95DD040C652DF4F1882CA5DD040C75224
S1134230DF4F28813981C95DD040822B932BF295C1
S1134240F170C552DF4FF883CB5DD040C452DF4FCD
S11342501882CC5DD040C552DF4F28813981CB5DB7
S1134260D040220F331F822B932BE5FBEE27E0F97E
S1134270C352DF4FE883CD5DD040C252DF4F188276
S1134280CE5DD040C352DF4F28813981CD5DD0400F
S1134290220F331F220F331F220F331F822B932B26
S11342A0689F9001699F300D1124F901EC54FF4D72
S11342B087859089C952DF4FA881B981C75DD040F5
S11342C08A2B9B2B879F802D112480938D23E8E0DC
S11342D0F6E01081F081A8E0B6E08C91EC913C917D
S11342E02C914C919C91441F4427441F50E0440F4F
S11342F0551F440F551F36FB332730F9C152DF4F8A
S11343003883CF5DD040C052DF4F1882C05ED040AA
S1134310C152DF4FA881B981CF5DD0404A2B5B2BBE
S113432022952170CF51DF4F2883C15ED040CE51FA
S1134330DF4F1882C25ED040CF51DF4F28813981D0
S1134340C15ED040220F331F422B532B95FB99277C
S113435090F9CD51DF4F9883C35ED040CC51DF4FED
S11343601882C45ED040CD51DF4F28813981C35EAD
S1134370D040220F331F220F331F220F331F422B33
S1134380532B649F9001659F300D11242C543F4D95
S1134390D9011D96BC91CA51DF4FB883C65ED04087
S11343A0CB51DF4F1882C55ED040881F8827881FF5
S11343B090E0880F991F880F991F16FB112710F999
S11343C0C951DF4F1883C75ED040C851DF4F1882F0
S11343D0C85ED040C951DF4F28813981C75ED040C3
S11343E0822B932BF295F170C751DF4FF883C95E8E
S11343F0D040C651DF4F1882CA5ED040C751DF4F4C
S113440028813981C95ED040220F331F822B932B20
S1134410E5FBEE27E0F9C551DF4FE883CB5ED040E2
S1134420C451DF4F1882CC5ED040C551DF4F288184
S11344303981CB5ED040220F331F220F331F220F4E
S1134440331F822B932B689F9001699F300D112499
S1134450F901EC54FF4D27853089CB51DF4F88811A
S11344609981C55ED040282B392B729FC001739F60
S1134470900D112490938E23A9E7B3E29C9180912F
S11344807A2390938F2380939023EEEFF3E290812D
S11344908091FF239093912380939223A2E1B4E22D
S11344A09C91809113249093932380939423EBEA1B
S11344B0F3E290818091AC2390939523809396238B
S11344C08091A7209091A82095958795959587959B
S11344D095958795959587958093972360E270E0ED
S11344E087E893E20E94062B81D7FAE0FA95F1F768
S11344F000C00C94F8111F920F920FB60F92112462
S113450008B60F9218BE09B60F9219BE0AB60F92DA
S11345101ABE0BB60F921BBE2F923F924F925F9220
S11345207F928F929F92AF92BF92CF92DF92EF923F
S1134530FF920F931F932F933F934F935F936F9328
S11345407F938F939F93AF93BF93EF93FF93CF93F7
S1134550DF93CDB7DEB7C455D109CDBFDEBF60E769
S113456087E269D7782E86FFF6C388E0E0E6F6E0B6
S1134570878360E270E087E493E2B2D70F2EF7E41A
S11345808F2EF3E29F2EF02DD4016D914D0180EA20
S11345909AE00E94720EB7E68B16B3E29B06A1F76F
S11345A040914723E8E0F6E07081608120815081EA
S11345B0842F90E0221F2227221F30E0220F331F76
S11345C0220F331F76FBCC24C0F8D12CC22AD32A65
S11345D064FBEE24E0F8F12CEE0CFF1CCE28DF285F
S11345E055FB002700F910E09801220F331F220F1A
S11345F0331F220F331F8601022B132B80179107C1
S113460009F0A9C31092A9201092AA2050813081E8
S113461080812081881F8827881F90E0880F991F38
S1134620880F991F56FBAA24A0F8B12CA82AB92AEE
S11346303295317039831A8289819A81880F991F42
S1134640A82AB92A25FB442440F8512CC201880F1A
S1134650991F880F991F880F991F2501482A592AE5
S113466057E1549DD001559DB00D1124AC54BF4D5C
S11346704C934081308180812081881F8827881F46
S113468090E0880F991F880F991F46FB222420F879
S1134690312C282A392A329531703B831C828B8134
S11346A09C81880F991F282A392A25FB222720F963
S11346B02D831E828D819E81880F991F880F991FDB
S11346C0880F991F282A392A529DD001539DB00D75
S11346D01124AC54BF4D8091482390E011968D93E2
S11346E09C9312973081208180814081881F882784
S11346F0881F90E0880F991F880F991F36FB332776
S113470030F93F8318866F817885862B972B229505
S1134710217029871A8629853A85220F331F822B17
S1134720932B45FB442740F94B871C862B853C85FE
S1134730220F331F220F331F220F331F822B932B81
S1134740589FD001599FB00D1124AC54BF4D809196
S1134750492390E013968D939C9314973081208184
S113476080814081881F8827881F90E0880F991FC7
S1134770880F991F36FB332730F93D871E86AD8598
S1134780BE858A2B9B2B229521702F87188A2F8513
S11347903889220F331F822B932B45FB442740F982
S11347A0498B1A8A29893A89220F331F220F331F12
S11347B0220F331F822B932B589FD001599FB00D8A
S11347C01124AC54BF4D80914A2390E015968D93EB
S11347D09C9316973081208180814081881F88278F
S11347E0881F90E0880F991F880F991F36FB332785
S11347F030F93B8B1C8A6B897C89862B972B2295FD
S113480021702D8B1E8A2D893E89220F331F822B06
S1134810932B45FB442740F94F8B188E2F89388DF5
S1134820220F331F220F331F220F331F822B932B90
S1134830589FD001599FB00D1124AC54BF4D8091A5
S11348404B2390E017968D939C9318973081208189
S113485080814081881F8827881F90E0880F991FD6
S1134860880F991F36FB332730F9398F1A8EA98D9B
S1134870BA8D8A2B9B2B229521702B8F1C8E2B8D0E
S11348803C8D220F331F822B932B45FB442740F989
S11348904D8F1E8E2D8D3E8D220F331F220F331F01
S11348A0220F331F822B932B589FD001599FB00D99
S11348B01124AC54BF4D80914C2390E019968D93F4
S11348C09C931A973081208180814081881F88279A
S11348D0881F90E0880F991F880F991F36FB332794
S11348E030F93F8F18A26F8D78A1862B972B2295D4
S11348F0217029A31AA229A13AA1220F331F822BC6
S1134900932B45FB442740F94BA31CA22BA13CA1AC
S1134910220F331F220F331F220F331F822B932B9F
S1134920589FD001599FB00D1124AC54BF4D8091B4
S11349304D2390E01B968D939C931C97308120818E
S113494080814081881F8827881F90E0880F991FE5
S1134950880F991F36FB332730F93DA31EA2ADA162
S1134960BEA18A2B9B2B229521702FA318A62FA1C1
S113497038A5220F331F822B932B45FB442740F984
S113498049A71AA629A53AA5220F331F220F331FC0
S1134990220F331F822B932B589FD001599FB00DA8
S11349A01124AC54BF4D80914E2390E01D968D93FD
S11349B09C931E973081208180814081881F8827A5
S11349C0881F90E0880F991F880F991F36FB3327A3
S11349D030F93BA71CA66BA57CA5862B972B2295AB
S11349E021702DA71EA62DA53EA5220F331F822BB5
S11349F0932B45FB442740F94FA718AA2FA538A9A4
S1134A00220F331F220F331F220F331F822B932BAE
S1134A10589FD001599FB00D1124AC54BF4D8091C3
S1134A204F2390E01F968D939C9350973081208163
S1134A3080814081881F8827881F90E0880F991FF4
S1134A40880F991F36FB332730F939AB1AAAA9A965
S1134A50BAA98A2B9B2B229521702BAB1CAA2BA9BC
S1134A603CA9220F331F822B932B45FB442740F98B
S1134A704DAB1EAA2DA93EA9220F331F220F331FAF
S1134A80220F331F822B932B589FD001599FB00DB7
S1134A901124AC54BF4D8091502351968C93308196
S1134AA0208180814081881F8827881F90E0880F9B
S1134AB0991F880F991F36FB332730F93FAB18AE87
S1134AC06FA978AD862B972B2295217029AF1AAE4A
S1134AD029AD3AAD220F331F822B932B45FB44277C
S1134AE040F94BAF1CAE2BAD3CAD220F331F220F50
S1134AF0331F220F331F822B932B589FD001599FB2
S1134B00B00D1124AC54BF4D8091512352968C9317
S1134B103081208180814081881F8827881F90E010
S1134B20880F991F880F991F36FB332730F93DAF43
S1134B301EAEADADBEAD8A2B9B2B229521702FAF3F
S1134B4021961FAE219721962EAD3FAD2197220FBE
S1134B50331F822B932B45FB442740F922964FAFFA
S1134B60229723961FAE239723962EAD3FAD23970E
S1134B70220F331F220F331F220F331F822B932B3D
S1134B80589FD001599FB00D1124AC54BF4D809152
S1134B90522353968C933081208180814081881FD9
S1134BA08827881F90E0880F991F880F991F36FB6C
S1134BB0332730F924963FAF249725961FAE2597C7
S1134BC025966EAD7FAD2597862B972B2295217068
S1134BD026962FAF269727961FAE279727962EAD9A
S1134BE03FAD2797220F331F822B932B45FB44277E
S1134BF040F928964FAF289729961FAE29972996F2
S1134C002EAD3FAD2997220F331F220F331F220FE2
S1134C10331F822B932B589FD001599FB00D112421
S1134C20AC54BF4D8091532354968C933081208192
S1134C3080814081881F8827881F90E0880F991FF2
S1134C40880F991F36FB332730F92A963FAF2A97EE
S1134C502B961FAE2B972B96AEADBFAD2B978A2B01
S1134C609B2B229521702C962FAF2C972D961FAE3F
S1134C702D972D962EAD3FAD2D97220F331F822BEE
S1134C80932B45FB442740F92E964FAF2E972F9632
S1134C901FAE2F972F962EAD3FAD2F97220F331FA8
S1134CA0220F331F220F331F822B932B589FD001C7
S1134CB0599FB00D1124AC54BF4D80915423559687
S1134CC08C933081208180814081881F8827881FB0
S1134CD090E0880F991F880F991F36FB332730F90E
S1134CE060963FAF609761961FAE61976196EEAD97
S1134CF0FFAD61978E2B9F2B2295217062962FAF6B
S1134D00629763961FAE639763962EAD3FAD63972C
S1134D10220F331F822B932B45FB442740F96496C3
S1134D204FAF649765961FAE659765962EAD3FAD00
S1134D306597220F331F220F331F220F331F822B3D
S1134D40932B589FF001599FF00D1124EC54FF4D03
S1134D5080915523868B75FE04C080E2E0E6F6E080
S1134D60878374FE05C084E0E0E6F6E0878353D4CD
S1134D70CC5ADF4FCDBFDEBFDF91CF91FF91EF91D2
S1134D80BF91AF919F918F917F916F915F914F915F
S1134D903F912F911F910F91FF90EF90DF90CF9053
S1134DA0BF90AF909F908F907F905F904F903F9077
S1134DB02F900F900BBE0F900ABE0F9009BE0F905C
S1134DC008BE0F900FBE0F901F9018951F920F9260
S1134DD00FB60F92112408B60F9218BE09B60F929F
S1134DE019BE0AB60F921ABE0BB60F921BBEAF9233
S1134DF0BF92DF92EF92FF920F931F932F933F93F3
S1134E004F935F936F937F938F939F93AF93BF93CE
S1134E10CF93DF93EF93FF93A89580916B238F5FDC
S1134E2080936B23843174F081E080939E201092F0
S1134E306B238091A3209091A42001968093A320BA
S1134E409093A42080919F209091A020A091A120D4
S1134E50B091A2200196A11DB11D80939F20909333
S1134E60A020A093A120B093A220E090A520F090D0
S1134E70A620E114F10409F45CC08091CE21909144
S1134E80CF21A091D021B091D1210196A11DB11DB6
S1134E908093CE219093CF21A093D021B093D121A0
S1134EA084369105A105B105E0F4A0E2B6E01496BC
S1134EB08C911497806414968C931497E0922A082A
S1134EC0F0922B0814968C911497806414968C930A
S1134ED08091A5209091A62080932808909329087A
S1134EE028C0893B9B40A105B10560F01092CE21FA
S1134EF01092CF211092D0211092D1211092A5208E
S1134F001092A62010922A0810922B08A0E2B6E074
S1134F1014968C9114978F7B14968C9314971092FB
S1134F2028081092290814968C9114978F7B149654
S1134F308C938091A9209091AA2001968093A92016
S1134F409093AA2080914820909149208130910526
S1134F5081F41092AB200E9498020E94C4028091B6
S1134F6048209091492001978093482090934920AC
S1134F7087C08230910508F101978093482090936F
S1134F8049200E94E9028091482090914920883B61
S1134F902BE0920708F074C0A0E0B0E080932C20CE
S1134FA090932D20A0932E20B0932F2088EC90E096
S1134FB080932F229093302263C0A8E0B6E0DC9067
S1134FC0EC908C91FC90881F8827881F90E0880FB4
S1134FD0991F880F991FD6FA002700F910E0082BB3
S1134FE0192BE4FAEE24E0F8CE2D80E0D82FCC0F74
S1134FF0DD1F0C2B1D2BF5FAEE27E0F9F0E0CF01B5
S1135000880F991F880F991F880F991FF801E82BA3
S1135010F92BEE0FFF1FE85FFF4D8081E0E0F7E022
S11350208483CC919C91EC918C91EE1FEE27EE1F22
S1135030F0E0EE0FFF1FEE0FFF1FC6FB662760F9BF
S113504070E0E62BF72B94FB442740F950E0440F23
S1135050551FE42BF52B85FBAA24A0F8B12C950150
S1135060220F331F220F331F220F331FE22BF32B88
S1135070EE0FFF1FE85FFF4D8081E0EEF6E08483D2
S1135080FF91EF91DF91CF91BF91AF919F918F915C
S11350907F916F915F914F913F912F911F910F914C
S11350A0FF90EF90DF90BF90AF900F900BBE0F90EA
S11350B00ABE0F9009BE0F9008BE0F900FBE0F904E
S11350C01F9018951F920F920FB60F92112408B6D5
S11350D00F9218BE0F9008BE0F900FBE0F901F9036
S11350E018951F920F920FB60F92112408B60F92C3
S11350F018BE2F933F938F939F932091FC2330915D
S1135100FD238091C80781FF03C08FEF9FEF02C08A
S113511081E090E0820F931F8093FC239093FD2302
S11351209F918F913F912F910F9008BE0F900FBECA
S11351300F901F9018951F920F920FB60F92112483
S113514008B60F9218BE2F933F938F939F9320918D
S11351507723309178238091E80684FF03C08FEF92
S11351609FEF02C081E090E0820F931F809377232A
S1135170909378239F918F913F912F910F9008BE28
S11351800F900FBE0F901F9018951F920F920FB69D
S11351900F92112408B60F9218BE2F933F938F934A
S11351A09F932091A9233091AA238091480684FFDC
S11351B003C08FEF9FEF02C081E090E0820F931F46
S11351C08093A9239093AA239F918F913F912F912C
S11351D00F9008BE0F900FBE0F901F9018951F924E
S11351E00F920FB60F92112408B60F9218BE2F9388
S11351F03F938F939F932091102430911124809199
S1135200C80782FF03C08FEF9FEF02C081E090E0E8
S1135210820F931F80931024909311249F918F9158
S11352203F912F910F9008BE0F900FBE0F901F90CB
S113523018951F920F920FB60F92112408B60F9271
S113524018BE0BB60F921BBE8F93EF93FF9384E0AF
S1135250E0E6F6E08783FF91EF918F910F900BBE0C
S11352600F9008BE0F900FBE0F901F9018951F92BD
S11352700F920FB60F92112408B60F9218BE09B6FA
S11352800F9219BE0BB60F921BBE2F933F934F93F1
S11352905F936F937F938F939F93AF93BF93EF939A
S11352A0FF938091482090914920892B89F4809123
S11352B0E8066BE470E2881F8827881F0E94890231
S11352C08091A8066AE470E2829581700E94890246
S11352D080E395E780934820909349208FEF809353
S11352E0AB200E949802FF91EF91BF91AF919F91E3
S11352F08F917F916F915F914F913F912F910F907B
S11353000BBE0F9009BE0F9008BE0F900FBE0F90FA
S11353101F9018951F920F920FB60F92112408B682
S11353200F9218BE2F938F939F932091A00B80917F
S11353309C2090919D208230910519F12CF40097C6
S113534049F0019789F048C08330910551F10497E1
S113535089F142C02A3209F03FC081E090E0809395
S11353609C2090939D2038C0822F90E08093B82396
S11353709093B92382E090E080939C2090939D20A9
S11353802BC08091B8239091B923922B8093B8239A
S11353909093B92383E090E080939C2090939D2088
S11353A01BC02093C82384E090E080939C209093BA
S11353B09D2012C0233261F48091B8239091B923C7
S11353C080936F23909370238091C8238093D52179
S11353D010929C2010929D209F918F912F910F905D
S11353E008BE0F900FBE0F901F901895E0E8F6E0EE
S11353F082E0868385838AE68A95F1F700C082E09D
S113540086830895E0ECFAE0838382818823ECF7B5
S1135410E0ECFAE0838108951F93CF93DF93C0E813
S1135420D6E010E11E83EEDF8FEFECDF1D83DF910A
S1135430CF911F910895FF920F931F93CF93DF9302
S1135440F62EC0E8D6E010E11E83DCDF082F8F2D96
S1135450D9DF1D83802FDF91CF911F910F91FF9092
S11354600895682F6F7785E2E6CF0895CF93C82F0C
S1135470682F84E2E0DF6C2F81E2DDDFCF910895B5
S113548063E083E2D8CF089560E787E2D4CF08953C
S1135490DF92EF92FF920F931F93CF93DF937B01E1
S11354A08A0190E1E0E8F6E09683ACDFD82E10168E
S11354B011064CF4E7010E0D1F1D8FEFA3DF899336
S11354C0C017D107D1F780E1E0E8F6E085838D2DA0
S11354D0DF91CF911F910F91FF90EF90DF9008958E
S11354E0AB01BC0181E6D4CF0895DF92EF92FF9225
S11354F00F931F93CF93DF937B018A0190E1E0E840
S1135500F6E096837FDFD82E1016110644F4E701E7
S11355100E0D1F1D899176DFC017D107D9F780E1E1
S1135520E0E8F6E085838D2DDF91CF911F910F91F7
S1135530FF90EF90DF900895EF92FF920F931F93E7
S1135540CF93DF93F82EEB018A01E22E82E064DF31
S113555041E050E00F2C02C0440F551F0A94E2F7BB
S1135560682F642B82E267DF81E18F0D6E2D8062EC
S113557062DF8AE08F0DA801BE018062B6DFDF9191
S1135580CF911F910F91FF90EF900895AB01BC0153
S113559080E3ABCF0895CF92DF92EF92FF920F9307
S11355A01F93CF93DF93F82ED62E142FE90180E0BA
S11355B05DDF61E081E23FDF6FE284E23CDF1160A6
S11355C0612F6C2986E237DF802F5ADF112707FD10
S11355D010952E2DA801BE0180E0AEDF8D2D41DF98
S11355E0B801CE01D3DF6F2D6A6080E224DF8FED36
S11355F09EE20197F1F700C00000DF91CF911F9167
S11356000F91FF90EF90DF90CF900895AB01BC0114
S113561080EA6BCF08951F93CF93DF93C0E8D6E061
S113562010E11E8381EEEEDE1D83DF91CF911F9189
S113563008951F93CF93DF93C0E8D6E010E11E8353
S113564082EEE0DE1D83DF91CF911F910895A1E2E8
S11356501A2EAA1BBB1BFD010DC0AA1FBB1FEE1FE8
S1135660FF1FA217B307E407F50720F0A21BB30B33
S1135670E40BF50B661F771F881F991F1A9469F7AF
S113568060957095809590959B01AC01BD01CF010B
S113569008955058BB27AA270ED04DC13ED130F0F3
S11356A043D120F031F49F3F11F41EF433C10EF4C2
S11356B0E095E7FB29C1E92F4FD180F3BA176207C0
S11356C073078407950718F071F49EF567C10EF40B
S11356D0E0950B2EBA2FA02D0B01B90190010C01FE
S11356E0CA01A0011124FF27591B99F0593F50F416
S11356F0503E68F11A16F040A22F232F342F44276E
S1135700585FF3CF469537952795A795F040539565
S1135710C9F77EF41F16BA0B620B730B840BBAF035
S11357209150A1F0FF0FBB1F661F771F881FC2F7A0
S11357300EC0BA0F621F731F841F48F487957795B4
S11357406795B795F7959E3F08F0B3CF9395880F6B
S113575008F09927EE0F9795879508950CD0EBC024
S1135760E3D040F0DAD030F021F45F3F19F0CCC040
S1135770511115C1CFC0F0D098F39923C9F3552323
S1135780B1F3951B550BBB27AA2762177307840730
S113579038F09F5F5F4F220F331F441FAA1FA9F3E6
S11357A033D00E2E3AF0E0E830D091505040E695D8
S11357B0001CCAF729D0FE2F27D0660F771F881F39
S11357C0BB1F261737074807AB07B0E809F0BB0B28
S11357D0802DBF01FF2793585F4F2AF09E3F51054C
S11357E068F092C0DCC05F3FECF3983EDCF3869532
S11357F077956795B795F7959F5FC9F7880F911DC2
S11358009695879597F90895E1E0660F771F881FAD
S1135810BB1F621773078407BA0720F0621B730B60
S1135820840BBA0BEE1F88F7E095089504D06894B2
S1135830B111B5C0089598D088F09F5790F0B92F52
S11358409927B751A0F0D1F0660F771F881F991FD1
S11358501AF0BA95C9F712C0B13081F09FD0B1E007
S113586008959CC0672F782F8827B85F39F0B93F17
S1135870CCF3869577956795B395D9F73EF49095D3
S11358808095709561957F4F8F4F9F4F0895E89451
S113589009C097FB3EF490958095709561957F4F74
S11358A08F4F9F4F9923A9F0F92F96E9BB27939522
S11358B0F695879577956795B795F111F8CFFAF432
S11358C0BB0F11F460FF1BC06F5F7F4F8F4F9F4F63
S11358D016C0882311F096E911C0772321F09EE8C1
S11358E0872F762F05C0662371F096E8862F70E027
S11358F060E02AF09A95660F771F881FDAF7880F01
S11359009695879597F9089597F99F6780E870E0D1
S113591060E008959FEF80EC089500240A94161621
S1135920170618060906089500240A941216130689
S1135930140605060895092E0394000C11F4882317
S113594052F0BB0F40F4BF2B11F460FF04C06F5F33
S11359507F4F8F4F9F4F089557FD9058440F551F09
S113596059F05F3F71F04795880F97FB991F61F0DD
S11359709F3F79F087950895121613061406551F54
S1135980F2CF4695F1DF08C0161617061806991FC0
S1135990F1CF86957105610508940895E894BB27B5
S11359A066277727CB0197F908950BD0C4CFB5DFCD
S11359B028F0BADF18F0952309F0A6CFABCF112455
S11359C0EECFCADFA0F3959FD1F3950F50E0551F9A
S11359D0629FF001729FBB27F00DB11D639FAA2740
S11359E0F00DB11DAA1F649F6627B00DA11D661F8F
S11359F0829F2227B00DA11D621F739FB00DA11DB0
S1135A00621F839FA00D611D221F749F3327A00D69
S1135A10611D231F849F600D211D822F762F6A2F05
S1135A2011249F5750408AF0E1F088234AF0EE0F8A
S1135A30FF1FBB1F661F771F881F91505040A9F797
S1135A409E3F510570F060CFAACF5F3FECF3983EC4
S1135A50DCF3869577956795B795F795E7959F5FFE
S1135A60C1F7FE2B880F911D9695879597F9089598
S1135A700F931F93CF93DF93CDB7DEB72E97CDBF90
S1135A80DEBF0E891F8986E08C8309831A838FEF1A
S1135A909FE78D839E83AE01465E5F4F688D798D4F
S1135AA0CE0101960DD0EF81F885E00FF11F108231
S1135AB02E96CDBFDEBFDF91CF911F910F91089538
S1135AC02F923F924F925F926F927F928F929F920A
S1135AD0AF92BF92CF92DF92EF92FF920F931F93F8
S1135AE0CF93DF93CDB7DEB72C97CDBFDEBF7C015C
S1135AF06B018A01FC0116821782838181FFB0C188
S1135B00CE0101964C01F7019381F60193FD859135
S1135B1093FF81916F01882309F49EC1853239F482
S1135B2093FD859193FF81916F01853221F4B70133
S1135B3090E0C4D1E8CF512C312C20E02032A0F4E5
S1135B408B3269F030F4803259F0833269F4206189
S1135B502CC08D3239F0803339F4216026C02260A4
S1135B60246023C0286021C027FD27C030ED380FF2
S1135B703A3078F426FF06C0FAE05F9E300D112417
S1135B80532E13C08AE0389E300D1124332E206228
S1135B900CC08E3221F426FD5FC1206406C08C3611
S1135BA011F4206802C0883641F4F60193FD859112
S1135BB093FF81916F018111C1CF982F9F7D9554DF
S1135BC0933028F40C5F1F4FFFE3F9830DC0833635
S1135BD031F0833771F0833509F057C021C0F801E3
S1135BE0808189830E5F1F4F44244394512C5401B8
S1135BF014C03801F2E06F0E711CF801A080B1806E
S1135C0026FF03C0652D70E002C06FEF7FEFC50172
S1135C102C8749D12C0183012C852F77222E16C085
S1135C203801F2E06F0E711CF801A080B18026FFEC
S1135C3003C0652D70E002C06FEF7FEFC5012C87B4
S1135C4027D12C012C852068222E830123FC19C026
S1135C50832D90E048165906A0F4B70180E290E045
S1135C602DD13A94F5CFF50127FC859127FE81913A
S1135C705F01B70190E022D131103A94F1E04F1A5C
S1135C8051084114510479F7DEC0843611F0893685
S1135C9031F5F80127FF07C060817181828193810A
S1135CA00C5F1F4F08C060817181882777FD809544
S1135CB0982F0E5F1F4F2F76B22E97FF09C0909535
S1135CC08095709561957F4F8F4F9F4F2068B22EBE
S1135CD02AE030E0A40124D1A82EA81843C08537B7
S1135CE029F42F7EB22E2AE030E025C0F22FF97F6E
