:10000000F9C000001DC100000C94401719C1000088
:1000100017C1000015C1000013C1000011C100008C
:100020000FC100000DC100000BC1000009C100009C
:1000300007C1000005C1000044C500007AC50000EA
:10004000B0C50000E6C500001CC6000052C6000096
:1000500088C60000BEC60000F4C600002AC7000023
:10006000EFC00000EDC00000EBC00000E9C00000E0
:10007000E7C00000E5C00000E3C00000E1C00000F0
:10008000DFC00000DDC00000DBC00000D9C0000000
:10009000D7C00000D5C00000D3C00000D1C0000010
:1000A000CFC00000CDC00000CBC000000C94F41005
:1000B000C7C00000C5C00000C3C000000C9489097F
:1000C0000C94C1090C94F9090C94310A0C94690A36
:1000D0000C94A10A0C94D90A0C94110B0C94490BA2
:1000E0000C94810BADC00000ABC00000A9C00000A3
:1000F000A7C00000A5C00000A3C00000A1C0000070
:100100009FC000009DC000009BC0000099C000007F
:1001100097C0000095C0000093C0000091C000008F
:100120008FC000008DC000008BC0000089C000009F
:1001300087C000000C946115F4C600002AC70000B7
:1001400060C7000096C70000CCC700000C94A90847
:100150000C94E1080C9419090C94510971C0000029
:100160006FC000006DC000006BC0000069C00000DF
:1001700067C0000065C000000C94EC160C946A1770
:100180000C9416170C9494175BC0000059C0000023
:100190000C94A31755C0000053C0000051C00000CC
:1001A0000C94DD164DC000004BC0000049C000009B
:1001B0000C94B90B0C94F10B0C94290C0C94610C5D
:1001C0000C94990C0C94D10C0C94090D0C94410DC9
:1001D0000C94790D0C94B10D33C000000C94EF29F0
:1001E0002FC000002DC000002BC0000029C000005F
:1001F00027C0000011241FBECFEFCDBFDFE3DEBF5D
:1002000000E00CBF18BE19BE1ABE1BBE10E2A0E073
:10021000B0E2E6EDF0E600E00BBF02C007900D9201
:10022000A635B107D9F71BBE24E2A6E5B0E201C0AE
:100230001D92AE36B207E1F70E9449180C9469305E
:10024000DFCEE4E2F6E09081A82FA170B0E0AA0F23
:10025000BB1FAA0FBB1F9B7FA92BA083908181FB93
:10026000662760F970E0660F771F62957295707F60
:100270007627607F76279F7D692B6083908182FB44
:10028000442740F950E042955295507F5427407FD3
:1002900054279F7E492B4083E4E4F6E0908183FB62
:1002A000222720F930E0220F331F22953295307F2C
:1002B0003227207F3227892F8F7D282B2083089596
:1002C000E0E2F6E0808184608083808180628083C8
:1002D000808180618083E0E4F6E0808180628083B9
:1002E0000895E0E2F6E080818B7F808380818F7DBE
:1002F000808380818F7E8083E0E4F6E080818F7D43
:1003000080830895CF93C82F8FE193E00197F1F791
:1003100000C000008C2F82958F7093DFE4E2F6E03E
:1003200080818260808380818860808395ED9A954A
:10033000F1F700008081877F808385ED8A95F1F752
:1003400000008C2F7EDFE4E2F6E08081886080830D
:1003500095ED9A95F1F700008081877F8083CF919A
:100360000895CF93C82F8FEF8C0F823038F48FE32E
:100370009CE90197F1F700C0000006C08FE39FE100
:100380000197F1F700C000008C2F82958F7059DF24
:10039000E4E2F6E080818D7F8083808188608083C5
:1003A00095ED9A95F1F700008081877F808385ED38
:1003B0008A95F1F700008C2F44DFE4E2F6E08081BB
:1003C0008860808395ED9A95F1F700008081877FA2
:1003D0008083CF910895E4E2F6E08081877F808377
:1003E00080DF2FEF87EE93E0215080409040E1F7CF
:1003F00000C0000065DF83E024DFE0E2F6E08081FA
:1004000082608083808181608083A4E2B6E08C91E9
:100410008D7F8C938C918E7F8C938081886080837C
:1004200025ED2A95F1F70000E4E2F6E0808188608E
:10043000808385ED8A95F1F700008081877F808336
:100440009FEF23EF81E0915020408040E1F700C012
:10045000000080818860808395ED9A95F1F7000017
:100460008081877F80838FE193E00197F1F700C05F
:10047000000080818860808395ED9A95F1F70000F7
:100480008081877F80838FE193E00197F1F700C03F
:10049000000082E0D6DE95ED9A95F1F70000E4E2E7
:1004A000F6E080818860808325ED2A95F1F70000D1
:1004B0008081877F80838FE193E00197F1F700C00F
:1004C000000088E24EDF88E04CDF81E04ADF86E012
:1004D00048DF8CE046CF0895CF93DF93EC0121965F
:1004E000FC018081882321F00DDF89918111FCCFEF
:1004F000DF91CF910895623031F0633031F0613097
:1005000029F4805C03C08C5E01C08C5A806829CFBE
:100510000895882339F0FB018081811107C081E0B3
:1005200080830895FB01108280E0089580E00895A3
:10053000E0E0F7E094818091B920A0910020B0E044
:10054000AA0FBB1FA85FBF4D90782C91922B9823C8
:100550009483E0EEF6E09481A0910120B0E0AA0F30
:10056000BB1FA85FBF4D90782C91922B8923848369
:100570000895809101208E3031F4809100208F30D9
:1005800011F40C94840F0895EF92FF920F931F9330
:10059000CF93DF93F12C01E010E2C0E0D0E20F2E08
:1005A000F1E1EF2EF02DF801F082E882E2DFF39422
:1005B000F0E1FF12F8CF80E18093002080930120CA
:1005C00010920220DF91CF911F910F91FF90EF9039
:1005D00008958F929F92AF92BF92CF92DF92EF9247
:1005E000FF920F931F93CF93DF938091022081306E
:1005F00009F465C020F0823009F4C2C0DFC0C0EE4B
:10060000D6E01C816091AD207091AE208091AF202A
:100610009091B02024E630E040E050E00E94A22B10
:1006200020FB17F91C8380E8E0E0F7E086839885DB
:1006300028858885388530FB882480F8912C880CA3
:10064000991C22FB222720F9822A93FBAA24A0F8D6
:10065000B12CAA0CBB1CAA0CBB1CA82881FBCC2467
:10066000C0F8D12CCC0CDD1CCC0CDD1CCC0CDD1C62
:10067000CA28C092012080E18093002059DF809138
:10068000E80669E570E2881F8827881F42DF882313
:1006900029F0E2E0F0E280818F5F80838091A806FC
:1006A00068E570E28295817034DF882309F486C0A2
:1006B00084E690E080935620909357207FC00F2EC1
:1006C000C12CF7E0DF2EF02DF601B4806091AD2053
:1006D0007091AE208091AF209091B02024E630E060
:1006E00040E050E00E94A22B20FBB7F8F601B48254
:1006F000E0EEF6E080E88583908520858085308572
:1007000030FBEE24E0F8F12CEE0CFF1C22FB22273C
:1007100020F9E22A93FB002700F910E0000F111FD7
:10072000000F111F0E2986958170C82FF0E0DF2F72
:10073000CC0FDD1FCC0FDD1FCC0FDD1FC02BC093F6
:100740000020F6DE8091E80669E570E2881F8827C0
:10075000881FDFDE882329F0E2E0F0E280818F5FEE
:1007600080838091A80668E570E282958170D1DE71
:10077000882321F1E2E0F0E28081815080831EC075
:1007800080E8E0E0F7E08583E0EEF6E08583F1DEE7
:100790008091A80668E570E282958170BADE8823B0
:1007A00069F0E2E0F0E2808181508083C0E0D0E235
:1007B00081E18883DEDE80E18883BADEDF91CF913C
:1007C0001F910F91FF90EF90DF90CF90BF90AF906F
:1007D0009F908F9008952FB7F894FC01E059FF4F38
:1007E00060958081682360832FBF08952FB7F894A8
:1007F000FC01E059FF4F8081682B60832FBF089573
:10080000811522E0920769F480915B2091E0980FB6
:1008100090935B20811114C062E081E090E0DBCF17
:1008200008958034924061F480915A2091E0980FAD
:1008300090935A20811104C062E082E090E0CBCF17
:100840000895811522E0920761F480915B20815028
:1008500080935B20811113C062E081E090E0C6CFFD
:1008600008958034924059F480915A2081508093A9
:100870005A20811104C062E082E090E0B7CF089571
:100880001F93CF93DF93EC011FB7F894B9DF8881F2
:10089000816088831FBF8FB7F894EBEBF0E2908103
:1008A0009F5F90838FBFDF91CF911F910895DF925B
:1008B000EF92FF920F931F93CF93DF93EC018B0185
:1008C000C11522E0D20771F461E270E082E0A7D0A6
:1008D000E82EF12C60E270E082E0A1D0FE2CEE2444
:1008E000E82A10C08034924059F565E270E082E059
:1008F00096D0E82EF12C64E270E082E090D0FE2CDD
:10090000EE24E82ADFB6F894CE017ADF288182E06F
:100910008883EC86FD86F80185819681888F998F82
:1009200082818A8384818C8383818B838181898383
:10093000822F81709081892B8883CE0182DFDFBE78
:10094000DF91CF911F910F91FF90EF90DF9008956D
:10095000DF92EF92FF920F931F93CF93DF937C016F
:100960008A01862F837021F46695669582E001C026
:1009700080E060FF8F5FE701A09698E0899FC00D3F
:10098000D11D1124DFB6F894C7013ADFF801808148
:10099000888382818A8381818983C70152DFDFBE98
:1009A000DF91CF911F910F91FF90EF90DF9008950D
:1009B000DF92EF92FF920F931F93CF93DF937C010F
:1009C000EA01862F837021F46695669582E001C066
:1009D00080E060FF8F5F8701005E1F4F98E0899F76
:1009E000000D111D1124DFB6F894C70109DFF801CD
:1009F0008081888382818A8381818983C70121DF05
:100A0000DFBEDF91CF911F910F91FF90EF90DF90AC
:100A100008951BBEFC0128ED24BF6083089540911A
:100A2000CA01E62FF72F8093CA0184914093CA012F
:100A30000895CF92DF92EF92FF920F931F93CF937F
:100A4000DF93EC016A017B01DB01CA010197A10977
:100A5000B109BC01CD01600F711F821F931FA70157
:100A600096010E94A22B2138310541055105F8F469
:100A7000213460F4213260F4213160F4293060F4D3
:100A8000253060F4233060F090E00BC093E009C0A3
:100A900092E007C092E805C091E003C091E801C070
:100AA00090E888818C77892B888381E001C08FEF63
:100AB000DF91CF911F910F91FF90EF90DF90CF903A
:100AC00008951F920F920FB60F92112408B60F923D
:100AD00018BE09B60F9219BE0BB60F921BBE2F930C
:100AE0003F934F935F936F937F938F939F93AF93B6
:100AF000BF93EF93FF93E091A820F091A920309746
:100B000009F01995FF91EF91BF91AF919F918F914E
:100B10007F916F915F914F913F912F910F900BBEFD
:100B20000F9009BE0F9008BE0F900FBE0F901F9040
:100B300018951F920F920FB60F92112408B60F92BC
:100B400018BE09B60F9219BE0BB60F921BBE2F939B
:100B50003F934F935F936F937F938F939F93AF9345
:100B6000BF93EF93FF93E091A620F091A7203097D9
:100B700009F01995FF91EF91BF91AF919F918F91DE
:100B80007F916F915F914F913F912F910F900BBE8D
:100B90000F9009BE0F9008BE0F900FBE0F901F90D0
:100BA00018951F920F920FB60F92112408B60F924C
:100BB00018BE09B60F9219BE0BB60F921BBE2F932B
:100BC0003F934F935F936F937F938F939F93AF93D5
:100BD000BF93EF93FF93E091A420F091A52030976D
:100BE00009F01995FF91EF91BF91AF919F918F916E
:100BF0007F916F915F914F913F912F910F900BBE1D
:100C00000F9009BE0F9008BE0F900FBE0F901F905F
:100C100018951F920F920FB60F92112408B60F92DB
:100C200018BE09B60F9219BE0BB60F921BBE2F93BA
:100C30003F934F935F936F937F938F939F93AF9364
:100C4000BF93EF93FF93E091A220F091A320309700
:100C500009F01995FF91EF91BF91AF919F918F91FD
:100C60007F916F915F914F913F912F910F900BBEAC
:100C70000F9009BE0F9008BE0F900FBE0F901F90EF
:100C800018951F920F920FB60F92112408B60F926B
:100C900018BE09B60F9219BE0BB60F921BBE2F934A
:100CA0003F934F935F936F937F938F939F93AF93F4
:100CB000BF93EF93FF93E091A020F091A120309794
:100CC00009F01995FF91EF91BF91AF919F918F918D
:100CD0007F916F915F914F913F912F910F900BBE3C
:100CE0000F9009BE0F9008BE0F900FBE0F901F907F
:100CF00018951F920F920FB60F92112408B60F92FB
:100D000018BE09B60F9219BE0BB60F921BBE2F93D9
:100D10003F934F935F936F937F938F939F93AF9383
:100D2000BF93EF93FF93E0919E20F0919F20309727
:100D300009F01995FF91EF91BF91AF919F918F911C
:100D40007F916F915F914F913F912F910F900BBECB
:100D50000F9009BE0F9008BE0F900FBE0F901F900E
:100D600018951F920F920FB60F92112408B60F928A
:100D700018BE09B60F9219BE0BB60F921BBE2F9369
:100D80003F934F935F936F937F938F939F93AF9313
:100D9000BF93EF93FF93E0919C20F0919D203097BB
:100DA00009F01995FF91EF91BF91AF919F918F91AC
:100DB0007F916F915F914F913F912F910F900BBE5B
:100DC0000F9009BE0F9008BE0F900FBE0F901F909E
:100DD00018951F920F920FB60F92112408B60F921A
:100DE00018BE09B60F9219BE0BB60F921BBE2F93F9
:100DF0003F934F935F936F937F938F939F93AF93A3
:100E0000BF93EF93FF93E0919A20F0919B2030974E
:100E100009F01995FF91EF91BF91AF919F918F913B
:100E20007F916F915F914F913F912F910F900BBEEA
:100E30000F9009BE0F9008BE0F900FBE0F901F902D
:100E400018951F920F920FB60F92112408B60F92A9
:100E500018BE09B60F9219BE0BB60F921BBE2F9388
:100E60003F934F935F936F937F938F939F93AF9332
:100E7000BF93EF93FF93E0919820F09199203097E2
:100E800009F01995FF91EF91BF91AF919F918F91CB
:100E90007F916F915F914F913F912F910F900BBE7A
:100EA0000F9009BE0F9008BE0F900FBE0F901F90BD
:100EB00018951F920F920FB60F92112408B60F9239
:100EC00018BE09B60F9219BE0BB60F921BBE2F9318
:100ED0003F934F935F936F937F938F939F93AF93C2
:100EE000BF93EF93FF93E0919620F0919720309776
:100EF00009F01995FF91EF91BF91AF919F918F915B
:100F00007F916F915F914F913F912F910F900BBE09
:100F10000F9009BE0F9008BE0F900FBE0F901F904C
:100F200018951F920F920FB60F92112408B60F92C8
:100F300018BE09B60F9219BE0BB60F921BBE2F93A7
:100F40003F934F935F936F937F938F939F93AF9351
:100F5000BF93EF93FF93E0919420F0919520309709
:100F600009F01995FF91EF91BF91AF919F918F91EA
:100F70007F916F915F914F913F912F910F900BBE99
:100F80000F9009BE0F9008BE0F900FBE0F901F90DC
:100F900018951F920F920FB60F92112408B60F9258
:100FA00018BE09B60F9219BE0BB60F921BBE2F9337
:100FB0003F934F935F936F937F938F939F93AF93E1
:100FC000BF93EF93FF93E0919220F091932030979D
:100FD00009F01995FF91EF91BF91AF919F918F917A
:100FE0007F916F915F914F913F912F910F900BBE29
:100FF0000F9009BE0F9008BE0F900FBE0F901F906C
:1010000018951F920F920FB60F92112408B60F92E7
:1010100018BE09B60F9219BE0BB60F921BBE2F93C6
:101020003F934F935F936F937F938F939F93AF9370
:10103000BF93EF93FF93E0919020F0919120309730
:1010400009F01995FF91EF91BF91AF919F918F9109
:101050007F916F915F914F913F912F910F900BBEB8
:101060000F9009BE0F9008BE0F900FBE0F901F90FB
:1010700018951F920F920FB60F92112408B60F9277
:1010800018BE09B60F9219BE0BB60F921BBE2F9356
:101090003F934F935F936F937F938F939F93AF9300
:1010A000BF93EF93FF93E0918E20F0918F203097C4
:1010B00009F01995FF91EF91BF91AF919F918F9199
:1010C0007F916F915F914F913F912F910F900BBE48
:1010D0000F9009BE0F9008BE0F900FBE0F901F908B
:1010E00018951F920F920FB60F92112408B60F9207
:1010F00018BE09B60F9219BE0BB60F921BBE2F93E6
:101100003F934F935F936F937F938F939F93AF938F
:10111000BF93EF93FF93E0918C20F0918D20309757
:1011200009F01995FF91EF91BF91AF919F918F9128
:101130007F916F915F914F913F912F910F900BBED7
:101140000F9009BE0F9008BE0F900FBE0F901F901A
:1011500018951F920F920FB60F92112408B60F9296
:1011600018BE09B60F9219BE0BB60F921BBE2F9375
:101170003F934F935F936F937F938F939F93AF931F
:10118000BF93EF93FF93E0918A20F0918B203097EB
:1011900009F01995FF91EF91BF91AF919F918F91B8
:1011A0007F916F915F914F913F912F910F900BBE67
:1011B0000F9009BE0F9008BE0F900FBE0F901F90AA
:1011C00018951F920F920FB60F92112408B60F9226
:1011D00018BE09B60F9219BE0BB60F921BBE2F9305
:1011E0003F934F935F936F937F938F939F93AF93AF
:1011F000BF93EF93FF93E0918820F091892030977F
:1012000009F01995FF91EF91BF91AF919F918F9147
:101210007F916F915F914F913F912F910F900BBEF6
:101220000F9009BE0F9008BE0F900FBE0F901F9039
:1012300018951F920F920FB60F92112408B60F92B5
:1012400018BE09B60F9219BE0BB60F921BBE2F9394
:101250003F934F935F936F937F938F939F93AF933E
:10126000BF93EF93FF93E0918620F0918720309712
:1012700009F01995FF91EF91BF91AF919F918F91D7
:101280007F916F915F914F913F912F910F900BBE86
:101290000F9009BE0F9008BE0F900FBE0F901F90C9
:1012A00018951F920F920FB60F92112408B60F9245
:1012B00018BE09B60F9219BE0BB60F921BBE2F9324
:1012C0003F934F935F936F937F938F939F93AF93CE
:1012D000BF93EF93FF93E0918420F09185203097A6
:1012E00009F01995FF91EF91BF91AF919F918F9167
:1012F0007F916F915F914F913F912F910F900BBE16
:101300000F9009BE0F9008BE0F900FBE0F901F9058
:1013100018951F920F920FB60F92112408B60F92D4
:1013200018BE09B60F9219BE0BB60F921BBE2F93B3
:101330003F934F935F936F937F938F939F93AF935D
:10134000BF93EF93FF93E0918220F0918320309739
:1013500009F01995FF91EF91BF91AF919F918F91F6
:101360007F916F915F914F913F912F910F900BBEA5
:101370000F9009BE0F9008BE0F900FBE0F901F90E8
:1013800018951F920F920FB60F92112408B60F9264
:1013900018BE09B60F9219BE0BB60F921BBE2F9343
:1013A0003F934F935F936F937F938F939F93AF93ED
:1013B000BF93EF93FF93E0918020F09181203097CD
:1013C00009F01995FF91EF91BF91AF919F918F9186
:1013D0007F916F915F914F913F912F910F900BBE35
:1013E0000F9009BE0F9008BE0F900FBE0F901F9078
:1013F00018951F920F920FB60F92112408B60F92F4
:1014000018BE09B60F9219BE0BB60F921BBE2F93D2
:101410003F934F935F936F937F938F939F93AF937C
:10142000BF93EF93FF93E0917E20F0917F20309760
:1014300009F01995FF91EF91BF91AF919F918F9115
:101440007F916F915F914F913F912F910F900BBEC4
:101450000F9009BE0F9008BE0F900FBE0F901F9007
:1014600018951F920F920FB60F92112408B60F9283
:1014700018BE09B60F9219BE0BB60F921BBE2F9362
:101480003F934F935F936F937F938F939F93AF930C
:10149000BF93EF93FF93E0917C20F0917D203097F4
:1014A00009F01995FF91EF91BF91AF919F918F91A5
:1014B0007F916F915F914F913F912F910F900BBE54
:1014C0000F9009BE0F9008BE0F900FBE0F901F9097
:1014D00018951F920F920FB60F92112408B60F9213
:1014E00018BE09B60F9219BE0BB60F921BBE2F93F2
:1014F0003F934F935F936F937F938F939F93AF939C
:10150000BF93EF93FF93E0917A20F0917B20309787
:1015100009F01995FF91EF91BF91AF919F918F9134
:101520007F916F915F914F913F912F910F900BBEE3
:101530000F9009BE0F9008BE0F900FBE0F901F9026
:1015400018951F920F920FB60F92112408B60F92A2
:1015500018BE09B60F9219BE0BB60F921BBE2F9381
:101560003F934F935F936F937F938F939F93AF932B
:10157000BF93EF93FF93E0917820F091792030971B
:1015800009F01995FF91EF91BF91AF919F918F91C4
:101590007F916F915F914F913F912F910F900BBE73
:1015A0000F9009BE0F9008BE0F900FBE0F901F90B6
:1015B00018951F920F920FB60F92112408B60F9232
:1015C00018BE09B60F9219BE0BB60F921BBE2F9311
:1015D0003F934F935F936F937F938F939F93AF93BB
:1015E000BF93EF93FF93E0917620F09177203097AF
:1015F00009F01995FF91EF91BF91AF919F918F9154
:101600007F916F915F914F913F912F910F900BBE02
:101610000F9009BE0F9008BE0F900FBE0F901F9045
:1016200018951F920F920FB60F92112408B60F92C1
:1016300018BE09B60F9219BE0BB60F921BBE2F93A0
:101640003F934F935F936F937F938F939F93AF934A
:10165000BF93EF93FF93E0917420F0917520309742
:1016600009F01995FF91EF91BF91AF919F918F91E3
:101670007F916F915F914F913F912F910F900BBE92
:101680000F9009BE0F9008BE0F900FBE0F901F90D5
:1016900018951F920F920FB60F92112408B60F9251
:1016A00018BE09B60F9219BE0BB60F921BBE2F9330
:1016B0003F934F935F936F937F938F939F93AF93DA
:1016C000BF93EF93FF93E0917220F09173203097D6
:1016D00009F01995FF91EF91BF91AF919F918F9173
:1016E0007F916F915F914F913F912F910F900BBE22
:1016F0000F9009BE0F9008BE0F900FBE0F901F9065
:1017000018951F920F920FB60F92112408B60F92E0
:1017100018BE09B60F9219BE0BB60F921BBE2F93BF
:101720003F934F935F936F937F938F939F93AF9369
:10173000BF93EF93FF93E0917020F0917120309769
:1017400009F01995FF91EF91BF91AF919F918F9102
:101750007F916F915F914F913F912F910F900BBEB1
:101760000F9009BE0F9008BE0F900FBE0F901F90F4
:1017700018951F920F920FB60F92112408B60F9270
:1017800018BE09B60F9219BE0BB60F921BBE2F934F
:101790003F934F935F936F937F938F939F93AF93F9
:1017A000BF93EF93FF93E0916E20F0916F203097FD
:1017B00009F01995FF91EF91BF91AF919F918F9192
:1017C0007F916F915F914F913F912F910F900BBE41
:1017D0000F9009BE0F9008BE0F900FBE0F901F9084
:1017E00018951F920F920FB60F92112408B60F9200
:1017F00018BE09B60F9219BE0BB60F921BBE2F93DF
:101800003F934F935F936F937F938F939F93AF9388
:10181000BF93EF93FF93E0916C20F0916D20309790
:1018200009F01995FF91EF91BF91AF919F918F9121
:101830007F916F915F914F913F912F910F900BBED0
:101840000F9009BE0F9008BE0F900FBE0F901F9013
:1018500018951F920F920FB60F92112408B60F928F
:1018600018BE09B60F9219BE0BB60F921BBE2F936E
:101870003F934F935F936F937F938F939F93AF9318
:10188000BF93EF93FF93E0916A20F0916B20309724
:1018900009F01995FF91EF91BF91AF919F918F91B1
:1018A0007F916F915F914F913F912F910F900BBE60
:1018B0000F9009BE0F9008BE0F900FBE0F901F90A3
:1018C00018951F920F920FB60F92112408B60F921F
:1018D00018BE09B60F9219BE0BB60F921BBE2F93FE
:1018E0003F934F935F936F937F938F939F93AF93A8
:1018F000BF93EF93FF93E0916820F09169203097B8
:1019000009F01995FF91EF91BF91AF919F918F9140
:101910007F916F915F914F913F912F910F900BBEEF
:101920000F9009BE0F9008BE0F900FBE0F901F9032
:1019300018951F920F920FB60F92112408B60F92AE
:1019400018BE09B60F9219BE0BB60F921BBE2F938D
:101950003F934F935F936F937F938F939F93AF9337
:10196000BF93EF93FF93E0916620F091672030974B
:1019700009F01995FF91EF91BF91AF919F918F91D0
:101980007F916F915F914F913F912F910F900BBE7F
:101990000F9009BE0F9008BE0F900FBE0F901F90C2
:1019A00018951F920F920FB60F92112408B60F923E
:1019B00018BE09B60F9219BE0BB60F921BBE2F931D
:1019C0003F934F935F936F937F938F939F93AF93C7
:1019D000BF93EF93FF93E0916420F09165203097DF
:1019E00009F01995FF91EF91BF91AF919F918F9160
:1019F0007F916F915F914F913F912F910F900BBE0F
:101A00000F9009BE0F9008BE0F900FBE0F901F9051
:101A100018951F920F920FB60F92112408B60F92CD
:101A200018BE09B60F9219BE0BB60F921BBE2F93AC
:101A30003F934F935F936F937F938F939F93AF9356
:101A4000BF93EF93FF93E0916220F0916320309772
:101A500009F01995FF91EF91BF91AF919F918F91EF
:101A60007F916F915F914F913F912F910F900BBE9E
:101A70000F9009BE0F9008BE0F900FBE0F901F90E1
:101A800018951F920F920FB60F92112408B60F925D
:101A900018BE09B60F9219BE0BB60F921BBE2F933C
:101AA0003F934F935F936F937F938F939F93AF93E6
:101AB000BF93EF93FF93E0916020F0916120309706
:101AC00009F01995FF91EF91BF91AF919F918F917F
:101AD0007F916F915F914F913F912F910F900BBE2E
:101AE0000F9009BE0F9008BE0F900FBE0F901F9071
:101AF00018951F920F920FB60F92112408B60F92ED
:101B000018BE09B60F9219BE0BB60F921BBE2F93CB
:101B10003F934F935F936F937F938F939F93AF9375
:101B2000BF93EF93FF93E0915E20F0915F20309799
:101B300009F01995FF91EF91BF91AF919F918F910E
:101B40007F916F915F914F913F912F910F900BBEBD
:101B50000F9009BE0F9008BE0F900FBE0F901F9000
:101B600018951F920F920FB60F92112408B60F927C
:101B700018BE09B60F9219BE0BB60F921BBE2F935B
:101B80003F934F935F936F937F938F939F93AF9305
:101B9000BF93EF93FF93E0915C20F0915D2030972D
:101BA00009F01995FF91EF91BF91AF919F918F919E
:101BB0007F916F915F914F913F912F910F900BBE4D
:101BC0000F9009BE0F9008BE0F900FBE0F901F9090
:101BD0001895CF93CFB7F894282F392F211588E087
:101BE000380759F461E083E090E00E94EB0364E081
:101BF00083E090E00E94EB036AC0203488E038075D
:101C000059F462E083E090E00E94EB0364E083E03B
:101C100090E00E94EB035BC0211589E0380759F47E
:101C200061E084E090E00E94EB0364E084E090E0F7
:101C30000E94EB034CC0203489E0380759F462E07D
:101C400084E090E00E94EB0364E084E090E00E9476
:101C5000EB033DC021158AE0380759F461E085E0C7
:101C600090E00E94EB0364E085E090E00E94EB03CB
:101C70002EC020348AE0380759F462E085E090E015
:101C80000E94EB0364E085E090E00E94EB031FC03C
:101C900021158BE0380759F461E086E090E00E945E
:101CA000EB0364E086E090E00E94EB0310C0203478
:101CB0003B4059F462E086E090E00E94EB0364E070
:101CC00086E090E00E94EB0302C0CFBF09C08FB74F
:101CD000F894EBEBF0E290819F5F90838FBFCFBFD2
:101CE000CF910895FC01818185FFFDCF608380E065
:101CF00090E008954F925F926F927F928F929F92A1
:101D0000AF92BF92CF92DF92EF92FF920F931F9309
:101D1000CF93DF93EC014A015B0128013901D9011E
:101D2000C801689412F8B695A7959795879516946B
:101D3000D1F7B901A801032E36E17695679557953D
:101D400047953A95D1F7302D2C8122FD08C0B695E4
:101D5000A795979587957695679557954795881593
:101D60009905AA05BB0508F4A6C084169506A60623
:101D7000B70608F4A2C08C8182FD04C0880C991CAF
:101D8000AA1CBB1CC301B201A50194010E94A22B95
:101D90002F3F31054105510508F491C0C12CD12CCC
:101DA0007601CA9419EF05C02C153D054E055F0557
:101DB00068F0CC0CDD1CEE1CFF1C1D3F14F4689475
:101DC000C0F81F5F173081F7212F50C0212F11233A
:101DD0000CF04CC0D501C401880F991FAA1FBB1F6E
:101DE000880F991FAA1FBB1F880F991FAA1FBB1F0F
:101DF000481A590A6A0A7B0A1E3FF4F46DEF7FEF16
:101E0000611B710917FD739504C0440C551C661CB9
:101E1000771C6A95D2F7D501C401B695A795979519
:101E20008795BC01CD01640D751D861D971DA5010B
:101E300094010E94A22B36C023E0210FD501C401DA
:101E400004C0880F991FAA1FBB1F2A95D2F79C01B7
:101E5000AD01B695A79597958795BC01CD01640D09
:101E6000751D861D971D0E94A22B1CC02D5FD501DC
:101E7000C40104C0880F991FAA1FBB1F2A95D2F75F
:101E80009C01AD01B695A79597958795BC01CD01AD
:101E9000640D751D861D971D0E94A22B21503109CE
:101EA00041095109832F8F701295107F182B1F83C2
:101EB0002E8381E018C080E016C080E014C0D501F8
:101EC000C401880F991FAA1FBB1F880F991FAA1F43
:101ED000BB1F880F991FAA1FBB1F481A590A6A0AFD
:101EE0007B0A19EF8BCFDF91CF911F910F91FF905C
:101EF000EF90DF90CF90BF90AF909F908F907F90AA
:101F00006F905F904F90089563E080E890E00E94AA
:101F10000905E0E8F0E0828180FDFDCF6BE281E819
:101F200090E00E940905E0E8F0E0828180FDFDCFAD
:101F3000A895FFCFE0E5F0E0808182608083E1E555
:101F4000F0E0808181FFFDCF88ED84BF81E0809348
:101F50004000E0E5F0E08081827E8083089580E4A7
:101F60008093210687E4809341061092530681E016
:101F70008093490698E090934A062EE220936106EA
:101F80002AEB20938106E0E9F6E02081226020839D
:101F9000E9E8F6E0208121602083EAE8F6E020818C
:101FA0002160208320E12093AA069093A1069093BC
:101FB000A5062FEF2093200720930007809330077A
:101FC0008093290720E820932A071092D0071092C7
:101FD000D30725E02093C9078093CA079093CB07C6
:101FE0008093F5068093E90680E28093EA060895DF
:101FF000E0E0F8E08081807F866080838181887F57
:10200000836081838FEF90E086A397A380858E6F96
:10201000808781818061818381818062818380E08A
:1020200098E0D7CD0895E0E0F9E08081807F866078
:1020300080838181887F818386818C7F868386816E
:10204000826086838DE790E086A397A380858E6F5C
:10205000808780E099E0BDCD08950F931F9300E045
:1020600018E428EE31E040E052E16AE770E080ECED
:102070009AE00E941905E0ECFAE08081806180839B
:102080008081806480831F910F9108950F931F9327
:10209000CF93DF93C0EADAE08D818F738D8383E085
:1020A0008D838B818F7C80628B8300E018E428EE27
:1020B00031E040E855E260E070E080EA9AE01ADE44
:1020C0008C8188608C83DF91CF911F910F9108954F
:1020D0000F931F93CF93DF93C0EADBE08D818F7363
:1020E0008D8383E08D838B818F7C80628B8300E086
:1020F00018E428EE31E040E855E260E070E080EA64
:102100009BE0F8DD8C8188608C838C8180618C837E
:10211000DF91CF911F910F9108950F931F93CF934C
:10212000DF93C0EBDBE08D818F738D8383E08D8344
:1021300000E018E428EE31E040E855E260E070E0AD
:1021400080EB9BE0D7DD8C8188608C83DF91CF9121
:102150001F910F910895CF93DF93CDB7DEB72A97E4
:10216000CDBFDEBF61E270E082E00E940F0560E259
:1021700070E082E00E940F058A81897E9B819F7CAE
:1021800090629B8392E09D8388608A831C82BE015B
:102190006F5F7F4F80E092E00E945704AE01485F7E
:1021A0005F4F61E080E092E00E94D80481E0888780
:1021B00088E18987AE01485F5F4F61E080E092E08F
:1021C0000E94A80480E092E00E9440048FB7F89437
:1021D000E0E0F2E09081946090838FBF2A96CDBFBB
:1021E000DEBFDF91CF9108951F920F920FB60F922D
:1021F000112408B60F9218BE09B60F9219BE0AB67E
:102200000F921ABE0BB60F921BBE2F923F924F92A7
:102210005F927F928F929F92AF92BF92CF92DF9206
:10222000EF92FF920F931F932F933F934F935F93E0
:102230006F937F938F939F93AF93BF93EF93FF938E
:10224000CF93DF93CDB7DEB7C455D109CDBFDEBF85
:1022500060E787E20E94962A782E86FFF6C388E020
:10226000E0E6F6E0878360E270E085E593E20E94B5
:10227000EB2A0F2EF5E58F2EF3E29F2EF02DD401E1
:102280006D914D0180EA9AE02DDDB5E78B16B3E242
:102290009B06A9F740915523E8E0F6E07081608144
:1022A00020815081842F90E0221F2227221F30E0BE
:1022B000220F331F220F331F76FBCC24C0F8D12C02
:1022C000C22AD32A64FBEE24E0F8F12CEE0CFF1CAA
:1022D000CE28DF2855FB002700F910E09801220FD7
:1022E000331F220F331F220F331F8601022B132BA4
:1022F0008017910709F0A9C31092B7201092B82057
:102300005081308180812081881F8827881F90E03C
:10231000880F991F880F991F56FBAA24A0F8B12C8B
:10232000A82AB92A3295317039831A8289819A8113
:10233000880F991FA82AB92A25FB442440F8512C5C
:10234000C201880F991F880F991F880F991F2501B7
:10235000482A592A57E1549DD001559DB00D1124AA
:10236000AE53BF4D4C934081308180812081881FC6
:102370008827881F90E0880F991F880F991F46FBB8
:10238000222420F8312C282A392A329531703B83B7
:102390001C828B819C81880F991F282A392A25FB52
:1023A000222720F92D831E828D819E81880F991FFF
:1023B000880F991F880F991F282A392A529DD0010A
:1023C000539DB00D1124AE53BF4D8091562390E024
:1023D00011968D939C93129730812081808140814A
:1023E000881F8827881F90E0880F991F880F991FE2
:1023F00036FB332730F93F8318866F817885862B2B
:10240000972B2295217029871A8629853A85220FD4
:10241000331F822B932B45FB442740F94B871C86A7
:102420002B853C85220F331F220F331F220F331FB2
:10243000822B932B589FD001599FB00D1124AE537E
:10244000BF4D8091572390E013968D939C931497E2
:102450003081208180814081881F8827881F90E0FB
:10246000880F991F880F991F36FB332730F93D8756
:102470001E86AD85BE858A2B9B2B229521702F87CA
:10248000188A2F853889220F331F822B932B45FB07
:10249000442740F9498B1A8A29893A89220F331F28
:1024A000220F331F220F331F822B932B589FD001F3
:1024B000599FB00D1124AE53BF4D8091582390E029
:1024C00015968D939C931697308120818081408151
:1024D000881F8827881F90E0880F991F880F991FF1
:1024E00036FB332730F93B8B1C8A6B897C89862B22
:1024F000972B229521702D8B1E8A2D893E89220FC4
:10250000331F822B932B45FB442740F94F8B188EAA
:102510002F89388D220F331F220F331F220F331FB5
:10252000822B932B589FD001599FB00D1124AE538D
:10253000BF4D8091592390E017968D939C931897E7
:102540003081208180814081881F8827881F90E00A
:10255000880F991F880F991F36FB332730F9398F61
:102560001A8EA98DBA8D8A2B9B2B229521702B8FC9
:102570001C8E2B8D3C8D220F331F822B932B45FB02
:10258000442740F94D8F1E8E2D8D3E8D220F331F17
:10259000220F331F220F331F822B932B589FD00102
:1025A000599FB00D1124AE53BF4D80915A2390E036
:1025B00019968D939C931A97308120818081408158
:1025C000881F8827881F90E0880F991F880F991F00
:1025D00036FB332730F93F8F18A26F8D78A1862BF9
:1025E000972B2295217029A31AA229A13AA1220F83
:1025F000331F822B932B45FB442740F94BA31CA28E
:102600002BA13CA1220F331F220F331F220F331F98
:10261000822B932B589FD001599FB00D1124AE539C
:10262000BF4D80915B2390E01B968D939C931C97EC
:102630003081208180814081881F8827881F90E019
:10264000880F991F880F991F36FB332730F93DA358
:102650001EA2ADA1BEA18A2B9B2B229521702FA378
:1026600018A62FA138A5220F331F822B932B45FBD1
:10267000442740F949A71AA629A53AA5220F331FD6
:10268000220F331F220F331F822B932B589FD00111
:10269000599FB00D1124AE53BF4D80915C2390E043
:1026A0001D968D939C931E9730812081808140815F
:1026B000881F8827881F90E0880F991F880F991F0F
:1026C00036FB332730F93BA71CA66BA57CA5862BD0
:1026D000972B229521702DA71EA62DA53EA5220F72
:1026E000331F822B932B45FB442740F94FA718AA91
:1026F0002FA538A9220F331F220F331F220F331F9C
:10270000822B932B589FD001599FB00D1124AE53AB
:10271000BF4D80915D2390E01F968D939C935097C1
:102720003081208180814081881F8827881F90E028
:10273000880F991F880F991F36FB332730F939AB63
:102740001AAAA9A9BAA98A2B9B2B229521702BAB77
:102750001CAA2BA93CA9220F331F822B932B45FBCC
:10276000442740F94DAB1EAA2DA93EA9220F331FC5
:10277000220F331F220F331F822B932B589FD00120
:10278000599FB00D1124AE53BF4D80915E235196D9
:102790008C933081208180814081881F8827881F09
:1027A00090E0880F991F880F991F36FB332730F967
:1027B0003FAB18AE6FA978AD862B972B2295217071
:1027C00029AF1AAE29AD3AAD220F331F822B932BBE
:1027D00045FB442740F94BAF1CAE2BAD3CAD220F5F
:1027E000331F220F331F220F331F822B932B589F2F
:1027F000D001599FB00D1124AE53BF4D80915F237E
:1028000052968C933081208180814081881F882757
:10281000881F90E0880F991F880F991F36FB332778
:1028200030F93DAF1EAEADADBEAD8A2B9B2B2295D0
:1028300021702FAF21961FAE219721962EAD3FAD6F
:102840002197220F331F822B932B45FB442740F9FE
:1028500022964FAF229723961FAE239723962EAD35
:102860003FAD2397220F331F220F331F220F331F39
:10287000822B932B589FD001599FB00D1124AE533A
:10288000BF4D8091602353968C933081208180814D
:102890004081881F8827881F90E0880F991F880F24
:1028A000991F36FB332730F924963FAF249725969E
:1028B0001FAE259725966EAD7FAD2597862B972B5E
:1028C0002295217026962FAF269727961FAE279721
:1028D00027962EAD3FAD2797220F331F822B932BC8
:1028E00045FB442740F928964FAF289729961FAEFD
:1028F000299729962EAD3FAD2997220F331F220F1E
:10290000331F220F331F822B932B589FD001599FC7
:10291000B00D1124AE53BF4D8091612354968C931A
:102920003081208180814081881F8827881F90E026
:10293000880F991F880F991F36FB332730F92A9685
:102940003FAF2A972B961FAE2B972B96AEADBFAD00
:102950002B978A2B9B2B229521702C962FAF2C978F
:102960002D961FAE2D972D962EAD3FAD2D97220F94
:10297000331F822B932B45FB442740F92E964FAFF4
:102980002E972F961FAE2F972F962EAD3FAD2F97D8
:10299000220F331F220F331F220F331F822B932B43
:1029A000589FD001599FB00D1124AE53BF4D809157
:1029B000622355968C933081208180814081881FCD
:1029C0008827881F90E0880F991F880F991F36FB72
:1029D000332730F960963FAF609761961FAE6197DD
:1029E0006196EEADFFAD61978E2B9F2B22952170E6
:1029F00062962FAF629763961FAE639763962EAD74
:102A00003FAD6397220F331F822B932B45FB442747
:102A100040F964964FAF649765961FAE65976596CB
:102A20002EAD3FAD6597220F331F220F331F220FAC
:102A3000331F822B932B589FF001599FF00D1124C7
:102A4000EE53FF4D80916323868B75FE04C080E2B8
:102A5000E0E6F6E0878374FE06C084E0E0E6F6E098
:102A600087830E94862BCC5ADF4FCDBFDEBFDF911C
:102A7000CF91FF91EF91BF91AF919F918F917F91F6
:102A80006F915F914F913F912F911F910F91FF9007
:102A9000EF90DF90CF90BF90AF909F908F907F90FE
:102AA0005F904F903F902F900F900BBE0F900ABEFB
:102AB0000F9009BE0F9008BE0F900FBE0F901F9091
:102AC00018951F920F920FB60F92112408B60F920D
:102AD00018BE09B60F9219BE0AB60F921ABE0BB6EF
:102AE0000F921BBEAF92BF92DF92EF92FF920F93B5
:102AF0001F932F933F934F935F936F937F938F9386
:102B00009F93AF93BF93CF93DF93EF93FF93A895DA
:102B1000809179238F5F80937923843174F081E0F1
:102B20008093AC20109279238091B1209091B220B3
:102B300001968093B1209093B2208091AD20909126
:102B4000AE20A091AF20B091B0200196A11DB11D83
:102B50008093AD209093AE20A093AF20B093B0208F
:102B6000E090B320F090B420E114F10409F45CC0CB
:102B70008091DC219091DD21A091DE21B091DF21B7
:102B80000196A11DB11D8093DC219093DD21A093BE
:102B9000DE21B093DF2184369105A105B105E0F473
:102BA000A0E2B6E014968C911497806414968C93EE
:102BB0001497E0922A08F0922B0814968C9114979F
:102BC000806414968C938091B3209091B42080936C
:102BD00028089093290828C0893B9B40A105B1058E
:102BE00060F01092DC211092DD211092DE21109213
:102BF000DF211092B3201092B42010922A08109274
:102C00002B08A0E2B6E014968C9114978F7B149653
:102C10008C931497109228081092290814968C917E
:102C200014978F7B14968C938091B7209091B82045
:102C300001968093B7209093B82080915620909170
:102C400057208130910581F41092B9200E9498029A
:102C50000E94C40280915620909157200197809342
:102C600056209093572087C08230910508F1019734
:102C700080935620909357200E94E902809156201D
:102C800090915720883B2BE0920708F074C0A0E099
:102C9000B0E080932C2090932D20A0932E20B09311
:102CA0002F2088EC90E080933D2290933E2263C0D9
:102CB000A8E0B6E0DC90EC908C91FC90881F88270F
:102CC000881F90E0880F991F880F991FD6FA002758
:102CD00000F910E0082B192BE4FAEE24E0F8CE2DD1
:102CE00080E0D82FCC0FDD1F0C2B1D2BF5FAEE2723
:102CF000E0F9F0E0CF01880F991F880F991F880F26
:102D0000991FF801E82BF92BEE0FFF1FE85FFF4D2D
:102D10008081E0E0F7E08483CC919C91EC918C91F0
:102D2000EE1FEE27EE1FF0E0EE0FFF1FEE0FFF1F6E
:102D3000C6FB662760F970E0E62BF72B94FB44276F
:102D400040F950E0440F551FE42BF52B85FBAA24D6
:102D5000A0F8B12C9501220F331F220F331F220F31
:102D6000331FE22BF32BEE0FFF1FE85FFF4D808137
:102D7000E0EEF6E08483FF91EF91DF91CF91BF9178
:102D8000AF919F918F917F916F915F914F913F9103
:102D90002F911F910F91FF90EF90DF90BF90AF9018
:102DA0000F900BBE0F900ABE0F9009BE0F9008BE89
:102DB0000F900FBE0F901F9018951F920F920FB695
:102DC0000F92112408B60F9218BE0F9008BE0F90F4
:102DD0000FBE0F901F9018951F920F920FB60F9273
:102DE000112408B60F9218BE2F933F938F939F9391
:102DF00020913624309137248091C80781FF03C089
:102E00008FEF9FEF02C081E090E0820F931F8093CD
:102E10003624909337249F918F913F912F910F905B
:102E200008BE0F900FBE0F901F9018951F920F9223
:102E30000FB60F92112408B60F9218BE2F933F932E
:102E40008F939F9320918523309186238091E8066C
:102E500084FF03C08FEF9FEF02C081E090E0820FFC
:102E6000931F80938523909386239F918F913F9109
:102E70002F910F9008BE0F900FBE0F901F901895C6
:102E80001F920F920FB60F92112408B60F9218BE20
:102E90002F933F938F939F932091DD233091DE23D7
:102EA0008091480684FF03C08FEF9FEF02C081E04E
:102EB00090E0820F931F8093DD239093DE239F91F8
:102EC0008F913F912F910F9008BE0F900FBE0F90E2
:102ED0001F9018951F920F920FB60F92112408B6EB
:102EE0000F9218BE2F933F938F939F93209150245E
:102EF000309151248091C80782FF03C08FEF9FEF6C
:102F000002C081E090E0820F931F80935024909341
:102F100051249F918F913F912F910F9008BE0F9058
:102F20000FBE0F901F9018951F920F920FB60F9221
:102F3000112408B60F9218BE0F9008BE0F900FBE56
:102F40000F901F9018951F920F920FB60F92112499
:102F500008B60F9218BE09B60F9219BE0BB60F92A3
:102F60001BBE2F933F934F935F936F937F938F93EA
:102F70009F93AF93BF93EF93FF93809156209091CF
:102F80005720892B89F48091E80669E570E2881F53
:102F90008827881F0E9489028091A80668E570E250
:102FA000829581700E94890280E395E78093562084
:102FB000909357208FEF8093B9200E949802FF9141
:102FC000EF91BF91AF919F918F917F916F915F91A1
:102FD0004F913F912F910F900BBE0F9009BE0F9014
:102FE00008BE0F900FBE0F901F901895EF92FF92A2
:102FF0000F931F93CF93DF93CDB7DEB7C85CD10992
:10300000CDBFDEBFE9E8F3E281818F9380818F93AA
:10301000EAE3F4E281818F9380818F93E4E5F4E227
:1030200081818F9380818F93EFEDF3E281818F9384
:1030300080818F938CE390E29F938F93CE010196D2
:103040009F938F930E94B32DCDBFDEBF8823B1F035
:103050008E010F5F1F4F81506894EE24E1F8F12C30
:10306000EC0EFD1EE80EF11CF80161918F0180EA63
:103070009AE00E94720E0E151F05B1F7C853DF4F7C
:10308000CDBFDEBFDF91CF911F910F91FF90EF90E9
:103090000895CF93DF93CDB7DEB7C85DD109CDBF1B
:1030A000DEBF0E949A0FE2EAF0E0808187608083B1
:1030B0000E94AF0F0E9413100E94F80F09D82DD85C
:1030C0000E94461048D80E94EB01789488EB9BE060
:1030D000A0E0B0E08093342090933520A093362078
:1030E000B093372024EF31E0209305243093062459
:1030F0008093382090933920A0933A20B0933B20BE
:1031000084E690E08093F5219093F62188EE93E099
:10311000A0E0B0E08093302090933120A093322043
:10312000B093332088EC90E0809333249093342440
:1031300080ED97E0A0E0B0E080932C2090932D20CC
:10314000A0932E20B0932F2086E990E080933D221B
:1031500090933E22E8E0F6E09081308180814081CA
:10316000E3E0F0E2881F8827881F282F220F220F14
:1031700096FB882780F9282B34FB882480F8912C33
:10318000C401880F991F282B45FB002700F910E088
:10319000C801880F991F880F991F880F991F822BCC
:1031A0009081890F808382E0E0E8F6E086830E94C8
:1031B0002D101AE61A95F1F700C02FEF33EC49E015
:1031C000215030404040E1F700C000000E94BF2A7B
:1031D0000E94862B0E94942B82E0E0E8F6E0868332
:1031E000E8E0F6E02081308180814081881F8827D7
:1031F000881F90E0880F991F880F991F26FBEE24E7
:10320000E0F8F12CE82AF92A34FBCC24C0F8D12CC0
:10321000C601880F991FE82AF92A45FBAA24A0F8BD
:10322000B12CC501880F991F880F991F880F991F0E
:103230008E299F29039784F40F2EF6E0CF2EF02DD0
:103240006894EE24E5F805E023E030E248E062E32C
:1032500080E00E94462B0FC00F2EF6E0CF2EF02DFF
:103260006894EE24E5F805E023E030E248E061E010
:1032700080E00E94462B61E08CE30E94962A66E083
:103280008DE30E94962A82E0E0E8F6E085838FE0F5
:1032900094E00197F1F700C00000A8958091AC2060
:1032A000882311F40C94E929ABE8B3E20D911C9149
:1032B000EFE8F3E200831183A7E8B3E28D919C91DC
:1032C0009C01201B310B2153384F2F393F4020F4F4
:1032D000EBE8F3E280839183B801882777FD80953E
:1032E000982F0E94C42C6B017C01ABE8B3E28D9156
:1032F0009C91801B910BBC01882777FD8095982FAE
:103300000E94C42C2EEA37E441EE5DE30E94502D6A
:103310009B01AC01C701B6010E94C52B0E94912CF4
:10332000EBE8F3E260837183ACE3B4E20D911C91AE
:10333000E0E4F4E200831183A8E3B4E28D919C9170
:103340009C01201B310B2153384F2F393F4020F473
:10335000ECE3F4E280839183B801882777FD8095C0
:10336000982F0E94C42C6B017C01ACE3B4E28D91D8
:103370009C91801B910BBC01882777FD8095982F2D
:103380000E94C42C2EEA37E441EE5DE30E94502DEA
:103390009B01AC01C701B6010E94C52B0E94912C74
:1033A000ECE3F4E260837183A6E5B4E20D911C9135
:1033B000EAE5F4E200831183A2E5B4E28D919C91E9
:1033C0009C01201B310B2153384F2F393F4020F4F3
:1033D000E6E5F4E280839183B801882777FD809544
:1033E000982F0E94C42C6B017C01A6E5B4E28D915C
:1033F0009C91801B910BBC01882777FD8095982FAD
:103400000E94C42C2EEA37E441EE5DE30E94502D69
:103410009B01AC01C701B6010E94C52B0E94912CF3
:10342000E6E5F4E260837183A3EEB3E20D911C91B3
:10343000E7EEF3E200831183AFEDB3E28D919C914F
:103440009C01201B310B2153384F2F393F4020F472
:10345000E3EEF3E280839183B801882777FD8095BE
:10346000982F0E94C42C6B017C01A3EEB3E28D91D6
:103470009C91801B910BBC01882777FD8095982F2C
:103480000E94C42C2EEA37E441EE5DE30E94502DE9
:103490009B01AC01C701B6010E94C52B0E94912C73
:1034A000E3EEF3E260837183A9E8B3E28D909C9030
:1034B00080928D2390928E23E5E8F3E280819181C2
:1034C0000F2EFFE0BF2EF02DB89E8001B99E100D8B
:1034D000112410821182B401882777FD8095982FDE
:1034E0000E94C42C6B017C0108191909B8018827B6
:1034F00077FD8095982F0E94C42C2EEA37E441EE88
:103500005DE30E94502D9B01AC01C701B6010E94F2
:10351000C52B0E94912CE9E8F3E2608371830AE3F2
:1035200014E2D801CD90DC90C0923E24D0923F248A
:10353000E6E3F4E280819181B89E7001B99EF00CBF
:10354000112410821182B601882777FD8095982F6B
:103550000E94C42C2B013C01EC18FD08B701882700
:1035600077FD8095982F0E94C42C2EEA37E441EE17
:103570005DE30E94502D9B01AC01C301B2010E948A
:10358000C52B0E94912CF8016083718304E514E23D
:10359000D801CD90DC90C0925824D0925924E0E517
:1035A000F4E280819181B89E7001B99EF00C1124E3
:1035B00010821182B601882777FD8095982F0E948E
:1035C000C42C2B013C01EC18FD08B701882777FDBE
:1035D0008095982F0E94C42C2EEA37E441EE5DE3DB
:1035E0000E94502D9B01AC01C301B2010E94C52B6A
:1035F0000E94912CF801608371830F2EF1EEEF2E63
:10360000F3E2FF2EF02DD7016D907C906092E523C0
:103610007092E6230DED13E2F80180819181B89E4E
:103620006001B99ED00C112410821182B301882749
:1036300077FD8095982F0E94C42C4B015C01C61821
:10364000D708B601882777FD8095982F0E94C42C53
:103650002EEA37E441EE5DE30E94502D9B01AC0160
:10366000C501B4010E94C52B0E94912CD7016D9316
:103670007C93BCDC0F2EF8E0CF2EF6E0DF2EF02D91
:10368000F6019081808120814081221F2227221F04
:1036900030E0220F331F220F331F96FB992790F93A
:1036A0009D871E866D857E85262B372B82958170A2
:1036B0008F87188A8F859889880F991F282B392B17
:1036C00045FB442740F9498B1A8A89899A89880FD2
:1036D000991F880F991F880F991F282B392B0F2EA0
:1036E000F7E1FF2EF02DF29EC001F39E900D112404
:1036F000FC01EE53FF4D648970E080E090E00E9491
:10370000C22C20E030E048EC52E40E94292C69836E
:103710007A838B839C83609368247093692480935D
:103720006A2490936B24D6019C918C912C914C919E
:10373000221F2227221F30E0220F331F220F331FA8
:1037400096FB992790F99B8B1C8AEB89FC892E2B81
:103750003F2B829581708D8B1E8A8D899E89880F63
:10376000991F282B392B45FB442740F94F8B188E86
:103770008F89988D880F991F880F991F880F991F1F
:10378000282B392BF29EC001F39E900D1124FC01D1
:10379000EE53FF4D658970E080E090E00E94C22CFE
:1037A00020E030E048EC52E40E94292C6D837E83B7
:1037B0008F8398876093F4237093F5238093F62387
:1037C0009093F723D6019C918C912C914C91221FC0
:1037D0002227221F30E0220F331F220F331F96FBB8
:1037E000992790F9998F1A8EE98DFA8D2E2B3F2B00
:1037F000829581708B8F1C8E8B8D9C8D880F991F6D
:10380000282B392B45FB442740F94D8F1E8E8D8D7B
:103810009E8D880F991F880F991F880F991F282B3D
:10382000392BF29EC001F39E900D1124FC01EE5342
:10383000FF4D668970E080E090E00E94C22C20E09D
:1038400030E048EC52E40E94292C69877A878B8704
:103850009C876093D8217093D9218093DA2190932B
:10386000DB211092AC20A3EEB3E22D903C9031947A
:1038700021943108F801848595859101281B390B25
:10388000C901220F331F8C01000F111F000F111FE0
:10389000000F111F020F131FC801C1968336910537
:1038A00048F0013639E0130744F4003A46EF1407B4
:1038B0003CF008C000E010E005C000E010E002C0ED
:1038C00000E010E0B101882777FD8095982F0E94D5
:1038D000C42C6B017C019B01AC0169817A818B81D5
:1038E0009C810E94502D0E94912C4B015C016091A3
:1038F000ED237091EE23882777FD8095982F0E9405
:10390000C42C2B013C01A70196016D817E818F8122
:1039100098850E94502D2AE037ED43EA5CE30E942F
:10392000502D9B01AC01C301B2010E94C52B0E9426
:10393000912C6093ED237093EE23693771053CF071
:1039400088E790E08093ED239093EE230AC06035E2
:103950005BEF750734F488E89FEF8093ED23909335
:10396000EE23C4018038910514F08FE790E0813890
:103970006FEF960714F481E89FEF8090ED2390900D
:10398000EE23880E991EB401882777FD8095982F25
:103990000E94C42C6B017C01B801882777FD8095BB
:1039A000982F0E94C42C9B01AC0169857A858B8578
:1039B0009C850E94502D9B01AC01C701B6010E945D
:1039C000C52B0E94912CCB016038710514F08FE754
:1039D00090E0EDEDF3E2248635860687178781387F
:1039E0007FEF970714F481E89FEF8093F123E8E0DD
:1039F000F6E06081508170814081908180812081DA
:103A0000E081221F2227221F30E0220F331F220FC6
:103A1000331F96FB992790F99F8F18A2AF8DB8A1FD
:103A20002A2B3B2B8295817089A31AA289A19AA186
:103A3000880F991F282B392BE5FBEE27E0F9EBA324
:103A40001CA28BA19CA1880F991F880F991F880F1A
:103A5000991F282B392BF7E1F29FC001F39F900D9E
:103A60001124DC01AE53BF4D1196EC91EEA31DA2C3
:103A7000771F7727771F872F90E0880F991F880F70
:103A8000991F66FB662760F96FA318A62FA138A5BA
:103A9000822B932B5295517059A71AA629A53AA5A6
:103AA000220F331F822B932B45FB442740F94BA752
:103AB0001CA62BA53CA5220F331F220F331F220F5C
:103AC000331F822B932BF89F9001F99F300D112407
:103AD000F901EE53FF4D838194814DA15EA1842BAA
:103AE000952B28E2289F1001299F300C1124A9E86A
:103AF000B3E28D919C91281A390A8091912390917B
:103B00009223F101E81BF90B9F01220F331F8F0154
:103B1000000F111F000F111F000F111F020F131FA5
:103B2000C801C1968336910548F00136F9E01F07B8
:103B300044F4003A26EF12073CF008C000E010E021
:103B400005C000E010E002C000E010E0B1018827ED
:103B500077FD8095982F0E94C42C6B017C019B01FE
:103B6000AC0169817A818B819C810E94502D0E94D9
:103B7000912C4B015C0160919523709196238827CD
:103B800077FD8095982F0E94C42C2B013C01A70142
:103B900096016D817E818F8198850E94502D2AE04B
:103BA00037ED43EA5CE30E94502D9B01AC01C30159
:103BB000B2010E94C52B0E94912C609395237093B3
:103BC0009623693771053CF088E790E08093952350
:103BD000909396230AC060354BEF740734F488E85D
:103BE0009FEF8093952390939623C401803891058D
:103BF00014F08FE790E081385FEF950714F481E8C7
:103C00009FEF8090952390909623880E991EB40183
:103C1000882777FD8095982F0E94C42C6B017C012A
:103C2000B801882777FD8095982F0E94C42C9B01AE
:103C3000AC0169857A858B859C850E94502D9B01FE
:103C4000AC01C701B6010E94C52B0E94912CCB018B
:103C50006038710514F08FE790E0E5E8F3E2248620
:103C600035860687178781386FEF960714F481E849
:103C70009FEF80939923E8E0F6E0608150817081A6
:103C80004081908180812081E081221F2227221F94
:103C900030E0220F331F220F331F96FB992790F934
:103CA0009DA71EA6ADA5BEA52A2B3B2B8295817094
:103CB0008FA718AA8FA598A9880F991F282B392B91
:103CC000E5FBEE27E0F9E9AB1AAA89A99AA9880FC2
:103CD000991F880F991F880F991F282B392BF7E1FF
:103CE000F29FC001F39F900D1124DC01AE53BF4D34
:103CF0001596EC91ECAB1BAA771F7727771F872FC0
:103D000090E0880F991F880F991F66FB662760F95E
:103D10006DAB1EAA2DA93EA9822B932B52955170F3
:103D20005FAB18AE2FA938AD220F331F822B932B18
:103D300045FB442740F949AF1AAE29AD3AAD220FF1
:103D4000331F220F331F220F331F822B932BF89F19
:103D50009001F99F300D1124F901EE53FF4D878139
:103D600090854BA95CA9842B952B28E2289F1001F4
:103D7000299F300C112480913A2490913B24281AD9
:103D8000390A8091422490914324B101681B790B38
:103D90009B01220F331F8B01000F111F000F111FFA
:103DA000000F111F020F131FC801C1968336910522
:103DB00048F0013679E0170744F4003A86EF180717
:103DC0003CF008C000E010E005C000E010E002C0D8
:103DD00000E010E0B101882777FD8095982F0E94C0
:103DE000C42C6B017C019B01AC0169817A818B81C0
:103DF0009C810E94502D0E94912C4B015C0160918E
:103E0000462470914724882777FD8095982F0E943B
:103E1000C42C2B013C01A70196016D817E818F810D
:103E200098850E94502D2AE037ED43EA5CE30E941A
:103E3000502D9B01AC01C301B2010E94C52B0E9411
:103E4000912C9B0160934624709347246937710538
:103E50003CF088E790E0809346249093472409C083
:103E600020353B4F34F488E89FEF809346249093AD
:103E70004724C4018038910514F08FE790E0813821
:103E8000AFEF9A0714F481E89FEF8090462490905A
:103E90004724880E991EB401882777FD8095982FB6
:103EA0000E94C42C6B017C01B801882777FD8095A6
:103EB000982F0E94C42C9B01AC0169857A858B8563
:103EC0009C850E94502D9B01AC01C701B6010E9448
:103ED000C52B0E94912CCB016038710514F08FE73F
:103EE00090E0E6E3F4E2248635860687178781387A
:103EF000BFEF9B0714F481E89FEF80934A24E8E02A
:103F0000F6E06081508170814081908180812081C4
:103F1000E081221F2227221F30E0220F331F220FB1
:103F2000331F96FB992790F99BAF1CAEABADBCAD90
:103F30002A2B3B2B829581708DAF1EAE8DAD9EAD31
:103F4000880F991F282B392BE5FBEE27E0F9EFAFFF
:103F500021961FAE219721968EAD9FAD2197880F98
:103F6000991F880F991F880F991F282B392BF7E16C
:103F7000F29FC001F39F900D1124DC01AE53BF4DA1
:103F80001996EC912396EFAF239722961FAE2297B6
:103F9000771F7727771F872F90E0880F991F880F4B
:103FA000991F66FB662760F924966FAF24972596C4
:103FB0001FAE259725962EAD3FAD2597822B932BCF
:103FC0005295517026965FAF269727961FAE27977A
:103FD00027962EAD3FAD2797220F331F822B932BB1
:103FE00045FB442740F928964FAF289729961FAEE6
:103FF000299729962EAD3FAD2997220F331F220F07
:10400000331F220F331F822B932BF89F9001F99FB0
:10401000300D1124F901EE53FF4D838594852396CD
:104020004EAD5FAD2397842B952B28E2289F10017E
:10403000299F300C11248091542490915524281AE2
:10404000390A80915C2490915D24B101681B790B41
:104050009B01220F331F8B01000F111F000F111F37
:10406000000F111F020F131FC801C196833691055F
:1040700048F0013679E0170744F4003A86EF180754
:104080003CF008C000E010E005C000E010E002C015
:1040900000E010E0B101882777FD8095982F0E94FD
:1040A000C42C6B017C019B01AC0169817A818B81FD
:1040B0009C810E94502D0E94912C4B015C016091CB
:1040C000602470916124882777FD8095982F0E9445
:1040D000C42C2B013C01A70196016D817E818F814B
:1040E00098850E94502D2AE037ED43EA5CE30E9458
:1040F000502D9B01AC01C301B2010E94C52B0E944F
:10410000912C9B0160936024709361246937710541
:104110003CF088E790E0809360249093612409C08C
:1041200020353B4F34F488E89FEF809360249093D0
:104130006124C4018038910514F08FE790E0813844
:10414000AFEF9A0714F481E89FEF8090602490907D
:104150006124880E991EB401882777FD8095982FD9
:104160000E94C42C6B017C01B801882777FD8095E3
:10417000982F0E94C42C9B01AC0169857A858B85A0
:104180009C850E94502D9B01AC01C701B6010E9485
:10419000C52B0E94912CCB016038710514F08FE77C
:1041A00090E0E0E5F4E224863586068717878138BB
:1041B000BFEF9B0714F481E89FEF809364246AE2C9
:1041C00080EA9BE00E94720E6EE780EA9BE00E940C
:1041D000720E6091992380EA9BE00E94720E6091BA
:1041E0004A2480EA9BE00E94720E6091642480EA77
:1041F0009BE00E94720E6091F12380EA9BE00E9496
:10420000720E63E280EA9BE00E94720E2FB7F89470
:10421000E0E0F2E084A195A12FBF8093B5209093B8
:10422000B620893D94403CF4E0E4F6E080E48583E8
:1042300084E0858306C0E0E4F6E080E4868384E0E1
:10424000868360E080E00E947B020F2EF8E0CF2E94
:10425000F6E0DF2EF02DD6011C917C918C916C91B3
:10426000EC91FC914C919C9150919923252F3327EF
:1042700027FD30953F935F93441F4427441F50E030
:10428000440F551F440F551FE6FBEE27E0F92A9611
:10429000EFAF2A972B961FAE2B972B962EAD3FADE7
:1042A0002B97422B532BF295F1702C96FFAF2C9746
:1042B0002D961FAE2D972D962EAD3FAD2D97220F2B
:1042C000331F422B532B95FB992790F92E969FAFC6
:1042D0002E972F961FAE2F972F962EAD3FAD2F976F
:1042E000220F331F220F331F220F331F422B532B5A
:1042F0000F2EF7E1FF2EF02DF49E9001F59E300D6C
:104300001124D901AE53BF4D11963C9161963FAF38
:10431000619760961FAE6097881F8827881F90E07E
:10432000880F991F880F991F16FB112710F96296A5
:104330001FAF629763961FAE639763964EAD5FADF6
:104340006397842B952B7295717064967FAF6497F9
:1043500065961FAE659765962EAD3FAD6597220FAA
:10436000331F822B932B65FB662760F966966FAF30
:10437000669767961FAE679767962EAD3FAD6797B6
:10438000220F331F220F331F220F331F822B932B39
:10439000F89E9001F99E300D1124F901EE53FF4D66
:1043A0008381948161966EAD7FAD6197862B972B4B
:1043B0009F938F9389E490E29F938F9309E014E297
:1043C0001F930F930E94B32DC8010E946C0261E0FD
:1043D00080E00E947B0280918A238F93A9E8B3E258
:1043E0008C918F9381E590E29F938F931F930F930E
:1043F0000E94B32DC8010E946C02F6019081808159
:1044000020814081221F2227221F30E0220F331FEC
:10441000220F331F96FB992790F968969FAF6897F4
:1044200069961FAE699769966EAD7FAD6997262B29
:10443000372B829581706A968FAF6A976B961FAE05
:104440006B976B968EAD9FAD6B97880F991F282B3E
:10445000392B45FB442740F96C964FAF6C976D960E
:104460001FAE6D976D968EAD9FAD6D97880F991F9E
:10447000880F991F880F991F282B392BF29EC00196
:10448000F39E900D1124FC01EE53FF4DCDBFDEBF16
:104490008189882309F463C0E8E0F6E09081808197
:1044A00020814081221F2227221F30E0220F331F4C
:1044B000220F331F96FB992790F9CD52DF4F988337
:1044C000C35DD040CC52DF4F1882C45DD040CD5286
:1044D000DF4FA881B981C35DD0402A2B3B2B829549
:1044E0008170CB52DF4F8883C55DD040CA52DF4F09
:1044F0001882C65DD040CB52DF4F88819981C55D5F
:10450000D040880F991F282B392B45FB442740F9B1
:10451000C952DF4F4883C75DD040C852DF4F188271
:10452000C85DD040C952DF4F88819981C75DD040B6
:10453000880F991F880F991F880F991F282B392BD7
:1045400047E1429FC001439F900D1124FC01EE53AF
:10455000FF4D818990E08093B3209093B420E8E0F0
:10456000F6E09081808120814081221F2227221F36
:1045700030E0220F331F220F331F96FB992790F94B
:104580006E969FAF6E976F961FAE6F976F96EEAD5C
:10459000FFAD6F972E2B3F2B82958170A0968FAF2A
:1045A000A097A1961FAEA197A1968EAD9FADA197A2
:1045B000880F991F282B392B45FB442740F9A296D9
:1045C0004FAFA297A3961FAEA397A3968EAD9FADB4
:1045D000A397880F991F880F991F880F991F282B61
:1045E000392B47E1429FC001439F900D1124FC01EC
:1045F000EE53FF4D8289882319F0E0E6F6E08085CE
:10460000E0E0F6E0808582FF18C0E0E2F6E0848119
:104610008064848384E690E080932A0890932B083A
:10462000FFEF13EC29E0F15010402040E1F700C00B
:10463000000010922A0810922B08E8E0F6E00081B2
:104640001081808150813081208160819081661F3E
:104650006627661F70E0660F771F660F771F36FBB1
:10466000332730F9A4963FAFA497A5961FAEA59720
:10467000A596AEADBFADA5976A2B7B2B2295217079
:10468000A6962FAFA697A7961FAEA797A7962EAD73
:104690003FADA797220F331F622B732B95FB9927F2
:1046A00090F9A8969FAFA897A9961FAEA997A9962B
:1046B0002EAD3FADA997220F331F220F331F220FBC
:1046C000331F622B732B47E1469F9001479F300DAC
:1046D00011242E533F4DD9011196BC91AB96BFAF1B
:1046E000AB97AA961FAEAA97881F8827881F90E0CD
:1046F000880F991F880F991F06FB002700F9AC96B9
:104700000FAFAC97AD961FAEAD97AD962EAD3FAD4A
:10471000AD97822B932B12951170AE961FAFAE976B
:10472000AF961FAEAF97AF962EAD3FADAF97220FAE
:10473000331F822B932B55FB552750F9E0965FAF23
:10474000E097E1961FAEE197E1962EAD3FADE19780
:10475000220F331F220F331F220F331F822B932B65
:10476000489F9001499F300D1124D901AE53BF4D90
:1047700013962D913C911497AB966EAD7FADAB9790
:10478000262B372B58E2529FC001539F900D1124C6
:10479000887F992780939B2390939C23108170811D
:1047A00000816081308120818081F0800F2EFDE9C1
:1047B000CF2EF3E2DF2EF02D881F8827881F90E090
:1047C000880F991F880F991F36FB332730F9E2961F
:1047D0003FAFE297E3961FAEE397E396AEADBFAD72
:1047E000E3978A2B9B2B22952170E4962FAFE497B9
:1047F000E5961FAEE597E5962EAD3FADE597220F06
:10480000331F822B932BF5FAFF24F0F8E696FFAEC8
:10481000E697E7961FAEE797E7962EAD3FADE79791
:10482000220F331F220F331F220F331F822B932B94
:10483000489F9001499F300D11242E533F4DD901BF
:104840001196BC91E996BFAFE997E8961FAEE8973D
:10485000001F0027001F802F90E0880F991F880FEE
:10486000991F16FB112710F9EA961FAFEA97EB96EE
:104870001FAEEB97EB960EAD1FADEB97082B192BE8
:1048800072957170EC967FAFEC97ED961FAEED9739
:10489000ED968EAD9FADED97880F991F082B192BC4
:1048A00065FB662760F9EE966FAFEE97EF961FAE49
:1048B000EF97EF968EAD9FADEF97880F991F880FFA
:1048C000991F880F991F082B192B409F9001419F1A
:1048D000300D11242E533F4DD90113962D913C914B
:1048E0001497E9966EAD7FADE997262B372B529F33
:1048F000C001539F900D1124D6019C9311961C92D8
:104900000081708110816081308120818081F08000
:10491000881F8827881F90E0880F991F880F991F8C
:1049200036FB332730F9C158DF4F3883CF57D0409B
:10493000C058DF4F1882C058D040C158DF4FA881FF
:10494000B981CF57D0408A2B9B2B22952170CF570E
:10495000DF4F2883C158D040CE57DF4F1882C2584E
:10496000D040CF57DF4F28813981C158D040220F26
:10497000331F822B932BF5FAFF24F0F8CD57DF4F2E
:10498000F882C358D040CC57DF4F1882C458D0406B
:10499000CD57DF4F28813981C358D040220F331FB4
:1049A000220F331F220F331F822B932B489FD001DE
:1049B000499FB00D11249D012E533F4DD9011596ED
:1049C000BC91CA57DF4FB883C658D040CB57DF4F92
:1049D0001882C558D040111F1127111F812F90E058
:1049E000880F991F880F991F06FB002700F9C957E8
:1049F000DF4F0883C758D040C857DF4F1882C858C8
:104A0000D040C957DF4F28813981C758D040822B09
:104A1000932B72957170C757DF4F7883C958D04078
:104A2000C657DF4F1882CA58D040C757DF4F28817A
:104A30003981C958D040220F331F822B932B65FB3D
:104A4000662760F9C557DF4F6883CB58D040C457FD
:104A5000DF4F1882CC58D040C557DF4F28813981AD
:104A6000CB58D040220F331F220F331F220F331F8A
:104A7000822B932B489FB001499F700D1124DB01BD
:104A8000AE53BF4D17962D913C911897CB57DF4FE2
:104A900068817981C558D040262B372B529FC001A1
:104AA000539F900D1124887F992780939F23909383
:104AB000A0231081708100816081308120818081FC
:104AC000F0800F2EF1EACF2EF3E2DF2EF02D881FBB
:104AD0008827881F90E0880F991F880F991F36FB41
:104AE000332730F9C357DF4F3883CD58D040C257F2
:104AF000DF4F1882CE58D040C357DF4FA881B9810D
:104B0000CD58D0408A2B9B2B22952170C157DF4F67
:104B10002883CF58D040C057DF4F1882C059D040AB
:104B2000C157DF4F28813981CF58D040220F331F22
:104B3000822B932BF5FAFF24F0F8CF56DF4FF88243
:104B4000C159D040CE56DF4F1882C259D040CF56FF
:104B5000DF4F28813981C159D040220F331F220FE6
:104B6000331F220F331F822B932B489F9001499FA5
:104B7000300D11242E533F4DD9011596BC91CC56C2
:104B8000DF4FB883C459D040CD56DF4F1882C35988
:104B9000D040001F0027001F802F90E0880F991F32
:104BA000880F991F16FB112710F9CB56DF4F18837A
:104BB000C559D040CA56DF4F1882C659D040CB568F
:104BC000DF4F08811981C559D040082B192B7295E8
:104BD0007170C956DF4F7883C759D040C856DF4F30
:104BE0001882C859D040C956DF4F88819981C7596A
:104BF000D040880F991F082B192B65FB662760F999
:104C0000C756DF4F6883C959D040C656DF4F188258
:104C1000CA59D040C756DF4F88819981C959D040C1
:104C2000880F991F880F991F880F991F082B192B20
:104C3000409F9001419F300D11242E533F4DD901CB
:104C400017962D913C911897CD56DF4F6881798149
:104C5000C359D040262B372B529FC001539F900D34
:104C60001124D6019C9311961C92008170811081B1
:104C70006081308120818081F080881F8827881F93
:104C800090E0880F991F880F991F36FB332730F962
:104C9000C556DF4F3883CB59D040C456DF4F1882FA
:104CA000CC59D040C556DF4FA881B981CB59D040EF
:104CB0008A2B9B2B22952170C356DF4F2883CD5919
:104CC000D040C256DF4F1882CE59D040C356DF4F76
:104CD00028813981CD59D040220F331F822B932B4D
:104CE000F5FAFF24F0F8C156DF4FF882CF59D040D3
:104CF000C056DF4F1882C05AD040C156DF4F2881BE
:104D00003981CF59D040220F331F220F331F220F7A
:104D1000331F822B932B489FD001499FB00D112444
:104D20009D012E533F4DD9011996BC91CE55DF4FB1
:104D3000B883C25AD040CF55DF4F1882C15AD040F5
:104D4000111F1127111F812F90E0880F991F880FC5
:104D5000991F06FB002700F9CD55DF4F0883C35A82
:104D6000D040CC55DF4F1882C45AD040CD55DF4FCC
:104D700028813981C35AD040822B932B7295717050
:104D8000CB55DF4F7883C55AD040CA55DF4F1882C4
:104D9000C65AD040CB55DF4F28813981C55AD04003
:104DA000220F331F822B932B65FB662760F9C955B1
:104DB000DF4F6883C75AD040C855DF4F1882C85AA2
:104DC000D040C955DF4F28813981C75AD040220FC2
:104DD000331F220F331F220F331F822B932B489F29
:104DE000B001499F700D1124DB01AE53BF4D1B96DE
:104DF0002D913C911C97CF55DF4F68817981C15A25
:104E0000D040262B372B529FC001539F900D112469
:104E1000887F99278093A3239093A4231081708186
:104E200000816081308120818081F0800F2EF5EA41
:104E3000CF2EF3E2DF2EF02D881F8827881F90E009
:104E4000880F991F880F991F36FB332730F9C755F4
:104E5000DF4F3883C95AD040C655DF4F1882CA5A2F
:104E6000D040C755DF4FA881B981C95AD0408A2B9D
:104E70009B2B22952170C555DF4F2883CB5AD040FC
:104E8000C455DF4F1882CC5AD040C555DF4F28811A
:104E90003981CB5AD040220F331F822B932BF5FA46
:104EA000FF24F0F8C355DF4FF882CD5AD040C255E9
:104EB000DF4F1882CE5AD040C355DF4F2881398149
:104EC000CD5AD040220F331F220F331F220F331F22
:104ED000822B932B489F9001499F300D11242E5314
:104EE0003F4DD9011996BC91C055DF4FB883C05BC7
:104EF000D040C155DF4F1882CF5AD040001F002745
:104F0000001F802F90E0880F991F880F991F16FBB4
:104F1000112710F9CF54DF4F1883C15BD040CE5416
:104F2000DF4F1882C25BD040CF54DF4F0881198118
:104F3000C15BD040082B192B72957170CD54DF4F97
:104F40007883C35BD040CC54DF4F1882C45BD04021
:104F5000CD54DF4F88819981C35BD040880F991F62
:104F6000082B192B65FB662760F9CB54DF4F68834C
:104F7000C55BD040CA54DF4F1882C65BD040CB54CB
:104F8000DF4F88819981C55BD040880F991F880FBA
:104F9000991F880F991F082B192B409F9001419F43
:104FA000300D11242E533F4DD9011B962D913C916C
:104FB0001C97C155DF4F68817981CF5AD040262B8D
:104FC000372B529FC001539F900D1124D6019C9303
:104FD00011961C9200817081108160813081208146
:104FE0008081F080881F8827881F90E0880F991F94
:104FF000880F991F36FB332730F9C954DF4F3883A8
:10500000C75BD040C854DF4F1882C85BD040C9543A
:10501000DF4FA881B981C75BD0408A2B9B2B22959B
:105020002170C754DF4F2883C95BD040C654DF4F7F
:105030001882CA5BD040C754DF4F28813981C95BD1
:10504000D040220F331F822B932BF5FAFF24F0F868
:10505000C554DF4FF882CB5BD040C454DF4F188279
:10506000CC5BD040C554DF4F28813981CB5BD04029
:10507000220F331F220F331F220F331F822B932B3C
:10508000489FD001499FB00D11249D012E533F4DE3
:10509000D9011D96BC91C254DF4FB883CE5BD0407E
:1050A000C354DF4F1882CD5BD040111F1127111F51
:1050B000812F90E0880F991F880F991F06FB00270A
:1050C00000F9C154DF4F0883CF5BD040C054DF4F9D
:1050D0001882C05CD040C154DF4F28813981CF5B3A
:1050E000D040822B932B72957170CF53DF4F788312
:1050F000C15CD040CE53DF4F1882C25CD040CF534A
:10510000DF4F28813981C15CD040220F331F822BB1
:10511000932B65FB662760F9CD53DF4F6883C35C33
:10512000D040CC53DF4F1882C45CD040CD53DF4F0A
:1051300028813981C35CD040220F331F220F331FD7
:10514000220F331F822B932B489FB001499F700D74
:105150001124DB01AE53BF4D1F962D913C9150970A
:10516000C354DF4F68817981CD5BD040262B372B2C
:10517000529FC001539F900D1124887F99278093DF
:10518000A7239093A8231081708100816081908172
:1051900080812081F080E9EAF3E2221F2227221F8A
:1051A00030E0220F331F220F331F96FB992790F90F
:1051B000CB53DF4F9883C55CD040CA53DF4F188272
:1051C000C65CD040CB53DF4FA881B981C55CD040CD
:1051D0002A2B3B2B82958170C953DF4F8883C75C94
:1051E000D040C853DF4F1882C85CD040C953DF4F4E
:1051F00088819981C75CD040880F991F282B392B53
:10520000F5FAFF24F0F8C753DF4FF882C95CD040AD
:10521000C653DF4F1882CA5CD040C753DF4F888126
:105220009981C95CD040880F991F880F991F880FFA
:10523000991F282B392B429FC001439F900D1124A9
:105240009C012E533F4DD9011D96BC91C453DF4F95
:10525000B883CC5CD040C553DF4F1882CB5CD040C4
:10526000B02FBB1FBB27BB1F8B2F90E0880F991F50
:10527000880F991F16FB112710F9C353DF4F1883AE
:10528000CD5CD040C253DF4F1882CE5CD040C353B8
:10529000DF4F28813981CD5CD040822B932B7295D2
:1052A0007170C153DF4F7883CF5CD040C053DF4F64
:1052B0001882C05DD040C153DF4F28813981CF5C57
:1052C000D040220F331F822B932B65FB662760F99A
:1052D000CF52DF4F6883C15DD040CE52DF4F18827E
:1052E000C25DD040CF52DF4F28813981C15DD040AF
:1052F000220F331F220F331F220F331F822B932BBA
:10530000489FB001499F700D1124DB01AE53BF4D82
:105310001F962D913C915097C553DF4F688179813D
:10532000CB5CD040262B372B529FC001539F900D52
:10533000112490831182A9E8B3E28D919C919C0184
:1053400033272093AB233093AC23EDEAF3E2908331
:10535000118280913A2490913B249C013327209321
:10536000AF233093B023E1EBF3E29083118280917D
:105370005424909155249C0133272093B3233093D8
:10538000B423E5EBF3E2908311828091E1239091C5
:10539000E2239C0133272093B7233093B823E9EB12
:1053A000F3E2908311828091B5209091B62095957B
:1053B00087959595879595958795959587958093EC
:1053C000BB239093BC2360E270E08BE993E299D118
:1053D00088D0BAE0BA95F1F700C00C944D191F922D
:1053E0000F920FB60F92112408B60F9218BE2F938A
:1053F0008F939F932091A00B8091AA209091AB2036
:105400008230910519F12CF4009749F0019789F049
:105410005EC08330910551F1049789F158C02A325A
:1054200009F055C081E090E08093AA209093AB20D2
:105430004EC0822F90E080936C2490936D2482E084
:1054400090E08093AA209093AB2041C080916C247F
:1054500090916D24922B80936C2490936D2483E023
:1054600090E08093AA209093AB2031C02093022437
:1054700084E090E08093AA209093AB2028C0233250
:1054800011F520910224223019F0233051F011C07F
:1054900080916C2490916D24809352249093532496
:1054A00008C080916C2490916D248093DF239093A9
:1054B000E02380916C2490916D2480937D239093C0
:1054C0007E232093E3211092AA201092AB209F917B
:1054D0008F912F910F9008BE0F900FBE0F901F90CD
:1054E0001895E0E8F6E082E0868385838AE68A956F
:1054F000F1F700C082E086830895E0ECFAE0838350
:1055000082818823ECF7E0ECFAE0838108951F9311
:10551000CF93DF93C0E8D6E010E11E83EEDF8FEF7C
:10552000ECDF1D83DF91CF911F910895FF920F93C0
:105530001F93CF93DF93F62EC0E8D6E010E11E83D1
:10554000DCDF082F8F2DD9DF1D83802FDF91CF91D6
:105550001F910F91FF900895682F6F7785E2E6CF36
:105560000895CF93C82F682F84E2E0DF6C2F81E28B
:10557000DDDFCF91089563E083E2D8CF089560E73F
:1055800087E2D4CF0895DF92EF92FF920F931F939B
:10559000CF93DF937B018A0190E1E0E8F6E0968308
:1055A000ACDFD82E101611064CF4E7010E0D1F1DAE
:1055B0008FEFA3DF8993C017D107D1F780E1E0E82F
:1055C000F6E085838D2DDF91CF911F910F91FF9094
:1055D000EF90DF900895AB01BC0181E6D4CF089530
:1055E000DF92EF92FF920F931F93CF93DF937B0194
:1055F0008A0190E1E0E8F6E096837FDFD82E10166E
:10560000110644F4E7010E0D1F1D899176DFC017C6
:10561000D107D9F780E1E0E8F6E085838D2DDF91B1
:10562000CF911F910F91FF90EF90DF900895EF922F
:10563000FF920F931F93CF93DF93F82EEB018A0114
:10564000E22E82E064DF41E050E00F2C02C0440F04
:10565000551F0A94E2F7682F642B82E267DF81E12D
:105660008F0D6E2D806262DF8AE08F0DA801BE0172
:105670008062B6DFDF91CF911F910F91FF90EF9085
:105680000895AB01BC0180E3ABCF0895CF92DF92C8
:10569000EF92FF920F931F93CF93DF93F82ED62EA6
:1056A000142FE90180E05DDF61E081E23FDF6FE21E
:1056B00084E23CDF1160612F6C2986E237DF802FA6
:1056C0005ADF112707FD10952E2DA801BE0180E09D
:1056D000AEDF8D2D41DFB801CE01D3DF6F2D6A60C3
:1056E00080E224DF8FED9EE20197F1F700C0000019
:1056F000DF91CF911F910F91FF90EF90DF90CF90AE
:105700000895AB01BC0180EA6BCF08951F93CF933E
:10571000DF93C0E8D6E010E11E8381EEEEDE1D834C
:10572000DF91CF911F9108951F93CF93DF93C0E82E
:10573000D6E010E11E8382EEE0DE1D83DF91CF9183
:105740001F910895A1E21A2EAA1BBB1BFD010DC0DB
:10575000AA1FBB1FEE1FFF1FA217B307E407F50721
:1057600020F0A21BB30BE40BF50B661F771F881FFD
:10577000991F1A9469F760957095809590959B0193
:10578000AC01BD01CF0108955058BB27AA270ED008
:105790004DC13ED130F043D120F031F49F3F11F4A0
:1057A0001EF433C10EF4E095E7FB29C1E92F4FD178
:1057B00080F3BA17620773078407950718F071F42E
:1057C0009EF567C10EF4E0950B2EBA2FA02D0B01AC
:1057D000B90190010C01CA01A0011124FF27591B36
:1057E00099F0593F50F4503E68F11A16F040A22F3C
:1057F000232F342F4427585FF3CF469537952795AD
:10580000A795F0405395C9F77EF41F16BA0B620BAB
:10581000730B840BBAF09150A1F0FF0FBB1F661FF2
:10582000771F881FC2F70EC0BA0F621F731F841F35
:1058300048F4879577956795B795F7959E3F08F05B
:10584000B3CF9395880F08F09927EE0F979587951A
:1058500008950CD0EBC0E3D040F0DAD030F021F462
:105860005F3F19F0CCC0511115C1CFC0F0D098F3F3
:105870009923C9F35523B1F3951B550BBB27AA27D1
:1058800062177307840738F09F5F5F4F220F331F43
:10589000441FAA1FA9F333D00E2E3AF0E0E830D00F
:1058A00091505040E695001CCAF729D0FE2F27D012
:1058B000660F771F881FBB1F261737074807AB07E0
:1058C000B0E809F0BB0B802DBF01FF2793585F4F55
:1058D0002AF09E3F510568F092C0DCC05F3FECF3B8
:1058E000983EDCF3869577956795B795F7959F5F1A
:1058F000C9F7880F911D9695879597F90895E1E06E
:10590000660F771F881FBB1F621773078407BA07CC
:1059100020F0621B730B840BBA0BEE1F88F7E09527
:10592000089504D06894B111B5C0089598D088F056
:105930009F5790F0B92F9927B751A0F0D1F0660F7B
:10594000771F881F991F1AF0BA95C9F712C0B13096
:1059500081F09FD0B1E008959CC0672F782F8827F1
:10596000B85F39F0B93FCCF3869577956795B395D5
:10597000D9F73EF490958095709561957F4F8F4F44
:105980009F4F0895E89409C097FB3EF49095809549
:10599000709561957F4F8F4F9F4F9923A9F0F92FF5
:1059A00096E9BB279395F695879577956795B79573
:1059B000F111F8CFFAF4BB0F11F460FF1BC06F5F59
:1059C0007F4F8F4F9F4F16C0882311F096E911C06B
:1059D000772321F09EE8872F762F05C0662371F08C
:1059E00096E8862F70E060E02AF09A95660F771FA0
:1059F000881FDAF7880F9695879597F9089597F994
:105A00009F6780E870E060E008959FEF80EC089564
:105A100000240A941616170618060906089500248D
:105A20000A9412161306140605060895092E039407
:105A3000000C11F4882352F0BB0F40F4BF2B11F47B
:105A400060FF04C06F5F7F4F8F4F9F4F089557FDDA
:105A50009058440F551F59F05F3F71F04795880FDC
:105A600097FB991F61F09F3F79F087950895121673
:105A700013061406551FF2CF4695F1DF08C016161F
:105A800017061806991FF1CF8695710561050894D0
:105A90000895E894BB2766277727CB0197F90895E7
:105AA0000BD0C4CFB5DF28F0BADF18F0952309F08A
:105AB000A6CFABCF1124EECFCADFA0F3959FD1F3D1
:105AC000950F50E0551F629FF001729FBB27F00DAC
:105AD000B11D639FAA27F00DB11DAA1F649F662701
