S00D000062617365312E737265634B
S1130000F9C000001DC100000C944F1719C1000075
S113001017C1000015C1000013C1000011C1000088
S11300200FC100000DC100000BC1000009C1000098
S113003007C1000005C1000049C500007FC50000DC
S1130040B5C50000EBC5000021C6000057C600007E
S11300508DC60000C3C60000F9C600002FC700000B
S1130060EFC00000EDC00000EBC00000E9C00000DC
S1130070E7C00000E5C00000E3C00000E1C00000EC
S1130080DFC00000DDC00000DBC00000D9C00000FC
S1130090D7C00000D5C00000D3C00000D1C000000C
S11300A0CFC00000CDC00000CBC000000C94EB100A
S11300B0C7C00000C5C00000C3C000000C948E0976
S11300C00C94C6090C94FE090C94360A0C946E0A1E
S11300D00C94A60A0C94DE0A0C94160B0C944E0B8A
S11300E00C94860BADC000000C944D20A9C00000F8
S11300F0A7C00000A5C00000A3C00000A1C000006C
S11301009FC000009DC000009BC0000099C000007B
S113011097C0000095C0000093C0000091C000008B
S11301208FC000008DC000008BC0000089C000009B
S113013087C000000C943F15F9C600002FC70000CB
S113014065C700009BC70000D1C700000C94AE082F
S11301500C94E6080C941E090C94560971C0000016
S11301606FC000006DC000006BC0000069C00000DB
S113017067C0000065C000000C94FB160C9479174E
S11301800C9425170C94A3175BC0000059C0000001
S11301900C94F61755C0000053C0000051C0000075
S11301A00C94EC164DC000004BC0000049C0000088
S11301B00C94BE0B0C94F60B0C942E0C0C94660C45
S11301C00C949E0C0C94D60C0C940E0D0C94460DB1
S11301D00C947E0D0C94B60D33C000000C94621F79
S11301E02FC000002DC000000C94BE1F29C00000C9
S11301F027C0000011241FBECFEFCDBFDFE3DEBF59
S113020000E00CBF18BE19BE1ABE1BBE10E2A0E06F
S1130210B0E2EAEFFBE400E00BBF02C007900D92EE
S1130220A036B107D9F71BBE24E2A0E6B0E201C0B4
S11302301D92A338B207E1F70E9491180C94FB2594
S1130240DFCEE4E2F6E09081A82FA170B0E0AA0F1F
S1130250BB1FAA0FBB1F9B7FA92BA083908181FB8F
S1130260662760F970E0660F771F62957295707F5C
S11302707627607F76279F7D692B6083908182FB40
S1130280442740F950E042955295507F5427407FCF
S113029054279F7E492B4083E4E4F6E0908183FB5E
S11302A0222720F930E0220F331F22953295307F28
S11302B03227207F3227892F8F7D282B2083089592
S11302C0E0E2F6E0808184608083808180628083C4
S11302D0808180618083E0E4F6E0808180628083B5
S11302E00895E0E2F6E080818B7F808380818F7DBA
S11302F0808380818F7E8083E0E4F6E080818F7D3F
S113030080830895CF93C82F8FE193E00197F1F78D
S113031000C000008C2F82958F7093DFE4E2F6E03A
S113032080818260808380818860808395ED9A9546
S1130330F1F700008081877F808385ED8A95F1F74E
S113034000008C2F7EDFE4E2F6E080818860808309
S113035095ED9A95F1F700008081877F8083CF9196
S11303600895CF93C82F8FEF8C0F823038F48FE32A
S11303709CE90197F1F700C0000006C08FE39FE1FC
S11303800197F1F700C000008C2F82958F7059DF20
S1130390E4E2F6E080818D7F8083808188608083C1
S11303A095ED9A95F1F700008081877F808385ED34
S11303B08A95F1F700008C2F44DFE4E2F6E08081B7
S11303C08860808395ED9A95F1F700008081877F9E
S11303D08083CF910895E4E2F6E08081877F808373
S11303E080DF2FEF87EE93E0215080409040E1F7CB
S11303F000C0000065DF83E024DFE0E2F6E08081F6
S113040082608083808181608083A4E2B6E08C91E5
S11304108D7F8C938C918E7F8C9380818860808378
S113042025ED2A95F1F70000E4E2F6E0808188608A
S1130430808385ED8A95F1F700008081877F808332
S11304409FEF23EF81E0915020408040E1F700C00E
S1130450000080818860808395ED9A95F1F7000013
S11304608081877F80838FE193E00197F1F700C05B
S1130470000080818860808395ED9A95F1F70000F3
S11304808081877F80838FE193E00197F1F700C03B
S1130490000082E0D6DE95ED9A95F1F70000E4E2E3
S11304A0F6E080818860808325ED2A95F1F70000CD
S11304B08081877F80838FE193E00197F1F700C00B
S11304C0000088E24EDF88E04CDF81E04ADF86E00E
S11304D048DF8CE046CF0895CF93DF93EC0121965B
S11304E0FC018081882321F00DDF89918111FCCFEB
S11304F0DF91CF910895623031F0633031F0613093
S113050029F4805C03C08C5E01C08C5A806829CFBA
S11305100895882339F0FB018081811107C081E0AF
S113052080830895FB01108280E0089580E008959F
S1130530E0E2F7E094818091C520A0910020B0E032
S1130540AA0FBB1FA85FBF4D90782C91922B9823C4
S11305509483E0E0F7E09481A0910120B0E0AA0F39
S1130560BB1FA85FBF4D90782C91922B8923848365
S11305700895809101208E3031F4809100208F30D5
S113058011F40C94890F0895EF92FF920F931F9327
S1130590CF93DF93F12C01E010E2C0E0D0E20F2E04
S11305A0F1E1EF2EF02DF801F082E882E2DFF3941E
S11305B0F0E1FF12F8CF80E18093002080930120C6
S11305C010920220DF91CF911F910F91FF90EF9035
S11305D008958F929F92AF92BF92CF92DF92EF9243
S11305E0FF920F931F93CF93DF938091022081306A
S11305F009F467C020F0823009F4C7C0E4C0C0E049
S1130600D7E01C816091B9207091BA208091BB2001
S11306109091BC2024E630E040E050E00E949C2110
S113062020FB17F91C8380E8E0E2F7E08683E0EE24
S1130630F6E0908520858085308530FB882480F81D
S1130640912C880C991C22FB222720F9822A93FBE7
S1130650AA24A0F8B12CAA0CBB1CAA0CBB1CA82869
S113066081FBCC24C0F8D12CCC0CDD1CCC0CDD1CC3
S1130670CC0CDD1CCA28C092012080E180930020AC
S113068057DF8091E80663E670E2881F8827881F99
S113069040DF882329F0E2E0F0E280818F5F8083ED
S11306A08091A80662E670E28295817032DF882329
S11306B009F489C084E690E08093602090936120DF
S11306C082C00F2EF0E2CF2EF7E0DF2EF02DF601E0
S11306D0B4806091B9207091BA208091BB20909130
S11306E0BC2024E630E040E050E00E949C2120FB46
S11306F0B7F8F601B48280E8E0E0F7E08583E0EE45
S1130700F6E0908520858085308530FBEE24E0F886
S1130710F12CEE0CFF1C22FB222720F9E22A93FB8A
S1130720002700F910E0000F111F000F111F0E2900
S113073086958170C82FF0E0DF2FCC0FDD1FCC0F22
S1130740DD1FCC0FDD1FC02BC0930020F1DE809194
S1130750E80663E670E2881F8827881FDADE8823AC
S113076029F0E2E0F0E280818F5F80838091A80627
S113077062E670E282958170CCDE882321F1E2E0AA
S1130780F0E28081815080831EC080E8E0E2F7E0DF
S11307908583E0E0F7E08583ECDE8091A80662E6DD
S11307A070E282958170B5DE882369F0E2E0F0E2C0
S11307B0808181508083C0E0D0E281E18883D9DEEA
S11307C080E18883B5DEDF91CF911F910F91FF9077
S11307D0EF90DF90CF90BF90AF909F908F9008954F
S11307E02FB7F894FC01E059FF4F6095808168238E
S11307F060832FBF08952FB7F894FC01E059FF4F91
S11308008081682B60832FBF0895811522E09207B1
S113081069F48091652091E0980F9093652081118F
S113082014C062E081E090E0DBCF08958034924010
S113083061F48091642091E0980F90936420811179
S113084004C062E082E090E0CBCF0895811522E0FD
S1130850920761F480916520815080936520811115
S113086013C062E081E090E0C6CF089580349240E6
S113087059F480916420815080936420811104C0D4
S113088062E082E090E0B7CF08951F93CF93DF93A7
S1130890EC011FB7F894B9DF8881816088831FBF9A
S11308A08FB7F894E7ECF0E290819F5F90838FBF5D
S11308B0DF91CF911F910895DF92EF92FF920F93F2
S11308C01F93CF93DF93EC018B01C11522E0D20774
S11308D071F461E270E082E0A7D0E82EF12C60E2CE
S11308E070E082E0A1D0FE2CEE24E82A10C080340F
S11308F0924059F565E270E082E096D0E82EF12C42
S113090064E270E082E090D0FE2CEE24E82ADFB6A8
S1130910F894CE017ADF288182E08883EC86FD8614
S1130920F80185819681888F998F82818A83848159
S11309308C8383818B8381818983822F81709081D1
S1130940892B8883CE0182DFDFBEDF91CF911F9197
S11309500F91FF90EF90DF900895DF92EF92FF9256
S11309600F931F93CF93DF937C018A01862F8370AB
S113097021F46695669582E001C080E060FF8F5F98
S1130980E701A09698E0899FC00DD11D1124DFB620
S1130990F894C7013ADFF8018081888382818A83D1
S11309A081818983C70152DFDFBEDF91CF911F911F
S11309B00F91FF90EF90DF900895DF92EF92FF92F6
S11309C00F931F93CF93DF937C01EA01862F8370EB
S11309D021F46695669582E001C080E060FF8F5F38
S11309E08701005E1F4F98E0899F000D111D11249F
S11309F0DFB6F894C70109DFF8018081888382811A
S1130A008A8381818983C70121DFDFBEDF91CF9192
S1130A101F910F91FF90EF90DF9008951BBEFC0192
S1130A2028ED24BF608308954091CA01E62FF72F73
S1130A308093CA0184914093CA010895CF92DF92B2
S1130A40EF92FF920F931F93CF93DF93EC016A0110
S1130A507B01DB01CA010197A109B109BC01CD01E8
S1130A60600F711F821F931FA70196010E949C2192
S1130A702138310541055105F8F4213460F421325F
S1130A8060F4213160F4293060F4253060F42330BF
S1130A9060F090E00BC093E009C092E007C092E8D8
S1130AA005C091E003C091E801C090E888818C778B
S1130AB0892B888381E001C08FEFDF91CF911F9153
S1130AC00F91FF90EF90DF90CF9008951F920F92B7
S1130AD00FB60F92112408B60F9218BE09B60F92E2
S1130AE019BE0BB60F921BBE2F933F934F935F9388
S1130AF06F937F938F939F93AF93BF93EF93FF93E2
S1130B00E091B220F091B320309709F01995FF914C
S1130B10EF91BF91AF919F918F917F916F915F9171
S1130B204F913F912F910F900BBE0F9009BE0F90E4
S1130B3008BE0F900FBE0F901F9018951F920F9232
S1130B400FB60F92112408B60F9218BE09B60F9271
S1130B5019BE0BB60F921BBE2F933F934F935F9317
S1130B606F937F938F939F93AF93BF93EF93FF9371
S1130B70E091B020F091B120309709F01995FF91E0
S1130B80EF91BF91AF919F918F917F916F915F9101
S1130B904F913F912F910F900BBE0F9009BE0F9074
S1130BA008BE0F900FBE0F901F9018951F920F92C2
S1130BB00FB60F92112408B60F9218BE09B60F9201
S1130BC019BE0BB60F921BBE2F933F934F935F93A7
S1130BD06F937F938F939F93AF93BF93EF93FF9301
S1130BE0E091AE20F091AF20309709F01995FF9174
S1130BF0EF91BF91AF919F918F917F916F915F9191
S1130C004F913F912F910F900BBE0F9009BE0F9003
S1130C1008BE0F900FBE0F901F9018951F920F9251
S1130C200FB60F92112408B60F9218BE09B60F9290
S1130C3019BE0BB60F921BBE2F933F934F935F9336
S1130C406F937F938F939F93AF93BF93EF93FF9390
S1130C50E091AC20F091AD20309709F01995FF9107
S1130C60EF91BF91AF919F918F917F916F915F9120
S1130C704F913F912F910F900BBE0F9009BE0F9093
S1130C8008BE0F900FBE0F901F9018951F920F92E1
S1130C900FB60F92112408B60F9218BE09B60F9220
S1130CA019BE0BB60F921BBE2F933F934F935F93C6
S1130CB06F937F938F939F93AF93BF93EF93FF9320
S1130CC0E091AA20F091AB20309709F01995FF919B
S1130CD0EF91BF91AF919F918F917F916F915F91B0
S1130CE04F913F912F910F900BBE0F9009BE0F9023
S1130CF008BE0F900FBE0F901F9018951F920F9271
S1130D000FB60F92112408B60F9218BE09B60F92AF
S1130D1019BE0BB60F921BBE2F933F934F935F9355
S1130D206F937F938F939F93AF93BF93EF93FF93AF
S1130D30E091A820F091A920309709F01995FF912E
S1130D40EF91BF91AF919F918F917F916F915F913F
S1130D504F913F912F910F900BBE0F9009BE0F90B2
S1130D6008BE0F900FBE0F901F9018951F920F9200
S1130D700FB60F92112408B60F9218BE09B60F923F
S1130D8019BE0BB60F921BBE2F933F934F935F93E5
S1130D906F937F938F939F93AF93BF93EF93FF933F
S1130DA0E091A620F091A720309709F01995FF91C2
S1130DB0EF91BF91AF919F918F917F916F915F91CF
S1130DC04F913F912F910F900BBE0F9009BE0F9042
S1130DD008BE0F900FBE0F901F9018951F920F9290
S1130DE00FB60F92112408B60F9218BE09B60F92CF
S1130DF019BE0BB60F921BBE2F933F934F935F9375
S1130E006F937F938F939F93AF93BF93EF93FF93CE
S1130E10E091A420F091A520309709F01995FF9155
S1130E20EF91BF91AF919F918F917F916F915F915E
S1130E304F913F912F910F900BBE0F9009BE0F90D1
S1130E4008BE0F900FBE0F901F9018951F920F921F
S1130E500FB60F92112408B60F9218BE09B60F925E
S1130E6019BE0BB60F921BBE2F933F934F935F9304
S1130E706F937F938F939F93AF93BF93EF93FF935E
S1130E80E091A220F091A320309709F01995FF91E9
S1130E90EF91BF91AF919F918F917F916F915F91EE
S1130EA04F913F912F910F900BBE0F9009BE0F9061
S1130EB008BE0F900FBE0F901F9018951F920F92AF
S1130EC00FB60F92112408B60F9218BE09B60F92EE
S1130ED019BE0BB60F921BBE2F933F934F935F9394
S1130EE06F937F938F939F93AF93BF93EF93FF93EE
S1130EF0E091A020F091A120309709F01995FF917D
S1130F00EF91BF91AF919F918F917F916F915F917D
S1130F104F913F912F910F900BBE0F9009BE0F90F0
S1130F2008BE0F900FBE0F901F9018951F920F923E
S1130F300FB60F92112408B60F9218BE09B60F927D
S1130F4019BE0BB60F921BBE2F933F934F935F9323
S1130F506F937F938F939F93AF93BF93EF93FF937D
S1130F60E0919E20F0919F20309709F01995FF9110
S1130F70EF91BF91AF919F918F917F916F915F910D
S1130F804F913F912F910F900BBE0F9009BE0F9080
S1130F9008BE0F900FBE0F901F9018951F920F92CE
S1130FA00FB60F92112408B60F9218BE09B60F920D
S1130FB019BE0BB60F921BBE2F933F934F935F93B3
S1130FC06F937F938F939F93AF93BF93EF93FF930D
S1130FD0E0919C20F0919D20309709F01995FF91A4
S1130FE0EF91BF91AF919F918F917F916F915F919D
S1130FF04F913F912F910F900BBE0F9009BE0F9010
S113100008BE0F900FBE0F901F9018951F920F925D
S11310100FB60F92112408B60F9218BE09B60F929C
S113102019BE0BB60F921BBE2F933F934F935F9342
S11310306F937F938F939F93AF93BF93EF93FF939C
S1131040E0919A20F0919B20309709F01995FF9137
S1131050EF91BF91AF919F918F917F916F915F912C
S11310604F913F912F910F900BBE0F9009BE0F909F
S113107008BE0F900FBE0F901F9018951F920F92ED
S11310800FB60F92112408B60F9218BE09B60F922C
S113109019BE0BB60F921BBE2F933F934F935F93D2
S11310A06F937F938F939F93AF93BF93EF93FF932C
S11310B0E0919820F0919920309709F01995FF91CB
S11310C0EF91BF91AF919F918F917F916F915F91BC
S11310D04F913F912F910F900BBE0F9009BE0F902F
S11310E008BE0F900FBE0F901F9018951F920F927D
S11310F00FB60F92112408B60F9218BE09B60F92BC
S113110019BE0BB60F921BBE2F933F934F935F9361
S11311106F937F938F939F93AF93BF93EF93FF93BB
S1131120E0919620F0919720309709F01995FF915E
S1131130EF91BF91AF919F918F917F916F915F914B
S11311404F913F912F910F900BBE0F9009BE0F90BE
S113115008BE0F900FBE0F901F9018951F920F920C
S11311600FB60F92112408B60F9218BE09B60F924B
S113117019BE0BB60F921BBE2F933F934F935F93F1
S11311806F937F938F939F93AF93BF93EF93FF934B
S1131190E0919420F0919520309709F01995FF91F2
S11311A0EF91BF91AF919F918F917F916F915F91DB
S11311B04F913F912F910F900BBE0F9009BE0F904E
S11311C008BE0F900FBE0F901F9018951F920F929C
S11311D00FB60F92112408B60F9218BE09B60F92DB
S11311E019BE0BB60F921BBE2F933F934F935F9381
S11311F06F937F938F939F93AF93BF93EF93FF93DB
S1131200E0919220F0919320309709F01995FF9185
S1131210EF91BF91AF919F918F917F916F915F916A
S11312204F913F912F910F900BBE0F9009BE0F90DD
S113123008BE0F900FBE0F901F9018951F920F922B
S11312400FB60F92112408B60F9218BE09B60F926A
S113125019BE0BB60F921BBE2F933F934F935F9310
S11312606F937F938F939F93AF93BF93EF93FF936A
S1131270E0919020F0919120309709F01995FF9119
S1131280EF91BF91AF919F918F917F916F915F91FA
S11312904F913F912F910F900BBE0F9009BE0F906D
S11312A008BE0F900FBE0F901F9018951F920F92BB
S11312B00FB60F92112408B60F9218BE09B60F92FA
S11312C019BE0BB60F921BBE2F933F934F935F93A0
S11312D06F937F938F939F93AF93BF93EF93FF93FA
S11312E0E0918E20F0918F20309709F01995FF91AD
S11312F0EF91BF91AF919F918F917F916F915F918A
S11313004F913F912F910F900BBE0F9009BE0F90FC
S113131008BE0F900FBE0F901F9018951F920F924A
S11313200FB60F92112408B60F9218BE09B60F9289
S113133019BE0BB60F921BBE2F933F934F935F932F
S11313406F937F938F939F93AF93BF93EF93FF9389
S1131350E0918C20F0918D20309709F01995FF9140
S1131360EF91BF91AF919F918F917F916F915F9119
S11313704F913F912F910F900BBE0F9009BE0F908C
S113138008BE0F900FBE0F901F9018951F920F92DA
S11313900FB60F92112408B60F9218BE09B60F9219
S11313A019BE0BB60F921BBE2F933F934F935F93BF
S11313B06F937F938F939F93AF93BF93EF93FF9319
S11313C0E0918A20F0918B20309709F01995FF91D4
S11313D0EF91BF91AF919F918F917F916F915F91A9
S11313E04F913F912F910F900BBE0F9009BE0F901C
S11313F008BE0F900FBE0F901F9018951F920F926A
S11314000FB60F92112408B60F9218BE09B60F92A8
S113141019BE0BB60F921BBE2F933F934F935F934E
S11314206F937F938F939F93AF93BF93EF93FF93A8
S1131430E0918820F0918920309709F01995FF9167
S1131440EF91BF91AF919F918F917F916F915F9138
S11314504F913F912F910F900BBE0F9009BE0F90AB
S113146008BE0F900FBE0F901F9018951F920F92F9
S11314700FB60F92112408B60F9218BE09B60F9238
S113148019BE0BB60F921BBE2F933F934F935F93DE
S11314906F937F938F939F93AF93BF93EF93FF9338
S11314A0E0918620F0918720309709F01995FF91FB
S11314B0EF91BF91AF919F918F917F916F915F91C8
S11314C04F913F912F910F900BBE0F9009BE0F903B
S11314D008BE0F900FBE0F901F9018951F920F9289
S11314E00FB60F92112408B60F9218BE09B60F92C8
S11314F019BE0BB60F921BBE2F933F934F935F936E
S11315006F937F938F939F93AF93BF93EF93FF93C7
S1131510E0918420F0918520309709F01995FF918E
S1131520EF91BF91AF919F918F917F916F915F9157
S11315304F913F912F910F900BBE0F9009BE0F90CA
S113154008BE0F900FBE0F901F9018951F920F9218
S11315500FB60F92112408B60F9218BE09B60F9257
S113156019BE0BB60F921BBE2F933F934F935F93FD
S11315706F937F938F939F93AF93BF93EF93FF9357
S1131580E0918220F0918320309709F01995FF9122
S1131590EF91BF91AF919F918F917F916F915F91E7
S11315A04F913F912F910F900BBE0F9009BE0F905A
S11315B008BE0F900FBE0F901F9018951F920F92A8
S11315C00FB60F92112408B60F9218BE09B60F92E7
S11315D019BE0BB60F921BBE2F933F934F935F938D
S11315E06F937F938F939F93AF93BF93EF93FF93E7
S11315F0E0918020F0918120309709F01995FF91B6
S1131600EF91BF91AF919F918F917F916F915F9176
S11316104F913F912F910F900BBE0F9009BE0F90E9
S113162008BE0F900FBE0F901F9018951F920F9237
S11316300FB60F92112408B60F9218BE09B60F9276
S113164019BE0BB60F921BBE2F933F934F935F931C
S11316506F937F938F939F93AF93BF93EF93FF9376
S1131660E0917E20F0917F20309709F01995FF9149
S1131670EF91BF91AF919F918F917F916F915F9106
S11316804F913F912F910F900BBE0F9009BE0F9079
S113169008BE0F900FBE0F901F9018951F920F92C7
S11316A00FB60F92112408B60F9218BE09B60F9206
S11316B019BE0BB60F921BBE2F933F934F935F93AC
S11316C06F937F938F939F93AF93BF93EF93FF9306
S11316D0E0917C20F0917D20309709F01995FF91DD
S11316E0EF91BF91AF919F918F917F916F915F9196
S11316F04F913F912F910F900BBE0F9009BE0F9009
S113170008BE0F900FBE0F901F9018951F920F9256
S11317100FB60F92112408B60F9218BE09B60F9295
S113172019BE0BB60F921BBE2F933F934F935F933B
S11317306F937F938F939F93AF93BF93EF93FF9395
S1131740E0917A20F0917B20309709F01995FF9170
S1131750EF91BF91AF919F918F917F916F915F9125
S11317604F913F912F910F900BBE0F9009BE0F9098
S113177008BE0F900FBE0F901F9018951F920F92E6
S11317800FB60F92112408B60F9218BE09B60F9225
S113179019BE0BB60F921BBE2F933F934F935F93CB
S11317A06F937F938F939F93AF93BF93EF93FF9325
S11317B0E0917820F0917920309709F01995FF9104
S11317C0EF91BF91AF919F918F917F916F915F91B5
S11317D04F913F912F910F900BBE0F9009BE0F9028
S11317E008BE0F900FBE0F901F9018951F920F9276
S11317F00FB60F92112408B60F9218BE09B60F92B5
S113180019BE0BB60F921BBE2F933F934F935F935A
S11318106F937F938F939F93AF93BF93EF93FF93B4
S1131820E0917620F0917720309709F01995FF9197
S1131830EF91BF91AF919F918F917F916F915F9144
S11318404F913F912F910F900BBE0F9009BE0F90B7
S113185008BE0F900FBE0F901F9018951F920F9205
S11318600FB60F92112408B60F9218BE09B60F9244
S113187019BE0BB60F921BBE2F933F934F935F93EA
S11318806F937F938F939F93AF93BF93EF93FF9344
S1131890E0917420F0917520309709F01995FF912B
S11318A0EF91BF91AF919F918F917F916F915F91D4
S11318B04F913F912F910F900BBE0F9009BE0F9047
S11318C008BE0F900FBE0F901F9018951F920F9295
S11318D00FB60F92112408B60F9218BE09B60F92D4
S11318E019BE0BB60F921BBE2F933F934F935F937A
S11318F06F937F938F939F93AF93BF93EF93FF93D4
S1131900E0917220F0917320309709F01995FF91BE
S1131910EF91BF91AF919F918F917F916F915F9163
S11319204F913F912F910F900BBE0F9009BE0F90D6
S113193008BE0F900FBE0F901F9018951F920F9224
S11319400FB60F92112408B60F9218BE09B60F9263
S113195019BE0BB60F921BBE2F933F934F935F9309
S11319606F937F938F939F93AF93BF93EF93FF9363
S1131970E0917020F0917120309709F01995FF9152
S1131980EF91BF91AF919F918F917F916F915F91F3
S11319904F913F912F910F900BBE0F9009BE0F9066
S11319A008BE0F900FBE0F901F9018951F920F92B4
S11319B00FB60F92112408B60F9218BE09B60F92F3
S11319C019BE0BB60F921BBE2F933F934F935F9399
S11319D06F937F938F939F93AF93BF93EF93FF93F3
S11319E0E0916E20F0916F20309709F01995FF91E6
S11319F0EF91BF91AF919F918F917F916F915F9183
S1131A004F913F912F910F900BBE0F9009BE0F90F5
S1131A1008BE0F900FBE0F901F9018951F920F9243
S1131A200FB60F92112408B60F9218BE09B60F9282
S1131A3019BE0BB60F921BBE2F933F934F935F9328
S1131A406F937F938F939F93AF93BF93EF93FF9382
S1131A50E0916C20F0916D20309709F01995FF9179
S1131A60EF91BF91AF919F918F917F916F915F9112
S1131A704F913F912F910F900BBE0F9009BE0F9085
S1131A8008BE0F900FBE0F901F9018951F920F92D3
S1131A900FB60F92112408B60F9218BE09B60F9212
S1131AA019BE0BB60F921BBE2F933F934F935F93B8
S1131AB06F937F938F939F93AF93BF93EF93FF9312
S1131AC0E0916A20F0916B20309709F01995FF910D
S1131AD0EF91BF91AF919F918F917F916F915F91A2
S1131AE04F913F912F910F900BBE0F9009BE0F9015
S1131AF008BE0F900FBE0F901F9018951F920F9263
S1131B000FB60F92112408B60F9218BE09B60F92A1
S1131B1019BE0BB60F921BBE2F933F934F935F9347
S1131B206F937F938F939F93AF93BF93EF93FF93A1
S1131B30E0916820F0916920309709F01995FF91A0
S1131B40EF91BF91AF919F918F917F916F915F9131
S1131B504F913F912F910F900BBE0F9009BE0F90A4
S1131B6008BE0F900FBE0F901F9018951F920F92F2
S1131B700FB60F92112408B60F9218BE09B60F9231
S1131B8019BE0BB60F921BBE2F933F934F935F93D7
S1131B906F937F938F939F93AF93BF93EF93FF9331
S1131BA0E0916620F0916720309709F01995FF9134
S1131BB0EF91BF91AF919F918F917F916F915F91C1
S1131BC04F913F912F910F900BBE0F9009BE0F9034
S1131BD008BE0F900FBE0F901F901895CF93CFB7EC
S1131BE0F894282F392F211588E0380759F461E03B
S1131BF083E090E00E94F00364E083E090E00E94C0
S1131C00F0036AC0203488E0380759F462E083E0C6
S1131C1090E00E94F00364E083E090E00E94F0030F
S1131C205BC0211589E0380759F461E084E090E055
S1131C300E94F00364E084E090E00E94F0034CC052
S1131C40203489E0380759F462E084E090E00E948F
S1131C50F00364E084E090E00E94F0033DC02115AD
S1131C608AE0380759F461E085E090E00E94F003CF
S1131C7064E085E090E00E94F0032EC020348AE006
S1131C80380759F462E085E090E00E94F00364E0D4
S1131C9085E090E00E94F0031FC021158BE0380717
S1131CA059F461E086E090E00E94F00364E086E08D
S1131CB090E00E94F00310C020343B4059F462E0ED
S1131CC086E090E00E94F00364E086E090E00E94E9
S1131CD0F00302C0CFBF09C08FB7F894E7ECF0E27D
S1131CE090819F5F90838FBFCFBFCF910895FC01F8
S1131CF0818185FFFDCF608380E090E008954F925D
S1131D005F926F927F928F929F92AF92BF92CF9287
S1131D10DF92EF92FF920F931F93CF93DF93EC0127
S1131D204A015B0128013901D901C801689412F8FC
S1131D30B695A795979587951694D1F7B901A801FB
S1131D40032E36E176956795579547953A95D1F7E1
S1131D50302D2C8122FD08C0B695A79597958795BF
S1131D60769567955795479588159905AA05BB05F6
S1131D7008F4A6C084169506A606B70608F4A2C001
S1131D808C8182FD04C0880C991CAA1CBB1CC30155
S1131D90B201A50194010E949C212F3F3105410508
S1131DA0510508F491C0C12CD12C7601CA9419EFC5
S1131DB005C02C153D054E055F0568F0CC0CDD1CF7
S1131DC0EE1CFF1C1D3F14F46894C0F81F5F17300D
S1131DD081F7212F50C0212F11230CF04CC0D501C5
S1131DE0C401880F991FAA1FBB1F880F991FAA1F20
S1131DF0BB1F880F991FAA1FBB1F481A590A6A0ADA
S1131E007B0A1E3FF4F46DEF7FEF611B710917FD30
S1131E10739504C0440C551C661C771C6A95D2F754
S1131E20D501C401B695A79597958795BC01CD01B9
S1131E30640D751D861D971DA50194010E949C21AA
S1131E4036C023E0210FD501C40104C0880F991FB7
S1131E50AA1FBB1F2A95D2F79C01AD01B695A79581
S1131E6097958795BC01CD01640D751D861D971D41
S1131E700E949C211CC02D5FD501C40104C0880FA1
S1131E80991FAA1FBB1F2A95D2F79C01AD01B695D5
S1131E90A79597958795BC01CD01640D751D861D89
S1131EA0971D0E949C212150310941095109832F1A
S1131EB08F701295107F182B1F832E8381E018C01A
S1131EC080E016C080E014C0D501C401880F991FBA
S1131ED0AA1FBB1F880F991FAA1FBB1F880F991F1A
S1131EE0AA1FBB1F481A590A6A0A7B0A19EF8BCF2B
S1131EF0DF91CF911F910F91FF90EF90DF90CF90E2
S1131F00BF90AF909F908F907F906F905F904F9015
S1131F10089563E080E890E00E940E05E0E8F0E0B8
S1131F20828180FDFDCF6BE281E890E00E940E0586
S1131F30E0E8F0E0828180FDFDCFA895FFCFE0E5E9
S1131F40F0E0808182608083E1E5F0E0808181FFC0
S1131F50FDCF88ED84BF81E080934000E0E5F0E0B0
S1131F608081827E8083089580E48093210687E4C3
S1131F70809341068EE2809361068AEB809381060A
S1131F80E0E9F6E0808182608083E9E8F6E0808120
S1131F9081608083EAE8F6E080818160808380E16B
S1131FA08093AA0688E88093A1068093A5068FEF04
S1131FB080932007809300071092F50681E08093B8
S1131FC0F70685E08093E9068FE88093EB06089591
S1131FD0E0E0F8E08081807F866080838181887F73
S1131FE0836081838FEF90E086A397A380858E6FB3
S1131FF0808781818061818381818062818380E0A7
S113200098E0ECCD0895E0E0F9E08081807F86607F
S113201080838181887F818386818C7F868386818A
S1132020826086838DE790E086A397A380858E6F78
S1132030808780E099E0D2CD08950F931F9300E04C
S113204018E428EE31E040E052E16AE770E080EC09
S11320509AE00E941E05E0ECFAE0808180618083B2
S11320608081806480831F910F9108950F931F9343
S1132070CF93DF93C0EADAE08D818F738D8383E0A1
S11320808D838B818F7C80628B8300E018E428EE43
S113209031E040E855E260E070E080EA9AE02FDE4B
S11320A08C8188608C83DF91CF911F910F9108956B
S11320B00F931F93CF93DF93C0EADBE08D818F737F
S11320C08D8383E08D838B818F7C80628B8300E0A2
S11320D018E428EE31E040E855E260E070E080EA80
S11320E09BE00DDE8C8188608C838C8180618C8385
S11320F0DF91CF911F910F9108950F931F93CF9369
S1132100DF93C0EBDBE08D818F738D8383E08D8360
S11321108B818F7C80628B8300E018E428EE31E0B1
S113212040E855E260E070E080EB9BE0E8DD8C8104
S113213088608C838C8180618C83DF91CF911F9127
S11321400F910895CF93DF93CDB7DEB72A97CDBF14
S1132150DEBF61E270E082E00E94140560E270E09C
S113216082E00E9414058A81897E9B819F7C906213
S11321709B8392E09D8388608A831C82BE016F5F8B
S11321807F4F80E092E00E945C04AE01485F5F4FA5
S113219061E080E092E00E94DD0481E0888788E1CC
S11321A08987AE01485F5F4F61E080E092E00E9462
S11321B0AD0480E092E00E9445048FB7F894E0E01B
S11321C0F2E09081946090838FBF2A96CDBFDEBFEA
S11321D0DF91CF9108951F920F920FB60F921124A1
S11321E008B60F9218BE09B60F9219BE0AB60F921E
S11321F01ABE0BB60F921BBE2F923F924F925F9264
S11322006F927F928F929F92AF92BF92DF92EF92E2
S1132210FF920F931F932F933F934F935F936F936B
S11322207F938F939F93AF93BF93EF93FF93CF933A
S1132230DF93CDB7DEB7C255D109CDBFDEBF60E7AE
S113224087E20E949020D82E86FFDDC388E0E0E676
S1132250F6E0878360E270E08AE793E20E94E5207B
S113226040917A23E8E0F6E070816081208150811A
S1132270842F90E0221F2227221F30E0220F331FD9
S1132280220F331F76FBEE24E0F8F12CE22AF32A26
S113229064FB002700F910E0000F111FE02AF12A67
S11322A055FB552750F962965FAF629763961FAE50
S11322B0639763962EAD3FAD6397220F331F220FB2
S11322C0331F220F331F2E293F298217930709F04A
S11322D09AC31092C3201092C4205081308180810F
S11322E02081881F8827881F90E0880F991F880FF6
S11322F0991F56FBAA24A0F8B12CA82AB92A329512
S1132300317039831A8289819A81880F991FA82A8A
S1132310B92A25FB882480F8912CC401880F991FC1
S1132320880F991F880F991F4501882A992A57E118
S1132330589DD001599DB00D1124A053BF4D4C930D
S11323404081308180812081881F8827881F90E008
S1132350880F991F880F991F46FB662460F8712C1B
S1132360682A792A34FB442440F8512C440C551C27
S11323706428752825FB222420F8312CC101880FFC
S1132380991F880F991F880F991F1301282A392A2A
S1132390529DD001539DB00D1124A053BF4D809187
S11323A07B2390E011968D939C931297308120812A
S11323B080814081881F8827881F90E0880F991F9B
S11323C0880F991F36FB332730F93B831C826B81BE
S11323D07C81862B972B229521702D831E822D8143
S11323E03E81220F331F822B932B45FB442740F958
S11323F04F8318862F813885220F331F220F331FF6
S1132400220F331F822B932B589FD001599FB00D5D
S11324101124A053BF4D80917C2390E013968D939B
S11324209C9314973081208180814081881F882764
S1132430881F90E0880F991F880F991F36FB332758
S113244030F939871A86A985BA858A2B9B2B229560
S113245021702B871C862B853C85220F331F822BF2
S1132460932B45FB442740F94D871E862D853E85D9
S1132470220F331F220F331F220F331F822B932B64
S1132480589FD001599FB00D1124A053BF4D809186
S11324907D2390E015968D939C931697308120812F
S11324A080814081881F8827881F90E0880F991FAA
S11324B0880F991F36FB332730F93F87188A6F85B9
S11324C07889862B972B22952170298B1A8A298942
S11324D03A89220F331F822B932B45FB442740F963
S11324E04B8B1C8A2B893C89220F331F220F331FED
S11324F0220F331F822B932B589FD001599FB00D6D
S11325001124A053BF4D80917E2390E017968D93A4
S11325109C9318973081208180814081881F88276F
S1132520881F90E0880F991F880F991F36FB332767
S113253030F93D8B1E8AAD89BE898A2B9B2B22954F
S113254021702F8B188E2F89388D220F331F822BE9
S1132550932B45FB442740F9498F1A8E298D3A8DD8
S1132560220F331F220F331F220F331F822B932B73
S1132570589FD001599FB00D1124A053BF4D809195
S11325807F2390E019968D939C931A973081208134
S113259080814081881F8827881F90E0880F991FB9
S11325A0880F991F36FB332730F93B8F1C8E6B8DB8
S11325B07C8D862B972B229521702D8F1E8E2D8D31
S11325C03E8D220F331F822B932B45FB442740F96A
S11325D04F8F18A22F8D38A1220F331F220F331FC4
S11325E0220F331F822B932B589FD001599FB00D7C
S11325F01124A053BF4D8091802390E01B968D93AE
S11326009C931C973081208180814081881F88277A
S1132610881F90E0880F991F880F991F36FB332776
S113262030F939A31AA2A9A1BAA18A2B9B2B22950E
S113263021702BA31CA22BA13CA1220F331F822BA0
S1132640932B45FB442740F94DA31EA22DA13EA187
S1132650220F331F220F331F220F331F822B932B82
S1132660589FD001599FB00D1124A053BF4D8091A4
S1132670812390E01D968D939C931E973081208139
S113268080814081881F8827881F90E0880F991FC8
S1132690880F991F36FB332730F93FA318A66FA183
S11326A078A5862B972B2295217029A71AA629A5F0
S11326B03AA5220F331F822B932B45FB442740F965
S11326C04BA71CA62BA53CA5220F331F220F331F9B
S11326D0220F331F822B932B589FD001599FB00D8B
S11326E01124A053BF4D8091822390E01F968D93B7
S11326F09C9350973081208180814081881F882756
S1132700881F90E0880F991F880F991F36FB332785
S113271030F93DA71EA6ADA5BEA58A2B9B2B2295FD
S113272021702FA718AA2FA538A9220F331F822B97
S1132730932B45FB442740F949AB1AAA29A93AA986
S1132740220F331F220F331F220F331F822B932B91
S1132750589FD001599FB00D1124A053BF4D8091B3
S1132760832351968C933081208180814081881FFE
S11327708827881F90E0880F991F880F991F36FBC0
S1132780332730F93BAB1CAA6BA97CA9862B972B6A
S1132790229521702DAB1EAA2DA93EA9220F331F0D
S11327A0822B932B45FB442740F94FAB18AE2FA93E
S11327B038AD220F331F220F331F220F331F822BFA
S11327C0932B589FD001599FB00D1124A053BF4D96
S11327D08091842352968C93308120818081408122
S11327E0881F8827881F90E0880F991F880F991FDA
S11327F036FB332730F939AF1AAEA9ADBAAD8A2BFF
S11328009B2B229521702BAF1CAE2BAD3CAD220F20
S1132810331F822B932B45FB442740F94DAF1EAE4B
S11328202DAD3EAD220F331F220F331F220F331F56
S1132830822B932B589FD001599FB00D1124A05384
S1132840BF4D8091852353968C9330812081808164
S11328504081881F8827881F90E0880F991F880F60
S1132860991F36FB332730F93FAF21961FAE2197CE
S113287021966EAD7FAD2197862B972B22952170E3
S113288022962FAF229723961FAE239723962EAD21
S11328903FAD2397220F331F822B932B45FB4427F5
S11328A040F924964FAF249725961FAE2597259679
S11328B02EAD3FAD2597220F331F220F331F220F5A
S11328C0331F822B932B589FD001599FB00D112495
S11328D0A053BF4D8091862354968C9330812081E0
S11328E080814081881F8827881F90E0880F991F66
S11328F0880F991F36FB332730F926963FAF26976A
S113290027961FAE27972796AEADBFAD27978A2B84
S11329109B2B2295217028962FAF289729961FAEBE
S1132920299729962EAD3FAD2997220F331F822B6D
S1132930932B45FB442740F92A964FAF2A972B96B1
S11329401FAE2B972B962EAD3FAD2B97220F331F27
S1132950220F331F220F331F822B932B589FD0013A
S1132960599FB00D1124A053BF4D809187235596D4
S11329708C933081208180814081881F8827881F23
S113298090E0880F991F880F991F36FB332730F981
S11329902C963FAF2C972D961FAE2D972D96EEAD0E
S11329A0FFAD2D978E2B9F2B229521702E962FAF46
S11329B02E972F961FAE2F972F962EAD3FAD2F97A4
S11329C0220F331F822B932B45FB442740F960963B
S11329D04FAF609761961FAE619761962EAD3FAD84
S11329E06197220F331F220F331F220F331F822BB5
S11329F0932B589FF001599FF00D1124E053FF4D84
S1132A0080918823868BD5FE04C080E2E0E6F6E060
S1132A108783D4FE06C084E0E0E6F6E087830E9464
S1132A208021CE5ADF4FCDBFDEBFDF91CF91FF9122
S1132A30EF91BF91AF919F918F917F916F915F9132
S1132A404F913F912F911F910F91FF90EF90DF9045
S1132A50BF90AF909F908F907F906F905F904F90BA
S1132A603F902F900F900BBE0F900ABE0F9009BE9F
S1132A700F9008BE0F900FBE0F901F9018951F92D5
S1132A800F920FB60F92112408B60F9218BE09B612
S1132A900F9219BE0AB60F921ABE0BB60F921BBE46
S1132AA0AF92BF92DF92EF92FF920F931F932F93F7
S1132AB03F934F935F936F937F938F939F93AF93C2
S1132AC0BF93CF93DF93EF93FF93A89580919E23B9
S1132AD08F5F80939E238431B4F081E08093B8208B
S1132AE08091FD239091FE23019681709078992323
S1132AF024F401978E6F9F6F01968093FD2390932A
S1132B00FE2310929E238091B9209091BA20A09127
S1132B10BB20B091BC200196A11DB11D8093B920AA
S1132B209093BA20A093BB20B093BC208091C12085
S1132B309091C220892B09F440C08091EA219091A0
S1132B40EB21A091EC21B091ED21883B2BE0920781
S1132B50A105B105D0F40196A11DB11D8093EA2110
S1132B609093EB21A093EC21B093ED21A0E2B6E089
S1132B7014968C911497806414968C938FEF90E044
S1132B8080932A0890932B0818C010922A08109258
S1132B902B08A0E2B6E014968C9114978F7B1496C0
S1132BA08C931092EA211092EB211092EC21109256
S1132BB0ED211092C1201092C2208091BF209091EB
S1132BC0C020892B09F43FC08091EA219091EB2128
S1132BD0A091EC21B091ED2184369105A105B105B8
S1132BE0D0F40196A11DB11D8093EA219093EB21AD
S1132BF0A093EC21B093ED218FEF90E0809328080F
S1132C0090932908A0E2B6E014968C9114978064FE
S1132C1014968C9318C01092280810922908A0E2E8
S1132C20B6E014968C9114978F7B14968C93109223
S1132C30EA211092EB211092EC211092ED211092D6
S1132C40BF201092C0208091C3209091C42001968F
S1132C508093C3209093C420809160209091612040
S1132C608130910581F41092C5200E9498020E943F
S1132C70C40280916020909161200197809360202C
S1132C809093612087C08230910508F10197809369
S1132C906020909361200E94E902809160209091CD
S1132CA06120883B2BE0920708F074C0A0E0B0E0FC
S1132CB080932C2090932D20A0932E20B0932F202E
S1132CC088EC90E0809362229093632263C0A8E032
S1132CD0B6E0DC90EC908C91FC90881F8827881FCC
S1132CE090E0880F991F880F991FD6FA002700F9E2
S1132CF010E0082B192BE4FAEE24E0F8CE2D80E046
S1132D00D82FCC0FDD1F0C2B1D2BF5FAEE27E0F985
S1132D10F0E0CF01880F991F880F991F880F991F22
S1132D20F801E82BF92BEE0FFF1FE85FFF4D8081C0
S1132D30E0E2F7E08483CC919C91EC918C91EE1FBE
S1132D40EE27EE1FF0E0EE0FFF1FEE0FFF1FC6FB96
S1132D50662760F970E0E62BF72B94FB442740F9D3
S1132D6050E0440F551FE42BF52B85FBAA24A0F853
S1132D70B12C9501220F331F220F331F220F331F53
S1132D80E22BF32BEE0FFF1FE85FFF4D8081E0E0A5
S1132D90F7E08483FF91EF91DF91CF91BF91AF91E1
S1132DA09F918F917F916F915F914F913F912F915F
S1132DB01F910F91FF90EF90DF90BF90AF900F9015
S1132DC00BBE0F900ABE0F9009BE0F9008BE0F9065
S1132DD00FBE0F901F9018951F920F920FB60F926F
S1132DE0112408B60F9218BE0F9008BE0F900FBEA4
S1132DF00F901F9018951F920F920FB60F921124E7
S1132E0008B60F9218BE2F933F938F939F932091F0
S1132E104124309142248091C80781FF03C08FEF81
S1132E209FEF02C081E090E0820F931F80934124C2
S1132E30909342249F918F913F912F910F9008BEC0
S1132E400F900FBE0F901F9018951F920F920FB600
S1132E500F92112408B60F9218BE2F933F938F93AD
S1132E609F932091AA233091AB238091E80684FF9D
S1132E7003C08FEF9FEF02C081E090E0820F931FA9
S1132E808093AA239093AB239F918F913F912F918D
S1132E900F9008BE0F900FBE0F901F9018951F92B1
S1132EA00F920FB60F92112408B60F9218BE2F93EB
S1132EB03F938F939F932091E6233091E723809152
S1132EC0480684FF03C08FEF9FEF02C081E090E0CB
S1132ED0820F931F8093E6239093E7239F918F9112
S1132EE03F912F910F9008BE0F900FBE0F901F902F
S1132EF018951F920F920FB60F92112408B60F92D5
S1132F0018BE2F933F938F939F9320915F2430910A
S1132F1060248091C80782FF03C08FEF9FEF02C037
S1132F2081E090E0820F931F80935F24909360244C
S1132F309F918F913F912F910F9008BE0F900FBEDC
S1132F400F901F9018951F920F920FB60F92112495
S1132F5008B60F9218BE09B60F9219BE0BB60F929F
S1132F601BBE2F933F934F935F936F937F938F93E6
S1132F709F93AF93BF93EF93FF93809160209091C1
S1132F806120892B89F48091E80663E670E2881F4A
S1132F908827881F0E9489028091A80662E670E251
S1132FA0829581700E94890280E395E78093602076
S1132FB0909361208FEF8093C5200E949802FF9127
S1132FC0EF91BF91AF919F918F917F916F915F919D
S1132FD04F913F912F910F900BBE0F9009BE0F9010
S1132FE008BE0F900FBE0F901F9018951F920F925E
S1132FF00FB60F92112408B60F9218BE0F9008BE98
S11330000F900FBE0F901F901895EF92FF920F93A1
S11330101F93CF93DF93CDB7DEB7C85CD109CDBF83
S1133020DEBF60E080E00E947B028091A3238F9347
S11330308091A2238F938CE390E29F938F9304E17A
S113304014E21F930F930E944523C8010E946C024F
S113305061E080E00E947B02EAEEF3E281818F93DB
S113306080818F9386E490E29F938F931F930F93B5
S11330700E944523C8010E946C0261E089E00E941D
S11330807B02809108221F928F938FE490E29F939A
S11330908F931F930F930E944523C8010E946C02D3
S11330A080917E248F9380917D248F938091C2237D
S11330B08F938091C1238F93E8EEF3E281818F9304
S11330C080818F9386E590E29F938F93CE01019642
S11330D09F938F930E944523CDBFDEBF8823B1F019
S11330E08E010F5F1F4F81506894EE24E1F8F12C9C
S11330F0EC0EFD1EE80EF11CF80161918F0180EACF
S11331009AE00E94770E0E151F05B1F7C853DF4FE2
S1133110CDBFDEBFDF91CF911F910F91FF90EF9054
S11331200895CF93DF93CDB7DEB7CE55D109CDBF88
S1133130DEBF0E949F0FE2EAF0E080818760808317
S11331400E94B40F0E9403100E94E80F0E945810BE
S11331500E947D100E9436100E94A2100E94EB0172
S1133160789488EB9BE0A0E0B0E0809334209093C7
S11331703520A0933620B093372024EF31E02093FC
S11331801024309311248093382090933920A093F5
S11331903A20B0933B2084E690E080931A229093E7
S11331A01B2288EE93E0A0E0B0E08093302090935F
S11331B03120A0933220B093332088EC90E08093A8
S11331C03E2490933F2480ED97E0A0E0B0E080930C
S11331D02C2090932D20A0932E20B0932F2086E9AD
S11331E090E08093622290936322E8E0F6E090817D
S11331F0308180814081E3E0F0E2881F8827881FC6
S1133200282F220F220F96FB882780F9282B34FBC6
S1133210882480F8912CC401880F991F282B45FB22
S1133220002700F910E0C801880F991F880F991F23
S1133230880F991F822B9081890F808382E0E0E8B8
S1133240F6E086830E941D1023E02A95F1F7000022
S113325087EA91E60197F1F700C000008AD70E943F
S113326080210E948E2182E0E0E8F6E08683E8E097
S1133270F6E02081308180814081881F8827881F63
S113328090E0880F991F880F991F26FBEE24E0F821
S1133290F12CE82AF92A34FBCC24C0F8D12CC6013D
S11332A0880F991FE82AF92A45FBAA24A0F8B12C13
S11332B0C501880F991F880F991F880F991F8E29A0
S11332C09F2903977CF40F2EF6E0CF2EF02D6894FF
S11332D0EE24E5F805E023E030E248E062E380E034
S11332E0CFD70EC00F2EF6E0CF2EF02D6894EE242B
S11332F0E5F805E023E030E248E061E080E0C0D793
S113330061E08CE30DD766E08DE30AD782E0E0E864
S1133310F6E085839BE29A95F1F700000EEA13E24A
S11333200F2EF3E68F2EF4E29F2EF02DA8958091B8
S1133330B820882309F4C4C5F801E080F180E2EBE9
S1133340F3E2E082F182EAEAF3E2608171818827A4
S113335077FD8095982F0E94562220E030E040EFC0
S113336050E40E94E2220E9423222B013C01EAEA5B
S1133370F3E210821182B701882777FD8095982F98
S11333800E94562269837A838B839C834E185F083C
S1133390B201882777FD8095982F0E9456222EEA45
S11333A037E441EE5DE30E94E2229B01AC016981B6
S11333B07A818B819C81E3D70E942322F801608368
S11333C07183E5E4F4E2E080F180E9E4F4E2E08290
S11333D0F182E1E4F4E260817181882777FD8095D0
S11333E0982F0E94562220E030E040EF50E40E94E3
S11333F0E2220E9423222B013C01E1E4F4E2108248
S11334001182B701882777FD8095982F0E94562254
S113341069837A838B839C834E185F08B201882763
S113342077FD8095982F0E9456222EEA37E441EECC
S11334305DE30E94E2229B01AC0169817A818B8168
S11334409C819DD70E942322E5E4F4E2608371838A
S1133450F401E080F180E7E6F4E2E082F182EFE556
S1133460F4E260817181882777FD8095982F0E940E
S1133470562220E030E040EF50E40E94E222E3D7FD
S11334802B013C01EFE5F4E210821182B701882799
S113349077FD8095982F0E94562269837A838B83C7
S11334A09C834E185F08B201882777FD8095982F7A
S11334B0FDD72EEA37E441EE5DE30E94E2229B0150
S11334C0AC0169817A818B819C8159D7BCD7F40185
S11334D060837183EAEEF3E2E080F180EEEEF3E2E2
S11334E0E082F182E6EEF3E260817181882777FD64
S11334F08095982FDBD720E030E040EF50E40E9425
S1133500E222A1D72B013C01E6EEF3E21082118204
S1133510B701882777FD8095982FC8D769837A8368
S11335208B839C834E185F08B201882777FD8095B2
S1133530982FBCD72EEA37E441EE5DE30E94E222E5
S11335409B01AC0169817A818B819C8118D77BD7DF
S1133550EAEEF3E26083718358DD1092B820E8E06C
S1133560F6E03081208180814081881F8827881F70
S113357090E0880F991F880F991F36FB222420F8AA
S1133580312C82299329229521702D831E822D812D
S11335903E81220F331F822B932B45FB442740F996
S11335A04F8318862F813885220F331F220F331F34
S11335B0220F331F822B932B0F2EF7E1FF2EF02DBA
S11335C0F89EF001F99EF00D1124E053FF4D8FE0B9
S11335D0848BE8E0F6E03081208180814081881F7F
S11335E08827881F90E0880F991F880F991F36FB42
S11335F0332730F939871A8669857A85862B972B84
S1133600229521702B871C862B853C85220F331F26
S1133610822B932B45FB442740F94D871E862D852D
S11336203E85220F331F220F331F220F331F822B9D
S1133630932BF89EF001F99EF00D1124E053FF4DF9
S113364081E4858BE8E0F6E030812081808140814F
S1133650881F8827881F90E0880F991F880F991F5B
S113366036FB332730F93F87188A6F857889862B94
S1133670972B22952170298B1A8A29893A89220F3E
S1133680331F822B932B45FB442740F94B8B1C8A19
S11336902B893C89220F331F220F331F220F331F24
S11336A0822B932BF89EF001F99EF00D1124E05328
S11336B0FF4D85E0868B6AE280EA9BE00E94770EEC
S11336C06EE780EA9BE00E94770EE8E0F6E0308146
S11336D0208180814081881F8827881F90E0880F7F
S11336E0991F880F991F36FB332730F93D8B1E8AAB
S11336F06D897E89862B972B229521702F8B188EAE
S11337002F89388D220F331F822B932B45FB44279F
S113371040F9498F1A8E298D3A8D220F331F220FBB
S1133720331F220F331F822B932BF89EF001F99E37
S1133730F00D1124E053FF4D638180EA9BE00E9469
S1133740770EE8E0F6E03081208180814081881F97
S11337508827881F90E0880F991F880F991F36FBD0
S1133760332730F93B8F1C8E6B8D7C8D862B972BEA
S1133770229521702D8F1E8E2D8D3E8D220F331F8D
S1133780822B932B45FB442740F94F8F18A22F8D92
S113379038A1220F331F220F331F220F331F822B16
S11337A0932BF89EF001F99EF00D1124E053FF4D88
S11337B0618180EA9BE00E94770EE8E0F6E03081C8
S11337C0208180814081881F8827881F90E0880F8E
S11337D0991F880F991F36FB332730F939A31AA292
S11337E069A17AA1862B972B229521702BA31CA269
S11337F02BA13CA1220F331F822B932B45FB442783
S113380040F94DA31EA22DA13EA1220F331F220F6A
S1133810331F220F331F822B932BF89EF001F99E46
S1133820F00D1124E053FF4D678180EA9BE00E9474
S1133830770EE8E0F6E03081208180814081881FA6
S11338408827881F90E0880F991F880F991F36FBDF
S1133850332730F93FA318A66FA178A5862B972BA1
S11338602295217029A71AA629A53AA5220F331F4C
S1133870822B932B45FB442740F94BA71CA62BA571
S11338803CA5220F331F220F331F220F331F822B1D
S1133890932BF89EF001F99EF00D1124E053FF4D97
S11338A0658180EA9BE00E94770EE8E0F6E03081D3
S11338B0208180814081881F8827881F90E0880F9D
S11338C0991F880F991F36FB332730F93DA71EA691
S11338D06DA57EA5862B972B229521702FA718AA5C
S11338E02FA538A9220F331F822B932B45FB442786
S11338F040F949AB1AAA29A93AA9220F331F220F6A
S1133900331F220F331F822B932BF89EF001F99E55
S1133910F00D1124E053FF4D638580EA9BE00E9483
S1133920770EE8E0F6E03081208180814081881FB5
S11339308827881F90E0880F991F880F991F36FBEE
S1133940332730F93BAB1CAA6BA97CA9862B972B98
S1133950229521702DAB1EAA2DA93EA9220F331F3B
S1133960822B932B45FB442740F94FAB18AE2FA96C
S113397038AD220F331F220F331F220F331F822B28
S1133980932BF89EF001F99EF00D1124E053FF4DA6
S1133990618580EA9BE00E94770EE8E0F6E03081E2
S11339A0208180814081881F8827881F90E0880FAC
S11339B0991F880F991F36FB332730F939AF1AAE98
S11339C069AD7AAD862B972B229521702BAF1CAE57
S11339D02BAD3CAD220F331F822B932B45FB442789
S11339E040F94DAF1EAE2DAD3EAD220F331F220F59
S11339F0331F220F331F822B932BF89EF001F99E65
S1133A00F00D1124E053FF4D678580EA9BE00E948E
S1133A10770EE8E0F6E03081208180814081881FC4
S1133A208827881F90E0880F991F880F991F36FBFD
S1133A30332730F93FAF21961FAE219721966EAD03
S1133A407FAD2197862B972B2295217022962FAF3D
S1133A50229723961FAE239723962EAD3FAD23972F
S1133A60220F331F822B932B45FB442740F92496C6
S1133A704FAF249725961FAE259725962EAD3FADC3
S1133A802597220F331F220F331F220F331F822B40
S1133A90932BF89EF001F99EF00D1124E053FF4D95
S1133AA0658580EA9BE00E94770EE8E0F6E03081CD
S1133AB0208180814081881F8827881F90E0880F9B
S1133AC0991F880F991F36FB332730F926963FAF8D
S1133AD0269727961FAE279727966EAD7FAD27971B
S1133AE0862B972B2295217028962FAF28972996FD
S1133AF01FAE299729962EAD3FAD2997220F331F6C
S1133B00822B932B45FB442740F92A964FAF2A97E3
S1133B102B961FAE2B972B962EAD3FAD2B97220FD6
S1133B20331F220F331F220F331F822B932BF89E38
S1133B30F001F99EF00D1124E053FF4D648980EAF1
S1133B409BE00E94770EE8E0F6E0308120818081DE
S1133B504081881F8827881F90E0880F991F880F4D
S1133B60991F36FB332730F92C963FAF2C972D96AF
S1133B701FAE2D972D966EAD7FAD2D97862B972B6F
S1133B80229521702E962FAF2E972F961FAE2F972A
S1133B902F962EAD3FAD2F97220F331F822B932BE1
S1133BA045FB442740F960964FAF609761961FAE7E
S1133BB0619761962EAD3FAD6197220F331F220F9F
S1133BC0331F220F331F822B932BF89EF001F99E93
S1133BD0F00D1124E053FF4D658980EA9BE00E94BB
S1133BE0770EE8E0F6E03081208180814081881FF3
S1133BF08827881F90E0880F991F880F991F36FB2C
S1133C00332730F962963FAF629763961FAE63978E
S1133C1063966EAD7FAD6397862B972B22952170AB
S1133C2064962FAF649765961FAE659765962EAD23
S1133C303FAD6597220F331F822B932B45FB4427FF
S1133C4040F966964FAF669767961FAE679767967B
S1133C502EAD3FAD6797220F331F220F331F220F64
S1133C60331F822B932BF89EF001F99EF00D112443
S1133C70E053FF4D668980EA9BE00E94770E8091B5
S1133C80FD239091FE23009719F0019739F00BC0A2
S1133C9063E280EA9BE00E94770E05C064E280EA5A
S1133CA09BE00E94770E2FB7F894E0E0F2E084A145
S1133CB095A12FBF8093BD209093BE20893D944051
S1133CC03CF4E0E4F6E080E4858384E0858306C088
S1133CD0E0E4F6E080E4868384E08683E0E0F6E0D6
S1133CE0808582FF03C08FEF90E002C080E090E007
S1133CF0E8E0F6E05081408120816081221F222784
S1133D00221F30E0220F331F220F331F56FB55278B
S1133D1050F968965FAF689769961FAE6997699680
S1133D20EEADFFAD69972E2B3F2B429541706A96FD
S1133D304FAF6A976B961FAE6B976B964EAD5FADA8
S1133D406B97440F551F242B352B65FB662760F9B1
S1133D506C966FAF6C976D961FAE6D976D964EAD6A
S1133D605FAD6D97440F551F440F551F440F551FEA
S1133D70242B352B47E1429FF001439FF00D112482
S1133D80E053FF4D2189822B892B59F0E0E6F6E0C0
S1133D908085882334F081E090E08093C120909363
S1133DA0C220E8E0F6E03081208180814081881FD4
S1133DB08827881F90E0880F991F880F991F36FB6A
S1133DC0332730F96E963FAF6E976F961FAE6F979D
S1133DD06F966EAD7FAD6F97862B972B24FBAA242D
S1133DE0A0F8B12C9501220F331F822B932B45FB96
S1133DF0CC24C0F8D12C9601220F331F220F331F7D
S1133E00220F331F822B932B27E1289FF001299F38
S1133E10F00D1124E053FF4D8289882359F0E0E628
S1133E20F6E08085882334F081E090E08093BF2021
S1133E309093C0209091A2238091A3239093C423B4
S1133E408093C5239093C6238093C7239093C8235C
S1133E508093C9239093CA238093CB23F801908144
S1133E6081819093CC238093CD2390917D24809164
S1133E707E249093CE238093CF23F401908181817B
S1133E809093D0238093D123E8EEF3E29081818153
S1133E909093D2238093D3238091BD209091BE2010
S1133EA095958795959587959595879595958795F6
S1133EB08093D42360E270E084EC93E21CD20BD1B3
S1133EC0000034CA1F920F920FB60F92112408B645
S1133ED00F9218BE2F938F939F932091A00B8091E4
S1133EE0B6209091B7208130910599F01CF4892B6C
S1133EF039F03AC082309105C9F0039739F134C0E2
S1133F002A3291F581E090E08093B6209093B72017
S1133F102BC0822F90E080937F249093802482E0B2
S1133F2090E08093B6209093B7201EC080917F24A8
S1133F3090918024922B80937F249093802483E01B
S1133F4090E08093B6209093B7200EC0233241F4C2
S1133F5080917F24909180248093E8239093E92397
S1133F601092B6201092B7209F918F912F910F90AD
S1133F7008BE0F900FBE0F901F9018951F920F92BE
S1133F800FB60F92112408B60F9218BE0BB60F92FB
S1133F901BBE2F938F939F93EF93FF932091B00BAE
S1133FA08091B4209091B5208230910539F12CF4A0
S1133FB0009749F00197A9F062C08330910571F12F
S1133FC00497A9F15CC02A3209F059C080E2E0E606
S1133FD0F6E0878381E090E08093B4209093B5204D
S1133FE04EC0822F90E0809358249093592482E00D
S1133FF090E08093B4209093B52041C080915824E0
S113400090915924922B809358249093592483E0BF
S113401090E08093B4209093B52031C020930D2478
S113402084E090E08093B4209093B52028C023329C
S113403011F520910D24222319F0213051F011C0E3
S113404080915824909159248093AC239093AD236C
S113405008C08091582490915924809343249093CC
S1134060442480915824909159248093A2239093BE
S1134070A323209308221092B4201092B520FF911C
S1134080EF919F918F912F910F900BBE0F9008BECF
S11340900F900FBE0F901F9018951F920F920FB69E
S11340A00F92112408B60F9218BE0BB60F921BBEC6
S11340B08F93EF93FF9384E0E0E6F6E08783FF912C
S11340C0EF918F910F900BBE0F9008BE0F900FBE13
S11340D00F901F901895E0E8F6E082E086838583D0
S11340E08AE68A95F1F700C082E086830895E0ECC1
S11340F0FAE0838382818823ECF7E0ECFAE08381A1
S113410008951F93CF93DF93C0E8D6E010E11E8398
S1134110EEDF8FEFECDF1D83DF91CF911F910895C8
S1134120FF920F931F93CF93DF93F62EC0E8D6E050
S113413010E11E83DCDF082F8F2DD9DF1D83802F34
S1134140DF91CF911F910F91FF900895682F6F77A2
S113415085E2E6CF0895CF93C82F682F84E2E0DF8D
S11341606C2F81E2DDDFCF91089563E083E2D8CF45
S1134170089560E787E2D4CF0895DF92EF92FF922B
S11341800F931F93CF93DF937B018A0190E1E0E8C3
S1134190F6E09683ACDFD82E101611064CF4E70136
S11341A00E0D1F1D8FEFA3DF8993C017D107D1F721
S11341B080E1E0E8F6E085838D2DDF91CF911F91BA
S11341C00F91FF90EF90DF900895AB01BC0181E661
S11341D0D4CF0895DF92EF92FF920F931F93CF9362
S11341E0DF937B018A0190E1E0E8F6E096837FDFCC
S11341F0D82E1016110644F4E7010E0D1F1D8991E7
S113420076DFC017D107D9F780E1E0E8F6E08583CF
S11342108D2DDF91CF911F910F91FF90EF90DF9043
S11342200895EF92FF920F931F93CF93DF93F82E8D
S1134230EB018A01E22E82E064DF41E050E00F2CC2
S113424002C0440F551F0A94E2F7682F642B82E2E0
S113425067DF81E18F0D6E2D806262DF8AE08F0D52
S1134260A801BE018062B6DFDF91CF911F910F914B
S1134270FF90EF900895AB01BC0180E3ABCF0895AC
S1134280CF92DF92EF92FF920F931F93CF93DF931E
S1134290F82ED62E142FE90180E05DDF61E081E283
S11342A03FDF6FE484E23CDF1160612F6C2986E21A
S11342B037DF802F5ADF112707FD10952E2DA80117
S11342C0BE0180E0AEDF8D2D41DFB801CE01D3DF2A
S11342D06F2D6A6080E224DF8FED9EE20197F1F793
S11342E000C00000DF91CF911F910F91FF90EF90DC
S11342F0DF90CF900895AB01BC0180EA6BCF0895A5
S11343001F93CF93DF93C0E8D6E010E11E8381EEC4
S1134310EEDE1D83DF91CF911F9108951F93CF93FC
S1134320DF93C0E8D6E010E11E8382EEE0DE1D8359
S1134330DF91CF911F910895A1E21A2EAA1BBB1BF6
S1134340FD010DC0AA1FBB1FEE1FFF1FA217B3075D
S1134350E407F50720F0A21BB30BE40BF50B661F73
S1134360771F881F991F1A9469F760957095809537
S113437090959B01AC01BD01CF0108955058BB2716
S1134380AA270ED0E5C0D6D030F0DBD020F031F42F
S11343909F3F11F41EF4CBC00EF4E095E7FBC1C0BF
S11343A0E92FE7D080F3BA176207730784079507EC
S11343B018F071F49EF5FFC00EF4E0950B2EBA2FA1
S11343C0A02D0B01B90190010C01CA01A001112417
S11343D0FF27591B99F0593F50F4503E68F11A16C3
S11343E0F040A22F232F342F4427585FF3CF469554
S11343F037952795A795F0405395C9F77EF41F1676
S1134400BA0B620B730B840BBAF09150A1F0FF0F3F
S1134410BB1F661F771F881FC2F70EC0BA0F621F2B
S1134420731F841F48F4879577956795B795F7951B
S11344309E3F08F0B3CF9395880F08F09927EE0FAD
S113444097958795089504D06894B111B5C00895DF
S113445098D088F09F5790F0B92F9927B751A0F0C2
S1134460D1F0660F771F881F991F1AF0BA95C9F704
S113447012C0B13081F09FD0B1E008959CC0672F85
S1134480782F8827B85F39F0B93FCCF386957795B4
S11344906795B395D9F73EF490958095709561959D
S11344A07F4F8F4F9F4F0895E89409C097FB3EF4C8
S11344B090958095709561957F4F8F4F9F4F99236D
S11344C0A9F0F92F96E9BB279395F69587957795EB
S11344D06795B795F111F8CFFAF4BB0F11F460FFAB
S11344E01BC06F5F7F4F8F4F9F4F16C0882311F003
S11344F096E911C0772321F09EE8872F762F05C017
S1134500662371F096E8862F70E060E02AF09A95B1
S1134510660F771F881FDAF7880F9695879597F9A6
S1134520089597F99F6780E870E060E008959FEF31
S113453080EC089500240A94161617061806090636
S1134540089500240A941216130614060506089505
S1134550092E0394000C11F4882352F0BB0F40F48D
S1134560BF2B11F460FF04C06F5F7F4F8F4F9F4FCD
S1134570089557FD9058440F551F59F05F3F71F04F
S11345804795880F97FB991F61F09F3F79F08795B6
S11345900895121613061406551FF2CF4695F1DF3F
S11345A008C0161617061806991FF1CF86957105CF
S11345B0610508940895E894BB2766277727CB0103
S11345C097F908950BD0C4CFB5DF28F0BADF18F0FF
S11345D0952309F0A6CFABCF1124EECFCADFA0F309
S11345E0959FD1F3950F50E0551F629FF001729F84
S11345F0BB27F00DB11D639FAA27F00DB11DAA1FA3
S1134600649F6627B00DA11D661F829F2227B00DEF
S1134610A11D621F739FB00DA11D621F839FA00D7A
S1134620611D221F749F3327A00D611D231F849FCA
S1134630600D211D822F762F6A2F11249F57504021
S11346408AF0E1F088234AF0EE0FFF1FBB1F661FBC
S1134650771F881F91505040A9F79E3F510570F075
S113466060CFAACF5F3FECF3983EDCF38695779555
S11346706795B795F795E7959F5FC1F7FE2B880F70
S1134680911D9695879597F908950F931F93CF934E
S1134690DF93CDB7DEB72E97CDBFDEBF0E891F895E
S11346A086E08C8309831A838FEF9FE78D839E8333
S11346B0AE01465E5F4F688D798DCE0101960DD0B7
S11346C0EF81F885E00FF11F10822E96CDBFDEBF7B
S11346D0DF91CF911F910F9108952F923F924F92A6
S11346E05F926F927F928F929F92AF92BF92CF927E
S11346F0DF92EF92FF920F931F93CF93DF93CDB787
S1134700DEB72C97CDBFDEBF7C016B018A01FC01B3
S113471016821782838181FFB0C1CE0101964C01BC
S1134720F7019381F60193FD859193FF81916F01C8
S1134730882309F49EC1853239F493FD859193FF52
S113474081916F01853221F4B70190E0C4D1E8CFA3
S1134750512C312C20E02032A0F48B3269F030F45B
S1134760803259F0833269F420612CC08D3239F0E3
S1134770803339F4216026C02260246023C028607D
S113478021C027FD27C030ED380F3A3078F426FFDA
S113479006C0FAE05F9E300D1124532E13C08AE048
S11347A0389E300D1124332E20620CC08E3221F439
S11347B026FD5FC1206406C08C3611F4206802C057
S11347C0883641F4F60193FD859193FF81916F0141
S11347D08111C1CF982F9F7D9554933028F40C5F9D
S11347E01F4FFFE3F9830DC0833631F0833771F037
S11347F0833509F057C021C0F801808189830E5F99
S11348001F4F44244394512C540114C03801F2E046
S11348106F0E711CF801A080B18026FF03C0652DC6
S113482070E002C06FEF7FEFC5012C8749D12C01E6
S113483083012C852F77222E16C03801F2E06F0EEB
S1134840711CF801A080B18026FF03C0652D70E0C3
S113485002C06FEF7FEFC5012C8727D12C012C8577
S11348602068222E830123FC19C0832D90E0481672
S11348705906A0F4B70180E290E02DD13A94F5CF27
S1134880F50127FC859127FE81915F01B70190E036
S113489022D131103A94F1E04F1A510841145104D5
S11348A079F7DEC0843611F0893631F5F80127FF37
S11348B007C060817181828193810C5F1F4F08C0A2
S11348C060817181882777FD8095982F0E5F1F4F37
S11348D02F76B22E97FF09C09095809570956195BB
S11348E07F4F8F4F9F4F2068B22E2AE030E0A40103
S11348F024D1A82EA81843C0853729F42F7EB22EC0
S11349002AE030E025C0F22FF97FBF2E8F36C1F0A8
S113491018F4883579F0ADC0803719F0883721F064
S1134920A8C02F2F2061B22EB4FE0DC08B2D846041
S1134930B82E09C024FF0AC09F2F9660B92E06C066
S113494028E030E005C020E130E002C020E132E0A0
S1134950F801B7FE07C060817181828193810C5F89
S11349601F4F06C06081718180E090E00E5F1F4F91
S1134970A401E3D0A82EA818FB2DFF77BF2EB6FE06
S11349800BC02B2D2E7FA51450F4B4FE0AC0B2FC2C
S113499008C02B2D2E7E05C07A2C2B2D03C07A2C1B
S11349A001C0752C24FF0DC0FE01EA0DF11D8081AC
S11349B0803311F4297E09C022FF06C073947394D6
S11349C004C0822F867809F0739423FD12C020FF5F
S11349D006C05A2C731418F4530C5718732C731400
S11349E060F4B70180E290E02C8775D073942C8535
S11349F0F6CF731410F4371801C0312C24FF11C002
S1134A00B70180E390E02C8766D02C8522FF16C086
S1134A1021FF03C088E590E002C088E790E0B70179
S1134A200CC0822F867851F021FD02C080E201C0C3
S1134A308BE227FD8DE2B70190E04DD0A51430F450
S1134A40B70180E390E047D05A94F8CFAA94F401D8
S1134A50EA0DF11D8081B70190E03DD0A110F6CFA1
S1134A60332009F45DCEB70180E290E034D03A946B
S1134A70F7CFF7018681978102C08FEF9FEF2C96C5
S1134A80CDBFDEBFDF91CF911F910F91FF90EF90CB
S1134A90DF90CF90BF90AF909F908F907F906F905A
S1134AA05F904F903F902F900895FC0105906150C6
S1134AB070400110D8F7809590958E0F9F1F089530
S1134AC0FC016150704001900110D8F780959095D9
S1134AD08E0F9F1F08950F931F93CF93DF93182F6B
S1134AE0092FEB018B8181FD03C08FEF9FEF20C065
S1134AF082FF10C04E815F812C813D814217530794
S1134B007CF4E881F9819F012F5F3F4F288339832B
S1134B10108306C0E885F985812F1995892B29F71B
S1134B202E813F812F5F3F4F2E833F83812F902F14
S1134B30DF91CF911F910F910895FA01AA27283090
S1134B4051F1203181F1E8946F936E7F6E5F7F4F56
S1134B508F4F9F4FAF4FB1E03ED0B4E03CD0670FD2
S1134B60781F891F9A1FA11D680F791F8A1F911D25
S1134B70A11D6A0F711D811D911DA11D20D009F475
S1134B8068943F912AE0269F11243019305D3193B7
S1134B90DEF6CF010895462F4770405D4193B3E0A0
S1134BA00FD0C9F7F6CF462F4F70405D4A3318F047
S1134BB0495D31FD4052419302D0A9F7EACFB4E0F8
S1134BC0A6959795879577956795BA95C9F70097B0
S1134BD06105710508959B01AC010A2E0694579551
S1134BE0479537952795BA95C9F7620F731F841FA8
S10D4BF0951FA01D0895F894FFCF4F
S1134BFA10100011223344557B0060003D007500FB
S1134C0A660057005F0063007F0077002F005E0094
S1134C1A1B007C001F000F000400000001000000BC
S1134C2A01000000010000000100000048616C6CF2
S1134C3A3A2025316400454E433A20253164004820
S1134C4A3A202531640025642C25642C25640D0042
S9030000FC
