:10000000F9C000001DC100000C94862B19C100002E
:1000100017C1000015C1000013C1000011C100008C
:100020000FC100000DC100000BC1000009C100009C
:1000300007C1000005C1000044C500007AC50000EA
:10004000B0C50000E6C500001CC6000052C6000096
:1000500088C60000BEC60000F4C600002AC7000023
:10006000EFC00000EDC00000EBC00000E9C00000E0
:10007000E7C00000E5C00000E3C00000E1C00000F0
:10008000DFC00000DDC00000DBC00000D9C0000000
:10009000D7C00000D5C00000D3C00000D1C0000010
:1000A000CFC00000CDC00000CBC000000C943C25A8
:1000B000C7C00000C5C00000C3C000000C9489097F
:1000C0000C94C1090C94F9090C94310A0C94690A36
:1000D0000C94A10A0C94D90A0C94110B0C94490BA2
:1000E0000C94810BADC00000ABC00000A9C00000A3
:1000F000A7C00000A5C00000A3C00000A1C0000070
:100100009FC000009DC000009BC0000099C000007F
:1001100097C0000095C0000093C0000091C000008F
:100120008FC000008DC000008BC0000089C000009F
:1001300087C000000C94A729F4C600002AC700005D
:1001400060C7000096C70000CCC700000C94A90847
:100150000C94E1080C9419090C94510971C0000029
:100160006FC000006DC000006BC0000069C00000DF
:1001700067C0000065C000000C94322B0C94B02BBB
:100180000C945C2B0C94DA2B5BC0000059C000006F
:100190000C94E92B55C0000053C0000051C0000072
:1001A0000C94232B4DC000004BC0000049C0000040
:1001B0000C94B90B0C94F10B0C94290C0C94610C5D
:1001C0000C94990C0C94D10C0C94090D0C94410DC9
:1001D0000C94790D0C94B10D33C000000C943C2CA0
:1001E0002FC000002DC000002BC0000029C000005F
:1001F00027C0000011241FBECFEFCDBFDFE3DEBF5D
:1002000000E00CBF18BE19BE1ABE1BBE10E2A0E073
:10021000B0E2E0E7F5E600E00BBF02C007900D9208
:10022000A834B107D9F71BBE24E2A8E4B0E201C0AC
:100230001D92A034B207E1F70E94F4100C94B6327C
:10024000DFCEE4E2F6E09081A82FA170B0E0AA0F23
:10025000BB1FAA0FBB1F9B7FA92BA083908181FB93
:10026000662760F970E0660F771F62957295707F60
:100270007627607F76279F7D692B6083908182FB44
:10028000442740F950E042955295507F5427407FD3
:1002900054279F7E492B4083E4E4F6E0908183FB62
:1002A000222720F930E0220F331F22953295307F2C
:1002B0003227207F3227892F8F7D282B2083089596
:1002C000E0E2F6E0808184608083808180628083C8
:1002D000808180618083E0E4F6E0808180628083B9
:1002E0000895E0E2F6E080818B7F808380818F7DBE
:1002F000808380818F7E8083E0E4F6E080818F7D43
:1003000080830895CF93C82F8FE193E00197F1F791
:1003100000C000008C2F82958F7093DFE4E2F6E03E
:1003200080818260808380818860808395ED9A954A
:10033000F1F700008081877F808385ED8A95F1F752
:1003400000008C2F7EDFE4E2F6E08081886080830D
:1003500095ED9A95F1F700008081877F8083CF919A
:100360000895CF93C82F8FEF8C0F823038F48FE32E
:100370009CE90197F1F700C0000006C08FE39FE100
:100380000197F1F700C000008C2F82958F7059DF24
:10039000E4E2F6E080818D7F8083808188608083C5
:1003A00095ED9A95F1F700008081877F808385ED38
:1003B0008A95F1F700008C2F44DFE4E2F6E08081BB
:1003C0008860808395ED9A95F1F700008081877FA2
:1003D0008083CF910895E4E2F6E08081877F808377
:1003E00080DF2FEF87EE93E0215080409040E1F7CF
:1003F00000C0000065DF83E024DFE0E2F6E08081FA
:1004000082608083808181608083A4E2B6E08C91E9
:100410008D7F8C938C918E7F8C938081886080837C
:1004200025ED2A95F1F70000E4E2F6E0808188608E
:10043000808385ED8A95F1F700008081877F808336
:100440009FEF23EF81E0915020408040E1F700C012
:10045000000080818860808395ED9A95F1F7000017
:100460008081877F80838FE193E00197F1F700C05F
:10047000000080818860808395ED9A95F1F70000F7
:100480008081877F80838FE193E00197F1F700C03F
:10049000000082E0D6DE95ED9A95F1F70000E4E2E7
:1004A000F6E080818860808325ED2A95F1F70000D1
:1004B0008081877F80838FE193E00197F1F700C00F
:1004C000000088E24EDF88E04CDF81E04ADF86E012
:1004D00048DF8CE046CF0895CF93DF93EC0121965F
:1004E000FC018081882321F00DDF89918111FCCFEF
:1004F000DF91CF910895623031F0633031F0613097
:1005000029F4805C03C08C5E01C08C5A806829CFBE
:100510000895882339F0FB018081811107C081E0B3
:1005200080830895FB01108280E0089580E00895A3
:10053000E0E0F7E094818091AB20A0910020B0E052
:10054000AA0FBB1FA85FBF4D90782C91922B9823C8
:100550009483E0EEF6E09481A0910120B0E0AA0F30
:10056000BB1FA85FBF4D90782C91922B8923848369
:100570000895809101208E3031F4809100208F30D9
:1005800011F40C94840F0895EF92FF920F931F9330
:10059000CF93DF93F12C01E010E2C0E0D0E20F2E08
:1005A000F1E1EF2EF02DF801F082E882E2DFF39422
:1005B000F0E1FF12F8CF80E18093002080930120CA
:1005C00010920220DF91CF911F910F91FF90EF9039
:1005D00008958F929F92AF92BF92CF92DF92EF9247
:1005E000FF920F931F93CF93DF938091022081306E
:1005F00009F465C020F0823009F4C2C0DFC0C0EE4B
:10060000D6E01C8160919F207091A0208091A12054
:100610009091A22024E630E040E050E00E94EF2DCF
:1006200020FB17F91C8380E8E0E0F7E086839885DB
:1006300028858885388530FB882480F8912C880CA3
:10064000991C22FB222720F9822A93FBAA24A0F8D6
:10065000B12CAA0CBB1CAA0CBB1CA82881FBCC2467
:10066000C0F8D12CCC0CDD1CCC0CDD1CCC0CDD1C62
:10067000CA28C092012080E18093002059DF809138
:10068000E8066BE470E2881F8827881F42DF882312
:1006900029F0E2E0F0E280818F5F80838091A806FC
:1006A0006AE470E28295817034DF882309F486C0A1
:1006B00084E690E080934820909349207FC00F2EDD
:1006C000C12CF7E0DF2EF02DF601B48060919F2061
:1006D0007091A0208091A1209091A22024E630E08A
:1006E00040E050E00E94EF2D20FBB7F8F601B48205
:1006F000E0EEF6E080E88583908520858085308572
:1007000030FBEE24E0F8F12CEE0CFF1C22FB22273C
:1007100020F9E22A93FB002700F910E0000F111FD7
:10072000000F111F0E2986958170C82FF0E0DF2F72
:10073000CC0FDD1FCC0FDD1FCC0FDD1FC02BC093F6
:100740000020F6DE8091E8066BE470E2881F8827BF
:10075000881FDFDE882329F0E2E0F0E280818F5FEE
:1007600080838091A8066AE470E282958170D1DE70
:10077000882321F1E2E0F0E28081815080831EC075
:1007800080E8E0E0F7E08583E0EEF6E08583F1DEE7
:100790008091A8066AE470E282958170BADE8823AF
:1007A00069F0E2E0F0E2808181508083C0E0D0E235
:1007B00081E18883DEDE80E18883BADEDF91CF913C
:1007C0001F910F91FF90EF90DF90CF90BF90AF906F
:1007D0009F908F9008952FB7F894FC01E059FF4F38
:1007E00060958081682360832FBF08952FB7F894A8
:1007F000FC01E059FF4F8081682B60832FBF089573
:10080000811522E0920769F480914D2091E0980FC4
:1008100090934D20811114C062E081E090E0DBCF25
:1008200008958034924061F480914C2091E0980FBB
:1008300090934C20811104C062E082E090E0CBCF25
:100840000895811522E0920761F480914D20815036
:1008500080934D20811113C062E081E090E0C6CF0B
:1008600008958034924059F480914C2081508093B7
:100870004C20811104C062E082E090E0B7CF08957F
:100880001F93CF93DF93EC011FB7F894B9DF8881F2
:10089000816088831FBF8FB7F894EDEAF0E2908102
:1008A0009F5F90838FBFDF91CF911F910895DF925B
:1008B000EF92FF920F931F93CF93DF93EC018B0185
:1008C000C11522E0D20771F461E270E082E0A7D0A6
:1008D000E82EF12C60E270E082E0A1D0FE2CEE2444
:1008E000E82A10C08034924059F565E270E082E059
:1008F00096D0E82EF12C64E270E082E090D0FE2CDD
:10090000EE24E82ADFB6F894CE017ADF288182E06F
:100910008883EC86FD86F80185819681888F998F82
:1009200082818A8384818C8383818B838181898383
:10093000822F81709081892B8883CE0182DFDFBE78
:10094000DF91CF911F910F91FF90EF90DF9008956D
:10095000DF92EF92FF920F931F93CF93DF937C016F
:100960008A01862F837021F46695669582E001C026
:1009700080E060FF8F5FE701A09698E0899FC00D3F
:10098000D11D1124DFB6F894C7013ADFF801808148
:10099000888382818A8381818983C70152DFDFBE98
:1009A000DF91CF911F910F91FF90EF90DF9008950D
:1009B000DF92EF92FF920F931F93CF93DF937C010F
:1009C000EA01862F837021F46695669582E001C066
:1009D00080E060FF8F5F8701005E1F4F98E0899F76
:1009E000000D111D1124DFB6F894C70109DFF801CD
:1009F0008081888382818A8381818983C70121DF05
:100A0000DFBEDF91CF911F910F91FF90EF90DF90AC
:100A100008951BBEFC0128ED24BF6083089540911A
:100A2000CA01E62FF72F8093CA0184914093CA012F
:100A30000895CF92DF92EF92FF920F931F93CF937F
:100A4000DF93EC016A017B01DB01CA010197A10977
:100A5000B109BC01CD01600F711F821F931FA70157
:100A600096010E94EF2D2138310541055105F8F41A
:100A7000213460F4213260F4213160F4293060F4D3
:100A8000253060F4233060F090E00BC093E009C0A3
:100A900092E007C092E805C091E003C091E801C070
:100AA00090E888818C77892B888381E001C08FEF63
:100AB000DF91CF911F910F91FF90EF90DF90CF903A
:100AC00008951F920F920FB60F92112408B60F923D
:100AD00018BE09B60F9219BE0BB60F921BBE2F930C
:100AE0003F934F935F936F937F938F939F93AF93B6
:100AF000BF93EF93FF93E0919A20F0919B20309762
:100B000009F01995FF91EF91BF91AF919F918F914E
:100B10007F916F915F914F913F912F910F900BBEFD
:100B20000F9009BE0F9008BE0F900FBE0F901F9040
:100B300018951F920F920FB60F92112408B60F92BC
:100B400018BE09B60F9219BE0BB60F921BBE2F939B
:100B50003F934F935F936F937F938F939F93AF9345
:100B6000BF93EF93FF93E0919820F09199203097F5
:100B700009F01995FF91EF91BF91AF919F918F91DE
:100B80007F916F915F914F913F912F910F900BBE8D
:100B90000F9009BE0F9008BE0F900FBE0F901F90D0
:100BA00018951F920F920FB60F92112408B60F924C
:100BB00018BE09B60F9219BE0BB60F921BBE2F932B
:100BC0003F934F935F936F937F938F939F93AF93D5
:100BD000BF93EF93FF93E0919620F0919720309789
:100BE00009F01995FF91EF91BF91AF919F918F916E
:100BF0007F916F915F914F913F912F910F900BBE1D
:100C00000F9009BE0F9008BE0F900FBE0F901F905F
:100C100018951F920F920FB60F92112408B60F92DB
:100C200018BE09B60F9219BE0BB60F921BBE2F93BA
:100C30003F934F935F936F937F938F939F93AF9364
:100C4000BF93EF93FF93E0919420F091952030971C
:100C500009F01995FF91EF91BF91AF919F918F91FD
:100C60007F916F915F914F913F912F910F900BBEAC
:100C70000F9009BE0F9008BE0F900FBE0F901F90EF
:100C800018951F920F920FB60F92112408B60F926B
:100C900018BE09B60F9219BE0BB60F921BBE2F934A
:100CA0003F934F935F936F937F938F939F93AF93F4
:100CB000BF93EF93FF93E0919220F09193203097B0
:100CC00009F01995FF91EF91BF91AF919F918F918D
:100CD0007F916F915F914F913F912F910F900BBE3C
:100CE0000F9009BE0F9008BE0F900FBE0F901F907F
:100CF00018951F920F920FB60F92112408B60F92FB
:100D000018BE09B60F9219BE0BB60F921BBE2F93D9
:100D10003F934F935F936F937F938F939F93AF9383
:100D2000BF93EF93FF93E0919020F0919120309743
:100D300009F01995FF91EF91BF91AF919F918F911C
:100D40007F916F915F914F913F912F910F900BBECB
:100D50000F9009BE0F9008BE0F900FBE0F901F900E
:100D600018951F920F920FB60F92112408B60F928A
:100D700018BE09B60F9219BE0BB60F921BBE2F9369
:100D80003F934F935F936F937F938F939F93AF9313
:100D9000BF93EF93FF93E0918E20F0918F203097D7
:100DA00009F01995FF91EF91BF91AF919F918F91AC
:100DB0007F916F915F914F913F912F910F900BBE5B
:100DC0000F9009BE0F9008BE0F900FBE0F901F909E
:100DD00018951F920F920FB60F92112408B60F921A
:100DE00018BE09B60F9219BE0BB60F921BBE2F93F9
:100DF0003F934F935F936F937F938F939F93AF93A3
:100E0000BF93EF93FF93E0918C20F0918D2030976A
:100E100009F01995FF91EF91BF91AF919F918F913B
:100E20007F916F915F914F913F912F910F900BBEEA
:100E30000F9009BE0F9008BE0F900FBE0F901F902D
:100E400018951F920F920FB60F92112408B60F92A9
:100E500018BE09B60F9219BE0BB60F921BBE2F9388
:100E60003F934F935F936F937F938F939F93AF9332
:100E7000BF93EF93FF93E0918A20F0918B203097FE
:100E800009F01995FF91EF91BF91AF919F918F91CB
:100E90007F916F915F914F913F912F910F900BBE7A
:100EA0000F9009BE0F9008BE0F900FBE0F901F90BD
:100EB00018951F920F920FB60F92112408B60F9239
:100EC00018BE09B60F9219BE0BB60F921BBE2F9318
:100ED0003F934F935F936F937F938F939F93AF93C2
:100EE000BF93EF93FF93E0918820F0918920309792
:100EF00009F01995FF91EF91BF91AF919F918F915B
:100F00007F916F915F914F913F912F910F900BBE09
:100F10000F9009BE0F9008BE0F900FBE0F901F904C
:100F200018951F920F920FB60F92112408B60F92C8
:100F300018BE09B60F9219BE0BB60F921BBE2F93A7
:100F40003F934F935F936F937F938F939F93AF9351
:100F5000BF93EF93FF93E0918620F0918720309725
:100F600009F01995FF91EF91BF91AF919F918F91EA
:100F70007F916F915F914F913F912F910F900BBE99
:100F80000F9009BE0F9008BE0F900FBE0F901F90DC
:100F900018951F920F920FB60F92112408B60F9258
:100FA00018BE09B60F9219BE0BB60F921BBE2F9337
:100FB0003F934F935F936F937F938F939F93AF93E1
:100FC000BF93EF93FF93E0918420F09185203097B9
:100FD00009F01995FF91EF91BF91AF919F918F917A
:100FE0007F916F915F914F913F912F910F900BBE29
:100FF0000F9009BE0F9008BE0F900FBE0F901F906C
:1010000018951F920F920FB60F92112408B60F92E7
:1010100018BE09B60F9219BE0BB60F921BBE2F93C6
:101020003F934F935F936F937F938F939F93AF9370
:10103000BF93EF93FF93E0918220F091832030974C
:1010400009F01995FF91EF91BF91AF919F918F9109
:101050007F916F915F914F913F912F910F900BBEB8
:101060000F9009BE0F9008BE0F900FBE0F901F90FB
:1010700018951F920F920FB60F92112408B60F9277
:1010800018BE09B60F9219BE0BB60F921BBE2F9356
:101090003F934F935F936F937F938F939F93AF9300
:1010A000BF93EF93FF93E0918020F09181203097E0
:1010B00009F01995FF91EF91BF91AF919F918F9199
:1010C0007F916F915F914F913F912F910F900BBE48
:1010D0000F9009BE0F9008BE0F900FBE0F901F908B
:1010E00018951F920F920FB60F92112408B60F9207
:1010F00018BE09B60F9219BE0BB60F921BBE2F93E6
:101100003F934F935F936F937F938F939F93AF938F
:10111000BF93EF93FF93E0917E20F0917F20309773
:1011200009F01995FF91EF91BF91AF919F918F9128
:101130007F916F915F914F913F912F910F900BBED7
:101140000F9009BE0F9008BE0F900FBE0F901F901A
:1011500018951F920F920FB60F92112408B60F9296
:1011600018BE09B60F9219BE0BB60F921BBE2F9375
:101170003F934F935F936F937F938F939F93AF931F
:10118000BF93EF93FF93E0917C20F0917D20309707
:1011900009F01995FF91EF91BF91AF919F918F91B8
:1011A0007F916F915F914F913F912F910F900BBE67
:1011B0000F9009BE0F9008BE0F900FBE0F901F90AA
:1011C00018951F920F920FB60F92112408B60F9226
:1011D00018BE09B60F9219BE0BB60F921BBE2F9305
:1011E0003F934F935F936F937F938F939F93AF93AF
:1011F000BF93EF93FF93E0917A20F0917B2030979B
:1012000009F01995FF91EF91BF91AF919F918F9147
:101210007F916F915F914F913F912F910F900BBEF6
:101220000F9009BE0F9008BE0F900FBE0F901F9039
:1012300018951F920F920FB60F92112408B60F92B5
:1012400018BE09B60F9219BE0BB60F921BBE2F9394
:101250003F934F935F936F937F938F939F93AF933E
:10126000BF93EF93FF93E0917820F091792030972E
:1012700009F01995FF91EF91BF91AF919F918F91D7
:101280007F916F915F914F913F912F910F900BBE86
:101290000F9009BE0F9008BE0F900FBE0F901F90C9
:1012A00018951F920F920FB60F92112408B60F9245
:1012B00018BE09B60F9219BE0BB60F921BBE2F9324
:1012C0003F934F935F936F937F938F939F93AF93CE
:1012D000BF93EF93FF93E0917620F09177203097C2
:1012E00009F01995FF91EF91BF91AF919F918F9167
:1012F0007F916F915F914F913F912F910F900BBE16
:101300000F9009BE0F9008BE0F900FBE0F901F9058
:1013100018951F920F920FB60F92112408B60F92D4
:1013200018BE09B60F9219BE0BB60F921BBE2F93B3
:101330003F934F935F936F937F938F939F93AF935D
:10134000BF93EF93FF93E0917420F0917520309755
:1013500009F01995FF91EF91BF91AF919F918F91F6
:101360007F916F915F914F913F912F910F900BBEA5
:101370000F9009BE0F9008BE0F900FBE0F901F90E8
:1013800018951F920F920FB60F92112408B60F9264
:1013900018BE09B60F9219BE0BB60F921BBE2F9343
:1013A0003F934F935F936F937F938F939F93AF93ED
:1013B000BF93EF93FF93E0917220F09173203097E9
:1013C00009F01995FF91EF91BF91AF919F918F9186
:1013D0007F916F915F914F913F912F910F900BBE35
:1013E0000F9009BE0F9008BE0F900FBE0F901F9078
:1013F00018951F920F920FB60F92112408B60F92F4
:1014000018BE09B60F9219BE0BB60F921BBE2F93D2
:101410003F934F935F936F937F938F939F93AF937C
:10142000BF93EF93FF93E0917020F091712030977C
:1014300009F01995FF91EF91BF91AF919F918F9115
:101440007F916F915F914F913F912F910F900BBEC4
:101450000F9009BE0F9008BE0F900FBE0F901F9007
:1014600018951F920F920FB60F92112408B60F9283
:1014700018BE09B60F9219BE0BB60F921BBE2F9362
:101480003F934F935F936F937F938F939F93AF930C
:10149000BF93EF93FF93E0916E20F0916F20309710
:1014A00009F01995FF91EF91BF91AF919F918F91A5
:1014B0007F916F915F914F913F912F910F900BBE54
:1014C0000F9009BE0F9008BE0F900FBE0F901F9097
:1014D00018951F920F920FB60F92112408B60F9213
:1014E00018BE09B60F9219BE0BB60F921BBE2F93F2
:1014F0003F934F935F936F937F938F939F93AF939C
:10150000BF93EF93FF93E0916C20F0916D203097A3
:1015100009F01995FF91EF91BF91AF919F918F9134
:101520007F916F915F914F913F912F910F900BBEE3
:101530000F9009BE0F9008BE0F900FBE0F901F9026
:1015400018951F920F920FB60F92112408B60F92A2
:1015500018BE09B60F9219BE0BB60F921BBE2F9381
:101560003F934F935F936F937F938F939F93AF932B
:10157000BF93EF93FF93E0916A20F0916B20309737
:1015800009F01995FF91EF91BF91AF919F918F91C4
:101590007F916F915F914F913F912F910F900BBE73
:1015A0000F9009BE0F9008BE0F900FBE0F901F90B6
:1015B00018951F920F920FB60F92112408B60F9232
:1015C00018BE09B60F9219BE0BB60F921BBE2F9311
:1015D0003F934F935F936F937F938F939F93AF93BB
:1015E000BF93EF93FF93E0916820F09169203097CB
:1015F00009F01995FF91EF91BF91AF919F918F9154
:101600007F916F915F914F913F912F910F900BBE02
:101610000F9009BE0F9008BE0F900FBE0F901F9045
:1016200018951F920F920FB60F92112408B60F92C1
:1016300018BE09B60F9219BE0BB60F921BBE2F93A0
:101640003F934F935F936F937F938F939F93AF934A
:10165000BF93EF93FF93E0916620F091672030975E
:1016600009F01995FF91EF91BF91AF919F918F91E3
:101670007F916F915F914F913F912F910F900BBE92
:101680000F9009BE0F9008BE0F900FBE0F901F90D5
:1016900018951F920F920FB60F92112408B60F9251
:1016A00018BE09B60F9219BE0BB60F921BBE2F9330
:1016B0003F934F935F936F937F938F939F93AF93DA
:1016C000BF93EF93FF93E0916420F09165203097F2
:1016D00009F01995FF91EF91BF91AF919F918F9173
:1016E0007F916F915F914F913F912F910F900BBE22
:1016F0000F9009BE0F9008BE0F900FBE0F901F9065
:1017000018951F920F920FB60F92112408B60F92E0
:1017100018BE09B60F9219BE0BB60F921BBE2F93BF
:101720003F934F935F936F937F938F939F93AF9369
:10173000BF93EF93FF93E0916220F0916320309785
:1017400009F01995FF91EF91BF91AF919F918F9102
:101750007F916F915F914F913F912F910F900BBEB1
:101760000F9009BE0F9008BE0F900FBE0F901F90F4
:1017700018951F920F920FB60F92112408B60F9270
:1017800018BE09B60F9219BE0BB60F921BBE2F934F
:101790003F934F935F936F937F938F939F93AF93F9
:1017A000BF93EF93FF93E0916020F0916120309719
:1017B00009F01995FF91EF91BF91AF919F918F9192
:1017C0007F916F915F914F913F912F910F900BBE41
:1017D0000F9009BE0F9008BE0F900FBE0F901F9084
:1017E00018951F920F920FB60F92112408B60F9200
:1017F00018BE09B60F9219BE0BB60F921BBE2F93DF
:101800003F934F935F936F937F938F939F93AF9388
:10181000BF93EF93FF93E0915E20F0915F203097AC
:1018200009F01995FF91EF91BF91AF919F918F9121
:101830007F916F915F914F913F912F910F900BBED0
:101840000F9009BE0F9008BE0F900FBE0F901F9013
:1018500018951F920F920FB60F92112408B60F928F
:1018600018BE09B60F9219BE0BB60F921BBE2F936E
:101870003F934F935F936F937F938F939F93AF9318
:10188000BF93EF93FF93E0915C20F0915D20309740
:1018900009F01995FF91EF91BF91AF919F918F91B1
:1018A0007F916F915F914F913F912F910F900BBE60
:1018B0000F9009BE0F9008BE0F900FBE0F901F90A3
:1018C00018951F920F920FB60F92112408B60F921F
:1018D00018BE09B60F9219BE0BB60F921BBE2F93FE
:1018E0003F934F935F936F937F938F939F93AF93A8
:1018F000BF93EF93FF93E0915A20F0915B203097D4
:1019000009F01995FF91EF91BF91AF919F918F9140
:101910007F916F915F914F913F912F910F900BBEEF
:101920000F9009BE0F9008BE0F900FBE0F901F9032
:1019300018951F920F920FB60F92112408B60F92AE
:1019400018BE09B60F9219BE0BB60F921BBE2F938D
:101950003F934F935F936F937F938F939F93AF9337
:10196000BF93EF93FF93E0915820F0915920309767
:1019700009F01995FF91EF91BF91AF919F918F91D0
:101980007F916F915F914F913F912F910F900BBE7F
:101990000F9009BE0F9008BE0F900FBE0F901F90C2
:1019A00018951F920F920FB60F92112408B60F923E
:1019B00018BE09B60F9219BE0BB60F921BBE2F931D
:1019C0003F934F935F936F937F938F939F93AF93C7
:1019D000BF93EF93FF93E0915620F09157203097FB
:1019E00009F01995FF91EF91BF91AF919F918F9160
:1019F0007F916F915F914F913F912F910F900BBE0F
:101A00000F9009BE0F9008BE0F900FBE0F901F9051
:101A100018951F920F920FB60F92112408B60F92CD
:101A200018BE09B60F9219BE0BB60F921BBE2F93AC
:101A30003F934F935F936F937F938F939F93AF9356
:101A4000BF93EF93FF93E0915420F091552030978E
:101A500009F01995FF91EF91BF91AF919F918F91EF
:101A60007F916F915F914F913F912F910F900BBE9E
:101A70000F9009BE0F9008BE0F900FBE0F901F90E1
:101A800018951F920F920FB60F92112408B60F925D
:101A900018BE09B60F9219BE0BB60F921BBE2F933C
:101AA0003F934F935F936F937F938F939F93AF93E6
:101AB000BF93EF93FF93E0915220F0915320309722
:101AC00009F01995FF91EF91BF91AF919F918F917F
:101AD0007F916F915F914F913F912F910F900BBE2E
:101AE0000F9009BE0F9008BE0F900FBE0F901F9071
:101AF00018951F920F920FB60F92112408B60F92ED
:101B000018BE09B60F9219BE0BB60F921BBE2F93CB
:101B10003F934F935F936F937F938F939F93AF9375
:101B2000BF93EF93FF93E0915020F09151203097B5
:101B300009F01995FF91EF91BF91AF919F918F910E
:101B40007F916F915F914F913F912F910F900BBEBD
:101B50000F9009BE0F9008BE0F900FBE0F901F9000
:101B600018951F920F920FB60F92112408B60F927C
:101B700018BE09B60F9219BE0BB60F921BBE2F935B
:101B80003F934F935F936F937F938F939F93AF9305
:101B9000BF93EF93FF93E0914E20F0914F20309749
:101BA00009F01995FF91EF91BF91AF919F918F919E
:101BB0007F916F915F914F913F912F910F900BBE4D
:101BC0000F9009BE0F9008BE0F900FBE0F901F9090
:101BD0001895CF93CFB7F894282F392F211588E087
:101BE000380759F461E083E090E00E94EB0364E081
:101BF00083E090E00E94EB036AC0203488E038075D
:101C000059F462E083E090E00E94EB0364E083E03B
:101C100090E00E94EB035BC0211589E0380759F47E
:101C200061E084E090E00E94EB0364E084E090E0F7
:101C30000E94EB034CC0203489E0380759F462E07D
:101C400084E090E00E94EB0364E084E090E00E9476
:101C5000EB033DC021158AE0380759F461E085E0C7
:101C600090E00E94EB0364E085E090E00E94EB03CB
:101C70002EC020348AE0380759F462E085E090E015
:101C80000E94EB0364E085E090E00E94EB031FC03C
:101C900021158BE0380759F461E086E090E00E945E
:101CA000EB0364E086E090E00E94EB0310C0203478
:101CB0003B4059F462E086E090E00E94EB0364E070
:101CC00086E090E00E94EB0302C0CFBF09C08FB74F
:101CD000F894EDEAF0E290819F5F90838FBFCFBFD1
:101CE000CF910895FC01818185FFFDCF608380E065
:101CF00090E008954F925F926F927F928F929F92A1
:101D0000AF92BF92CF92DF92EF92FF920F931F9309
:101D1000CF93DF93EC014A015B0128013901D9011E
:101D2000C801689412F8B695A7959795879516946B
:101D3000D1F7B901A801032E36E17695679557953D
:101D400047953A95D1F7302D2C8122FD08C0B695E4
:101D5000A795979587957695679557954795881593
:101D60009905AA05BB0508F4A6C084169506A60623
:101D7000B70608F4A2C08C8182FD04C0880C991CAF
:101D8000AA1CBB1CC301B201A50194010E94EF2D46
:101D90002F3F31054105510508F491C0C12CD12CCC
:101DA0007601CA9419EF05C02C153D054E055F0557
:101DB00068F0CC0CDD1CEE1CFF1C1D3F14F4689475
:101DC000C0F81F5F173081F7212F50C0212F11233A
:101DD0000CF04CC0D501C401880F991FAA1FBB1F6E
:101DE000880F991FAA1FBB1F880F991FAA1FBB1F0F
:101DF000481A590A6A0A7B0A1E3FF4F46DEF7FEF16
:101E0000611B710917FD739504C0440C551C661CB9
:101E1000771C6A95D2F7D501C401B695A795979519
:101E20008795BC01CD01640D751D861D971DA5010B
:101E300094010E94EF2D36C023E0210FD501C4018B
:101E400004C0880F991FAA1FBB1F2A95D2F79C01B7
:101E5000AD01B695A79597958795BC01CD01640D09
:101E6000751D861D971D0E94EF2D1CC02D5FD5018D
:101E7000C40104C0880F991FAA1FBB1F2A95D2F75F
:101E80009C01AD01B695A79597958795BC01CD01AD
:101E9000640D751D861D971D0E94EF2D215031097F
:101EA00041095109832F8F701295107F182B1F83C2
:101EB0002E8381E018C080E016C080E014C0D501F8
:101EC000C401880F991FAA1FBB1F880F991FAA1F43
:101ED000BB1F880F991FAA1FBB1F481A590A6A0AFD
:101EE0007B0A19EF8BCFDF91CF911F910F91FF905C
:101EF000EF90DF90CF90BF90AF909F908F907F90AA
:101F00006F905F904F90089563E080E890E00E94AA
:101F10000905E0E8F0E0828180FDFDCF6BE281E819
:101F200090E00E940905E0E8F0E0828180FDFDCFAD
:101F3000A895FFCFE0E5F0E0808182608083E1E555
:101F4000F0E0808181FFFDCF88ED84BF81E0809348
:101F50004000E0E5F0E08081827E8083089580E4A7
:101F60008093210687E4809341061092530681E016
:101F70008093490698E090934A062EE220936106EA
:101F80002AEB20938106E0E9F6E02081226020839D
:101F9000E9E8F6E0208121602083EAE8F6E020818C
:101FA0002160208320E12093AA069093A1069093BC
:101FB000A5062FEF2093200720930007809330077A
:101FC0008093290720E820932A071092D0071092C7
:101FD000D30725E02093C9078093CA079093CB07C6
:101FE0008093F5068093E90680E28093EA060895DF
:101FF000E0E0F8E08081807F866080838181887F57
:10200000836081838FEF90E086A397A380858E6F96
:10201000808781818061818381818062818380E08A
:1020200098E0D7CD0895E0E0F9E08081807F866078
:1020300080838181887F818386818C7F868386816E
:10204000826086838DE790E086A397A380858E6F5C
:10205000808780E099E0BDCD08950F931F9300E045
:1020600018E428EE31E040E052E16AE770E080ECED
:102070009AE00E941905E0ECFAE08081806180839B
:102080008081806480831F910F9108950F931F9327
:10209000CF93DF93C0EADAE08D818F738D8383E085
:1020A0008D838B818F7C80628B8300E018E428EE27
:1020B00031E040E05BE460E070E080EA9AE01ADE44
:1020C0008C8188608C83DF91CF911F910F9108954F
:1020D0000F931F93CF93DF93C0EADBE08D818F7363
:1020E0008D8383E08D838B818F7C80628B8300E086
:1020F00018E428EE31E040E855E260E070E080EA64
:102100009BE0F8DD8C8188608C838C8180618C837E
:10211000DF91CF911F910F9108950F931F93CF934C
:10212000DF93C0EBDBE08D818F738D8383E08D8344
:1021300000E018E428EE31E040E855E260E070E0AD
:1021400080EB9BE0D7DD8C8188608C83DF91CF9121
:102150001F910F910895CF93DF93CDB7DEB72A97E4
:10216000CDBFDEBF61E270E082E00E940F0560E259
:1021700070E082E00E940F058A81897E9B819F7CAE
:1021800090629B8392E09D8388608A831C82BE015B
:102190006F5F7F4F80E092E00E945704AE01485F7E
:1021A0005F4F61E080E092E00E94D80481E0888780
:1021B00088E18987AE01485F5F4F61E080E092E08F
:1021C0000E94A80480E092E00E9440048FB7F89437
:1021D000E0E0F2E09081946090838FBF2A96CDBFBB
:1021E000DEBFDF91CF910895CF93DF93CDB7DEB7F8
:1021F000C850D140CDBFDEBF9DDEE2EAF0E0808175
:1022000087608083ACDE0FDFF3DE62DF86DF3EDFD8
:10221000A2DF0E94EB01789488EB9BE0A0E0B0E0A5
:102220008093342090933520A0933620B0933720AC
:1022300024EF31E02093D7233093D82380933820A4
:1022400090933920A0933A20B0933B2084E690E00D
:102250008093E7219093E82188EE93E0A0E0B0E03E
:102260008093302090933120A0933220B09333207C
:1022700088EC90E0809305249093062480ED97E00D
:10228000A0E0B0E080932C2090932D20A0932E20EE
:10229000B0932F2086E990E080932F2290933022F4
:1022A000E8E0F6E09081308180814081E3E0F0E277
:1022B000881F8827881F282F220F220F96FB882728
:1022C00080F9282B34FB882480F8912CC401880FD6
:1022D000991F282B45FB002700F910E0C801880F43
:1022E000991F880F991F880F991F822B9081890F42
:1022F000808382E0E0E8F6E08683AFDE1AE61A9596
:10230000F1F700C02FEF33EC49E02150304040405E
:10231000E1F700C000000E940C2D0E94D32D0E9406
:10232000E12D82E0E0E8F6E08683E8E0F6E0208157
:10233000308180814081881F8827881F90E0880F26
:10234000991F880F991F26FBEE24E0F8F12CE82A4C
:10235000F92A34FBCC24C0F8D12CC601880F991F70
:10236000E82AF92A45FBAA24A0F8B12CC501880F58
:10237000991F880F991F880F991F8E299F290397EE
:1023800084F40F2EF6E0CF2EF02D6894EE24E5F8BD
:1023900005E023E030E248E062E380E00E94932D14
:1023A0000FC00F2EF6E0CF2EF02D6894EE24E5F846
:1023B00005E023E030E248E061E080E00E94932DF8
:1023C00061E08CE30E94E32C66E08DE30E94E32C45
:1023D00082E0E0E8F6E085838FE094E00197F1F792
:1023E00000C00000A89580919E20882311F40C94D1
:1023F0003625ADE7B3E20D911C91E1E8F3E20083ED
:102400001183A9E7B3E28D919C919C01201B310BB4
:102410002153384F2F393F4020F4EDE7F3E280831A
:102420009183B801882777FD8095982F0E94112FFE
:102430006B017C01ADE7B3E28D919C91801B910B08
:10244000BC01882777FD8095982F0E94112F2EEAD6
:1024500037E441EE5DE30E949D2F9B01AC01C70173
:10246000B6010E94122E0E94DE2EEDE7F3E2608399
:102470007183AEE0B4E20D911C91E2E1F4E20083DD
:102480001183AAE0B4E28D919C919C01201B310B39
:102490002153384F2F393F4020F4EEE0F4E280839F
:1024A0009183B801882777FD8095982F0E94112F7E
:1024B0006B017C01AEE0B4E28D919C91801B910B8D
:1024C000BC01882777FD8095982F0E94112F2EEA56
:1024D00037E441EE5DE30E949D2F9B01AC01C701F3
:1024E000B6010E94122E0E94DE2EEEE0F4E260831E
:1024F0007183A8E2B4E20D911C91ECE2F4E2008356
:102500001183A4E2B4E28D919C919C01201B310BBC
:102510002153384F2F393F4020F4E8E2F4E2808322
:102520009183B801882777FD8095982F0E94112FFD
:102530006B017C01A8E2B4E28D919C91801B910B10
:10254000BC01882777FD8095982F0E94112F2EEAD5
:1025500037E441EE5DE30E949D2F9B01AC01C70172
:10256000B6010E94122E0E94DE2EE8E2F4E26083A1
:102570007183A5EBB3E20D911C91E9EBF3E20083CB
:102580001183A1EBB3E28D919C919C01201B310B37
:102590002153384F2F393F4020F4E5EBF3E280839D
:1025A0009183B801882777FD8095982F0E94112F7D
:1025B0006B017C01A5EBB3E28D919C91801B910B8B
:1025C000BC01882777FD8095982F0E94112F2EEA55
:1025D00037E441EE5DE30E949D2F9B01AC01C701F2
:1025E000B6010E94122E0E94DE2E6B017C01E5EBEB
:1025F000F3E260837183ABE7B3E20D911C9100932A
:102600007F2310938023E7E7F3E2808191810F2EEF
:10261000FFE05F2EF02D589E3001599E700C112462
:1026200010821182B801882777FD8095982F0E942B
:10263000112F4B015C01B301601B710B882777FDE3
:102640008095982F0E94112F2EEA37E441EE5DE32A
:102650000E949D2F9B01AC01C501B4010E94122E66
:102660000E94DE2E698B7A8B8B8B9C8BEBE7F3E2DF
:10267000608371830CE014E2D8012D903C9020928D
:10268000102430921124E8E0F4E280819181589E78
:102690003001599E700C112410821182B1018827DB
:1026A00077FD8095982F0E94112F4B015C016218D5
:1026B0007308B301882777FD8095982F0E94112F0A
:1026C0002EEA37E441EE5DE30E949D2F9B01AC01B1
:1026D000C501B4010E94122E0E94DE2E6D8B7E8BEE
:1026E0008F8B988FF8016083718306E214E2D80122
:1026F0002D903C9020922A2430922B24E2E2F4E2A6
:1027000080819181589E3001599E700C1124108255
:102710001182B101882777FD8095982F0E94112F93
:102720004B015C01B30162197309882777FD80951D
:10273000982F0E94112F2EEA37E441EE5DE30E94AC
:102740009D2F9B01AC01C501B4010E94122E0E9475
:10275000DE2E698F7A8F8B8F9C8FF8016083718357
:1027600003EB13E2D8010D90BC91A02DA983BA838D
:10277000A093B723B093B8230F2EFFEA2F2EF3E2D6
:102780003F2EF02DF10180819181589E3001599E9C
:10279000700C112410821182BD01882777FD80956D
:1027A000982F0E94112F4B015C01B30129813A81BE
:1027B000621B730B882777FD8095982F0E94112F3D
:1027C0002EEA37E441EE5DE30E949D2F9B01AC01B0
:1027D000C501B4010E94122E0E94DE2E6D8F7E8FE5
:1027E0008F8F98A3D8016D937C930F2EF8E0AF2EB6
:1027F000F6E0BF2EF02DF50190818081208140818F
:10280000221F2227221F30E0220F331F220F331FE7
:1028100096FB992790F999A31AA269A17AA1262B70
:10282000372B829581708BA31CA28BA19CA1880F52
:10283000991F282B392B45FB442740F94DA31EA295
:102840008DA19EA1880F991F880F991F880F991F2E
:10285000282B392B17E1129FC001139F900D1124D3
:10286000FC01EC54FF4D648970E080E090E00E9430
:102870000F2F20E030E048EC52E40E94762E69836E
:102880007A838B839C8360933A2470933B24809358
:102890003C2490933D24D5019C918C912C914C919A
:1028A000221F2227221F30E0220F331F220F331F47
:1028B00096FB992790F99FA318A6EFA1F8A52E2BB8
:1028C0003F2B8295817089A71AA689A59AA5880FA2
:1028D000991F282B392B45FB442740F94BA71CA6F1
:1028E0008BA59CA5880F991F880F991F880F991F8A
:1028F000282B392B129FC001139F900D1124FC012E
:10290000EC54FF4D658970E080E090E00E940F2F4D
:1029100020E030E048EC52E40E94762E6D837E8306
:102920008F8398876093C6237093C7238093C823AF
:102930009093C923D5019C918C912C914C91221F8D
:102940002227221F30E0220F331F220F331F96FB56
:10295000992790F99DA71EA6EDA5FEA52E2B3F2B2E
:10296000829581708FA718AA8FA598A9880F991FA3
:10297000282B392B45FB442740F949AB1AAA89A9D2
:102980009AA9880F991F880F991F880F991F282BC4
:10299000392B129FC001139F900D1124FC01EC54A0
:1029A000FF4D668970E080E090E00E940F2F20E0EC
:1029B00030E048EC52E40E94762E69877A878B8754
:1029C0009C876093CA217093CB218093CC219093F4
:1029D000CD2110929E20D5016C915C917C914C91FF
:1029E0009C918C912C91EC91221F2227221F30E088
:1029F000220F331F220F331F96FB992790F99BABB1
:102A00001CAAABA9BCA92A2B3B2B829581708DAB4C
:102A10001EAA8DA99EA9880F991F282B392BE5FB8B
:102A2000EE27E0F9EFAB18AE8FA998AD880F991F8C
:102A3000880F991F880F991F282B392B129FC001CF
:102A4000139F900D1124FC01EC54FF4DB585BAAFD6
:102A500019AE771F7727771F872F90E0880F991F70
:102A6000880F991F66FB662760F96BAF1CAEEBAD54
:102A7000FCAD8E2B9F2B529551705DAF1EAE2DADD0
:102A80003EAD220F331F822B932B45FB442740F989
:102A90004FAF21961FAE219721962EAD3FAD2197C6
:102AA000220F331F220F331F220F331F822B932B32
:102AB000189F9001199F300D1124F901EC54FF4D1E
:102AC0002785308949AD5AAD242B352B48E2429FEA
:102AD000C001439F900D1124BC016C197D096D87C5
:102AE0007E87D1011C968D919C911D97681B790B57
:102AF0009B01220F331F8B01000F111F000F111FAD
:102B0000000F111F020F131FC801C19683369105D4
:102B100048F00136B9E01B0744F4003AE6EF1E071F
:102B20003CF008C000E010E005C000E010E002C08A
:102B300000E010E02D853E85B901882777FD80955E
:102B4000982F0E94112F6B017C019B01AC016981C0
:102B50007A818B819C810E949D2F0E94DE2E4B01E9
:102B60005C010F2EFFEA2F2EF3E23F2EF02DD10154
:102B700050966D917C915197882777FD8095982F7D
:102B80000E94112F2B013C01A70196016D817E81CE
:102B90008F8198850E949D2F2AE037ED43EA5CE300
:102BA0000E949D2F9B01AC01C301B2010E94122E15
:102BB0000E94DE2EF101608B718B693771053CF04C
:102BC00088E790E08093BF239093C0230AC06035CC
:102BD000FBEF7F0734F488E89FEF8093BF23909347
:102BE000C023C4018038910514F08FE790E0209154
:102BF000BF233091C0232F87388B81383FEF930755
:102C000014F481E89FEF6F857889680F791F882712
:102C100077FD8095982F0E94112F6B017C01B801E0
:102C2000882777FD8095982F0E94112F9B01AC017A
:102C300069857A858B859C850E949D2F9B01AC01BF
:102C4000C701B6010E94122E0E94DE2E6038710567
:102C500014F06FE770E0EFEAF3E24D855E8544879C
:102C600055870687178761385FEF750714F461E8A9
:102C70007FEF6093C323E8E0F6E0608150817081CC
:102C80004081908180812081E081221F2227221FA4
:102C900030E0220F331F220F331F96FB992790F944
:102CA00022969FAF229723961FAE23972396AEAD11
:102CB000BFAD23972A2B3B2B8295817024968FAF33
:102CC000249725961FAE259725968EAD9FAD259707
:102CD000880F991F282B392BE5FBEE27E0F9269664
:102CE000EFAF269727961FAE279727968EAD9FADFD
:102CF0002797880F991F880F991F880F991F282BD6
:102D0000392BF7E1F29FC001F39F900D1124DC01F4
:102D1000AC54BF4D1196EC912996EFAF29972896A8
:102D20001FAE2897771F7727771F872F90E0880F90
:102D3000991F880F991F66FB662760F92A966FAF67
:102D40002A972B961FAE2B972B962EAD3FAD2B9728
:102D5000822B932B529551702C965FAF2C972D960A
:102D60001FAE2D972D962EAD3FAD2D97220F331F01
:102D7000822B932B45FB442740F92E964FAF2E977D
:102D80002F961FAE2F972F962EAD3FAD2F97220F68
:102D9000331F220F331F220F331F822B932BF89FD9
:102DA0009001F99F300D1124F901EC54FF4D8381FE
:102DB000948129964EAD5FAD2997842B952B28E2FF
:102DC000289F1001299F300C112469897A89261ABD
:102DD000370A8091832390918423D101A81BB90BDA
:102DE0009D01220F331F8D01000F111F000F111FB6
:102DF000000F111F020F131FC801C19683369105E2
:102E000048F00136B9E01B0744F4003AE6EF1E072C
:102E10003CF008C000E010E005C000E010E002C097
:102E200000E010E0B101882777FD8095982F0E947F
:102E3000112F6B017C019B01AC0169817A818B812F
:102E40009C810E949D2F0E94DE2E4B015C016091AF
:102E5000872370918823882777FD8095982F0E947B
:102E6000112F2B013C01A70196016D817E818F817D
:102E700098850E949D2F2AE037ED43EA5CE30E948B
:102E80009D2F9B01AC01C301B2010E94122E0E9432
:102E9000DE2E6093872370938823693771053CF099
:102EA00088E790E080938723909388230AC0603559
:102EB000FBEF7F0734F488E89FEF8093872390939C
:102EC0008823C4018038910514F08FE790E0BC019D
:102ED00081382FEF920714F461E87FEF8090872309
:102EE00090908823680D791D882777FD8095982F0D
:102EF0000E94112F6B017C01B801882777FD809516
:102F0000982F0E94112F9B01AC0169857A858B85D2
:102F10009C850E949D2F9B01AC01C701B6010E94B8
:102F2000122E0E94DE2E6038710514F06FE770E0FB
:102F3000E7E7F3E2248635860687178761383FEF97
:102F4000730714F461E87FEF60938B23E8E0F6E009
:102F50006081508170814081908180812081E081F9
:102F6000221F2227221F30E0220F331F220F331F80
:102F700096FB992790F960969FAF609761961FAE78
:102F800061976196AEADBFAD61972A2B3B2B8295C1
:102F9000817062968FAF629763961FAE6397639658
:102FA0008EAD9FAD6397880F991F282B392BE5FBBA
:102FB000EE27E0F96496EFAF649765961FAE6597CC
:102FC00065968EAD9FAD6597880F991F880F991FE5
:102FD000880F991F282B392BF7E1F29FC001F39F2F
:102FE000900D1124DC01AC54BF4D1596EC91679601
:102FF000EFAF679766961FAE6697771F7727771FA5
:10300000872F90E0880F991F880F991F66FB66270E
:1030100060F968966FAF689769961FAE6997699671
:103020002EAD3FAD6997822B932B529551706A96C6
:103030005FAF6A976B961FAE6B976B962EAD3FADE9
:103040006B97220F331F822B932B45FB442740F9AC
:103050006C964FAF6C976D961FAE6D976D962EADBB
:103060003FAD6D97220F331F220F331F220F331FE7
:10307000822B932BF89F9001F99F300D1124F901B9
:10308000EC54FF4D8781908567964EAD5FAD679795
:10309000842B952B28E2289F1001299F300C1124A6
:1030A0006D897E89261A370A8091142490911524FF
:1030B000D101A81BB90B9D01220F331F8D01000FF9
:1030C000111F000F111F000F111F020F131FC80146
:1030D000C1968336910548F00136B9E01B0744F4E8
:1030E000003AE6EF1E073CF008C000E010E005C023
:1030F00000E010E002C000E010E0B101882777FD99
:103100008095982F0E94112F6B017C019B01AC01CF
:1031100069817A818B819C810E949D2F0E94DE2E85
:103120004B015C016091182470911924882777FD68
:103130008095982F0E94112F2B013C01A701960129
:103140006D817E818F8198850E949D2F2AE037EDC9
:1031500043EA5CE30E949D2F9B01AC01C301B201D5
:103160000E94122E0E94DE2E609318247093192460
:10317000693771053CF088E790E0809318249093BC
:1031800019240AC06035FBEF7F0734F488E89FEF0D
:103190008093182490931924C4018038910514F069
:1031A0008FE790E0BC0181382FEF920714F461E8BB
:1031B0007FEF8090182490901924680D791D88273E
:1031C00077FD8095982F0E94112F6B017C01B8012B
:1031D000882777FD8095982F0E94112F9B01AC01C5
:1031E00069857A858B859C850E949D2F9B01AC010A
:1031F000C701B6010E94122E0E94DE2E60387105B2
:1032000014F06FE770E0E8E0F4E224863586068784
:10321000178761383FEF730714F461E87FEF60931D
:103220001C24E8E0F6E0608150817081408190814B
:1032300080812081E081221F2227221F30E0220F7F
:10324000331F220F331F96FB992790F96E969FAF7D
:103250006E976F961FAE6F976F96AEADBFAD6F97BF
:103260002A2B3B2B82958170A0968FAFA097A196B9
:103270001FAEA197A1968EAD9FADA197880F991F04
:10328000282B392BE5FBEE27E0F9A296EFAFA297AA
:10329000A3961FAEA397A3968EAD9FADA397880F5D
:1032A000991F880F991F880F991F282B392BF7E139
:1032B000F29FC001F39F900D1124DC01AC54BF4D6F
:1032C0001996EC91A596EFAFA597A4961FAEA4977B
:1032D000771F7727771F872F90E0880F991F880F18
:1032E000991F66FB662760F9A6966FAFA697A7960B
:1032F0001FAEA797A7962EAD3FADA797822B932B16
:1033000052955170A8965FAFA897A9961FAEA9973E
:10331000A9962EAD3FADA997220F331F822B932B79
:1033200045FB442740F9AA964FAFAA97AB961FAE2C
:10333000AB97AB962EAD3FADAB97220F331F220F4D
:10334000331F220F331F822B932BF89F9001F99F7D
:10335000300D1124F901EC54FF4D83859485A59619
:103360004EAD5FADA597842B952B28E2289F1001C9
:10337000299F300C1124698D7A8D261A370A809185
:103380002E2490912F24D101A81BB90B9D01220F4F
:10339000331F8D01000F111F000F111F000F111F90
:1033A000020F131FC801C1968336910548F00136FC
:1033B000B9E01B0744F4003AE6EF1E073CF008C0F2
:1033C00000E010E005C000E010E002C000E010E006
:1033D000B101882777FD8095982F0E94112F6B01EE
:1033E0007C019B01AC0169817A818B819C810E9467
:1033F0009D2F0E94DE2E4B015C0160913224709162
:103400003324882777FD8095982F0E94112F2B0158
:103410003C01A70196016D817E818F8198850E9474
:103420009D2F2AE037ED43EA5CE30E949D2F9B012C
:10343000AC01C301B2010E94122E0E94DE2E6093E5
:10344000322470933324693771053CF088E790E0AB
:1034500080933224909333240AC06035FBEF7F07BA
:1034600034F488E89FEF8093322490933324C4018E
:103470008038910514F08FE790E0BC0181382FEF80
:10348000920714F461E87FEF809032249090332407
:10349000680D791D882777FD8095982F0E94112F40
:1034A0006B017C01B801882777FD8095982F0E94D9
:1034B000112F9B01AC0169857A858B859C850E94C3
:1034C0009D2F9B01AC01C701B6010E94122E0E94E4
:1034D000DE2E6038710514F06FE770E0E2E2F4E28E
:1034E000248635860687178761383FEF730714F403
:1034F00061E87FEF60933624E8E0F6E06081508178
:1035000070814081908180812081E081221F22276B
:10351000221F30E0220F331F220F331F96FB992703
:1035200090F9AC969FAFAC97AD961FAEAD97AD96A8
:10353000AEADBFADAD972A2B3B2B82958170AE9679
:103540008FAFAE97AF961FAEAF97AF968EAD9FADD4
:10355000AF97880F991F282B392BE5FBEE27E0F951
:10356000E096EFAFE097E1961FAEE197E1968EAD62
:103570009FADE197880F991F880F991F880F991F9A
:10358000282B392BF7E1F29FC001F39F900D1124F6
:10359000DC01AC54BF4D1D96EC91E396EFAFE39781
:1035A000E2961FAEE297771F7727771F872F90E06D
:1035B000880F991F880F991F66FB662760F9E496AC
:1035C0006FAFE497E5961FAEE597E5962EAD3FAD5C
:1035D000E597822B932B52955170E6965FAFE69755
:1035E000E7961FAEE797E7962EAD3FADE797220F20
:1035F000331F822B932B45FB442740F9E8964FAFAE
:10360000E897E9961FAEE997E9962EAD3FADE997A9
:10361000220F331F220F331F220F331F822B932BB6
:10362000F89F9001F99F300D1124F901EC54FF4DE2
:1036300087859089E3964EAD5FADE397842B952BFC
:1036400028E2289F8001299F100D11246D8D7E8D09
:10365000061B170BC801AD85BE858A1B9B0B9C0101
:10366000220F331F1C01220C331C220C331C220C92
:10367000331C220E331EC101C1968336910558F0CA
:10368000B1E62B16B9E03B064CF4E0EA2E16E6EF65
:103690003E063CF008C0212C312C05C0212C312CD9
:1036A00002C0212C312CB801882777FD8095982FF6
:1036B0000E94112F6B017C019B01AC0169817A8111
:1036C0008B819C810E949D2F0E94DE2E4B015C010C
:1036D0002F853889B901882777FD8095982F0E941A
:1036E000112F2B013C01A70196016D817E818F81F5
:1036F00098850E949D2F2AE037ED43EA5CE30E9403
:103700009D2F9B01AC01C301B2010E94122E0E94A9
:10371000DE2EEFEAF3E2608B718B693771053CF0C6
:1037200088E790E08093BF239093C0230AC0603560
:103730004BEF740734F488E89FEF8093BF23909396
:10374000C023C4018038910514F08FE790E08138E0
:103750005FEF950714F481E89FEF8090BF2390906E
:10376000C023880E991EB401882777FD8095982F75
:103770000E94112F6B017C01B101882777FD809594
:10378000982F0E94112F9B01AC0169857A858B854A
:103790009C850E949D2F9B01AC01C701B6010E9430
:1037A000122E0E94DE2ECB016038710514F08FE7D7
:1037B00090E0EFEAF3E204871587268637868138A2
:1037C0006FEF960714F481E89FEF8093C3236AE2BA
:1037D00080EA9BE00E94720E6EE780EA9BE00E9406
:1037E000720E60918B2380EA9BE00E94720E6091C2
:1037F0001C2480EA9BE00E94720E6091362480EACD
:103800009BE00E94720E6091C32380EA9BE00E94BD
:10381000720E63E280EA9BE00E94720E2FB7F8946A
:10382000E0E0F2E084A195A12FBF8093A7209093C0
:10383000A820893D94403CF4E0E4F6E080E48583F0
:1038400084E0858306C0E0E4F6E080E4868384E0DB
:10385000868360E080E00E947B020F2EF8E0CF2E8E
:10386000F6E0DF2EF02DD6011C917C918C916C91AD
:10387000EC91FC914C919C9150918B23252F3327F7
:1038800027FD30953F935F93441F4427441F50E02A
:10389000440F551F440F551FE6FBEE27E0F9EA964B
:1038A000EFAFEA97EB961FAEEB97EB962EAD3FADE1
:1038B000EB97422B532BF295F170EC96FFAFEC9700
:1038C000ED961FAEED97ED962EAD3FADED97220F25
:1038D000331F422B532B95FB992790F9EE969FAF00
:1038E000EE97EF961FAEEF97EF962EAD3FADEF97A9
:1038F000220F331F220F331F220F331F422B532B54
:103900000F2EF7E1FF2EF02DF49E9001F59E300D65
:103910001124D901AC54BF4D11963C91C058DF4FD2
:103920003883C058D040C158DF4F1882CF57D0409D
:10393000881F8827881F90E0880F991F880F991F7C
:1039400016FB112710F9CF57DF4F1883C158D0400D
:10395000CE57DF4F1882C258D040CF57DF4F488133
:103960005981C158D040842B952B72957170CD57D9
:10397000DF4F7883C358D040CC57DF4F1882C458EC
:10398000D040CD57DF4F28813981C358D040220F16
:10399000331F822B932B65FB662760F9CB57DF4FD4
:1039A0006883C558D040CA57DF4F1882C658D040E8
:1039B000CB57DF4F28813981C558D040220F331FA4
:1039C000220F331F220F331F822B932BF89E90015F
:1039D000F99E300D1124F901EC54FF4D838194813F
:1039E000C158DF4F68817981CF57D040862B972B04
:1039F0009F938F938CE390E29F938F930BED13E251
:103A00001F930F930E940030C8010E946C0261E076
:103A100080E00E947B0280917C238F93ABE7B3E22E
:103A20008C918F9384E490E29F938F931F930F93D5
:103A30000E940030C8010E946C02F60190818081D2
:103A400020814081221F2227221F30E0220F331FB6
:103A5000220F331F96FB992790F9C957DF4F9883A0
:103A6000C758D040C857DF4F1882C858D040C957F0
:103A7000DF4F68817981C758D040262B372B82953C
:103A80008170C757DF4F8883C958D040C657DF4F72
:103A90001882CA58D040C757DF4F88819981C958CA
:103AA000D040880F991F282B392B45FB442740F91C
:103AB000C557DF4F4883CB58D040C457DF4F1882DB
:103AC000CC58D040C557DF4F88819981CB58D04022
:103AD000880F991F880F991F880F991F282B392B42
:103AE000F29EC001F39E900D1124FC01EC54FF4D99
:103AF000CDBFDEBF8189882309F463C0E8E0F6E02A
:103B00009081808120814081221F2227221F30E066
:103B1000220F331F220F331F96FB992790F9CD5F99
:103B2000DE4F9883C350D140CC5FDE4F1882C45023
:103B3000D140CD5FDE4FA881B981C350D1402A2B3F
:103B40003B2B82958170CB5FDE4F8883C550D1407F
:103B5000CA5FDE4F1882C650D140CB5FDE4F8881EE
:103B60009981C550D140880F991F282B392B45FBCF
:103B7000442740F9C95FDE4F4883C750D140C85F32
:103B8000DE4F1882C850D140C95FDE4F88819981CD
:103B9000C750D140880F991F880F991F880F991F10
:103BA000282B392B47E1429FC001439F900D1124E0
:103BB000FC01EC54FF4D818990E08093A520909307
:103BC000A620E8E0F6E09081808120814081221FDC
:103BD0002227221F30E0220F331F220F331F96FBB4
:103BE000992790F9C357DF4F9883CD58D040C257DB
:103BF000DF4F1882CE58D040C357DF4FE881F9819C
:103C0000CD58D0402E2B3F2B82958170C157DF4F6E
:103C10008883CF58D040C057DF4F1882C059D0405A
:103C2000C157DF4F88819981CF58D040880F991FA5
:103C3000282B392B45FB442740F9CF56DF4F4883CB
:103C4000C159D040CE56DF4F1882C259D040CF560E
:103C5000DF4F88819981C159D040880F991F880F03
:103C6000991F880F991F282B392B47E1429FC001CC
:103C7000439F900D1124FC01EC54FF4D8289882351
:103C800019F0E0E6F6E08085E0E0F6E0808582FF6E
:103C900018C0E0E2F6E084818064848384E690E0EA
:103CA00080932A0890932B08FFEF13EC29E0F15042
:103CB00010402040E1F700C0000010922A08109246
:103CC0002B08E8E0F6E0008110818081508130818E
:103CD000208160819081661F6627661F70E0660FF5
:103CE000771F660F771F36FB332730F9CD56DF4F2E
:103CF0003883C359D040CC56DF4F1882C459D040C6
:103D0000CD56DF4FA881B981C359D0406A2B7B2B98
:103D100022952170CB56DF4F2883C559D040CA5613
:103D2000DF4F1882C659D040CB56DF4F28813981EA
:103D3000C559D040220F331F622B732B95FB992757
:103D400090F9C956DF4F9883C759D040C856DF4F06
:103D50001882C859D040C956DF4F28813981C759C8
:103D6000D040220F331F220F331F220F331F622B2D
:103D7000732B47E1469F9001479F300D11242C542F
:103D80003F4DD9011196BC91C656DF4FB883CA5931
:103D9000D040C756DF4F1882C959D040881F8827A6
:103DA000881F90E0880F991F880F991F06FB002736
:103DB00000F9C556DF4F0883CB59D040C456DF4FBA
:103DC0001882CC59D040C556DF4F28813981CB5954
:103DD000D040822B932B12951170C356DF4F18835E
:103DE000CD59D040C256DF4F1882CE59D040C3566D
:103DF000DF4F28813981CD59D040220F331F822BCC
:103E0000932B55FB552750F9C156DF4F5883CF5997
:103E1000D040C056DF4F1882C05AD040C156DF4F45
:103E200028813981CF59D040220F331F220F331FF1
:103E3000220F331F822B932B489F9001499F300DF7
:103E40001124D901AC54BF4D13968D919C911497B8
:103E5000C756DF4F68817981C959D040862B972B8F
:103E600058E2859F802D112480938D2300817081DD
:103E700010816081308120818081F080881F8827B7
:103E8000881F90E0880F991F880F991F36FB3327F2
:103E900030F9CF55DF4F3883C15AD040CE55DF4F70
:103EA0001882C25AD040CF55DF4FA881B981C15A7C
:103EB000D0408A2B9B2B22952170CD55DF4F288334
:103EC000C35AD040CC55DF4F1882C45AD040CD558C
:103ED000DF4F28813981C35AD040220F331F822BF4
:103EE000932BF5FAFF24F0F8CB55DF4FF882C55A33
:103EF000D040CA55DF4F1882C65AD040CB55DF4F4D
:103F000028813981C55AD040220F331F220F331F19
:103F1000220F331F822B932B489FD001499FB00D56
:103F200011249D012C543F4DD9011196BC91C855C7
:103F3000DF4FB883C85AD040C955DF4F1882C75ADF
:103F4000D040111F1127111F812F90E0880F991F5A
:103F5000880F991F06FB002700F9C755DF4F08831C
:103F6000C95AD040C655DF4F1882CA5AD040C755EB
:103F7000DF4F28813981C95AD040822B932B72950B
:103F80007170C555DF4F7883CB5AD040C455DF4F91
:103F90001882CC5AD040C555DF4F28813981CB5A81
:103FA000D040220F331F822B932B65FB662760F9CD
:103FB000C355DF4F6883CD5AD040C255DF4F1882BA
:103FC000CE5AD040C355DF4F28813981CD5AD040D9
:103FD000220F331F220F331F220F331F822B932BED
:103FE000489FB001499F700D1124DB01AC54BF4DB7
:103FF00013962D913C911497C955DF4F68817981B3
:10400000C75AD040262B372B529FC001539F900D8B
:10401000112490938E230081708110816081308102
:1040200020818081F080881F8827881F90E0880F7A
:10403000991F880F991F36FB332730F9C155DF4F81
:104040003883CF5AD040C055DF4F1882C05BD04074
:10405000C155DF4FA881B981CF5AD0408A2B9B2B05
:1040600022952170CF54DF4F2883C15BD040CE54BE
:10407000DF4F1882C25BD040CF54DF4F2881398197
:10408000C15BD040220F331F822B932BF5FAFF2404
:10409000F0F8CD54DF4FF882C35BD040CC54DF4FF3
:1040A0001882C45BD040CD54DF4F28813981C35B77
:1040B000D040220F331F220F331F220F331F822BBA
:1040C000932B489FD001499FB00D11249D012C5482
:1040D0003F4DD9011596BC91CA54DF4FB883C65BDA
:1040E000D040CB54DF4F1882C55BD040111F112741
:1040F000111F812F90E0880F991F880F991F06FBD1
:10410000002700F9C954DF4F0883C75BD040C8546B
:10411000DF4F1882C85BD040C954DF4F28813981F6
:10412000C75BD040822B932B72957170C754DF4FC1
:104130007883C95BD040C654DF4F1882CA5BD04039
:10414000C754DF4F28813981C95BD040220F331F0C
:10415000822B932B65FB662760F9C554DF4F68837C
:10416000CB5BD040C454DF4F1882CC5BD040C554E9
:10417000DF4F28813981CB5BD040220F331F220FC4
:10418000331F220F331F822B932B489FB001499F6F
:10419000700D1124DB01AC54BF4D17968D919C918D
:1041A0001897CB54DF4F68817981C55BD040862B4F
:1041B000972B859F802D112480938F230081708100
:1041C00010816081308120818081F080881F882764
:1041D000881F90E0880F991F880F991F36FB33279F
:1041E00030F9C354DF4F3883CD5BD040C254DF4F2A
:1041F0001882CE5BD040C354DF4FA881B981CD5B1C
:10420000D0408A2B9B2B22952170C154DF4F2883ED
:10421000CF5BD040C054DF4F1882C05CD040C15447
:10422000DF4F28813981CF5BD040220F331F822B93
:10423000932BF5FAFF24F0F8CF53DF4FF882C15CDF
:10424000D040CE53DF4F1882C25CD040CF53DF4FF7
:1042500028813981C15CD040220F331F220F331FC8
:10426000220F331F822B932B489FD001499FB00D03
:1042700011249D012C543F4DD9011596BC91CC536E
:10428000DF4FB883C45CD040CD53DF4F1882C35C8E
:10429000D040111F1127111F812F90E0880F991F07
:1042A000880F991F06FB002700F9CB53DF4F0883C7
:1042B000C55CD040CA53DF4F1882C65CD040CB5398
:1042C000DF4F28813981C55CD040822B932B7295BA
:1042D0007170C953DF4F7883C75CD040C853DF4F3C
:1042E0001882C85CD040C953DF4F28813981C75C30
:1042F000D040220F331F822B932B65FB662760F97A
:10430000C753DF4F6883C95CD040C653DF4F188264
:10431000CA5CD040C753DF4F28813981C95CD04087
:10432000220F331F220F331F220F331F822B932B99
:10433000489FB001499F700D1124DB01AC54BF4D63
:1043400017962D913C911897CD53DF4F6881798155
:10435000C35CD040262B372B529FC001539F900D3A
:1043600011249093902300817081108160813081AD
:1043700020818081F080881F8827881F90E0880F27
:10438000991F880F991F36FB332730F9C553DF4F2C
:104390003883CB5CD040C453DF4F1882CC5CD04014
:1043A000C553DF4FA881B981CB5CD0408A2B9B2BB2
:1043B00022952170C353DF4F2883CD5CD040C25378
:1043C000DF4F1882CE5CD040C353DF4F2881398144
:1043D000CD5CD040220F331F822B932BF5FAFF24A4
:1043E000F0F8C153DF4FF882CF5CD040C053DF4FAD
:1043F0001882C05DD040C153DF4F28813981CF5C26
:10440000D040220F331F220F331F220F331F822B66
:10441000932B489FD001499FB00D11249D012C542E
:104420003F4DD9011996BC91CE52DF4FB883C25D82
:10443000D040CF52DF4F1882C15DD040111F1127ED
:10444000111F812F90E0880F991F880F991F06FB7D
:10445000002700F9CD52DF4F0883C35DD040CC5216
:10446000DF4F1882C45DD040CD52DF4F28813981A3
:10447000C35DD040822B932B72957170CB52DF4F6E
:104480007883C55DD040CA52DF4F1882C65DD040E8
:10449000CB52DF4F28813981C55DD040220F331FB9
:1044A000822B932B65FB662760F9C952DF4F688327
:1044B000C75DD040C852DF4F1882C85DD040C95296
:1044C000DF4F28813981C75DD040220F331F220F73
:1044D000331F220F331F822B932B489FB001499F1C
:1044E000700D1124DB01AC54BF4D1B968D919C9136
:1044F0001C97CF52DF4F68817981C15DD040862BF8
:10450000972B859F802D11248093912300817081AA
:1045100010816081308120818081F080881F882710
:10452000881F90E0880F991F880F991F36FB33274B
:1045300030F9C752DF4F3883C95DD040C652DF4FD4
:104540001882CA5DD040C752DF4FA881B981C95DCA
:10455000D0408A2B9B2B22952170C552DF4F288398
:10456000CB5DD040C452DF4F1882CC5DD040C552E5
:10457000DF4F28813981CB5DD040220F331F822B42
:10458000932BF5FAFF24F0F8C352DF4FF882CD5D8C
:10459000D040C252DF4F1882CE5DD040C352DF4FB1
:1045A00028813981CD5DD040220F331F220F331F68
:1045B000220F331F822B932B489FD001499FB00DB0
:1045C00011249D012C543F4DD9011996BC91C05224
:1045D000DF4FB883C05ED040C152DF4F1882CF5D3D
:1045E000D040111F1127111F812F90E0880F991FB4
:1045F000880F991F06FB002700F9CF51DF4F088372
:10460000C15ED040CE51DF4F1882C25ED040CF5144
:10461000DF4F28813981C15ED040822B932B729568
:104620007170CD51DF4F7883C35ED040CC51DF4FE6
:104630001882C45ED040CD51DF4F28813981C35EDE
:10464000D040220F331F822B932B65FB662760F926
:10465000CB51DF4F6883C55ED040CA51DF4F18820F
:10466000C65ED040CB51DF4F28813981C55ED04036
:10467000220F331F220F331F220F331F822B932B46
:10468000489FB001499F700D1124DB01AC54BF4D10
:104690001B962D913C911C97C152DF4F6881798107
:1046A000CF5DD040262B372B529FC001539F900DDA
:1046B0001124909392230081708110816081308158
:1046C00020818081F080881F8827881F90E0880FD4
:1046D000991F880F991F36FB332730F9C951DF4FD7
:1046E0003883C75ED040C851DF4F1882C85ED040C3
:1046F000C951DF4FA881B981C75ED0408A2B9B2B5F
:1047000022952170C751DF4F2883C95ED040C65122
:10471000DF4F1882CA5ED040C751DF4F28813981F0
:10472000C95ED040220F331F822B932BF5FAFF2452
:10473000F0F8C551DF4FF882CB5ED040C451DF4F57
:104740001882CC5ED040C551DF4F28813981CB5EC5
:10475000D040220F331F220F331F220F331F822B13
:10476000932B489FD001499FB00D11249D012C54DB
:104770003F4DD9011D96BC91C251DF4FB883CE5E2B
:10478000D040C351DF4F1882CD5ED040111F11279A
:10479000111F812F90E0880F991F880F991F06FB2A
:1047A000002700F9C151DF4F0883CF5ED040C051D0
:1047B000DF4F1882C05FD040C151DF4F288139815F
:1047C000CF5ED040822B932B72957170CF50DF4F0C
:1047D0007883C15FD040CE50DF4F1882C25FD04097
:1047E000CF50DF4F28813981C15FD040220F331F66
:1047F000822B932B65FB662760F9CD50DF4F6883D2
:10480000C35FD040CC50DF4F1882C45FD040CD5042
:10481000DF4F28813981C35FD040220F331F220F21
:10482000331F220F331F822B932B489FB001499FC8
:10483000700D1124DB01AC54BF4D1F968D919C91DE
:104840005097C351DF4F68817981CD5ED040862B70
:10485000972B859F802D1124809393231081708145
:1048600000816081908180812081A081221F222788
:10487000221F30E0220F331F220F331F96FB992790
:1048800090F9CB50DF4F9883C55FD040CA50DF4FBF
:104890001882C65FD040CB50DF4FE881F981C55FF9
:1048A000D0402E2B3F2B82958170C950DF4F8883DB
:1048B000C75FD040C850DF4F1882C85FD040C95092
:1048C000DF4F88819981C75FD040880F991F282BBF
:1048D000392BA5FBAA27A0F9C750DF4FA883C95FD2
:1048E000D040C650DF4F1882CA5FD040C750DF4F5C
:1048F00088819981C95FD040880F991F880F991FBF
:10490000880F991F282B392B429FC001439F900D80
:104910001124FC01EC54FF4D2585C450DF4F288342
:10492000CC5FD040C550DF4F1882CB5FD040B02F56
:10493000BB1FBB27BB1F8B2F90E0880F991F880FD1
:10494000991F16FB112710F9C350DF4F1883CD5F55
:10495000D040C250DF4F1882CE5FD040C350DF4FEF
:10496000A881B981CD5FD0408A2B9B2B7295717045
:10497000C150DF4F7883CF5FD040C050DF4F1882E7
:10498000C050D140C150DF4F28813981CF5FD04026
:10499000220F331F822B932B65FB662760F9CF5FB5
:1049A000DE4F6883C150D140CE5FDE4F1882C250C7
:1049B000D140CF5FDE4F28813981C150D140220FD5
:1049C000331F220F331F220F331F822B932B489F3D
:1049D000B001499F700D1124FB01EC54FF4D278558
:1049E0003089C550DF4FE881F981CB5FD0402E2B55
:1049F0003F2B529FC001539F900D112490939423FD
:104A0000ABE7B3E29C9180917C23909395238093B4
:104A10009623ECE0F4E28081918180939723909338
:104A20009823E6E2F4E28081918180939923909328
:104A30009A23E3EBF3E28081918180939B2390930F
:104A40009C238091A7209091A82095958795959576
:104A50008795959587959595879580939D2360E299
:104A600070E08DE893E20E94CE2D88D7BAE0BA9527
:104A7000F1F700C00C94F2111F920F920FB60F9233
:104A8000112408B60F9218BE09B60F9219BE0AB6C5
:104A90000F921ABE0BB60F921BBE2F923F924F92EF
:104AA0005F927F928F929F92AF92BF92CF92DF924E
:104AB000EF92FF920F931F932F933F934F935F9328
:104AC0006F937F938F939F93AF93BF93EF93FF93D6
:104AD000CF93DF93CDB7DEB7C455D109CDBFDEBFCD
:104AE00060E787E270D7782E86FFF6C388E0E0E6BD
:104AF000F6E0878360E270E087E493E2B9D70F2E97
:104B0000F7E48F2EF3E29F2EF02DD4016D914D012D
:104B100080EA9AE00E94720EB7E68B16B3E29B061B
:104B2000A1F740914723E8E0F6E0708160812081A1
:104B30005081842F90E0221F2227221F30E0220F75
:104B4000331F220F331F76FBCC24C0F8D12CC22A8E
:104B5000D32A64FBEE24E0F8F12CEE0CFF1CCE28E7
:104B6000DF2855FB002700F910E09801220F331FC2
:104B7000220F331F220F331F8601022B132B8017A6
:104B8000910709F0A9C31092A9201092AA20508180
:104B9000308180812081881F8827881F90E0880FBE
:104BA000991F880F991F56FBAA24A0F8B12CA82A98
:104BB000B92A3295317039831A8289819A81880F96
:104BC000991FA82AB92A25FB442440F8512CC20178
:104BD000880F991F880F991F880F991F2501482A50
:104BE000592A57E1549DD001559DB00D1124AC5464
:104BF000BF4D4C934081308180812081881F882760
:104C0000881F90E0880F991F880F991F46FB222468
:104C100020F8312C282A392A329531703B831C82A6
:104C20008B819C81880F991F282A392A25FB2227EE
:104C300020F92D831E828D819E81880F991F880FF8
:104C4000991F880F991F282A392A529DD001539DF8
:104C5000B00D1124AC54BF4D8091482390E01196C3
:104C60008D939C9312973081208180814081881F91
:104C70008827881F90E0880F991F880F991F36FB9F
:104C8000332730F93F8318866F817885862B972BE1
:104C90002295217029871A8629853A85220F331F8C
:104CA000822B932B45FB442740F94B871C862B8591
:104CB0003C85220F331F220F331F220F331F822BFD
:104CC000932B589FD001599FB00D1124AC54BF4D68
:104CD0008091492390E013968D939C931497308193
:104CE000208180814081881F8827881F90E0880F5D
:104CF000991F880F991F36FB332730F93D871E8691
:104D0000AD85BE858A2B9B2B229521702F87188A13
:104D10002F853889220F331F822B932B45FB442785
:104D200040F9498B1A8A29893A89220F331F220FA9
:104D3000331F220F331F822B932B589FD001599F73
:104D4000B00D1124AC54BF4D80914A2390E01596CC
:104D50008D939C9316973081208180814081881F9C
:104D60008827881F90E0880F991F880F991F36FBAE
:104D7000332730F93B8B1C8A6B897C89862B972BD8
:104D8000229521702D8B1E8A2D893E89220F331F7B
:104D9000822B932B45FB442740F94F8B188E2F898C
:104DA000388D220F331F220F331F220F331F822B08
:104DB000932B589FD001599FB00D1124AC54BF4D77
:104DC00080914B2390E017968D939C931897308198
:104DD000208180814081881F8827881F90E0880F6C
:104DE000991F880F991F36FB332730F9398F1A8E98
:104DF000A98DBA8D8A2B9B2B229521702B8F1C8E0F
:104E00002B8D3C8D220F331F822B932B45FB442788
:104E100040F94D8F1E8E2D8D3E8D220F331F220F98
:104E2000331F220F331F822B932B589FD001599F82
:104E3000B00D1124AC54BF4D80914C2390E01996D5
:104E40008D939C931A973081208180814081881FA7
:104E50008827881F90E0880F991F880F991F36FBBD
:104E6000332730F93F8F18A26F8D78A1862B972BAF
:104E70002295217029A31AA229A13AA1220F331F3A
:104E8000822B932B45FB442740F94BA31CA22BA15B
:104E90003CA1220F331F220F331F220F331F822BFF
:104EA000932B589FD001599FB00D1124AC54BF4D86
:104EB00080914D2390E01B968D939C931C9730819D
:104EC000208180814081881F8827881F90E0880F7B
:104ED000991F880F991F36FB332730F93DA31EA277
:104EE000ADA1BEA18A2B9B2B229521702FA318A6C2
:104EF0002FA138A5220F331F822B932B45FB44276C
:104F000040F949A71AA629A53AA5220F331F220F57
:104F1000331F220F331F822B932B589FD001599F91
:104F2000B00D1124AC54BF4D80914E2390E01D96DE
:104F30008D939C931E973081208180814081881FB2
:104F40008827881F90E0880F991F880F991F36FBCC
:104F5000332730F93BA71CA66BA57CA5862B972B86
:104F6000229521702DA71EA62DA53EA5220F331F29
:104F7000822B932B45FB442740F94FA718AA2FA556
:104F800038A9220F331F220F331F220F331F822B0A
:104F9000932B589FD001599FB00D1124AC54BF4D95
:104FA00080914F2390E01F968D939C935097308172
:104FB000208180814081881F8827881F90E0880F8A
:104FC000991F880F991F36FB332730F939AB1AAA7E
:104FD000A9A9BAA98A2B9B2B229521702BAB1CAABD
:104FE0002BA93CA9220F331F822B932B45FB44276F
:104FF00040F94DAB1EAA2DA93EA9220F331F220F47
:10500000331F220F331F822B932B589FD001599FA0
:10501000B00D1124AC54BF4D8091502351968C9308
:105020003081208180814081881F8827881F90E0FF
:10503000880F991F880F991F36FB332730F93FAB34
:1050400018AE6FA978AD862B972B2295217029AFCA
:105050001AAE29AD3AAD220F331F822B932B45FB9D
:10506000442740F94BAF1CAE2BAD3CAD220F331F94
:10507000220F331F220F331F822B932B589FD001F7
:10508000599FB00D1124AC54BF4D809151235296BD
:105090008C933081208180814081881F8827881FE0
:1050A00090E0880F991F880F991F36FB332730F93E
:1050B0003DAF1EAEADADBEAD8A2B9B2B22952170B0
:1050C0002FAF21961FAE219721962EAD3FAD219790
:1050D000220F331F822B932B45FB442740F9229646
:1050E0004FAF229723961FAE239723962EAD3FAD49
:1050F0002397220F331F220F331F220F331F822BC0
:10510000932B589FD001599FB00D1124AC54BF4D23
:105110008091522353968C933081208180814081ED
:10512000881F8827881F90E0880F991F880F991F74
:1051300036FB332730F924963FAF249725961FAED0
:10514000259725966EAD7FAD2597862B972B2295BB
:10515000217026962FAF269727961FAE2797279662
:105160002EAD3FAD2797220F331F822B932B45FB8C
:10517000442740F928964FAF289729961FAE2997C4
:1051800029962EAD3FAD2997220F331F220F331FD3
:10519000220F331F822B932B589FD001599FB00DA4
:1051A0001124AC54BF4D8091532354968C9330817D
:1051B000208180814081881F8827881F90E0880F88
:1051C000991F880F991F36FB332730F92A963FAF76
:1051D0002A972B961FAE2B972B96AEADBFAD2B9774
:1051E0008A2B9B2B229521702C962FAF2C972D96D6
:1051F0001FAE2D972D962EAD3FAD2D97220F331F4D
:10520000822B932B45FB442740F92E964FAF2E97C8
:105210002F961FAE2F972F962EAD3FAD2F97220FB3
:10522000331F220F331F220F331F822B932B589FC4
:10523000D001599FB00D1124AC54BF4D809154231F
:1052400055968C933081208180814081881F8827EA
:10525000881F90E0880F991F880F991F36FB33270E
:1052600030F960963FAF609761961FAE6197619687
:10527000EEADFFAD61978E2B9F2B2295217062962C
:105280002FAF629763961FAE639763962EAD3FADC7
:105290006397220F331F822B932B45FB442740F942
:1052A00064964FAF649765961FAE659765962EAD71
:1052B0003FAD6597220F331F220F331F220F331F7D
:1052C000822B932B589FF001599FF00D1124EC5421
:1052D000FF4D80915523868B75FE04C080E2E0E689
:1052E000F6E0878374FE05C084E0E0E6F6E087839D
:1052F0005AD4CC5ADF4FCDBFDEBFDF91CF91FF91A3
:10530000EF91BF91AF919F918F917F916F915F913D
:105310004F913F912F911F910F91FF90EF90DF9050
:10532000CF90BF90AF909F908F907F905F904F9065
:105330003F902F900F900BBE0F900ABE0F9009BEAA
:105340000F9008BE0F900FBE0F901F9018951F92E0
:105350000F920FB60F92112408B60F9218BE09B61D
:105360000F9219BE0AB60F921ABE0BB60F921BBE51
:10537000AF92BF92DF92EF92FF920F931F932F9302
:105380003F934F935F936F937F938F939F93AF93CD
:10539000BF93CF93DF93EF93FF93A89580916B23F7
:1053A0008F5F80936B23843174F081E080939E2023
:1053B00010926B238091A3209091A420019680935A
:1053C000A3209093A42080919F209091A020A09151
:1053D000A120B091A2200196A11DB11D80939F2014
:1053E0009093A020A093A120B093A220E090A520AC
:1053F000F090A620E114F10409F45CC08091CE2164
:105400009091CF21A091D021B091D1210196A11DE1
:10541000B11D8093CE219093CF21A093D021B09342
:10542000D12184369105A105B105E0F4A0E2B6E0F2
:1054300014968C911497806414968C931497E09230
:105440002A08F0922B0814968C9114978064149675
:105450008C938091A5209091A6208093280890930A
:10546000290828C0893B9B40A105B10560F0109236
:10547000CE211092CF211092D0211092D1211092E2
:10548000A5201092A62010922A0810922B08A0E2C4
:10549000B6E014968C9114978F7B14968C93149786
:1054A000109228081092290814968C9114978F7BDB
:1054B00014968C938091A9209091AA2001968093B4
:1054C000A9209093AA208091482090914920813072
:1054D000910581F41092AB200E9498020E94C402B0
:1054E0008091482090914920019780934820909383
:1054F000492087C08230910508F1019780934820A8
:10550000909349200E94E90280914820909149207F
:10551000883B2BE0920708F074C0A0E0B0E08093D5
:105520002C2090932D20A0932E20B0932F2088EC38
:1055300090E080932F229093302263C0A8E0B6E0E1
:10554000DC90EC908C91FC90881F8827881F90E05D
:10555000880F991F880F991FD6FA002700F910E0CD
:10556000082B192BE4FAEE24E0F8CE2D80E0D82F9A
:10557000CC0FDD1F0C2B1D2BF5FAEE27E0F9F0E028
:10558000CF01880F991F880F991F880F991FF80165
:10559000E82BF92BEE0FFF1FE85FFF4D8081E0E065
:1055A000F7E08483CC919C91EC918C91EE1FEE27D7
:1055B000EE1FF0E0EE0FFF1FEE0FFF1FC6FB66278A
:1055C00060F970E0E62BF72B94FB442740F950E09C
:1055D000440F551FE42BF52B85FBAA24A0F8B12C12
:1055E0009501220F331F220F331F220F331FE22B8F
:1055F000F32BEE0FFF1FE85FFF4D8081E0EEF6E03A
:105600008483FF91EF91DF91CF91BF91AF919F91F3
:105610008F917F916F915F914F913F912F911F914A
:105620000F91FF90EF90DF90BF90AF900F900BBE67
:105630000F900ABE0F9009BE0F9008BE0F900FBECC
:105640000F901F9018951F920F920FB60F92112472
:1056500008B60F9218BE0F9008BE0F900FBE0F90A5
:105660001F9018951F920F920FB60F92112408B633
:105670000F9218BE2F933F938F939F9320910824EE
:10568000309109248091C80781FF03C08FEF9FEFFD
:1056900002C081E090E0820F931F809308249093D2
:1056A00009249F918F913F912F910F9008BE0F90E9
:1056B0000FBE0F901F9018951F920F920FB60F926A
:1056C000112408B60F9218BE2F933F938F939F9388
:1056D00020917723309178238091E80684FF03C0DE
:1056E0008FEF9FEF02C081E090E0820F931F8093C5
:1056F0007723909378239F918F913F912F910F90D3
:1057000008BE0F900FBE0F901F9018951F920F921A
:105710000FB60F92112408B60F9218BE2F933F9325
:105720008F939F932091AF233091B02380914806AF
:1057300084FF03C08FEF9FEF02C081E090E0820FF3
:10574000931F8093AF239093B0239F918F913F91AC
:105750002F910F9008BE0F900FBE0F901F901895BD
:105760001F920F920FB60F92112408B60F9218BE17
:105770002F933F938F939F93209122243091232442
:105780008091C80782FF03C08FEF9FEF02C081E0C6
:1057900090E0820F931F80932224909323249F9163
:1057A0008F913F912F910F9008BE0F900FBE0F90D9
:1057B0001F9018951F920F920FB60F92112408B6E2
:1057C0000F9218BE0F9008BE0F900FBE0F901F9043
:1057D00018951F920F920FB60F92112408B60F92D0
:1057E00018BE09B60F9219BE0BB60F921BBE2F93AF
:1057F0003F934F935F936F937F938F939F93AF9359
:10580000BF93EF93FF938091482090914920892B7B
:1058100089F48091E8066BE470E2881F8827881F6E
:105820000E9489028091A8066AE470E282958170E4
:105830000E94890280E395E7809348209093492055
:105840008FEF8093AB200E949802FF91EF91BF9160
:10585000AF919F918F917F916F915F914F913F9108
:105860002F910F900BBE0F9009BE0F9008BE0F90A6
:105870000FBE0F901F9018951F920F920FB60F92A8
:10588000112408B60F9218BE2F938F939F932091E7
:10589000A00B80919C2090919D208230910519F160
:1058A0002CF4009749F0019789F05EC08330910590
:1058B00051F1049789F158C02A3209F055C081E0AE
:1058C00090E080939C2090939D204EC0822F90E08A
:1058D0008093C4239093C52382E090E080939C2022
:1058E00090939D2041C08091C4239091C523922B19
:1058F0008093C4239093C52383E090E080939C2001
:1059000090939D2031C02093D42384E090E0809335
:105910009C2090939D2028C0233211F52091D42300
:10592000223019F0233051F011C080913E24909123
:105930003F24809324249093252408C080913E2402
:1059400090913F248093B1239093B22380913E2481
:1059500090913F2480936F23909370232093D521BF
:1059600010929C2010929D209F918F912F910F90CB
:1059700008BE0F900FBE0F901F901895E0E8F6E05C
:1059800082E0868385838AE68A95F1F700C082E00B
:1059900086830895E0ECFAE0838382818823ECF724
:1059A000E0ECFAE0838108951F93CF93DF93C0E882
:1059B000D6E010E11E83EEDF8FEFECDF1D83DF9179
:1059C000CF911F910895FF920F931F93CF93DF9371
:1059D000F62EC0E8D6E010E11E83DCDF082F8F2D05
:1059E000D9DF1D83802FDF91CF911F910F91FF9001
:1059F0000895682F6F7785E2E6CF0895CF93C82F7B
:105A0000682F84E2E0DF6C2F81E2DDDFCF91089523
:105A100063E083E2D8CF089560E787E2D4CF0895AA
:105A2000DF92EF92FF920F931F93CF93DF937B014F
:105A30008A0190E1E0E8F6E09683ACDFD82E1016FC
:105A400011064CF4E7010E0D1F1D8FEFA3DF8993A4
:105A5000C017D107D1F780E1E0E8F6E085838D2D0E
:105A6000DF91CF911F910F91FF90EF90DF900895FC
:105A7000AB01BC0181E6D4CF0895DF92EF92FF9293
:105A80000F931F93CF93DF937B018A0190E1E0E8AE
:105A9000F6E096837FDFD82E1016110644F4E70156
:105AA0000E0D1F1D899176DFC017D107D9F780E150
:105AB000E0E8F6E085838D2DDF91CF911F910F9166
:105AC000FF90EF90DF900895EF92FF920F931F9356
:105AD000CF93DF93F82EEB018A01E22E82E064DFA0
