S00D000062617365312E737265634B
S1130000F9C000001DC100000C94032919C10000AF
S113001017C1000015C1000013C1000011C1000088
S11300200FC100000DC100000BC1000009C1000098
S113003007C1000005C1000044C500007AC50000E6
S1130040B0C50000E6C500001CC6000052C6000092
S113005088C60000BEC60000F4C600002AC700001F
S1130060EFC00000EDC00000EBC00000E9C00000DC
S1130070E7C00000E5C00000E3C00000E1C00000EC
S1130080DFC00000DDC00000DBC00000D9C00000FC
S1130090D7C00000D5C00000D3C00000D1C000000C
S11300A0CFC00000CDC00000CBC000000C94B9222A
S11300B0C7C00000C5C00000C3C000000C9489097B
S11300C00C94C1090C94F9090C94310A0C94690A32
S11300D00C94A10A0C94D90A0C94110B0C94490B9E
S11300E00C94810BADC00000ABC00000A9C000009F
S11300F0A7C00000A5C00000A3C00000A1C000006C
S11301009FC000009DC000009BC0000099C000007B
S113011097C0000095C0000093C0000091C000008B
S11301208FC000008DC000008BC0000089C000009B
S113013087C000000C942427F4C600002AC70000DE
S113014060C7000096C70000CCC700000C94A90843
S11301500C94E1080C9419090C94510971C0000025
S11301606FC000006DC000006BC0000069C00000DB
S113017067C0000065C000000C94AF280C942D29C2
S11301800C94D9280C9457295BC0000059C0000076
S11301900C94662955C0000053C0000051C00000F3
S11301A00C94A0284DC000004BC0000049C00000C2
S11301B00C94B90B0C94F10B0C94290C0C94610C59
S11301C00C94990C0C94D10C0C94090D0C94410DC5
S11301D00C94790D0C94B10D33C000000C94B92922
S11301E02FC000002DC000002BC0000029C000005B
S11301F027C0000011241FBECFEFCDBFDFE3DEBF59
S113020000E00CBF18BE19BE1ABE1BBE10E2A0E06F
S1130210B0E2E6E9F0E600E00BBF02C007900D9201
S1130220A834B107D9F71BBE24E2A8E4B0E201C0A8
S11302301D92A632B207E1F70E94F4100C944930E3
S1130240DFCEE4E2F6E09081A82FA170B0E0AA0F1F
S1130250BB1FAA0FBB1F9B7FA92BA083908181FB8F
S1130260662760F970E0660F771F62957295707F5C
S11302707627607F76279F7D692B6083908182FB40
S1130280442740F950E042955295507F5427407FCF
S113029054279F7E492B4083E4E4F6E0908183FB5E
S11302A0222720F930E0220F331F22953295307F28
S11302B03227207F3227892F8F7D282B2083089592
S11302C0E0E2F6E0808184608083808180628083C4
S11302D0808180618083E0E4F6E0808180628083B5
S11302E00895E0E2F6E080818B7F808380818F7DBA
S11302F0808380818F7E8083E0E4F6E080818F7D3F
S113030080830895CF93C82F8FE193E00197F1F78D
S113031000C000008C2F82958F7093DFE4E2F6E03A
S113032080818260808380818860808395ED9A9546
S1130330F1F700008081877F808385ED8A95F1F74E
S113034000008C2F7EDFE4E2F6E080818860808309
S113035095ED9A95F1F700008081877F8083CF9196
S11303600895CF93C82F8FEF8C0F823038F48FE32A
S11303709CE90197F1F700C0000006C08FE39FE1FC
S11303800197F1F700C000008C2F82958F7059DF20
S1130390E4E2F6E080818D7F8083808188608083C1
S11303A095ED9A95F1F700008081877F808385ED34
S11303B08A95F1F700008C2F44DFE4E2F6E08081B7
S11303C08860808395ED9A95F1F700008081877F9E
S11303D08083CF910895E4E2F6E08081877F808373
S11303E080DF2FEF87EE93E0215080409040E1F7CB
S11303F000C0000065DF83E024DFE0E2F6E08081F6
S113040082608083808181608083A4E2B6E08C91E5
S11304108D7F8C938C918E7F8C9380818860808378
S113042025ED2A95F1F70000E4E2F6E0808188608A
S1130430808385ED8A95F1F700008081877F808332
S11304409FEF23EF81E0915020408040E1F700C00E
S1130450000080818860808395ED9A95F1F7000013
S11304608081877F80838FE193E00197F1F700C05B
S1130470000080818860808395ED9A95F1F70000F3
S11304808081877F80838FE193E00197F1F700C03B
S1130490000082E0D6DE95ED9A95F1F70000E4E2E3
S11304A0F6E080818860808325ED2A95F1F70000CD
S11304B08081877F80838FE193E00197F1F700C00B
S11304C0000088E24EDF88E04CDF81E04ADF86E00E
S11304D048DF8CE046CF0895CF93DF93EC0121965B
S11304E0FC018081882321F00DDF89918111FCCFEB
S11304F0DF91CF910895623031F0633031F0613093
S113050029F4805C03C08C5E01C08C5A806829CFBA
S11305100895882339F0FB018081811107C081E0AF
S113052080830895FB01108280E0089580E008959F
S1130530E0E0F7E094818091AB20A0910020B0E04E
S1130540AA0FBB1FA85FBF4D90782C91922B9823C4
S11305509483E0EEF6E09481A0910120B0E0AA0F2C
S1130560BB1FA85FBF4D90782C91922B8923848365
S11305700895809101208E3031F4809100208F30D5
S113058011F40C94840F0895EF92FF920F931F932C
S1130590CF93DF93F12C01E010E2C0E0D0E20F2E04
S11305A0F1E1EF2EF02DF801F082E882E2DFF3941E
S11305B0F0E1FF12F8CF80E18093002080930120C6
S11305C010920220DF91CF911F910F91FF90EF9035
S11305D008958F929F92AF92BF92CF92DF92EF9243
S11305E0FF920F931F93CF93DF938091022081306A
S11305F009F465C020F0823009F4C2C0DFC0C0EE47
S1130600D6E01C8160919F207091A0208091A12050
S11306109091A22024E630E040E050E00E94562B66
S113062020FB17F91C8380E8E0E0F7E086839885D7
S113063028858885388530FB882480F8912C880C9F
S1130640991C22FB222720F9822A93FBAA24A0F8D2
S1130650B12CAA0CBB1CAA0CBB1CA82881FBCC2463
S1130660C0F8D12CCC0CDD1CCC0CDD1CCC0CDD1C5E
S1130670CA28C092012080E18093002059DF809134
S1130680E8066BE470E2881F8827881F42DF88230E
S113069029F0E2E0F0E280818F5F80838091A806F8
S11306A06AE470E28295817034DF882309F486C09D
S11306B084E690E080934820909349207FC00F2ED9
S11306C0C12CF7E0DF2EF02DF601B48060919F205D
S11306D07091A0208091A1209091A22024E630E086
S11306E040E050E00E94562B20FBB7F8F601B4829C
S11306F0E0EEF6E080E8858390852085808530856E
S113070030FBEE24E0F8F12CEE0CFF1C22FB222738
S113071020F9E22A93FB002700F910E0000F111FD3
S1130720000F111F0E2986958170C82FF0E0DF2F6E
S1130730CC0FDD1FCC0FDD1FCC0FDD1FC02BC093F2
S11307400020F6DE8091E8066BE470E2881F8827BB
S1130750881FDFDE882329F0E2E0F0E280818F5FEA
S113076080838091A8066AE470E282958170D1DE6C
S1130770882321F1E2E0F0E28081815080831EC071
S113078080E8E0E0F7E08583E0EEF6E08583F1DEE3
S11307908091A8066AE470E282958170BADE8823AB
S11307A069F0E2E0F0E2808181508083C0E0D0E231
S11307B081E18883DEDE80E18883BADEDF91CF9138
S11307C01F910F91FF90EF90DF90CF90BF90AF906B
S11307D09F908F9008952FB7F894FC01E059FF4F34
S11307E060958081682360832FBF08952FB7F894A4
S11307F0FC01E059FF4F8081682B60832FBF08956F
S1130800811522E0920769F480914D2091E0980FC0
S113081090934D20811114C062E081E090E0DBCF21
S113082008958034924061F480914C2091E0980FB7
S113083090934C20811104C062E082E090E0CBCF21
S11308400895811522E0920761F480914D20815032
S113085080934D20811113C062E081E090E0C6CF07
S113086008958034924059F480914C2081508093B3
S11308704C20811104C062E082E090E0B7CF08957B
S11308801F93CF93DF93EC011FB7F894B9DF8881EE
S1130890816088831FBF8FB7F894EDEAF0E29081FE
S11308A09F5F90838FBFDF91CF911F910895DF9257
S11308B0EF92FF920F931F93CF93DF93EC018B0181
S11308C0C11522E0D20771F461E270E082E0A7D0A2
S11308D0E82EF12C60E270E082E0A1D0FE2CEE2440
S11308E0E82A10C08034924059F565E270E082E055
S11308F096D0E82EF12C64E270E082E090D0FE2CD9
S1130900EE24E82ADFB6F894CE017ADF288182E06B
S11309108883EC86FD86F80185819681888F998F7E
S113092082818A8384818C8383818B83818189837F
S1130930822F81709081892B8883CE0182DFDFBE74
S1130940DF91CF911F910F91FF90EF90DF90089569
S1130950DF92EF92FF920F931F93CF93DF937C016B
S11309608A01862F837021F46695669582E001C022
S113097080E060FF8F5FE701A09698E0899FC00D3B
S1130980D11D1124DFB6F894C7013ADFF801808144
S1130990888382818A8381818983C70152DFDFBE94
S11309A0DF91CF911F910F91FF90EF90DF90089509
S11309B0DF92EF92FF920F931F93CF93DF937C010B
S11309C0EA01862F837021F46695669582E001C062
S11309D080E060FF8F5F8701005E1F4F98E0899F72
S11309E0000D111D1124DFB6F894C70109DFF801C9
S11309F08081888382818A8381818983C70121DF01
S1130A00DFBEDF91CF911F910F91FF90EF90DF90A8
S1130A1008951BBEFC0128ED24BF60830895409116
S1130A20CA01E62FF72F8093CA0184914093CA012B
S1130A300895CF92DF92EF92FF920F931F93CF937B
S1130A40DF93EC016A017B01DB01CA010197A10973
S1130A50B109BC01CD01600F711F821F931FA70153
S1130A6096010E94562B2138310541055105F8F4B1
S1130A70213460F4213260F4213160F4293060F4CF
S1130A80253060F4233060F090E00BC093E009C09F
S1130A9092E007C092E805C091E003C091E801C06C
S1130AA090E888818C77892B888381E001C08FEF5F
S1130AB0DF91CF911F910F91FF90EF90DF90CF9036
S1130AC008951F920F920FB60F92112408B60F9239
S1130AD018BE09B60F9219BE0BB60F921BBE2F9308
S1130AE03F934F935F936F937F938F939F93AF93B2
S1130AF0BF93EF93FF93E0919A20F0919B2030975E
S1130B0009F01995FF91EF91BF91AF919F918F914A
S1130B107F916F915F914F913F912F910F900BBEF9
S1130B200F9009BE0F9008BE0F900FBE0F901F903C
S1130B3018951F920F920FB60F92112408B60F92B8
S1130B4018BE09B60F9219BE0BB60F921BBE2F9397
S1130B503F934F935F936F937F938F939F93AF9341
S1130B60BF93EF93FF93E0919820F09199203097F1
S1130B7009F01995FF91EF91BF91AF919F918F91DA
S1130B807F916F915F914F913F912F910F900BBE89
S1130B900F9009BE0F9008BE0F900FBE0F901F90CC
S1130BA018951F920F920FB60F92112408B60F9248
S1130BB018BE09B60F9219BE0BB60F921BBE2F9327
S1130BC03F934F935F936F937F938F939F93AF93D1
S1130BD0BF93EF93FF93E0919620F0919720309785
S1130BE009F01995FF91EF91BF91AF919F918F916A
S1130BF07F916F915F914F913F912F910F900BBE19
S1130C000F9009BE0F9008BE0F900FBE0F901F905B
S1130C1018951F920F920FB60F92112408B60F92D7
S1130C2018BE09B60F9219BE0BB60F921BBE2F93B6
S1130C303F934F935F936F937F938F939F93AF9360
S1130C40BF93EF93FF93E0919420F0919520309718
S1130C5009F01995FF91EF91BF91AF919F918F91F9
S1130C607F916F915F914F913F912F910F900BBEA8
S1130C700F9009BE0F9008BE0F900FBE0F901F90EB
S1130C8018951F920F920FB60F92112408B60F9267
S1130C9018BE09B60F9219BE0BB60F921BBE2F9346
S1130CA03F934F935F936F937F938F939F93AF93F0
S1130CB0BF93EF93FF93E0919220F09193203097AC
S1130CC009F01995FF91EF91BF91AF919F918F9189
S1130CD07F916F915F914F913F912F910F900BBE38
S1130CE00F9009BE0F9008BE0F900FBE0F901F907B
S1130CF018951F920F920FB60F92112408B60F92F7
S1130D0018BE09B60F9219BE0BB60F921BBE2F93D5
S1130D103F934F935F936F937F938F939F93AF937F
S1130D20BF93EF93FF93E0919020F091912030973F
S1130D3009F01995FF91EF91BF91AF919F918F9118
S1130D407F916F915F914F913F912F910F900BBEC7
S1130D500F9009BE0F9008BE0F900FBE0F901F900A
S1130D6018951F920F920FB60F92112408B60F9286
S1130D7018BE09B60F9219BE0BB60F921BBE2F9365
S1130D803F934F935F936F937F938F939F93AF930F
S1130D90BF93EF93FF93E0918E20F0918F203097D3
S1130DA009F01995FF91EF91BF91AF919F918F91A8
S1130DB07F916F915F914F913F912F910F900BBE57
S1130DC00F9009BE0F9008BE0F900FBE0F901F909A
S1130DD018951F920F920FB60F92112408B60F9216
S1130DE018BE09B60F9219BE0BB60F921BBE2F93F5
S1130DF03F934F935F936F937F938F939F93AF939F
S1130E00BF93EF93FF93E0918C20F0918D20309766
S1130E1009F01995FF91EF91BF91AF919F918F9137
S1130E207F916F915F914F913F912F910F900BBEE6
S1130E300F9009BE0F9008BE0F900FBE0F901F9029
S1130E4018951F920F920FB60F92112408B60F92A5
S1130E5018BE09B60F9219BE0BB60F921BBE2F9384
S1130E603F934F935F936F937F938F939F93AF932E
S1130E70BF93EF93FF93E0918A20F0918B203097FA
S1130E8009F01995FF91EF91BF91AF919F918F91C7
S1130E907F916F915F914F913F912F910F900BBE76
S1130EA00F9009BE0F9008BE0F900FBE0F901F90B9
S1130EB018951F920F920FB60F92112408B60F9235
S1130EC018BE09B60F9219BE0BB60F921BBE2F9314
S1130ED03F934F935F936F937F938F939F93AF93BE
S1130EE0BF93EF93FF93E0918820F091892030978E
S1130EF009F01995FF91EF91BF91AF919F918F9157
S1130F007F916F915F914F913F912F910F900BBE05
S1130F100F9009BE0F9008BE0F900FBE0F901F9048
S1130F2018951F920F920FB60F92112408B60F92C4
S1130F3018BE09B60F9219BE0BB60F921BBE2F93A3
S1130F403F934F935F936F937F938F939F93AF934D
S1130F50BF93EF93FF93E0918620F0918720309721
S1130F6009F01995FF91EF91BF91AF919F918F91E6
S1130F707F916F915F914F913F912F910F900BBE95
S1130F800F9009BE0F9008BE0F900FBE0F901F90D8
S1130F9018951F920F920FB60F92112408B60F9254
S1130FA018BE09B60F9219BE0BB60F921BBE2F9333
S1130FB03F934F935F936F937F938F939F93AF93DD
S1130FC0BF93EF93FF93E0918420F09185203097B5
S1130FD009F01995FF91EF91BF91AF919F918F9176
S1130FE07F916F915F914F913F912F910F900BBE25
S1130FF00F9009BE0F9008BE0F900FBE0F901F9068
S113100018951F920F920FB60F92112408B60F92E3
S113101018BE09B60F9219BE0BB60F921BBE2F93C2
S11310203F934F935F936F937F938F939F93AF936C
S1131030BF93EF93FF93E0918220F0918320309748
S113104009F01995FF91EF91BF91AF919F918F9105
S11310507F916F915F914F913F912F910F900BBEB4
S11310600F9009BE0F9008BE0F900FBE0F901F90F7
S113107018951F920F920FB60F92112408B60F9273
S113108018BE09B60F9219BE0BB60F921BBE2F9352
S11310903F934F935F936F937F938F939F93AF93FC
S11310A0BF93EF93FF93E0918020F09181203097DC
S11310B009F01995FF91EF91BF91AF919F918F9195
S11310C07F916F915F914F913F912F910F900BBE44
S11310D00F9009BE0F9008BE0F900FBE0F901F9087
S11310E018951F920F920FB60F92112408B60F9203
S11310F018BE09B60F9219BE0BB60F921BBE2F93E2
S11311003F934F935F936F937F938F939F93AF938B
S1131110BF93EF93FF93E0917E20F0917F2030976F
S113112009F01995FF91EF91BF91AF919F918F9124
S11311307F916F915F914F913F912F910F900BBED3
S11311400F9009BE0F9008BE0F900FBE0F901F9016
S113115018951F920F920FB60F92112408B60F9292
S113116018BE09B60F9219BE0BB60F921BBE2F9371
S11311703F934F935F936F937F938F939F93AF931B
S1131180BF93EF93FF93E0917C20F0917D20309703
S113119009F01995FF91EF91BF91AF919F918F91B4
S11311A07F916F915F914F913F912F910F900BBE63
S11311B00F9009BE0F9008BE0F900FBE0F901F90A6
S11311C018951F920F920FB60F92112408B60F9222
S11311D018BE09B60F9219BE0BB60F921BBE2F9301
S11311E03F934F935F936F937F938F939F93AF93AB
S11311F0BF93EF93FF93E0917A20F0917B20309797
S113120009F01995FF91EF91BF91AF919F918F9143
S11312107F916F915F914F913F912F910F900BBEF2
S11312200F9009BE0F9008BE0F900FBE0F901F9035
S113123018951F920F920FB60F92112408B60F92B1
S113124018BE09B60F9219BE0BB60F921BBE2F9390
S11312503F934F935F936F937F938F939F93AF933A
S1131260BF93EF93FF93E0917820F091792030972A
S113127009F01995FF91EF91BF91AF919F918F91D3
S11312807F916F915F914F913F912F910F900BBE82
S11312900F9009BE0F9008BE0F900FBE0F901F90C5
S11312A018951F920F920FB60F92112408B60F9241
S11312B018BE09B60F9219BE0BB60F921BBE2F9320
S11312C03F934F935F936F937F938F939F93AF93CA
S11312D0BF93EF93FF93E0917620F09177203097BE
S11312E009F01995FF91EF91BF91AF919F918F9163
S11312F07F916F915F914F913F912F910F900BBE12
S11313000F9009BE0F9008BE0F900FBE0F901F9054
S113131018951F920F920FB60F92112408B60F92D0
S113132018BE09B60F9219BE0BB60F921BBE2F93AF
S11313303F934F935F936F937F938F939F93AF9359
S1131340BF93EF93FF93E0917420F0917520309751
S113135009F01995FF91EF91BF91AF919F918F91F2
S11313607F916F915F914F913F912F910F900BBEA1
S11313700F9009BE0F9008BE0F900FBE0F901F90E4
S113138018951F920F920FB60F92112408B60F9260
S113139018BE09B60F9219BE0BB60F921BBE2F933F
S11313A03F934F935F936F937F938F939F93AF93E9
S11313B0BF93EF93FF93E0917220F09173203097E5
S11313C009F01995FF91EF91BF91AF919F918F9182
S11313D07F916F915F914F913F912F910F900BBE31
S11313E00F9009BE0F9008BE0F900FBE0F901F9074
S11313F018951F920F920FB60F92112408B60F92F0
S113140018BE09B60F9219BE0BB60F921BBE2F93CE
S11314103F934F935F936F937F938F939F93AF9378
S1131420BF93EF93FF93E0917020F0917120309778
S113143009F01995FF91EF91BF91AF919F918F9111
S11314407F916F915F914F913F912F910F900BBEC0
S11314500F9009BE0F9008BE0F900FBE0F901F9003
S113146018951F920F920FB60F92112408B60F927F
S113147018BE09B60F9219BE0BB60F921BBE2F935E
S11314803F934F935F936F937F938F939F93AF9308
S1131490BF93EF93FF93E0916E20F0916F2030970C
S11314A009F01995FF91EF91BF91AF919F918F91A1
S11314B07F916F915F914F913F912F910F900BBE50
S11314C00F9009BE0F9008BE0F900FBE0F901F9093
S11314D018951F920F920FB60F92112408B60F920F
S11314E018BE09B60F9219BE0BB60F921BBE2F93EE
S11314F03F934F935F936F937F938F939F93AF9398
S1131500BF93EF93FF93E0916C20F0916D2030979F
S113151009F01995FF91EF91BF91AF919F918F9130
S11315207F916F915F914F913F912F910F900BBEDF
S11315300F9009BE0F9008BE0F900FBE0F901F9022
S113154018951F920F920FB60F92112408B60F929E
S113155018BE09B60F9219BE0BB60F921BBE2F937D
S11315603F934F935F936F937F938F939F93AF9327
S1131570BF93EF93FF93E0916A20F0916B20309733
S113158009F01995FF91EF91BF91AF919F918F91C0
S11315907F916F915F914F913F912F910F900BBE6F
S11315A00F9009BE0F9008BE0F900FBE0F901F90B2
S11315B018951F920F920FB60F92112408B60F922E
S11315C018BE09B60F9219BE0BB60F921BBE2F930D
S11315D03F934F935F936F937F938F939F93AF93B7
S11315E0BF93EF93FF93E0916820F09169203097C7
S11315F009F01995FF91EF91BF91AF919F918F9150
S11316007F916F915F914F913F912F910F900BBEFE
S11316100F9009BE0F9008BE0F900FBE0F901F9041
S113162018951F920F920FB60F92112408B60F92BD
S113163018BE09B60F9219BE0BB60F921BBE2F939C
S11316403F934F935F936F937F938F939F93AF9346
S1131650BF93EF93FF93E0916620F091672030975A
S113166009F01995FF91EF91BF91AF919F918F91DF
S11316707F916F915F914F913F912F910F900BBE8E
S11316800F9009BE0F9008BE0F900FBE0F901F90D1
S113169018951F920F920FB60F92112408B60F924D
S11316A018BE09B60F9219BE0BB60F921BBE2F932C
S11316B03F934F935F936F937F938F939F93AF93D6
S11316C0BF93EF93FF93E0916420F09165203097EE
S11316D009F01995FF91EF91BF91AF919F918F916F
S11316E07F916F915F914F913F912F910F900BBE1E
S11316F00F9009BE0F9008BE0F900FBE0F901F9061
S113170018951F920F920FB60F92112408B60F92DC
S113171018BE09B60F9219BE0BB60F921BBE2F93BB
S11317203F934F935F936F937F938F939F93AF9365
S1131730BF93EF93FF93E0916220F0916320309781
S113174009F01995FF91EF91BF91AF919F918F91FE
S11317507F916F915F914F913F912F910F900BBEAD
S11317600F9009BE0F9008BE0F900FBE0F901F90F0
S113177018951F920F920FB60F92112408B60F926C
S113178018BE09B60F9219BE0BB60F921BBE2F934B
S11317903F934F935F936F937F938F939F93AF93F5
S11317A0BF93EF93FF93E0916020F0916120309715
S11317B009F01995FF91EF91BF91AF919F918F918E
S11317C07F916F915F914F913F912F910F900BBE3D
S11317D00F9009BE0F9008BE0F900FBE0F901F9080
S11317E018951F920F920FB60F92112408B60F92FC
S11317F018BE09B60F9219BE0BB60F921BBE2F93DB
S11318003F934F935F936F937F938F939F93AF9384
S1131810BF93EF93FF93E0915E20F0915F203097A8
S113182009F01995FF91EF91BF91AF919F918F911D
S11318307F916F915F914F913F912F910F900BBECC
S11318400F9009BE0F9008BE0F900FBE0F901F900F
S113185018951F920F920FB60F92112408B60F928B
S113186018BE09B60F9219BE0BB60F921BBE2F936A
S11318703F934F935F936F937F938F939F93AF9314
S1131880BF93EF93FF93E0915C20F0915D2030973C
S113189009F01995FF91EF91BF91AF919F918F91AD
S11318A07F916F915F914F913F912F910F900BBE5C
S11318B00F9009BE0F9008BE0F900FBE0F901F909F
S11318C018951F920F920FB60F92112408B60F921B
S11318D018BE09B60F9219BE0BB60F921BBE2F93FA
S11318E03F934F935F936F937F938F939F93AF93A4
S11318F0BF93EF93FF93E0915A20F0915B203097D0
S113190009F01995FF91EF91BF91AF919F918F913C
S11319107F916F915F914F913F912F910F900BBEEB
S11319200F9009BE0F9008BE0F900FBE0F901F902E
S113193018951F920F920FB60F92112408B60F92AA
S113194018BE09B60F9219BE0BB60F921BBE2F9389
S11319503F934F935F936F937F938F939F93AF9333
S1131960BF93EF93FF93E0915820F0915920309763
S113197009F01995FF91EF91BF91AF919F918F91CC
S11319807F916F915F914F913F912F910F900BBE7B
S11319900F9009BE0F9008BE0F900FBE0F901F90BE
S11319A018951F920F920FB60F92112408B60F923A
S11319B018BE09B60F9219BE0BB60F921BBE2F9319
S11319C03F934F935F936F937F938F939F93AF93C3
S11319D0BF93EF93FF93E0915620F09157203097F7
S11319E009F01995FF91EF91BF91AF919F918F915C
S11319F07F916F915F914F913F912F910F900BBE0B
S1131A000F9009BE0F9008BE0F900FBE0F901F904D
S1131A1018951F920F920FB60F92112408B60F92C9
S1131A2018BE09B60F9219BE0BB60F921BBE2F93A8
S1131A303F934F935F936F937F938F939F93AF9352
S1131A40BF93EF93FF93E0915420F091552030978A
S1131A5009F01995FF91EF91BF91AF919F918F91EB
S1131A607F916F915F914F913F912F910F900BBE9A
S1131A700F9009BE0F9008BE0F900FBE0F901F90DD
S1131A8018951F920F920FB60F92112408B60F9259
S1131A9018BE09B60F9219BE0BB60F921BBE2F9338
S1131AA03F934F935F936F937F938F939F93AF93E2
S1131AB0BF93EF93FF93E0915220F091532030971E
S1131AC009F01995FF91EF91BF91AF919F918F917B
S1131AD07F916F915F914F913F912F910F900BBE2A
S1131AE00F9009BE0F9008BE0F900FBE0F901F906D
S1131AF018951F920F920FB60F92112408B60F92E9
S1131B0018BE09B60F9219BE0BB60F921BBE2F93C7
S1131B103F934F935F936F937F938F939F93AF9371
S1131B20BF93EF93FF93E0915020F09151203097B1
S1131B3009F01995FF91EF91BF91AF919F918F910A
S1131B407F916F915F914F913F912F910F900BBEB9
S1131B500F9009BE0F9008BE0F900FBE0F901F90FC
S1131B6018951F920F920FB60F92112408B60F9278
S1131B7018BE09B60F9219BE0BB60F921BBE2F9357
S1131B803F934F935F936F937F938F939F93AF9301
S1131B90BF93EF93FF93E0914E20F0914F20309745
S1131BA009F01995FF91EF91BF91AF919F918F919A
S1131BB07F916F915F914F913F912F910F900BBE49
S1131BC00F9009BE0F9008BE0F900FBE0F901F908C
S1131BD01895CF93CFB7F894282F392F211588E083
S1131BE0380759F461E083E090E00E94EB0364E07D
S1131BF083E090E00E94EB036AC0203488E0380759
S1131C0059F462E083E090E00E94EB0364E083E037
S1131C1090E00E94EB035BC0211589E0380759F47A
S1131C2061E084E090E00E94EB0364E084E090E0F3
S1131C300E94EB034CC0203489E0380759F462E079
S1131C4084E090E00E94EB0364E084E090E00E9472
S1131C50EB033DC021158AE0380759F461E085E0C3
S1131C6090E00E94EB0364E085E090E00E94EB03C7
S1131C702EC020348AE0380759F462E085E090E011
S1131C800E94EB0364E085E090E00E94EB031FC038
S1131C9021158BE0380759F461E086E090E00E945A
S1131CA0EB0364E086E090E00E94EB0310C0203474
S1131CB03B4059F462E086E090E00E94EB0364E06C
S1131CC086E090E00E94EB0302C0CFBF09C08FB74B
S1131CD0F894EDEAF0E290819F5F90838FBFCFBFCD
S1131CE0CF910895FC01818185FFFDCF608380E061
S1131CF090E008954F925F926F927F928F929F929D
S1131D00AF92BF92CF92DF92EF92FF920F931F9305
S1131D10CF93DF93EC014A015B0128013901D9011A
S1131D20C801689412F8B695A79597958795169467
S1131D30D1F7B901A801032E36E176956795579539
S1131D4047953A95D1F7302D2C8122FD08C0B695E0
S1131D50A79597958795769567955795479588158F
S1131D609905AA05BB0508F4A6C084169506A6061F
S1131D70B70608F4A2C08C8182FD04C0880C991CAB
S1131D80AA1CBB1CC301B201A50194010E94562BDD
S1131D902F3F31054105510508F491C0C12CD12CC8
S1131DA07601CA9419EF05C02C153D054E055F0553
S1131DB068F0CC0CDD1CEE1CFF1C1D3F14F4689471
S1131DC0C0F81F5F173081F7212F50C0212F112336
S1131DD00CF04CC0D501C401880F991FAA1FBB1F6A
S1131DE0880F991FAA1FBB1F880F991FAA1FBB1F0B
S1131DF0481A590A6A0A7B0A1E3FF4F46DEF7FEF12
S1131E00611B710917FD739504C0440C551C661CB5
S1131E10771C6A95D2F7D501C401B695A795979515
S1131E208795BC01CD01640D751D861D971DA50107
S1131E3094010E94562B36C023E0210FD501C40122
S1131E4004C0880F991FAA1FBB1F2A95D2F79C01B3
S1131E50AD01B695A79597958795BC01CD01640D05
S1131E60751D861D971D0E94562B1CC02D5FD50124
S1131E70C40104C0880F991FAA1FBB1F2A95D2F75B
S1131E809C01AD01B695A79597958795BC01CD01A9
S1131E90640D751D861D971D0E94562B2150310916
S1131EA041095109832F8F701295107F182B1F83BE
S1131EB02E8381E018C080E016C080E014C0D501F4
S1131EC0C401880F991FAA1FBB1F880F991FAA1F3F
S1131ED0BB1F880F991FAA1FBB1F481A590A6A0AF9
S1131EE07B0A19EF8BCFDF91CF911F910F91FF9058
S1131EF0EF90DF90CF90BF90AF909F908F907F90A6
S1131F006F905F904F90089563E080E890E00E94A6
S1131F100905E0E8F0E0828180FDFDCF6BE281E815
S1131F2090E00E940905E0E8F0E0828180FDFDCFA9
S1131F30A895FFCFE0E5F0E0808182608083E1E551
S1131F40F0E0808181FFFDCF88ED84BF81E0809344
S1131F504000E0E5F0E08081827E8083089580E4A3
S1131F608093210687E4809341061092530681E012
S1131F708093490698E090934A062EE220936106E6
S1131F802AEB20938106E0E9F6E020812260208399
S1131F90E9E8F6E0208121602083EAE8F6E0208188
S1131FA02160208320E12093AA069093A1069093B8
S1131FB0A5062FEF20932007209300078093300776
S1131FC08093290720E820932A071092D0071092C3
S1131FD0D30725E02093C9078093CA079093CB07C2
S1131FE08093F5068093E90680E28093EA060895DB
S1131FF0E0E0F8E08081807F866080838181887F53
S1132000836081838FEF90E086A397A380858E6F92
S1132010808781818061818381818062818380E086
S113202098E0D7CD0895E0E0F9E08081807F866074
S113203080838181887F818386818C7F868386816A
S1132040826086838DE790E086A397A380858E6F58
S1132050808780E099E0BDCD08950F931F9300E041
S113206018E428EE31E040E052E16AE770E080ECE9
S11320709AE00E941905E0ECFAE080818061808397
S11320808081806480831F910F9108950F931F9323
S1132090CF93DF93C0EADAE08D818F738D8383E081
S11320A08D838B818F7C80628B8300E018E428EE23
S11320B031E040E05BE460E070E080EA9AE01ADE40
S11320C08C8188608C83DF91CF911F910F9108954B
S11320D00F931F93CF93DF93C0EADBE08D818F735F
S11320E08D8383E08D838B818F7C80628B8300E082
S11320F018E428EE31E040E855E260E070E080EA60
S11321009BE0F8DD8C8188608C838C8180618C837A
S1132110DF91CF911F910F9108950F931F93CF9348
S1132120DF93C0EBDBE08D818F738D8383E08D8340
S113213000E018E428EE31E040E855E260E070E0A9
S113214080EB9BE0D7DD8C8188608C83DF91CF911D
S11321501F910F910895CF93DF93CDB7DEB72A97E0
S1132160CDBFDEBF61E270E082E00E940F0560E255
S113217070E082E00E940F058A81897E9B819F7CAA
S113218090629B8392E09D8388608A831C82BE0157
S11321906F5F7F4F80E092E00E945704AE01485F7A
S11321A05F4F61E080E092E00E94D80481E088877C
S11321B088E18987AE01485F5F4F61E080E092E08B
S11321C00E94A80480E092E00E9440048FB7F89433
S11321D0E0E0F2E09081946090838FBF2A96CDBFB7
S11321E0DEBFDF91CF910895CF93DF93CDB7DEB7F4
S11321F0C05FD109CDBFDEBF9DDEE2EAF0E08081A1
S113220087608083ACDE0FDFF3DE62DF86DF3EDFD4
S1132210A2DF0E94EB01789488EB9BE0A0E0B0E0A1
S11322208093342090933520A0933620B0933720A8
S113223024EF31E02093CB233093CC2380933820B8
S113224090933920A0933A20B0933B2084E690E009
S11322508093E7219093E82188EE93E0A0E0B0E03A
S11322608093302090933120A0933220B093332078
S113227088EC90E08093F9239093FA2380ED97E023
S1132280A0E0B0E080932C2090932D20A0932E20EA
S1132290B0932F2086E990E080932F2290933022F0
S11322A0E8E0F6E09081308180814081E3E0F0E273
S11322B0881F8827881F282F220F220F96FB882724
S11322C080F9282B34FB882480F8912CC401880FD2
S11322D0991F282B45FB002700F910E0C801880F3F
S11322E0991F880F991F880F991F822B9081890F3E
S11322F0808382E0E0E8F6E08683AFDE1AE61A9592
S1132300F1F700C02FEF33EC49E02150304040405A
S1132310E1F700C000000E94732A0E943A2B0E9439
S1132320482B82E0E0E8F6E08683E8E0F6E02081EE
S1132330308180814081881F8827881F90E0880F22
S1132340991F880F991F26FBEE24E0F8F12CE82A48
S1132350F92A34FBCC24C0F8D12CC601880F991F6C
S1132360E82AF92A45FBAA24A0F8B12CC501880F54
S1132370991F880F991F880F991F8E299F290397EA
S113238084F40F2EF6E0CF2EF02D6894EE24E5F8B9
S113239005E023E030E248E062E380E00E94FA2AAC
S11323A00FC00F2EF6E0CF2EF02D6894EE24E5F842
S11323B005E023E030E248E061E080E00E94FA2A90
S11323C061E08CE30E944A2A66E08DE30E944A2A77
S11323D082E0E0E8F6E085838FE094E00197F1F78E
S11323E000C000000F2EF7E72F2EF3E23F2EF02D52
S11323F0A89580919E20882311F40C94B322A9E718
S1132400B3E2AD90BC90EBE7F3E2A082B182D101DC
S11324108D919C9111970F2EFFE07F2EF02D789EC9
S11324208001799E100D11241D921C92B5018827FC
S113243077FD8095982F0E947C2C6B017C010A19F2
S11324401B09B801882777FD8095982F0E947C2C62
S11324502EEA37E441EE5DE30E94302D9B01AC018E
S1132460C701B6010E94792B0E94492C4B015C01E3
S1132470E9E7F3E260837183AEEFB3E20D911C915F
S1132480E0E0F4E200831183ACEFB3E28D919C9120
S11324901197789E2001799E500C11241D921C9254
S11324A0B801882777FD8095982F0E947C2C6B01BA
S11324B07C01B201601B710B882777FD8095982FF2
S11324C00E947C2C2EEA37E441EE5DE30E94302D1D
S11324D09B01AC01C701B6010E94792B0E94492CD3
S11324E069877A878B879C87EEEFF3E26083718339
S11324F0A2E1B4E24D905C90E4E1F4E240825182C6
S1132500A0E1B4E28D919C911197789E8001799E0F
S1132510100D11241D921C92B201882777FD80951D
S1132520982F0E947C2C6B017C0104191509B801B9
S1132530882777FD8095982F0E947C2C2EEA37E41B
S113254041EE5DE30E94302D9B01AC01C701B60151
S11325500E94792B0E94492C6D877E878F87988BE8
S1132560E2E1F4E260837183ABEAB3E24D905C9004
S1132570EDEAF3E240825182A9EAB3E28D919C91A3
S11325801197789E8001799E100D11241D921C9242
S1132590B201882777FD8095982F0E947C2C6B01CF
S11325A07C01B80164197509882777FD8095982FF7
S11325B00E947C2C2EEA37E441EE5DE30E94302D2C
S11325C09B01AC01C701B6010E94792B0E94492CE2
S11325D0698B7A8B8B8B9C8BEBEAF3E26083718340
S11325E00F2EF8E06F2EF6E07F2EF02DD3019C9194
S11325F08C912C914C91221F2227221F30E0220F14
S1132600331F220F331F96FB992790F99D8B1E8A47
S1132610ED89FE892E2B3F2B829581708F8B188E2E
S11326208F89988D880F991F282B392B45FB4427B8
S113263040F9498F1A8E898D9A8D880F991F880FBA
S1132640991F880F991F282B392B17E1129FC0015E
S1132650139F900D1124FC01EC54FF4D648970E02C
S113266080E090E00E947A2C20E030E048EC52E4D4
S11326700E94E12B69837A838B839C836093222459
S1132680709323248093242490932524D3019C9134
S11326908C912C914C91221F2227221F30E0220F73
S11326A0331F220F331F96FB992790F99B8F1C8EA3
S11326B0EB8DFC8D2E2B3F2B829581708D8F1E8E82
S11326C08D8D9E8D880F991F282B392B45FB442710
S11326D040F94F8F18A28F8D98A1880F991F880FEA
S11326E0991F880F991F282B392B129FC001139F04
S11326F0900D1124FC01EC54FF4D658970E080E0DD
S113270090E00E947A2C20E030E048EC52E40E94F1
S1132710E12B6B017C016093BA237093BB238093FC
S1132720BC239093BD23D3019C918C912C914C910B
S1132730221F2227221F30E0220F331F220F331FB4
S113274096FB992790F999A31AA2E9A1FAA12E2B35
S11327503F2B829581708BA31CA28BA19CA1880F17
S1132760991F282B392B45FB442740F94DA31EA262
S11327708DA19EA1880F991F880F991F880F991FFB
S1132780282B392B129FC001139F900D1124FC019B
S1132790EC54FF4D668970E080E090E00E947A2C52
S11327A020E030E048EC52E40E94E12B6D837E830C
S11327B08F8398876093CA217093CB218093CC2117
S11327C09093CD2110929E20D3016C915C917C91C9
S11327D04C919C918C912C91EC91221F2227221FC9
S11327E030E0220F331F220F331F96FB992790F9F5
S11327F09FA318A6AFA1B8A52A2B3B2B8295817065
S113280089A71AA689A59AA5880F991F282B392B61
S1132810E5FBEE27E0F9EBA71CA68BA59CA5880F8A
S1132820991F880F991F880F991F282B392B129FE6
S1132830C001139F900D1124FC01EC54FF4DB18194
S1132840BEA71DA6771F7727771F872F90E0880FD5
S1132850991F880F991F66FB662760F96FA718AA4E
S1132860EFA5F8A98E2B9F2B5295517059AB1AAA3C
S113287029A93AA9220F331F822B932B45FB442706
S113288040F94BAB1CAA2BA93CA9220F331F220FE2
S1132890331F220F331F822B932B189F9001199FF4
S11328A0300D1124F901EC54FF4D038114812DA541
S11328B03EA5022B132B08191909D10116968D91E7
S11328C09C911797F801E81BF90BCF019F01220F88
S11328D0331F880F991F880F991F880F991FAC0108
S11328E0420F531FC151DF4F48835983CF5ED040FD
S11328F0CA01C1968336910540F0413669E0560716
S11329005CF4403A564F7CF014C0C151DF4F18823A
S11329101982CF5ED0400DC0C151DF4F1882198299
S1132920CF5ED04006C0C151DF4F18821982CF5EFE
S1132930D040B801882777FD8095982F0E947C2C81
S11329404B015C019B01AC0169817A818B819C8183
S11329500E94302D0E94492C2B013C01A5019401B9
S1132960C701B6010E94302D2AE037ED43EA5CE34B
S11329700E94302DD1011A962D913D914D915C917B
S11329801D970E94792B4B015C01F10162877387CB
S11329908487958720E030E040EF52E40E942C2D9C
S11329A0181654F480E090E0A0EFB2E4F1018287BD
S11329B09387A487B58715C020E030E046E954EC3E
S11329C0C501B4010E94DD2B88235CF420E030E0D3
S11329D040EF52ECD1011A962D933D934D935C93A5
S11329E01D97C2018038910514F08FE790E0BC0177
S11329F08138BFEF9B0714F461E87FEF882777FDE8
S1132A008095982F0E947C2CF10122853385448582
S1132A1055850E94792B4B015C01C151DF4F288100
S1132A203981CF5ED040B901882777FD8095982FF2
S1132A300E947C2C9B01AC016D817E818F819885E5
S1132A400E94302D9B01AC01C501B4010E94792B79
S1132A500E94492C6038710514F06FE770E0D101D1
S1132A6016960D931C931797C151DF4FE881F98196
S1132A70CF5ED0401896ED93FC9319976138FFEF21
S1132A807F0714F461E87FEF60938523E8E0F6E0C4
S1132A906081508170814081908180812081E081BA
S1132AA0221F2227221F30E0220F331F220F331F41
S1132AB096FB992790F99DAB1EAAADA9BEA92A2B16
S1132AC03B2B829581708FAB18AE8FA998AD880F80
S1132AD0991F282B392BE5FBEE27E0F9E9AF1AAE55
S1132AE089AD9AAD880F991F880F991F880F991F78
S1132AF0282B392BF7E1F29FC001F39F900D11248D
S1132B00DC01AC54BF4D1596EC91ECAF1BAE771FB6
S1132B107727771F872F90E0880F991F880F991FB9
S1132B2066FB662760F96DAF1EAE2DAD3EAD822B00
S1132B30932B529551705FAF21961FAE219721962A
S1132B402EAD3FAD2197220F331F822B932B45FBD4
S1132B50442740F922964FAF229723961FAE23971E
S1132B6023962EAD3FAD2397220F331F220F331F21
S1132B70220F331F822B932BF89F9001F99F300D66
S1132B801124F901EC54FF4D078110854BAD5CAD68
S1132B90042B152B69857A85061B170B809102245B
S1132BA090910324D801A81BB90BCD019D01220FDC
S1132BB0331F880F991F880F991F880F991FFC01D5
S1132BC0E20FF31FE987FA87CF01C1968336910597
S1132BD040F0E13629E0F2073CF4E03AF64F3CF0ED
S1132BE008C019861A8605C019861A8602C0198675
S1132BF01A86B801882777FD8095982F0E947C2C2F
S1132C004B015C019B01AC0169817A818B819C81C0
S1132C100E94302D0E94492C2B013C01A5019401F6
S1132C20C701B6010E94302D2AE037ED43EA5CE388
S1132C300E94302D209106243091072440910824CD
S1132C40509109240E94792B4B015C016093062466
S1132C5070930724809308249093092420E030E0A3
S1132C6040EF52E40E942C2D18166CF480E090E0A2
S1132C70A0EFB2E48093062490930724A093082441
S1132C80B093092416C020E030E046E954ECC501B5
S1132C90B4010E94DD2B882364F440E050E060EF2F
S1132CA072EC409306245093072460930824709395
S1132CB00924C2018038910514F08FE790E0BC012B
S1132CC081385FEF950714F461E87FEF882777FD7B
S1132CD08095982F0E947C2C209106243091072403
S1132CE040910824509109240E94792B4B015C01E6
S1132CF0A985BA85BD01882777FD8095982F0E9404
S1132D007C2C9B01AC016D817E818F8198850E9412
S1132D10302D9B01AC01C501B4010E94792B0E94A6
S1132D20492C6038710514F06FE770E000930224B9
S1132D3010930324E985FA85E0930424F093052491
S1132D406138FFEF7F0714F461E87FEF60930A2492
S1132D50E8E0F6E06081508170814081908180815B
S1132D602081E081221F2227221F30E0220F331FFF
S1132D70220F331F96FB992790F924969FAF24972F
S1132D8025961FAE25972596AEADBFAD25972A2B68
S1132D903B2B8295817026968FAF269727961FAE80
S1132DA0279727968EAD9FAD2797880F991F282BBD
S1132DB0392BE5FBEE27E0F92896EFAF2897299603
S1132DC01FAE299729968EAD9FAD2997880F991F1D
S1132DD0880F991F880F991F282B392BF7E1F29F31
S1132DE0C001F39F900D1124DC01AC54BF4D199622
S1132DF0EC912B96EFAF2B972A961FAE2A97771F4D
S1132E007727771F872F90E0880F991F880F991FC6
S1132E1066FB662760F92C966FAF2C972D961FAE34
S1132E202D972D962EAD3FAD2D97822B932B52953A
S1132E3051702E965FAF2E972F961FAE2F972F9619
S1132E402EAD3FAD2F97220F331F822B932B45FBC3
S1132E50442740F960964FAF609761961FAE619723
S1132E6061962EAD3FAD6197220F331F220F331FA2
S1132E70220F331F822B932BF89F9001F99F300D63
S1132E801124F901EC54FF4D038514852B964EADA6
S1132E905FAD2B97042B152B6D857E85061B170BB9
S1132EA08091162490911724D801A81BB90BCD0149
S1132EB09D01220F331F880F991F880F991F880FB8
S1132EC0991FFC01E20FF31FE987FA87CF01C1962E
S1132ED08336910540F0E13629E0F2073CF4E03A0C
S1132EE0F64F3CF008C019861A8605C019861A8662
S1132EF002C019861A86B801882777FD8095982F15
S1132F000E947C2C4B015C019B01AC0169817A819C
S1132F108B819C810E94302D0E94492C2B013C0105
S1132F20A5019401C701B6010E94302D2AE037EDB6
S1132F3043EA5CE30E94302D20911A2430911B2433
S1132F4040911C2450911D240E94792B4B015C015B
S1132F5060931A2470931B2480931C2490931D2443
S1132F6020E030E040EF52E40E942C2D18166CF45F
S1132F7080E090E0A0EFB2E480931A2490931B24A5
S1132F80A0931C24B0931D2416C020E030E046E931
S1132F9054ECC501B4010E94DD2B882364F440E0A5
S1132FA050E060EF72EC40931A2450931B2460931A
S1132FB01C2470931D24C2018038910514F08FE7FE
S1132FC090E0BC0181385FEF950714F461E87FEF6E
S1132FD0882777FD8095982F0E947C2C20911A24B5
S1132FE030911B2440911C2450911D240E94792B64
S1132FF04B015C01A985BA85BD01882777FD8095C1
S1133000982F0E947C2C9B01AC016D817E818F8165
S113301098850E94302D9B01AC01C501B4010E942A
S1133020792B0E94492C6038710514F06FE770E029
S11330300093162410931724E985FA85E093182445
S1133040F09319246138FFEF7F0714F461E87FEFF0
S113305060931E24E8E0F6E0608150817081408135
S1133060908180812081E081221F2227221F30E06D
S1133070220F331F220F331F96FB992790F9629674
S11330809FAF629763961FAE63976396AEADBFAD75
S113309063972A2B3B2B8295817064968FAF64973C
S11330A065961FAE659765968EAD9FAD6597880F43
S11330B0991F282B392BE5FBEE27E0F96696EFAF35
S11330C0669767961FAE679767968EAD9FAD6797B5
S11330D0880F991F880F991F880F991F282B392B48
S11330E0F7E1F29FC001F39F900D1124DC01AC5471
S11330F0BF4D1D96EC916996EFAF699768961FAE28
S11331006897771F7727771F872F90E0880F991F7D
S1133110880F991F66FB662760F96A966FAF6A97F6
S11331206B961FAE6B976B962EAD3FAD6B97822B54
S1133130932B529551706C965FAF6C976D961FAE42
S11331406D976D962EAD3FAD6D97220F331F822B79
S1133150932B45FB442740F96E964FAF6E976F96BD
S11331601FAE6F976F962EAD3FAD6F97220F331F33
S1133170220F331F220F331F822B932BF89F9001B2
S1133180F99F300D1124F901EC54FF4D0785108986
S113319069964EAD5FAD6997042B152B69897A89C1
S11331A0061B170B8091AF239091B023D801A81B65
S11331B0B90BCD019D01220F331F880F991F880F72
S11331C0991F880F991FFC01E20FF31FE987FA8703
S11331D0CF01C1968336910540F0E13629E0F2072C
S11331E03CF4E03AF64F3CF008C019861A8605C054
S11331F019861A8602C019861A86B801882777FDAF
S11332008095982F0E947C2C4B015C019B01AC01A2
S113321069817A818B819C810E94302D0E94492C86
S11332202B013C01A5019401C701B6010E94302D78
S11332302AE037ED43EA5CE30E94302D2091B3236A
S11332403091B4234091B5235091B6230E94792B39
S11332506B017C016093B3237093B4238093B523F3
S11332609093B62320E030E040EF52E40E942C2DEE
S113327018166CF480E090E0A0EFB2E48093B323DE
S11332809093B423A093B523B093B62316C020E043
S113329030E046E954ECC701B6010E94DD2B8823D7
S11332A064F440E050E060EF72EC4093B323509339
S11332B0B4236093B5237093B623C201803891057B
S11332C014F08FE790E081385FEF950714F481E8FC
S11332D09FEFBC01882777FD8095982F0E947C2C56
S11332E02091B3233091B4234091B5235091B62358
S11332F00E94792B6B017C01A985BA85BD018827C1
S113330077FD8095982F0E947C2C9B01AC016D81E8
S11333107E818F8198850E94302D9B01AC01C7016D
S1133320B6010E94792B0E94492CCB0160387105AB
S113333014F08FE790E00093AF231093B023E98556
S1133340FA85E093B123F093B2238138FFEF9F070E
S113335014F481E89FEF8093B7236AE280EA9BE04C
S11333600E94720E6EE780EA9BE00E94720E6091EA
S1133370852380EA9BE00E94720E60910A2480EA11
S11333809BE00E94720E60911E2480EA9BE00E94E2
S1133390720E6091B72380EA9BE00E94720E63E292
S11333A080EA9BE00E94720E2FB7F894E0E0F2E00E
S11333B084A195A12FBF8093A7209093A820893D35
S11333C094403CF4E0E4F6E080E4858384E0858383
S11333D006C0E0E4F6E080E4868384E0868360E06F
S11333E080E00E947B020F2EF8E0CF2EF6E0DF2E65
S11333F0F02DD6016C915C917C914C911C91FC91C7
S11334008C91EC9190918523292F332727FD3095BA
S11334103F939F93881F8827881F90E0880F991FE8
S1133420880F991F16FB112710F9A0961FAFA097BC
S1133430A1961FAEA197A1962EAD3FADA197822B69
S1133440932BF295F170A296FFAFA297A3961FAEAD
S1133450A397A3962EAD3FADA397220F331F822BC4
S1133460932BE5FBEE27E0F9A496EFAFA497A5967E
S11334701FAEA597A5962EAD3FADA597220F331F7E
S1133480220F331F220F331F822B932B0F2EF7E1B2
S1133490FF2EF02DF89EF001F99EF00D1124EC544E
S11334A0FF4D3181A7963FAFA797A6961FAEA6976B
S11334B0771F7727771F872F90E0880F991F880F32
S11334C0991F66FB662760F9A8966FAFA897A9961F
S11334D01FAEA997A9966EAD7FADA997862B972BA2
S11334E052955170AA965FAFAA97AB961FAEAB9751
S11334F0AB962EAD3FADAB97220F331F822B932B90
S113350045FB442740F9AC964FAFAC97AD961FAE40
S1133510AD97AD962EAD3FADAD97220F331F220F61
S1133520331F220F331F822B932BF89EA001F99E89
S1133530500D1124FA01EC54FF4D83819481A79618
S1133540AEADBFADA7978A2B9B2B9F938F938CE334
S113355090E29F938F930FEC13E21F930F930E94BB
S1133560932DC8010E946C0261E080E00E947B02FE
S113357080917A238F93E9E7F3E280818F9384E447
S113358090E29F938F931F930F930E94932DC801F2
S11335900E946C02D6019C918C912C914C91221F1B
S11335A02227221F30E0220F331F220F331F96FBE6
S11335B0992790F9AE969FAFAE97AF961FAEAF978F
S11335C0AF96EEADFFADAF972E2B3F2B829581705A
S11335D0E0968FAFE097E1961FAEE197E1968EAD4E
S11335E09FADE197880F991F282B392B45FB442762
S11335F040F9E2964FAFE297E3961FAEE397E39666
S11336008EAD9FADE397880F991F880F991F880F80
S1133610991F282B392BF29EC001F39E900D112483
S1133620FC01EC54FF4DCDBFDEBF8189882309F432
S113363063C0E8E0F6E09081808120814081221F10
S11336402227221F30E0220F331F220F331F96FB45
S1133650992790F9C751DF4F9883C95ED040C6516E
S1133660DF4F1882CA5ED040C751DF4F688179812D
S1133670C95ED040262B372B82958170C551DF4F10
S11336808883CB5ED040C451DF4F1882CC5ED040DB
S1133690C551DF4F88819981CB5ED040880F991F37
S11336A0282B392B45FB442740F9C351DF4F48836E
S11336B0CD5ED040C251DF4F1882CE5ED040C351A0
S11336C0DF4F88819981CD5ED040880F991F880F84
S11336D0991F880F991F282B392B47E1429FC0015E
S11336E0439F900D1124FC01EC54FF4D818990E01F
S11336F08093A5209093A620E8E0F6E09081808155
S113370020814081221F2227221F30E0220F331FF5
S1133710220F331F96FB992790F9E4969FAFE49705
S1133720E5961FAEE597E596AEADBFADE5972A2BBE
S11337303B2B82958170E6968FAFE697E7961FAE96
S1133740E797E7968EAD9FADE797880F991F282BD3
S1133750392B45FB442740F9E8964FAFE897E996A3
S11337601FAEE997E9968EAD9FADE997880F991F33
S1133770880F991F880F991F282B392B47E1429FE7
S1133780C001439F900D1124FC01EC54FF4D82892C
S1133790882319F0E0E6F6E08085E0E0F6E0808535
S11337A082FF18C0E0E2F6E084818064848384E6CA
S11337B090E080932A0890932B08BFEFE3ECF9E0A4
S11337C0B150E040F040E1F700C0000010922A0838
S11337D010922B08E8E0F6E070816081108150813E
S11337E03081208180814081881F8827881F90E054
S11337F0880F991F880F991F36FB332730F9EA96F3
S11338003FAFEA97EB961FAEEB97EB96AEADBFAD2D
S1133810EB978A2B9B2B22952170EC962FAFEC977C
S1133820ED961FAEED97ED962EAD3FADED97220FC1
S1133830331F822B932B45FB442740F9EE964FAF61
S1133840EE97EF961FAEEF97EF962EAD3FADEF9745
S1133850220F331F220F331F220F331F822B932B70
S113386047E1489FD001499FB00D11249D012C547C
S11338703F4DD9011196BC91C058DF4FB883C05851
S1133880D040C158DF4F1882CF57D040111F1127A5
S1133890111F812F90E09C01220F331F220F331F31
S11338A076FB772770F9CF57DF4F7883C158D04024
S11338B0CE57DF4F1882C258D040CF57DF4F888190
S11338C09981C158D040282B392B62956170CD570E
S11338D0DF4F6883C358D040CC57DF4F1882C45899
S11338E0D040CD57DF4F88819981C358D040880F8D
S11338F0991F282B392B55FB552750F9CB57DF4FF0
S11339005883C558D040CA57DF4F1882C658D04094
S1133910CB57DF4F88819981C558D040880F991FB4
S1133920880F991F880F991F822B932B489F900112
S1133930499F300D1124D901AC54BF4D13968D917C
S11339409C911497C158DF4FA881B981CF57D040BB
S11339508A2B9B2B58E2859F802D112480938723EB
S11339600081708110816081308120818081F080AC
S1133970881F8827881F90E0880F991F880F991F38
S113398036FB332730F9C957DF4F3883C758D04047
S1133990C857DF4F1882C858D040C957DF4FA88195
S11339A0B981C758D0408A2B9B2B22952170C757C9
S11339B0DF4F2883C958D040C657DF4F1882CA58F2
S11339C0D040C757DF4F28813981C958D040220FD2
S11339D0331F822B932BF5FAFF24F0F8C557DF4FE2
S11339E0F882CB58D040C457DF4F1882CC58D0400F
S11339F0C557DF4F28813981CB58D040220F331F60
S1133A00220F331F220F331F822B932B489FD00189
S1133A10499FB00D11249D012C543F4DD90111969D
S1133A20BC91C257DF4FB883CE58D040C357DF4F45
S1133A301882CD58D040111F1127111F212F30E0BB
S1133A40220F331F220F331F06FB002700F9C15733
S1133A50DF4F0883CF58D040C057DF4F1882C0597A
S1133A60D040C157DF4F88819981CF58D040282B4F
S1133A70392B72957170CF56DF4F7883C159D0407E
S1133A80CE56DF4F1882C259D040CF56DF4F8881BF
S1133A909981C159D040880F991F822B932B65FBC4
S1133AA0662760F9CD56DF4F6883C359D040CC56A2
S1133AB0DF4F1882C459D040CD56DF4F2881398159
S1133AC0C359D040220F331F220F331F220F331F3D
S1133AD0822B932B489FB001499F700D1124DB0169
S1133AE0AC54BF4D13962D913C911497C357DF4F9F
S1133AF0A881B981CD58D0402A2B3B2B529FC001BD
S1133B00539F900D1124909388230081708110811C
S1133B106081308120818081F080881F8827881F00
S1133B2090E0880F991F880F991F36FB332730F9CF
S1133B30CB56DF4F3883C559D040CA56DF4F188261
S1133B40C659D040CB56DF4FA881B981C559D04062
S1133B508A2B9B2B22952170C956DF4F2883C75986
S1133B60D040C856DF4F1882C859D040C956DF4FDD
S1133B7028813981C759D040220F331F822B932BC0
S1133B80F5FAFF24F0F8C756DF4FF882C959D04040
S1133B90C656DF4F1882CA59D040C756DF4F288116
S1133BA03981C959D040220F331F220F331F220FEE
S1133BB0331F822B932B489FD001499FB00D1124B2
S1133BC09D012C543F4DD9011596BC91C456DF4F2D
S1133BD0B883CC59D040C556DF4F1882CB59D0405A
S1133BE0111F1127111F212F30E0220F331F220F25
S1133BF0331F06FB002700F9C356DF4F0883CD5956
S1133C00D040C256DF4F1882CE59D040C356DF4F42
S1133C1088819981CD59D040282B392B72957170A8
S1133C20C156DF4F7883CF59D040C056DF4F18823A
S1133C30C05AD040C156DF4F88819981CF59D040B6
S1133C40880F991F822B932B65FB662760F9CF554C
S1133C50DF4F6883C15AD040CE55DF4F1882C25A15
S1133C60D040CF55DF4F28813981C15AD040220F2F
S1133C70331F220F331F220F331F822B932B489F96
S1133C80B001499F700D1124DB01AC54BF4D179650
S1133C908D919C911897C556DF4FA881B981CB5956
S1133CA0D0408A2B9B2B859F802D112480938923C0
S1133CB00081708110816081308120818081F08059
S1133CC0881F8827881F90E0880F991F880F991FE5
S1133CD036FB332730F9CD55DF4F3883C35AD040F4
S1133CE0CC55DF4F1882C45AD040CD55DF4FA88140
S1133CF0B981C35AD0408A2B9B2B22952170CB5576
S1133D00DF4F2883C55AD040CA55DF4F1882C65AA0
S1133D10D040CB55DF4F28813981C55AD040220F7E
S1133D20331F822B932BF5FAFF24F0F8C955DF4F8C
S1133D30F882C75AD040C855DF4F1882C85AD040BD
S1133D40C955DF4F28813981C75AD040220F331F0C
S1133D50220F331F220F331F822B932B489FD00136
S1133D60499FB00D11249D012C543F4DD901159646
S1133D70BC91C655DF4FB883CA5AD040C755DF4FF0
S1133D801882C95AD040111F1127111F212F30E06A
S1133D90220F331F220F331F06FB002700F9C555DE
S1133DA0DF4F0883CB5AD040C455DF4F1882CC5A1A
S1133DB0D040C555DF4F88819981CB5AD040282BFC
S1133DC0392B72957170C355DF4F7883CD5AD0402B
S1133DD0C255DF4F1882CE5AD040C355DF4F888179
S1133DE09981CD5AD040880F991F822B932B65FB64
S1133DF0662760F9C155DF4F6883CF5AD040C0555C
S1133E00DF4F1882C05BD040C155DF4F2881398114
S1133E10CF5AD040220F331F220F331F220F331FDC
S1133E20822B932B489FB001499F700D1124DB0115
S1133E30AC54BF4D17962D913C911897C755DF4F41
S1133E40A881B981C95AD0402A2B3B2B529FC0016B
S1133E50539F900D112490938A23008170811081C7
S1133E606081308120818081F080881F8827881FAD
S1133E7090E0880F991F880F991F36FB332730F97C
S1133E80CF54DF4F3883C15BD040CE54DF4F18820C
S1133E90C25BD040CF54DF4FA881B981C15BD04011
S1133EA08A2B9B2B22952170CD54DF4F2883C35B33
S1133EB0D040CC54DF4F1882C45BD040CD54DF4F88
S1133EC028813981C35BD040220F331F822B932B6F
S1133ED0F5FAFF24F0F8CB54DF4FF882C55BD040ED
S1133EE0CA54DF4F1882C65BD040CB54DF4F2881C1
S1133EF03981C55BD040220F331F220F331F220F9D
S1133F00331F822B932B489FD001499FB00D11245E
S1133F109D012C543F4DD9011996BC91C854DF4FD3
S1133F20B883C85BD040C954DF4F1882C75BD04008
S1133F30111F1127111F212F30E0220F331F220FD1
S1133F40331F06FB002700F9C754DF4F0883C95B02
S1133F50D040C654DF4F1882CA5BD040C754DF4FED
S1133F6088819981C95BD040282B392B7295717057
S1133F70C554DF4F7883CB5BD040C454DF4F1882E5
S1133F80CC5BD040C554DF4F88819981CB5BD04056
S1133F90880F991F822B932B65FB662760F9C35406
S1133FA0DF4F6883CD5BD040C254DF4F1882CE5BB5
S1133FB0D040C354DF4F28813981CD5BD040220FDC
S1133FC0331F220F331F220F331F822B932B489F43
S1133FD0B001499F700D1124DB01AC54BF4D1B96F9
S1133FE08D919C911C97C954DF4FA881B981C75BFF
S1133FF0D0408A2B9B2B859F802D112480938B236B
S11340000081708110816081308120818081F08005
S1134010881F8827881F90E0880F991F880F991F91
S113402036FB332730F9C154DF4F3883CF5BD040A0
S1134030C054DF4F1882C05CD040C154DF4FA88108
S1134040B981CF5BD0408A2B9B2B22952170CF5313
S1134050DF4F2883C15CD040CE53DF4F1882C25C4F
S1134060D040CF53DF4F28813981C15CD040220F2B
S1134070331F822B932BF5FAFF24F0F8CD53DF4F37
S1134080F882C35CD040CC53DF4F1882C45CD0406C
S1134090CD53DF4F28813981C35CD040220F331FB9
S11340A0220F331F220F331F822B932B489FD001E3
S11340B0499FB00D11249D012C543F4DD9011996EF
S11340C0BC91CA53DF4FB883C65CD040CB53DF4F9B
S11340D01882C55CD040111F1127111F212F30E019
S11340E0220F331F220F331F06FB002700F9C95389
S11340F0DF4F0883C75CD040C853DF4F1882C85CC9
S1134100D040C953DF4F88819981C75CD040282BA8
S1134110392B72957170C753DF4F7883C95CD040D7
S1134120C653DF4F1882CA5CD040C753DF4F888123
S11341309981C95CD040880F991F822B932B65FB12
S1134140662760F9C553DF4F6883CB5CD040C45306
S1134150DF4F1882CC5CD040C553DF4F28813981B2
S1134160CB5CD040220F331F220F331F220F331F8B
S1134170822B932B489FB001499F700D1124DB01C2
S1134180AC54BF4D1B962D913C911C97CB53DF4FE4
S1134190A881B981C55CD0402A2B3B2B529FC0011A
S11341A0539F900D112490938C2300817081108172
S11341B06081308120818081F080881F8827881F5A
S11341C090E0880F991F880F991F36FB332730F929
S11341D0C353DF4F3883CD5CD040C253DF4F1882C6
S11341E0CE5CD040C353DF4FA881B981CD5CD040B1
S11341F08A2B9B2B22952170C153DF4F2883CF5CE0
S1134200D040C053DF4F1882C05DD040C153DF4F50
S113421028813981CF5CD040220F331F822B932B0E
S1134220F5FAFF24F0F8CF52DF4FF882C15DD04099
S1134230CE52DF4F1882C25DD040CF52DF4F28816B
S11342403981C15DD040220F331F220F331F220F4B
S1134250331F822B932B489FD001499FB00D11240B
S11342609D012C543F4DD9011D96BC91CC52DF4F7A
S1134270B883C45DD040CD52DF4F1882C35DD040B7
S1134280111F1127111F212F30E0220F331F220F7E
S1134290331F06FB002700F9CB52DF4F0883C55DAF
S11342A0D040CA52DF4F1882C65DD040CB52DF4F98
S11342B088819981C55DD040282B392B7295717006
S11342C0C952DF4F7883C75DD040C852DF4F188290
S11342D0C85DD040C952DF4F88819981C75DD04005
S11342E0880F991F822B932B65FB662760F9C752B1
S11342F0DF4F6883C95DD040C652DF4F1882CA5D64
S1134300D040C752DF4F28813981C95DD040220F88
S1134310331F220F331F220F331F822B932B489FEF
S1134320B001499F700D1124DB01AC54BF4D1F96A1
S11343308D919C915097CD52DF4FA881B981C35D77
S1134340D0408A2B9B2B859F802D112480938D2315
S11343501081708100816081908180812081A081A1
S1134360221F2227221F30E0220F331F220F331F68
S113437096FB992790F9C552DF4F9883CB5DD040C7
S1134380C452DF4F1882CC5DD040C552DF4FE88164
S1134390F981CB5DD0402E2B3F2B82958170C35287
S11343A0DF4F8883CD5DD040C252DF4F1882CE5D8F
S11343B0D040C352DF4F88819981CD5DD040880FB2
S11343C0991F282B392BA5FBAA27A0F9C152DF4F2F
S11343D0A883CF5DD040C052DF4F1882C05ED0406A
S11343E0C152DF4F88819981CF5DD040880F991FDA
S11343F0880F991F880F991F282B392B429FC001C2
S1134400439F900D1124FC01EC54FF4D2585CE51A2
S1134410DF4F2883C25ED040CF51DF4F1882C15E88
S1134420D040B02FBB1FBB27BB1F2B2F30E0220F68
S1134430331F220F331F16FB112710F9CD51DF4F05
S11344401883C35ED040CC51DF4F1882C45ED04085
S1134450CD51DF4F88819981C35ED040282B392B01
S113446072957170CB51DF4F7883C55ED040CA51CD
S1134470DF4F1882C65ED040CB51DF4F88819981CF
S1134480C55ED040880F991F822B932B65FB66274E
S113449060F9C951DF4F6883C75ED040C851DF4F10
S11344A01882C85ED040C951DF4F28813981C75E68
S11344B0D040220F331F220F331F220F331F822BB2
S11344C0932B489FB001499F700D1124FB01EC54BC
S11344D0FF4D27853089CF51DF4FA881B981C15E57
S11344E0D0402A2B3B2B529FC001539F900D112487
S11344F090938E23E9E7F3E2908180917A2390935D
S11345008F2380939023AEEFB3E29C918091FF239D
S11345109093912380939223E2E1F4E2908180913D
S113452013249093932380939423ABEAB3E29C9156
S11345308091AC2390939523809396238091A72018
S11345409091A820959587959595879595958795AC
S1134550959587958093972360E270E087E893E2CE
S11345600E94352B72D7BAE0BA95F1F700C00C94CB
S1134570F8111F920F920FB60F92112408B60F92E2
S113458018BE09B60F9219BE0AB60F921ABE0BB620
S11345900F921BBE2F923F924F925F927F928F9207
S11345A09F92AF92BF92CF92DF92EF92FF920F93BE
S11345B01F932F933F934F935F936F937F938F93A7
S11345C09F93AF93BF93EF93FF93CF93DF93CDB7B5
S11345D0DEB7C455D109CDBFDEBF60E787E25AD745
S11345E0782E86FFF6C388E0E0E6F6E0878360E293
S11345F070E087E493E2A3D70F2EF7E48F2EF3E263
S11346009F2EF02DD4016D914D0180EA9AE00E9415
S1134610720EB7E68B16B3E29B06A1F740914723CF
S1134620E8E0F6E07081608120815081842F90E081
S1134630221F2227221F30E0220F331F220F331F95
S113464076FBCC24C0F8D12CC22AD32A64FBEE24F6
S1134650E0F8F12CEE0CFF1CCE28DF2855FB0027D8
S113466000F910E09801220F331F220F331F220F8D
S1134670331F8601022B132B8017910709F0A9C35E
S11346801092A9201092AA2050813081808120812B
S1134690881F8827881F90E0880F991F880F991F0B
S11346A056FBAA24A0F8B12CA82AB92A3295317055
S11346B039831A8289819A81880F991FA82AB92A75
S11346C025FB442440F8512CC201880F991F880F00
S11346D0991F880F991F2501482A592A57E1549D8B
S11346E0D001559DB00D1124AC54BF4D4C93408165
S11346F0308180812081881F8827881F90E0880F5F
S1134700991F880F991F46FB222420F8312C282A50
S1134710392A329531703B831C828B819C81880FAE
S1134720991F282A392A25FB222720F92D831E8246
S11347308D819E81880F991F880F991F880F991F5B
S1134740282A392A529DD001539DB00D1124AC540E
S1134750BF4D8091482390E011968D939C931297BE
S11347603081208180814081881F8827881F90E0C4
S1134770880F991F880F991F36FB332730F93F8321
S113478018866F817885862B972B2295217029872F
S11347901A8629853A85220F331F822B932B45FBDA
S11347A0442740F94B871C862B853C85220F331FF9
S11347B0220F331F220F331F822B932B589FD001BC
S11347C0599FB00D1124AC54BF4D8091492390E002
S11347D013968D939C93149730812081808140811E
S11347E0881F8827881F90E0880F991F880F991FBA
S11347F036FB332730F93D871E86AD85BE858A2B6F
S11348009B2B229521702F87188A2F853889220F98
S1134810331F822B932B45FB442740F9498B1A8A7B
S113482029893A89220F331F220F331F220F331F86
S1134830822B932B589FD001599FB00D1124AC5457
S1134840BF4D80914A2390E015968D939C931697C3
S11348503081208180814081881F8827881F90E0D3
S1134860880F991F880F991F36FB332730F93B8B2C
S11348701C8A6B897C89862B972B229521702D8B22
S11348801E8A2D893E89220F331F822B932B45FBD1
S1134890442740F94F8B188E2F89388D220F331FF0
S11348A0220F331F220F331F822B932B589FD001CB
S11348B0599FB00D1124AC54BF4D80914B2390E00F
S11348C017968D939C931897308120818081408125
S11348D0881F8827881F90E0880F991F880F991FC9
S11348E036FB332730F9398F1A8EA98DBA8D8A2B6E
S11348F09B2B229521702B8F1C8E2B8D3C8D220F90
S1134900331F822B932B45FB442740F94D8F1E8E7A
S11349102D8D3E8D220F331F220F331F220F331F85
S1134920822B932B589FD001599FB00D1124AC5466
S1134930BF4D80914C2390E019968D939C931A97C8
S11349403081208180814081881F8827881F90E0E2
S1134950880F991F880F991F36FB332730F93F8F33
S113496018A26F8D78A1862B972B2295217029A3ED
S11349701AA229A13AA1220F331F822B932B45FBA4
S1134980442740F94BA31CA22BA13CA1220F331FA7
S1134990220F331F220F331F822B932B589FD001DA
S11349A0599FB00D1124AC54BF4D80914D2390E01C
S11349B01B968D939C931C9730812081808140812C
S11349C0881F8827881F90E0880F991F880F991FD8
S11349D036FB332730F93DA31EA2ADA1BEA18A2B1D
S11349E09B2B229521702FA318A62FA138A5220F47
S11349F0331F822B932B45FB442740F949A71AA662
S1134A0029A53AA5220F331F220F331F220F331F6C
S1134A10822B932B589FD001599FB00D1124AC5475
S1134A20BF4D80914E2390E01D968D939C931E97CD
S1134A303081208180814081881F8827881F90E0F1
S1134A40880F991F880F991F36FB332730F93BA72E
S1134A501CA66BA57CA5862B972B229521702DA7D0
S1134A601EA62DA53EA5220F331F822B932B45FB9B
S1134A70442740F94FA718AA2FA538A9220F331F9E
S1134A80220F331F220F331F822B932B589FD001E9
S1134A90599FB00D1124AC54BF4D80914F2390E029
S1134AA01F968D939C935097308120818081408103
S1134AB0881F8827881F90E0880F991F880F991FE7
S1134AC036FB332730F939AB1AAAA9A9BAA98A2B1C
S1134AD09B2B229521702BAB1CAA2BA93CA9220F3E
S1134AE0331F822B932B45FB442740F94DAB1EAA61
S1134AF02DA93EA9220F331F220F331F220F331F6C
S1134B00822B932B589FD001599FB00D1124AC5484
S1134B10BF4D8091502351968C93308120818081A8
S1134B204081881F8827881F90E0880F991F880F6D
S1134B30991F36FB332730F93FAB18AE6FA978AD18
S1134B40862B972B2295217029AF1AAE29AD3AAD49
S1134B50220F331F822B932B45FB442740F94BAF85
S1134B601CAE2BAD3CAD220F331F220F331F220F7F
S1134B70331F822B932B589FD001599FB00D1124C2
S1134B80AC54BF4D8091512352968C933081208137
S1134B9080814081881F8827881F90E0880F991F93
S1134BA0880F991F36FB332730F93DAF1EAEADADEC
S1134BB0BEAD8A2B9B2B229521702FAF21961FAE61
S1134BC0219721962EAD3FAD2197220F331F822BC3
S1134BD0932B45FB442740F922964FAF2297239607
S1134BE01FAE239723962EAD3FAD2397220F331F7D
S1134BF0220F331F220F331F822B932B589FD00178
S1134C00599FB00D1124AC54BF4D8091522353963B
S1134C108C933081208180814081881F8827881F60
S1134C2090E0880F991F880F991F36FB332730F9BE
S1134C3024963FAF249725961FAE259725966EADF3
S1134C407FAD2597862B972B2295217026962FAF23
S1134C50269727961FAE279727962EAD3FAD279709
S1134C60220F331F822B932B45FB442740F92896B0
S1134C704FAF289729961FAE299729962EAD3FADA1
S1134C802997220F331F220F331F220F331F822B2A
S1134C90932B589FD001599FB00D1124AC54BF4D94
S1134CA08091532354968C9330812081808140815C
S1134CB0881F8827881F90E0880F991F880F991FE5
S1134CC036FB332730F92A963FAF2A972B961FAE2F
S1134CD02B972B96AEADBFAD2B978A2B9B2B229592
S1134CE021702C962FAF2C972D961FAE2D972D96B5
S1134CF02EAD3FAD2D97220F331F822B932B45FBF7
S1134D00442740F92E964FAF2E972F961FAE2F971C
S1134D102F962EAD3FAD2F97220F331F220F331F37
S1134D20220F331F822B932B589FD001599FB00D14
S1134D301124AC54BF4D8091542355968C933081EB
S1134D40208180814081881F8827881F90E0880FF8
S1134D50991F880F991F36FB332730F960963FAFB0
S1134D60609761961FAE61976196EEADFFAD619756
S1134D708E2B9F2B2295217062962FAF629763969C
S1134D801FAE639763962EAD3FAD6397220F331F1B
S1134D90822B932B45FB442740F964964FAF6497CD
S1134DA065961FAE659765962EAD3FAD6597220F4C
S1134DB0331F220F331F220F331F822B932B589F35
S1134DC0F001599FF00D1124EC54FF4D80915523AF
S1134DD0868B75FE04C080E2E0E6F6E0878374FE0D
S1134DE005C084E0E0E6F6E0878344D4CC5ADF4F84
S1134DF0CDBFDEBFDF91CF91FF91EF91BF91AF9116
S1134E009F918F917F916F915F914F913F912F91DE
S1134E101F910F91FF90EF90DF90CF90BF90AF90D4
S1134E209F908F907F905F904F903F902F900F9026
S1134E300BBE0F900ABE0F9009BE0F9008BE0F90D4
S1134E400FBE0F901F9018951F920F920FB60F92DE
S1134E50112408B60F9218BE09B60F9219BE0AB6ED
S1134E600F921ABE0BB60F921BBEAF92BF92DF9287
S1134E70EF92FF920F931F932F933F934F935F9360
S1134E806F937F938F939F93AF93BF93CF93DF934E
S1134E90EF93FF93A89580916B238F5F80936B238F
S1134EA0843174F081E080939E2010926B23809172
S1134EB0A3209091A42001968093A3209093A420F2
S1134EC080919F209091A020A091A120B091A22038
S1134ED00196A11DB11D80939F209093A020A093C3
S1134EE0A120B093A220E090A520F090A620E11488
S1134EF0F10409F45CC08091CE219091CF21A0915E
S1134F00D021B091D1210196A11DB11D8093CE2154
S1134F109093CF21A093D021B093D12184369105D1
S1134F20A105B105E0F4A0E2B6E014968C911497C3
S1134F30806414968C931497E0922A08F0922B08BC
S1134F4014968C911497806414968C938091A52068
S1134F509091A620809328089093290828C0893B23
S1134F609B40A105B10560F01092CE211092CF2193
S1134F701092D0211092D1211092A5201092A62037
S1134F8010922A0810922B08A0E2B6E014968C9195
S1134F9014978F7B14968C93149710922808109270
S1134FA0290814968C9114978F7B14968C93809176
S1134FB0A9209091AA2001968093A9209093AA20D9
S1134FC080914820909149208130910581F410927C
S1134FD0AB200E9498020E94C402809148209091C4
S1134FE049200197809348209093492087C08230BC
S1134FF0910508F1019780934820909349200E94DD
S1135000E9028091482090914920883B2BE0920747
S113501008F074C0A0E0B0E080932C2090932D2081
S1135020A0932E20B0932F2088EC90E080932F2221
S11350309093302263C0A8E0B6E0DC90EC908C91B1
S1135040FC90881F8827881F90E0880F991F880F7D
S1135050991FD6FA002700F910E0082B192BE4FA5F
S1135060EE24E0F8CE2D80E0D82FCC0FDD1F0C2BE2
S11350701D2BF5FAEE27E0F9F0E0CF01880F991F18
S1135080880F991F880F991FF801E82BF92BEE0F51
S1135090FF1FE85FFF4D8081E0E0F7E08483CC915F
S11350A09C91EC918C91EE1FEE27EE1FF0E0EE0F39
S11350B0FF1FEE0FFF1FC6FB662760F970E0E62BAB
S11350C0F72B94FB442740F950E0440F551FE42B81
S11350D0F52B85FBAA24A0F8B12C9501220F331FD0
S11350E0220F331F220F331FE22BF32BEE0FFF1F70
S11350F0E85FFF4D8081E0EEF6E08483FF91EF915D
S1135100DF91CF91BF91AF919F918F917F916F91DB
S11351105F914F913F912F911F910F91FF90EF90CD
S1135120DF90BF90AF900F900BBE0F900ABE0F9010
S113513009BE0F9008BE0F900FBE0F901F901895D8
S11351401F920F920FB60F92112408B60F9218BE39
S11351500F9008BE0F900FBE0F901F9018951F92CE
S11351600F920FB60F92112408B60F9218BE2F9308
S11351703F938F939F932091FC233091FD23809143
S1135180C80781FF03C08FEF9FEF02C081E090E06A
S1135190820F931F8093FC239093FD239F918F9103
S11351A03F912F910F9008BE0F900FBE0F901F904C
S11351B018951F920F920FB60F92112408B60F92F2
S11351C018BE2F933F938F939F9320917723309111
S11351D078238091E80684FF03C08FEF9FEF02C01D
S11351E081E090E0820F931F80937723909378233C
S11351F09F918F913F912F910F9008BE0F900FBEFA
S11352000F901F9018951F920F920FB60F921124B2
S113521008B60F9218BE2F933F938F939F932091BC
S1135220A9233091AA238091480684FF03C08FEFFD
S11352309FEF02C081E090E0820F931F8093A92327
S11352409093AA239F918F913F912F910F9008BE25
S11352500F900FBE0F901F9018951F920F920FB6CC
S11352600F92112408B60F9218BE2F933F938F9379
S11352709F9320911024309111248091C80782FFBC
S113528003C08FEF9FEF02C081E090E0820F931F75
S113529080931024909311249F918F913F912F918B
S11352A00F9008BE0F900FBE0F901F9018951F927D
S11352B00F920FB60F92112408B60F9218BE0F90DA
S11352C008BE0F900FBE0F901F9018951F920F925B
S11352D00FB60F92112408B60F9218BE09B60F929A
S11352E019BE0BB60F921BBE2F933F934F935F9340
S11352F06F937F938F939F93AF93BF93EF93FF939A
S11353008091482090914920892B89F48091E80666
S11353106BE470E2881F8827881F0E9489028091AD
S1135320A8066AE470E2829581700E94890280E393
S113533095E780934820909349208FEF8093AB208A
S11353400E949802FF91EF91BF91AF919F918F912D
S11353507F916F915F914F913F912F910F900BBE71
S11353600F9009BE0F9008BE0F900FBE0F901F90B4
S113537018951F920F920FB60F92112408B60F9230
S113538018BE2F938F939F932091A00B80919C2004
S113539090919D208230910519F12CF4009749F0E9
S11353A0019789F048C08330910551F1049789F140
S11353B042C02A3209F03FC081E090E080939C20F3
S11353C090939D2038C0822F90E08093B8239093CF
S11353D0B92382E090E080939C2090939D202BC081
S11353E08091B8239091B923922B8093B823909302
S11353F0B92383E090E080939C2090939D201BC070
S11354002093C82384E090E080939C2090939D2077
S113541012C0233261F48091B8239091B923809310
S11354206F23909370238091C8238093D521109289
S11354309C2010929D209F918F912F910F9008BED8
S11354400F900FBE0F901F901895E0E8F6E082E0F1
S1135450868385838AE68A95F1F700C082E0868395
S11354600895E0ECFAE0838382818823ECF7E0EC92
S1135470FAE0838108951F93CF93DF93C0E8D6E0C9
S113548010E11E83EEDF8FEFECDF1D83DF91CF9100
S11354901F910895FF920F931F93CF93DF93F62EDE
S11354A0C0E8D6E010E11E83DCDF082F8F2DD9DFA2
S11354B01D83802FDF91CF911F910F91FF9008954D
S11354C0682F6F7785E2E6CF0895CF93C82F682FB2
S11354D084E2E0DF6C2F81E2DDDFCF91089563E0A9
S11354E083E2D8CF089560E787E2D4CF0895DF92AE
S11354F0EF92FF920F931F93CF93DF937B018A0167
S113550090E1E0E8F6E09683ACDFD82E10161106A1
S11355104CF4E7010E0D1F1D8FEFA3DF8993C01715
S1135520D107D1F780E1E0E8F6E085838D2DDF91A6
S1135530CF911F910F91FF90EF90DF900895AB01F1
S1135540BC0181E6D4CF0895DF92EF92FF920F93CE
S11355501F93CF93DF937B018A0190E1E0E8F6E0AB
S113556096837FDFD82E1016110644F4E7010E0D42
S11355701F1D899176DFC017D107D9F780E1E0E8D4
S1135580F6E085838D2DDF91CF911F910F91FF90D0
S1135590EF90DF900895EF92FF920F931F93CF93B4
S11355A0DF93F82EEB018A01E22E82E064DF41E012
S11355B050E00F2C02C0440F551F0A94E2F7682FE5
S11355C0642B82E267DF81E18F0D6E2D806262DFE2
S11355D08AE08F0DA801BE018062B6DFDF91CF9112
S11355E01F910F91FF90EF900895AB01BC0180E3F0
S11355F0ABCF0895CF92DF92EF92FF920F931F9358
S1135600CF93DF93F82ED62E142FE90180E05DDFCF
S113561061E081E23FDF6FE284E23CDF1160612FF1
S11356206C2986E237DF802F5ADF112707FD10959A
S11356302E2DA801BE0180E0AEDF8D2D41DFB80123
S1135640CE01D3DF6F2D6A6080E224DF8FED9EE20E
S11356500197F1F700C00000DF91CF911F910F91E6
S1135660FF90EF90DF90CF900895AB01BC0180EAEA
S11356706BCF08951F93CF93DF93C0E8D6E010E17A
S11356801E8381EEEEDE1D83DF91CF911F9108957D
S11356901F93CF93DF93C0E8D6E010E11E8382EE20
S11356A0E0DE1D83DF91CF911F910895A1E21A2EB0
S11356B0AA1BBB1BFD010DC0AA1FBB1FEE1FFF1FB2
S11356C0A217B307E407F50720F0A21BB30BE40B02
S11356D0F50B661F771F881F991F1A9469F7609549
S11356E07095809590959B01AC01BD01CF01089503
S11356F05058BB27AA270ED075C166D130F06BD1A4
S113570020F031F49F3F11F41EF45BC10EF4E095D8
S1135710E7FB51C1E92F77D180F3BA17620773070A
S11357208407950718F071F49EF58FC10EF4E09587
S11357300B2EBA2FA02D0B01B90190010C01CA0147
S1135740A0011124FF27591B99F0593F50F4503EF2
S113575068F11A16F040A22F232F342F4427585FE4
S1135760F3CF469537952795A795F0405395C9F7FC
S11357707EF41F16BA0B620B730B840BBAF09150B4
S1135780A1F0FF0FBB1F661F771F881FC2F70EC053
S1135790BA0F621F731F841F48F487957795679526
S11357A0B795F7959E3F08F0B3CF9395880F08F00F
S11357B09927EE0F979587950895D9D008F481E03D
S11357C008950CD00FC107D140F0FED030F021F481
S11357D05F3F19F0F0C0511139C1F3C014D198F3EF
S11357E09923C9F35523B1F3951B550BBB27AA275E
S11357F062177307840738F09F5F5F4F220F331FD0
S1135800441FAA1FA9F333D00E2E3AF0E0E830D09B
S113581091505040E695001CCAF729D0FE2F27D09E
S1135820660F771F881FBB1F261737074807AB076C
S1135830B0E809F0BB0B802DBF01FF2793585F4FE1
S11358402AF09E3F510568F0B6C000C15F3FECF3FB
S1135850983EDCF3869577956795B795F7959F5FA6
S1135860C9F7880F911D9695879597F90895E1E0FA
S1135870660F771F881FBB1F621773078407BA0759
S113588020F0621B730B840BBA0BEE1F88F7E095B4
S1135890089504D06894B111D9C00895BCD088F09B
S11358A09F5790F0B92F9927B751A0F0D1F0660F08
S11358B0771F881F991F1AF0BA95C9F712C0B13023
S11358C081F0C3D0B1E00895C0C0672F782F882736
S11358D0B85F39F0B93FCCF3869577956795B39562
S11358E0D9F73EF490958095709561957F4F8F4FD1
S11358F09F4F0895E89409C097FB3EF490958095D6
S1135900709561957F4F8F4F9F4F9923A9F0F92F81
S113591096E9BB279395F695879577956795B795FF
S1135920F111F8CFFAF4BB0F11F460FF1BC06F5FE5
S11359307F4F8F4F9F4F16C0882311F096E911C0F7
S1135940772321F09EE8872F762F05C0662371F018
S113595096E8862F70E060E02AF09A95660F771F2C
S1135960881FDAF7880F9695879597F90895990F08
S11359700008550FAA0BE0E8FEEF16161706E80715
S1135980F907C0F012161306E407F50798F0621B36
S1135990730B840B950B39F40A2661F0232B242B0B
S11359A0252B21F408950A2609F4A140A6958FEF2A
S11359B0811D811D089597F99F6780E870E060E07C
S11359C008959FEF80EC089500240A941616170694
S11359D018060906089500240A94121613061406DC
S11359E005060895092E0394000C11F4882352F03F
S11359F0BB0F40F4BF2B11F460FF04C06F5F7F4FF7
S1135A008F4F9F4F089557FD9058440F551F59F0DD
S1135A105F3F71F04795880F97FB991F61F09F3F97
S1135A2079F087950895121613061406551FF2CFC0
S1135A304695F1DF08C0161617061806991FF1CF10
S1135A4086957105610508940895E894BB27662737
S1135A507727CB0197F908958ADF08F48FEF08952B
S1135A600BD0C0CFB1DF28F0B6DF18F0952309F0D2
S1135A70A2CFA7CF1124EACFC6DFA0F3959FD1F31D
S1135A80950F50E0551F629FF001729FBB27F00DE8
S1135A90B11D639FAA27F00DB11DAA1F649F66273D
S1135AA0B00DA11D661F829F2227B00DA11D621F8C
S1135AB0739FB00DA11D621F839FA00D611D221F46
S1135AC0749F3327A00D611D231F849F600D211D2A
S1135AD0822F762F6A2F11249F5750408AF0E1F0CD
S1135AE088234AF0EE0FFF1FBB1F661F771F881F16
S1135AF091505040A9F79E3F510570F05CCFA6CF5E
S1135B005F3FECF3983EDCF3869577956795B79500
S1135B10F795E7959F5FC1F7FE2B880F911D96952A
S1135B20879597F908950F931F93CF93DF93CDB77C
S1135B30DEB72E97CDBFDEBF0E891F8986E08C832A
S1135B4009831A838FEF9FE78D839E83AE01465EA0
S1135B505F4F688D798DCE0101960DD0EF81F88568
S1135B60E00FF11F10822E96CDBFDEBFDF91CF91E3
S1135B701F910F9108952F923F924F925F926F92CF
S1135B807F928F929F92AF92BF92CF92DF92EF92C9
S1135B90FF920F931F93CF93DF93CDB7DEB72C976C
S1135BA0CDBFDEBF7C016B018A01FC011682178226
S1135BB0838181FFB0C1CE0101964C01F70193812D
S1135BC0F60193FD859193FF81916F01882309F478
S1135BD09EC1853239F493FD859193FF81916F01C4
S1135BE0853221F4B70190E0C4D1E8CF512C312C97
S1135BF020E02032A0F48B3269F030F4803259F086
S1135C00833269F420612CC08D3239F0803339F449
S1135C10216026C02260246023C0286021C027FDA3
S1135C2027C030ED380F3A3078F426FF06C0FAE08A
S1135C305F9E300D1124532E13C08AE0389E300D20
S1135C401124332E20620CC08E3221F426FD5FC154
S1135C50206406C08C3611F4206802C0883641F4F2
S1135C60F60193FD859193FF81916F018111C1CF5D
S1135C70982F9F7D9554933028F40C5F1F4FFFE3BA
S1135C80F9830DC0833631F0833771F0833509F021
S1135C9057C021C0F801808189830E5F1F4F4424BF
S1135CA04394512C540114C03801F2E06F0E711C5E
S1135CB0F801A080B18026FF03C0652D70E002C00A
S1135CC06FEF7FEFC5012C8749D12C0183012C850F
S1135CD02F77222E16C03801F2E06F0E711CF801E6
S1135CE0A080B18026FF03C0652D70E002C06FEF75
