:100000000DC1000031C100000C9469172DC1000022
:100010002BC1000029C1000027C1000025C100003C
:1000200023C1000021C100001FC100001DC100004C
:100030001BC1000019C100005DC5000093C5000090
:10004000C9C50000FFC5000035C600006BC6000032
:10005000A1C60000D7C600000DC7000043C70000BE
:1000600003C1000001C10000FFC00000FDC000008E
:10007000FBC00000F9C00000F7C00000F5C00000A0
:10008000F3C00000F1C00000EFC00000EDC00000B0
:10009000EBC00000E9C00000E7C00000E5C00000C0
:1000A000E3C00000E1C00000DFC000000C94FF10BE
:1000B000DBC00000D9C00000D7C000000C94A2092A
:1000C0000C94DA090C94120A0C944A0A0C94820AD1
:1000D0000C94BA0A0C94F20A0C942A0B0C94620B3E
:1000E0000C949A0BC1C000000C944025BDC00000C8
:1000F000BBC00000B9C00000B7C00000B5C0000020
:10010000B3C00000B1C00000AFC00000ADC000002F
:10011000ABC00000A9C00000A7C00000A5C000003F
:10012000A3C00000A1C000009FC000009DC000004F
:100130009BC000000C9457150DC7000043C700007A
:1001400079C70000AFC70000E5C700000C94C208E3
:100150000C94FA080C9432090C946A0985C00000CA
:1001600083C0000081C000007FC000007DC000008F
:100170007BC0000079C000000C9415170C949317F5
:100180000C943F170C94BD176FC000006DC00000A9
:100190000C94101869C0000067C0000065C0000022
:1001A0000C94061761C000005FC000005DC0000035
:1001B0000C94D20B0C940A0C0C94420C0C947A0CF8
:1001C0000C94B20C0C94EA0C0C94220D0C945A0D65
:1001D0000C94920D0C94CA0D47C000000C94A023FF
:1001E00043C0000041C000000C9470243DC00000DA
:1001F0003BC00000BE23C823D523E523F2230224FD
:100200000F241F242C243C248E249824A524B524B8
:10021000C224D224DF24EF24FC240C2511241FBE89
:10022000CFEFCDBFDFE3DEBF00E00CBF18BE19BECD
:100230001ABE1BBE10E2A0E0B0E2EEEDF2E500E077
:100240000BBF02C007900D92AA36B107D9F71BBEAB
:1002500024E2AAE6B0E201C01D92A33AB207E1F798
:100260000E9436190C946D29CBCEE4E2F6E0908121
:10027000A82FA170B0E0AA0FBB1FAA0FBB1F9B7FC6
:10028000A92BA083908181FB662760F970E0660F3F
:10029000771F62957295707F7627607F76279F7DA6
:1002A000692B6083908182FB442740F950E042959E
:1002B0005295507F5427407F54279F7E492B40837F
:1002C000E4E4F6E0908183FB222720F930E0220F5E
:1002D000331F22953295307F3227207F3227892F96
:1002E0008F7D282B20830895E0E2F6E080818460F2
:1002F0008083808180628083808180618083E0E46C
:10030000F6E08081806280830895E0E2F6E08081FB
:100310008B7F808380818F7D808380818F7E8083AF
:10032000E0E4F6E080818F7D80830895CF93C82F2D
:100330008FE193E00197F1F700C000008C2F8295C8
:100340008F7093DFE4E2F6E08081826080838081B9
:100350008860808395ED9A95F1F700008081877F12
:10036000808385ED8A95F1F700008C2F7EDFE4E233
:10037000F6E080818860808395ED9A95F1F7000022
:100380008081877F8083CF910895CF93C82F8FEF8F
:100390008C0F823038F48FE39CE90197F1F700C0AD
:1003A000000006C08FE39FE10197F1F700C0000055
:1003B0008C2F82958F7059DFE4E2F6E080818D7F8B
:1003C000808380818860808395ED9A95F1F70000A5
:1003D0008081877F808385ED8A95F1F700008C2FDF
:1003E00044DFE4E2F6E080818860808395ED9A95B1
:1003F000F1F700008081877F8083CF910895E4E248
:10040000F6E08081877F808380DF2FEF87EE93E0A7
:10041000215080409040E1F700C0000065DF83E09C
:1004200024DFE0E2F6E08081826080838081816069
:100430008083A4E2B6E08C918D7F8C938C918E7F2B
:100440008C9380818860808325ED2A95F1F70000E8
:10045000E4E2F6E080818860808385ED8A95F1F79B
:1004600000008081877F80839FEF23EF81E09150A0
:1004700020408040E1F700C00000808188608083D8
:1004800095ED9A95F1F700008081877F80838FE159
:1004900093E00197F1F700C00000808188608083BD
:1004A00095ED9A95F1F700008081877F80838FE139
:1004B00093E00197F1F700C0000082E0D6DE95EDF1
:1004C0009A95F1F70000E4E2F6E08081886080838D
:1004D00025ED2A95F1F700008081877F80838FE1E9
:1004E00093E00197F1F700C0000088E24EDF88E05A
:1004F0004CDF81E04ADF86E048DF8CE046CF08959C
:10050000CF93DF93EC012196FC018081882321F0B9
:100510000DDF89918111FCCFDF91CF910895623079
:1005200031F0633031F0613029F4805C03C08C5EBF
:1005300001C08C5A806829CF0895882339F0FB01C7
:100540008081811107C081E080830895FB011082C2
:1005500080E0089580E00895E0E2F7E094818091E2
:10056000D120A0910020B0E0AA0FBB1FA85FBF4D13
:1005700090782C91922B98239483E0E0F7E094817B
:10058000A0910120B0E0AA0FBB1FA85FBF4D9078DB
:100590002C91922B892384830895809101208E30A1
:1005A00031F4809100208F3011F40C949D0F089548
:1005B000EF92FF920F931F93CF93DF93F12C01E003
:1005C00010E2C0E0D0E20F2EF1E1EF2EF02DF801A5
:1005D000F082E882E2DFF394F0E1FF12F8CF80E1ED
:1005E000809300208093012010920220DF91CF9110
:1005F0001F910F91FF90EF9008958F929F92AF926D
:10060000BF92CF92DF92EF92FF920F931F93CF93FF
:10061000DF9380910220813009F467C020F082309E
:1006200009F4C7C0E4C0C0E0D7E01C816091C320DA
:100630007091C4208091C5209091C62024E630E0BE
:1006400040E050E00E948F2620FB17F91C8380E8D1
:10065000E0E2F7E08683E0EEF6E090852085808595
:10066000308530FB882480F8912C880C991C22FB63
:10067000222720F9822A93FBAA24A0F8B12CAA0CE5
:10068000BB1CAA0CBB1CA82881FBCC24C0F8D12C15
:10069000CC0CDD1CCC0CDD1CCC0CDD1CCA28C092A3
:1006A000012080E18093002057DF8091E8066DE60D
:1006B00070E2881F8827881F40DF882329F0E2E046
:1006C000F0E280818F5F80838091A8066CE670E203
:1006D0008295817032DF882309F489C084E690E036
:1006E00080936A2090936B2082C00F2EF0E2CF2E71
:1006F000F7E0DF2EF02DF601B4806091C3207091F9
:10070000C4208091C5209091C62024E630E040E0CE
:1007100050E00E948F2620FBB7F8F601B48280E8F3
:10072000E0E0F7E08583E0EEF6E0908520858085C7
:10073000308530FBEE24E0F8F12CEE0CFF1C22FBA0
:10074000222720F9E22A93FB002700F910E0000F8E
:10075000111F000F111F0E2986958170C82FF0E020
:10076000DF2FCC0FDD1FCC0FDD1FCC0FDD1FC02B0B
:10077000C0930020F1DE8091E8066DE670E2881FEC
:100780008827881FDADE882329F0E2E0F0E2808102
:100790008F5F80838091A8066CE670E282958170FD
:1007A000CCDE882321F1E2E0F0E280818150808379
:1007B0001EC080E8E0E2F7E08583E0E0F7E08583B3
:1007C000ECDE8091A8066CE670E282958170B5DE61
:1007D000882369F0E2E0F0E2808181508083C0E00C
:1007E000D0E281E18883D9DE80E18883B5DEDF91C4
:1007F000CF911F910F91FF90EF90DF90CF90BF901E
:10080000AF909F908F9008952FB7F894FC01E05916
:10081000FF4F60958081682360832FBF08952FB7B5
:10082000F894FC01E059FF4F8081682B60832FBF53
:100830000895811522E0920769F480916F2091E07C
:10084000980F90936F20811114C062E081E090E0D6
:10085000DBCF08958034924061F480916E2091E066
:10086000980F90936E20811104C062E082E090E0C6
:10087000CBCF0895811522E0920761F480916F201B
:10088000815080936F20811113C062E081E090E07D
:10089000C6CF08958034924059F480916E208150E3
:1008A00080936E20811104C062E082E090E0B7CFB7
:1008B00008951F93CF93DF93EC011FB7F894B9DF2E
:1008C0008881816088831FBF8FB7F894E3EDF0E2E1
:1008D00090819F5F90838FBFDF91CF911F9108958B
:1008E000DF92EF92FF920F931F93CF93DF93EC0170
:1008F0008B01C11522E0D20771F461E270E082E061
:10090000A7D0E82EF12C60E270E082E0A1D0FE2CAE
:10091000EE24E82A10C08034924059F565E270E078
:1009200082E096D0E82EF12C64E270E082E090D074
:10093000FE2CEE24E82ADFB6F894CE017ADF288177
:1009400082E08883EC86FD86F80185819681888F18
:10095000998F82818A8384818C8383818B83818137
:100960008983822F81709081892B8883CE0182DFD9
:10097000DFBEDF91CF911F910F91FF90EF90DF903D
:100980000895DF92EF92FF920F931F93CF93DF931F
:100990007C018A01862F837021F46695669582E03A
:1009A00001C080E060FF8F5FE701A09698E0899F1B
:1009B000C00DD11D1124DFB6F894C7013ADFF8014C
:1009C0008081888382818A8381818983C70152DF04
:1009D000DFBEDF91CF911F910F91FF90EF90DF90DD
:1009E0000895DF92EF92FF920F931F93CF93DF93BF
:1009F0007C01EA01862F837021F46695669582E07A
:100A000001C080E060FF8F5F8701005E1F4F98E0AC
:100A1000899F000D111D1124DFB6F894C70109DF6D
:100A2000F8018081888382818A8381818983C701DB
:100A300021DFDFBEDF91CF911F910F91FF90EF90EB
:100A4000DF9008951BBEFC0128ED24BF608308954C
:100A50004091CA01E62FF72F8093CA0184914093F9
:100A6000CA010895CF92DF92EF92FF920F931F93E6
:100A7000CF93DF93EC016A017B01DB01CA0101978F
:100A8000A109B109BC01CD01600F711F821F931F25
:100A9000A70196010E948F26213831054105510595
:100AA000F8F4213460F4213260F4213160F429300B
:100AB00060F4253060F4233060F090E00BC093E0E8
:100AC00009C092E007C092E805C091E003C091E838
:100AD00001C090E888818C77892B888381E001C0F0
:100AE0008FEFDF91CF911F910F91FF90EF90DF90EB
:100AF000CF9008951F920F920FB60F92112408B64F
:100B00000F9218BE09B60F9219BE0BB60F921BBEFC
:100B10002F933F934F935F936F937F938F939F9305
:100B2000AF93BF93EF93FF93E091BC20F091BD2072
:100B3000309709F01995FF91EF91BF91AF919F9177
:100B40008F917F916F915F914F913F912F910F9076
:100B50000BBE0F9009BE0F9008BE0F900FBE0F90F6
:100B60001F9018951F920F920FB60F92112408B67E
:100B70000F9218BE09B60F9219BE0BB60F921BBE8C
:100B80002F933F934F935F936F937F938F939F9395
:100B9000AF93BF93EF93FF93E091BA20F091BB2006
:100BA000309709F01995FF91EF91BF91AF919F9107
:100BB0008F917F916F915F914F913F912F910F9006
:100BC0000BBE0F9009BE0F9008BE0F900FBE0F9086
:100BD0001F9018951F920F920FB60F92112408B60E
:100BE0000F9218BE09B60F9219BE0BB60F921BBE1C
:100BF0002F933F934F935F936F937F938F939F9325
:100C0000AF93BF93EF93FF93E091B820F091B92099
:100C1000309709F01995FF91EF91BF91AF919F9196
:100C20008F917F916F915F914F913F912F910F9095
:100C30000BBE0F9009BE0F9008BE0F900FBE0F9015
:100C40001F9018951F920F920FB60F92112408B69D
:100C50000F9218BE09B60F9219BE0BB60F921BBEAB
:100C60002F933F934F935F936F937F938F939F93B4
:100C7000AF93BF93EF93FF93E091B620F091B7202D
:100C8000309709F01995FF91EF91BF91AF919F9126
:100C90008F917F916F915F914F913F912F910F9025
:100CA0000BBE0F9009BE0F9008BE0F900FBE0F90A5
:100CB0001F9018951F920F920FB60F92112408B62D
:100CC0000F9218BE09B60F9219BE0BB60F921BBE3B
:100CD0002F933F934F935F936F937F938F939F9344
:100CE000AF93BF93EF93FF93E091B420F091B520C1
:100CF000309709F01995FF91EF91BF91AF919F91B6
:100D00008F917F916F915F914F913F912F910F90B4
:100D10000BBE0F9009BE0F9008BE0F900FBE0F9034
:100D20001F9018951F920F920FB60F92112408B6BC
:100D30000F9218BE09B60F9219BE0BB60F921BBECA
:100D40002F933F934F935F936F937F938F939F93D3
:100D5000AF93BF93EF93FF93E091B220F091B32054
:100D6000309709F01995FF91EF91BF91AF919F9145
:100D70008F917F916F915F914F913F912F910F9044
:100D80000BBE0F9009BE0F9008BE0F900FBE0F90C4
:100D90001F9018951F920F920FB60F92112408B64C
:100DA0000F9218BE09B60F9219BE0BB60F921BBE5A
:100DB0002F933F934F935F936F937F938F939F9363
:100DC000AF93BF93EF93FF93E091B020F091B120E8
:100DD000309709F01995FF91EF91BF91AF919F91D5
:100DE0008F917F916F915F914F913F912F910F90D4
:100DF0000BBE0F9009BE0F9008BE0F900FBE0F9054
:100E00001F9018951F920F920FB60F92112408B6DB
:100E10000F9218BE09B60F9219BE0BB60F921BBEE9
:100E20002F933F934F935F936F937F938F939F93F2
:100E3000AF93BF93EF93FF93E091AE20F091AF207B
:100E4000309709F01995FF91EF91BF91AF919F9164
:100E50008F917F916F915F914F913F912F910F9063
:100E60000BBE0F9009BE0F9008BE0F900FBE0F90E3
:100E70001F9018951F920F920FB60F92112408B66B
:100E80000F9218BE09B60F9219BE0BB60F921BBE79
:100E90002F933F934F935F936F937F938F939F9382
:100EA000AF93BF93EF93FF93E091AC20F091AD200F
:100EB000309709F01995FF91EF91BF91AF919F91F4
:100EC0008F917F916F915F914F913F912F910F90F3
:100ED0000BBE0F9009BE0F9008BE0F900FBE0F9073
:100EE0001F9018951F920F920FB60F92112408B6FB
:100EF0000F9218BE09B60F9219BE0BB60F921BBE09
:100F00002F933F934F935F936F937F938F939F9311
:100F1000AF93BF93EF93FF93E091AA20F091AB20A2
:100F2000309709F01995FF91EF91BF91AF919F9183
:100F30008F917F916F915F914F913F912F910F9082
:100F40000BBE0F9009BE0F9008BE0F900FBE0F9002
:100F50001F9018951F920F920FB60F92112408B68A
:100F60000F9218BE09B60F9219BE0BB60F921BBE98
:100F70002F933F934F935F936F937F938F939F93A1
:100F8000AF93BF93EF93FF93E091A820F091A92036
:100F9000309709F01995FF91EF91BF91AF919F9113
:100FA0008F917F916F915F914F913F912F910F9012
:100FB0000BBE0F9009BE0F9008BE0F900FBE0F9092
:100FC0001F9018951F920F920FB60F92112408B61A
:100FD0000F9218BE09B60F9219BE0BB60F921BBE28
:100FE0002F933F934F935F936F937F938F939F9331
:100FF000AF93BF93EF93FF93E091A620F091A720CA
:10100000309709F01995FF91EF91BF91AF919F91A2
:101010008F917F916F915F914F913F912F910F90A1
:101020000BBE0F9009BE0F9008BE0F900FBE0F9021
:101030001F9018951F920F920FB60F92112408B6A9
:101040000F9218BE09B60F9219BE0BB60F921BBEB7
:101050002F933F934F935F936F937F938F939F93C0
:10106000AF93BF93EF93FF93E091A420F091A5205D
:10107000309709F01995FF91EF91BF91AF919F9132
:101080008F917F916F915F914F913F912F910F9031
:101090000BBE0F9009BE0F9008BE0F900FBE0F90B1
:1010A0001F9018951F920F920FB60F92112408B639
:1010B0000F9218BE09B60F9219BE0BB60F921BBE47
:1010C0002F933F934F935F936F937F938F939F9350
:1010D000AF93BF93EF93FF93E091A220F091A320F1
:1010E000309709F01995FF91EF91BF91AF919F91C2
:1010F0008F917F916F915F914F913F912F910F90C1
:101100000BBE0F9009BE0F9008BE0F900FBE0F9040
:101110001F9018951F920F920FB60F92112408B6C8
:101120000F9218BE09B60F9219BE0BB60F921BBED6
:101130002F933F934F935F936F937F938F939F93DF
:10114000AF93BF93EF93FF93E091A020F091A12084
:10115000309709F01995FF91EF91BF91AF919F9151
:101160008F917F916F915F914F913F912F910F9050
:101170000BBE0F9009BE0F9008BE0F900FBE0F90D0
:101180001F9018951F920F920FB60F92112408B658
:101190000F9218BE09B60F9219BE0BB60F921BBE66
:1011A0002F933F934F935F936F937F938F939F936F
:1011B000AF93BF93EF93FF93E0919E20F0919F2018
:1011C000309709F01995FF91EF91BF91AF919F91E1
:1011D0008F917F916F915F914F913F912F910F90E0
:1011E0000BBE0F9009BE0F9008BE0F900FBE0F9060
:1011F0001F9018951F920F920FB60F92112408B6E8
:101200000F9218BE09B60F9219BE0BB60F921BBEF5
:101210002F933F934F935F936F937F938F939F93FE
:10122000AF93BF93EF93FF93E0919C20F0919D20AB
:10123000309709F01995FF91EF91BF91AF919F9170
:101240008F917F916F915F914F913F912F910F906F
:101250000BBE0F9009BE0F9008BE0F900FBE0F90EF
:101260001F9018951F920F920FB60F92112408B677
:101270000F9218BE09B60F9219BE0BB60F921BBE85
:101280002F933F934F935F936F937F938F939F938E
:10129000AF93BF93EF93FF93E0919A20F0919B203F
:1012A000309709F01995FF91EF91BF91AF919F9100
:1012B0008F917F916F915F914F913F912F910F90FF
:1012C0000BBE0F9009BE0F9008BE0F900FBE0F907F
:1012D0001F9018951F920F920FB60F92112408B607
:1012E0000F9218BE09B60F9219BE0BB60F921BBE15
:1012F0002F933F934F935F936F937F938F939F931E
:10130000AF93BF93EF93FF93E0919820F0919920D2
:10131000309709F01995FF91EF91BF91AF919F918F
:101320008F917F916F915F914F913F912F910F908E
:101330000BBE0F9009BE0F9008BE0F900FBE0F900E
:101340001F9018951F920F920FB60F92112408B696
:101350000F9218BE09B60F9219BE0BB60F921BBEA4
:101360002F933F934F935F936F937F938F939F93AD
:10137000AF93BF93EF93FF93E0919620F091972066
:10138000309709F01995FF91EF91BF91AF919F911F
:101390008F917F916F915F914F913F912F910F901E
:1013A0000BBE0F9009BE0F9008BE0F900FBE0F909E
:1013B0001F9018951F920F920FB60F92112408B626
:1013C0000F9218BE09B60F9219BE0BB60F921BBE34
:1013D0002F933F934F935F936F937F938F939F933D
:1013E000AF93BF93EF93FF93E0919420F0919520FA
:1013F000309709F01995FF91EF91BF91AF919F91AF
:101400008F917F916F915F914F913F912F910F90AD
:101410000BBE0F9009BE0F9008BE0F900FBE0F902D
:101420001F9018951F920F920FB60F92112408B6B5
:101430000F9218BE09B60F9219BE0BB60F921BBEC3
:101440002F933F934F935F936F937F938F939F93CC
:10145000AF93BF93EF93FF93E0919220F09193208D
:10146000309709F01995FF91EF91BF91AF919F913E
:101470008F917F916F915F914F913F912F910F903D
:101480000BBE0F9009BE0F9008BE0F900FBE0F90BD
:101490001F9018951F920F920FB60F92112408B645
:1014A0000F9218BE09B60F9219BE0BB60F921BBE53
:1014B0002F933F934F935F936F937F938F939F935C
:1014C000AF93BF93EF93FF93E0919020F091912021
:1014D000309709F01995FF91EF91BF91AF919F91CE
:1014E0008F917F916F915F914F913F912F910F90CD
:1014F0000BBE0F9009BE0F9008BE0F900FBE0F904D
:101500001F9018951F920F920FB60F92112408B6D4
:101510000F9218BE09B60F9219BE0BB60F921BBEE2
:101520002F933F934F935F936F937F938F939F93EB
:10153000AF93BF93EF93FF93E0918E20F0918F20B4
:10154000309709F01995FF91EF91BF91AF919F915D
:101550008F917F916F915F914F913F912F910F905C
:101560000BBE0F9009BE0F9008BE0F900FBE0F90DC
:101570001F9018951F920F920FB60F92112408B664
:101580000F9218BE09B60F9219BE0BB60F921BBE72
:101590002F933F934F935F936F937F938F939F937B
:1015A000AF93BF93EF93FF93E0918C20F0918D2048
:1015B000309709F01995FF91EF91BF91AF919F91ED
:1015C0008F917F916F915F914F913F912F910F90EC
:1015D0000BBE0F9009BE0F9008BE0F900FBE0F906C
:1015E0001F9018951F920F920FB60F92112408B6F4
:1015F0000F9218BE09B60F9219BE0BB60F921BBE02
:101600002F933F934F935F936F937F938F939F930A
:10161000AF93BF93EF93FF93E0918A20F0918B20DB
:10162000309709F01995FF91EF91BF91AF919F917C
:101630008F917F916F915F914F913F912F910F907B
:101640000BBE0F9009BE0F9008BE0F900FBE0F90FB
:101650001F9018951F920F920FB60F92112408B683
:101660000F9218BE09B60F9219BE0BB60F921BBE91
:101670002F933F934F935F936F937F938F939F939A
:10168000AF93BF93EF93FF93E0918820F09189206F
:10169000309709F01995FF91EF91BF91AF919F910C
:1016A0008F917F916F915F914F913F912F910F900B
:1016B0000BBE0F9009BE0F9008BE0F900FBE0F908B
:1016C0001F9018951F920F920FB60F92112408B613
:1016D0000F9218BE09B60F9219BE0BB60F921BBE21
:1016E0002F933F934F935F936F937F938F939F932A
:1016F000AF93BF93EF93FF93E0918620F091872003
:10170000309709F01995FF91EF91BF91AF919F919B
:101710008F917F916F915F914F913F912F910F909A
:101720000BBE0F9009BE0F9008BE0F900FBE0F901A
:101730001F9018951F920F920FB60F92112408B6A2
:101740000F9218BE09B60F9219BE0BB60F921BBEB0
:101750002F933F934F935F936F937F938F939F93B9
:10176000AF93BF93EF93FF93E0918420F091852096
:10177000309709F01995FF91EF91BF91AF919F912B
:101780008F917F916F915F914F913F912F910F902A
:101790000BBE0F9009BE0F9008BE0F900FBE0F90AA
:1017A0001F9018951F920F920FB60F92112408B632
:1017B0000F9218BE09B60F9219BE0BB60F921BBE40
:1017C0002F933F934F935F936F937F938F939F9349
:1017D000AF93BF93EF93FF93E0918220F09183202A
:1017E000309709F01995FF91EF91BF91AF919F91BB
:1017F0008F917F916F915F914F913F912F910F90BA
:101800000BBE0F9009BE0F9008BE0F900FBE0F9039
:101810001F9018951F920F920FB60F92112408B6C1
:101820000F9218BE09B60F9219BE0BB60F921BBECF
:101830002F933F934F935F936F937F938F939F93D8
:10184000AF93BF93EF93FF93E0918020F0918120BD
:10185000309709F01995FF91EF91BF91AF919F914A
:101860008F917F916F915F914F913F912F910F9049
:101870000BBE0F9009BE0F9008BE0F900FBE0F90C9
:101880001F9018951F920F920FB60F92112408B651
:101890000F9218BE09B60F9219BE0BB60F921BBE5F
:1018A0002F933F934F935F936F937F938F939F9368
:1018B000AF93BF93EF93FF93E0917E20F0917F2051
:1018C000309709F01995FF91EF91BF91AF919F91DA
:1018D0008F917F916F915F914F913F912F910F90D9
:1018E0000BBE0F9009BE0F9008BE0F900FBE0F9059
:1018F0001F9018951F920F920FB60F92112408B6E1
:101900000F9218BE09B60F9219BE0BB60F921BBEEE
:101910002F933F934F935F936F937F938F939F93F7
:10192000AF93BF93EF93FF93E0917C20F0917D20E4
:10193000309709F01995FF91EF91BF91AF919F9169
:101940008F917F916F915F914F913F912F910F9068
:101950000BBE0F9009BE0F9008BE0F900FBE0F90E8
:101960001F9018951F920F920FB60F92112408B670
:101970000F9218BE09B60F9219BE0BB60F921BBE7E
:101980002F933F934F935F936F937F938F939F9387
:10199000AF93BF93EF93FF93E0917A20F0917B2078
:1019A000309709F01995FF91EF91BF91AF919F91F9
:1019B0008F917F916F915F914F913F912F910F90F8
:1019C0000BBE0F9009BE0F9008BE0F900FBE0F9078
:1019D0001F9018951F920F920FB60F92112408B600
:1019E0000F9218BE09B60F9219BE0BB60F921BBE0E
:1019F0002F933F934F935F936F937F938F939F9317
:101A0000AF93BF93EF93FF93E0917820F09179200B
:101A1000309709F01995FF91EF91BF91AF919F9188
:101A20008F917F916F915F914F913F912F910F9087
:101A30000BBE0F9009BE0F9008BE0F900FBE0F9007
:101A40001F9018951F920F920FB60F92112408B68F
:101A50000F9218BE09B60F9219BE0BB60F921BBE9D
:101A60002F933F934F935F936F937F938F939F93A6
:101A7000AF93BF93EF93FF93E0917620F09177209F
:101A8000309709F01995FF91EF91BF91AF919F9118
:101A90008F917F916F915F914F913F912F910F9017
:101AA0000BBE0F9009BE0F9008BE0F900FBE0F9097
:101AB0001F9018951F920F920FB60F92112408B61F
:101AC0000F9218BE09B60F9219BE0BB60F921BBE2D
:101AD0002F933F934F935F936F937F938F939F9336
:101AE000AF93BF93EF93FF93E0917420F091752033
:101AF000309709F01995FF91EF91BF91AF919F91A8
:101B00008F917F916F915F914F913F912F910F90A6
:101B10000BBE0F9009BE0F9008BE0F900FBE0F9026
:101B20001F9018951F920F920FB60F92112408B6AE
:101B30000F9218BE09B60F9219BE0BB60F921BBEBC
:101B40002F933F934F935F936F937F938F939F93C5
:101B5000AF93BF93EF93FF93E0917220F0917320C6
:101B6000309709F01995FF91EF91BF91AF919F9137
:101B70008F917F916F915F914F913F912F910F9036
:101B80000BBE0F9009BE0F9008BE0F900FBE0F90B6
:101B90001F9018951F920F920FB60F92112408B63E
:101BA0000F9218BE09B60F9219BE0BB60F921BBE4C
:101BB0002F933F934F935F936F937F938F939F9355
:101BC000AF93BF93EF93FF93E0917020F09171205A
:101BD000309709F01995FF91EF91BF91AF919F91C7
:101BE0008F917F916F915F914F913F912F910F90C6
:101BF0000BBE0F9009BE0F9008BE0F900FBE0F9046
:101C00001F901895CF93CFB7F894282F392F21150F
:101C100088E0380759F461E083E090E00E94040412
:101C200064E083E090E00E9404046AC0203488E00D
:101C3000380759F462E083E090E00E94040464E015
:101C400083E090E00E9404045BC0211589E038071E
:101C500059F461E084E090E00E94040464E084E0D0
:101C600090E00E9404044CC0203489E0380759F405
:101C700062E084E090E00E94040464E084E090E08C
:101C80000E9404043DC021158AE0380759F461E040
:101C900085E090E00E94040464E085E090E00E940A
:101CA00004042EC020348AE0380759F462E085E04D
:101CB00090E00E94040464E085E090E00E94040447
:101CC0001FC021158BE0380759F461E086E090E0F1
:101CD0000E94040464E086E090E00E94040410C0C6
:101CE00020343B4059F462E086E090E00E94040416
:101CF00064E086E090E00E94040402C0CFBF09C007
:101D00008FB7F894E3EDF0E290819F5F90838FBFEF
:101D1000CFBFCF910895FC01818185FFFDCF608306
:101D200080E090E008954F925F926F927F928F9241
:101D30009F92AF92BF92CF92DF92EF92FF920F935A
:101D40001F93CF93DF93EC014A015B012801390116
:101D5000D901C801689412F8B695A795979587950B
:101D60001694D1F7B901A801032E36E1769567954F
:101D7000579547953A95D1F7302D2C8122FD08C013
:101D8000B695A795979587957695679557954795B5
:101D900088159905AA05BB0508F4A6C08416950602
:101DA000A606B70608F4A2C08C8182FD04C0880C88
:101DB000991CAA1CBB1CC301B201A50194010E947D
:101DC0008F262F3F31054105510508F491C0C12CE4
:101DD000D12C7601CA9419EF05C02C153D054E058E
:101DE0005F0568F0CC0CDD1CEE1CFF1C1D3F14F4DD
:101DF0006894C0F81F5F173081F7212F50C0212F42
:101E000011230CF04CC0D501C401880F991FAA1FE3
:101E1000BB1F880F991FAA1FBB1F880F991FAA1FDE
:101E2000BB1F481A590A6A0A7B0A1E3FF4F46DEF79
:101E30007FEF611B710917FD739504C0440C551C9D
:101E4000661C771C6A95D2F7D501C401B695A79593
:101E500097958795BC01CD01640D751D861D971D55
:101E6000A50194010E948F2636C023E0210FD501E1
:101E7000C40104C0880F991FAA1FBB1F2A95D2F75F
:101E80009C01AD01B695A79597958795BC01CD01AD
:101E9000640D751D861D971D0E948F261CC02D5F29
:101EA000D501C40104C0880F991FAA1FBB1F2A9522
:101EB000D2F79C01AD01B695A79597958795BC0182
:101EC000CD01640D751D861D971D0E948F26215022
:101ED000310941095109832F8F701295107F182BFA
:101EE0001F832E8381E018C080E016C080E014C0FC
:101EF000D501C401880F991FAA1FBB1F880F991F06
:101F0000AA1FBB1F880F991FAA1FBB1F481A590A77
:101F10006A0A7B0A19EF8BCFDF91CF911F910F9146
:101F2000FF90EF90DF90CF90BF90AF909F908F90F9
:101F30007F906F905F904F90089563E080E890E00D
:101F40000E942205E0E8F0E0828180FDFDCF6BE297
:101F500081E890E00E942205E0E8F0E0828180FDC7
:101F6000FDCFA895FFCFE0E5F0E08081826080831F
:101F7000E1E5F0E0808181FFFDCF88ED84BF81E065
:101F800080934000E0E5F0E08081827E80830895C8
:101F900080E48093210687E4809341068EE280935B
:101FA00061068AEB80938106E0E9F6E08081826039
:101FB0008083E9E8F6E0808181608083EAE8F6E0EA
:101FC00080818160808380E18093AA0688E8809385
:101FD000A1068093A5068FEF8093200780930007CA
:101FE0001092F50681E08093F70685E08093E9067C
:101FF0008FE88093EB060895E0E0F8E08081807F31
:10200000866080838181887F836081838FEF90E009
:1020100086A397A380858E6F80878181806181836D
:1020200081818062818380E098E0ECCD0895E0E0DA
:10203000F9E08081807F866080838181887F8183D1
:1020400086818C7F86838681826086838DE790E09F
:1020500086A397A380858E6F808780E099E0D2CD9C
:1020600008950F931F9300E018E428EE31E040E05C
:1020700052E16AE770E080EC9AE00E943205E0EC01
:10208000FAE08081806180838081806480831F91F9
:102090000F9108950F931F93CF93DF93C0EADAE077
:1020A0008D818F738D8383E08D838B818F7C8062A4
:1020B0008B8300E018E428EE31E040E855E260E070
:1020C00070E080EA9AE02FDE8C8188608C83DF915B
:1020D000CF911F910F9108950F931F93CF93DF938B
:1020E000C0EADBE08D818F738D8383E08D838B81EC
:1020F0008F7C80628B8300E018E428EE31E040E8BA
:1021000055E260E070E080EA9BE00DDE8C81886043
:102110008C838C8180618C83DF91CF911F910F9193
:1021200008950F931F93CF93DF93C0EBDBE08D8176
:102130008F738D8383E08D838B818F7C80628B8313
:1021400000E018E428EE31E040E855E260E070E09D
:1021500080EB9BE0E8DD8C8188608C838C818061E2
:102160008C83DF91CF911F910F910895CF93DF93CF
:10217000CDB7DEB72A97CDBFDEBF61E270E082E067
:102180000E94280560E270E082E00E9428058A81B2
:10219000897E9B819F7C90629B8392E09D83886077
:1021A0008A831C82BE016F5F7F4F80E092E00E94B5
:1021B0007004AE01485F5F4F61E080E092E00E94F2
:1021C000F10481E0888788E18987AE01485F5F4F2D
:1021D00061E080E092E00E94C10480E092E00E9411
:1021E00059048FB7F894E0E0F2E090819460908316
:1021F0008FBF2A96CDBFDEBFDF91CF9108951F928A
:102200000F920FB60F92112408B60F9218BE09B69E
:102210000F9219BE0AB60F921ABE0BB60F921BBED2
:102220002F923F924F925F926F927F928F929F92E6
:10223000AF92BF92DF92EF92FF920F931F932F9373
:102240003F934F935F936F937F938F939F93AF933E
:10225000BF93EF93FF93CF93DF93CDB7DEB7C25514
:10226000D109CDBFDEBF60E787E20E948325D82E6B
:1022700086FFE1C388E0E0E6F6E0878360E270E095
:102280008EE893E20E94D8251092C7201092C820B1
:1022900040918E23E8E0F6E07081608120815081DA
:1022A000842F90E0221F2227221F30E0220F331FAD
:1022B000220F331F76FBEE24E0F8F12CE22AF32AFA
:1022C00064FB002700F910E0000F111FE02AF12A3B
:1022D00055FB552750F962965FAF629763961FAE24
:1022E000639763962EAD3FAD6397220F331F220F86
:1022F000331F220F331F2E293F298217930709F01E
:102300009AC31092CF201092D020508130818081CA
:102310002081881F8827881F90E0880F991F880FC9
:10232000991F56FBAA24A0F8B12CA82AB92A3295E5
:10233000317039831A8289819A81880F991FA82A5E
:10234000B92A25FB882480F8912CC401880F991F95
:10235000880F991F880F991F4501882A992A57E1EC
:10236000589DD001599DB00D1124A452BF4D4C93DE
:102370004081308180812081881F8827881F90E0DC
:10238000880F991F880F991F46FB662460F8712CEF
:10239000682A792A34FB442440F8512C440C551CFB
:1023A0006428752825FB222420F8312CC101880FD0
:1023B000991F880F991F880F991F1301282A392AFE
:1023C000529DD001539DB00D1124A452BF4D809158
:1023D0008F2390E011968D939C93129730812081EA
:1023E00080814081881F8827881F90E0880F991F6F
:1023F000880F991F36FB332730F93B831C826B8192
:102400007C81862B972B229521702D831E822D8116
:102410003E81220F331F822B932B45FB442740F92B
:102420004F8318862F813885220F331F220F331FC9
:10243000220F331F822B932B589FD001599FB00D31
:102440001124A452BF4D8091902390E013968D9358
:102450009C9314973081208180814081881F882738
:10246000881F90E0880F991F880F991F36FB33272C
:1024700030F939871A86A985BA858A2B9B2B229534
:1024800021702B871C862B853C85220F331F822BC6
:10249000932B45FB442740F94D871E862D853E85AD
:1024A000220F331F220F331F220F331F822B932B38
:1024B000589FD001599FB00D1124A452BF4D809157
:1024C000912390E015968D939C93169730812081EF
:1024D00080814081881F8827881F90E0880F991F7E
:1024E000880F991F36FB332730F93F87188A6F858D
:1024F0007889862B972B22952170298B1A8A298916
:102500003A89220F331F822B932B45FB442740F936
:102510004B8B1C8A2B893C89220F331F220F331FC0
:10252000220F331F822B932B589FD001599FB00D40
:102530001124A452BF4D8091922390E017968D9361
:102540009C9318973081208180814081881F882743
:10255000881F90E0880F991F880F991F36FB33273B
:1025600030F93D8B1E8AAD89BE898A2B9B2B229523
:1025700021702F8B188E2F89388D220F331F822BBD
:10258000932B45FB442740F9498F1A8E298D3A8DAC
:10259000220F331F220F331F220F331F822B932B47
:1025A000589FD001599FB00D1124A452BF4D809166
:1025B000932390E019968D939C931A9730812081F4
:1025C00080814081881F8827881F90E0880F991F8D
:1025D000880F991F36FB332730F93B8F1C8E6B8D8C
:1025E0007C8D862B972B229521702D8F1E8E2D8D05
:1025F0003E8D220F331F822B932B45FB442740F93E
:102600004F8F18A22F8D38A1220F331F220F331F97
:10261000220F331F822B932B589FD001599FB00D4F
:102620001124A452BF4D8091942390E01B968D936A
:102630009C931C973081208180814081881F88274E
:10264000881F90E0880F991F880F991F36FB33274A
:1026500030F939A31AA2A9A1BAA18A2B9B2B2295E2
:1026600021702BA31CA22BA13CA1220F331F822B74
:10267000932B45FB442740F94DA31EA22DA13EA15B
:10268000220F331F220F331F220F331F822B932B56
:10269000589FD001599FB00D1124A452BF4D809175
:1026A000952390E01D968D939C931E9730812081F9
:1026B00080814081881F8827881F90E0880F991F9C
:1026C000880F991F36FB332730F93FA318A66FA157
:1026D00078A5862B972B2295217029A71AA629A5C4
:1026E0003AA5220F331F822B932B45FB442740F939
:1026F0004BA71CA62BA53CA5220F331F220F331F6F
:10270000220F331F822B932B589FD001599FB00D5E
:102710001124A452BF4D8091962390E01F968D9373
:102720009C9350973081208180814081881F882729
:10273000881F90E0880F991F880F991F36FB332759
:1027400030F93DA71EA6ADA5BEA58A2B9B2B2295D1
:1027500021702FA718AA2FA538A9220F331F822B6B
:10276000932B45FB442740F949AB1AAA29A93AA95A
:10277000220F331F220F331F220F331F822B932B65
:10278000589FD001599FB00D1124A452BF4D809184
:10279000972351968C933081208180814081881FBE
:1027A0008827881F90E0880F991F880F991F36FB94
:1027B000332730F93BAB1CAA6BA97CA9862B972B3E
:1027C000229521702DAB1EAA2DA93EA9220F331FE1
:1027D000822B932B45FB442740F94FAB18AE2FA912
:1027E00038AD220F331F220F331F220F331F822BCE
:1027F000932B589FD001599FB00D1124A452BF4D67
:102800008091982352968C933081208180814081E1
:10281000881F8827881F90E0880F991F880F991FAD
:1028200036FB332730F939AF1AAEA9ADBAAD8A2BD2
:102830009B2B229521702BAF1CAE2BAD3CAD220FF4
:10284000331F822B932B45FB442740F94DAF1EAE1F
:102850002DAD3EAD220F331F220F331F220F331F2A
:10286000822B932B589FD001599FB00D1124A45255
:10287000BF4D8091992353968C9330812081808124
:102880004081881F8827881F90E0880F991F880F34
:10289000991F36FB332730F93FAF21961FAE2197A2
:1028A00021966EAD7FAD2197862B972B22952170B7
:1028B00022962FAF229723961FAE239723962EADF5
:1028C0003FAD2397220F331F822B932B45FB4427C9
:1028D00040F924964FAF249725961FAE259725964D
:1028E0002EAD3FAD2597220F331F220F331F220F2E
:1028F000331F822B932B589FD001599FB00D112469
:10290000A452BF4D80919A2354968C93308120819C
:1029100080814081881F8827881F90E0880F991F39
:10292000880F991F36FB332730F926963FAF26973D
:1029300027961FAE27972796AEADBFAD27978A2B58
:102940009B2B2295217028962FAF289729961FAE92
:10295000299729962EAD3FAD2997220F331F822B41
:10296000932B45FB442740F92A964FAF2A972B9685
:102970001FAE2B972B962EAD3FAD2B97220F331FFB
:10298000220F331F220F331F822B932B589FD0010E
:10299000599FB00D1124A452BF4D80919B23559691
:1029A0008C933081208180814081881F8827881FF7
:1029B00090E0880F991F880F991F36FB332730F955
:1029C0002C963FAF2C972D961FAE2D972D96EEADE2
:1029D000FFAD2D978E2B9F2B229521702E962FAF1A
:1029E0002E972F961FAE2F972F962EAD3FAD2F9778
:1029F000220F331F822B932B45FB442740F960960F
:102A00004FAF609761961FAE619761962EAD3FAD57
:102A10006197220F331F220F331F220F331F822B88
:102A2000932B589FF001599FF00D1124E452FF4D54
:102A300080919C23868BD5FE04C080E2E0E6F6E020
:102A40008783D4FE06C084E0E0E6F6E087830E9438
:102A50007326CE5ADF4FCDBFDEBFDF91CF91FF91FE
:102A6000EF91BF91AF919F918F917F916F915F9106
:102A70004F913F912F911F910F91FF90EF90DF9019
:102A8000BF90AF909F908F907F906F905F904F908E
:102A90003F902F900F900BBE0F900ABE0F9009BE73
:102AA0000F9008BE0F900FBE0F901F9018951F92A9
:102AB0000F920FB60F92112408B60F9218BE09B6E6
:102AC0000F9219BE0AB60F921ABE0BB60F921BBE1A
:102AD000AF92BF92DF92EF92FF920F931F932F93CB
:102AE0003F934F935F936F937F938F939F93AF9396
:102AF000BF93CF93DF93EF93FF93A8958091B42377
:102B00008F5F8093B4238431C4F081E08093C2202E
:102B100080911724909118240196817090789923C0
:102B200024F401978E6F9F6F0196809317249093E2
:102B300018241092B42310923C208091C3209091CD
:102B4000C420A091C520B091C6200196A11DB11D41
:102B50008093C3209093C420A093C520B093C62037
:102B60008091CD209091CE20892B09F440C0809196
:102B7000FA219091FB21A091FC21B091FD21883B8D
:102B80002BE09207A105B105D0F40196A11DB11D5E
:102B90008093FA219093FB21A093FC21B093FD2117
:102BA000A0E2B6E014968C911497806414968C93EE
:102BB0008FEF90E080932A0890932B0818C0109212
:102BC0002A0810922B08A0E2B6E014968C91149774
:102BD0008F7B14968C931092FA211092FB21109205
:102BE000FC211092FD211092CD201092CE208091D8
:102BF000CB209091CC20892B09F43FC08091FA2101
:102C00009091FB21A091FC21B091FD21843691058A
:102C1000A105B105D0F40196A11DB11D8093FA2143
:102C20009093FB21A093FC21B093FD218FEF90E0C6
:102C30008093280890932908A0E2B6E014968C911E
:102C40001497806414968C9318C0109228081092E0
:102C50002908A0E2B6E014968C9114978F7B149605
:102C60008C931092FA211092FB211092FC21109269
:102C7000FD211092CB201092CC208091CF209091FA
:102C8000D02001968093CF209093D02080916A200D
:102C900090916B208130910581F41092D1200E9497
:102CA000AC020E94D80280916A2090916B2001971B
:102CB00080936A2090936B2087C08230910508F141
:102CC000019780936A2090936B200E94FD0280916F
:102CD0006A2090916B20883B2BE0920708F074C02B
:102CE000A0E0B0E080932C2090932D20A0932E2084
:102CF000B0932F2088EC90E08093762290937722F7
:102D000063C0A8E0B6E0DC90EC908C91FC90881F4A
:102D10008827881F90E0880F991F880F991FD6FA7F
:102D2000002700F910E0082B192BE4FAEE24E0F854
:102D3000CE2D80E0D82FCC0FDD1F0C2B1D2BF5FAEC
:102D4000EE27E0F9F0E0CF01880F991F880F991F57
:102D5000880F991FF801E82BF92BEE0FFF1FE85F92
:102D6000FF4D8081E0E2F7E08483CC919C91EC916F
:102D70008C91EE1FEE27EE1FF0E0EE0FFF1FEE0F1F
:102D8000FF1FC6FB662760F970E0E62BF72B94FB6C
:102D9000442740F950E0440F551FE42BF52B85FBE9
:102DA000AA24A0F8B12C9501220F331F220F331F44
:102DB000220F331FE22BF32BEE0FFF1FE85FFF4DB7
:102DC0008081E0E0F7E08483FF91EF91DF91CF9184
:102DD000BF91AF919F918F917F916F915F914F9133
:102DE0003F912F911F910F91FF90EF90DF90BF9037
:102DF000AF900F900BBE0F900ABE0F9009BE0F90C0
:102E000008BE0F900FBE0F901F9018951F920F9243
:102E10000FB60F92112408B60F9218BE0F9008BE7D
:102E20000F900FBE0F901F9018951F920F920FB624
:102E30000F92112408B60F9218BE2F933F938F93D1
:102E40009F9320916324309164248091C80781FF6F
:102E500003C08FEF9FEF02C081E090E0820F931FCD
:102E600080936324909364249F918F913F912F913D
:102E70000F9008BE0F900FBE0F901F9018951F92D5
:102E80000F920FB60F92112408B60F9218BE2F930F
:102E90003F938F939F932091C2233091C3238091BE
:102EA000E80684FF03C08FEF9FEF02C081E090E04F
:102EB000820F931F8093C2239093C3239F918F917E
:102EC0003F912F910F9008BE0F900FBE0F901F9053
:102ED00018951F920F920FB60F92112408B60F92F9
:102EE00018BE2F933F938F939F932091002430918E
:102EF00001248091480684FF03C08FEF9FEF02C03A
:102F000081E090E0820F931F80930024909301242E
:102F10009F918F913F912F910F9008BE0F900FBE00
:102F20000F901F9018951F920F920FB60F921124B9
:102F300008B60F9218BE2F933F938F939F932091C3
:102F40008124309182248091C80782FF03C08FEFD3
:102F50009FEF02C081E090E0820F931F8093812455
:102F6000909382249F918F913F912F910F9008BE53
:102F70000F900FBE0F901F9018951F920F920FB6D3
:102F80000F92112408B60F9218BE09B60F9219BEFF
:102F90000BB60F921BBE2F933F934F935F936F938C
:102FA0007F938F939F93AF93BF93EF93FF93809102
:102FB0006A2090916B20892B89F48091E8066DE658
:102FC00070E2881F8827881F0E949D028091A806B2
:102FD0006CE670E2829581700E949D0280E395E725
:102FE00080936A2090936B208FEF8093D1200E9472
:102FF000AC02FF91EF91BF91AF919F918F917F9123
:103000006F915F914F913F912F910F900BBE0F9059
:1030100009BE0F9008BE0F900FBE0F901F9018951D
:103020001F920F920FB60F92112408B60F9218BE7E
:103030000F9008BE0F900FBE0F901F9018954F92E3
:103040005F926F927F928F929F92AF92BF92CF9238
:10305000DF92EF92FF920F931F93CF93DF93CDB741
:10306000DEB7C85CD109CDBFDEBF60E080E00E9462
:103070008F028091B9238F938091B8238F938DE332
:1030800090E29F938F9302E314E21F930F930E94A9
:10309000B726C8010E94800261E080E00E948F0292
:1030A000E4E0F4E281818F9380818F9387E490E262
:1030B0009F938F931F930F930E94B726C8010E947E
:1030C000800261E089E00E948F02809118221F92A5
:1030D0008F9380E590E29F938F931F930F930E94AD
:1030E000B726C8010E948002E8E0F6E070816081A6
:1030F00020814081A081508180813081881F882774
:10310000881F90E0880F991F880F991FA6FB8824BD
:1031100080F8912C882A992A54FBAA24A0F8B12C73
:10312000AA0CBB1C8A289B2835FBCC24C0F8D12CC8
:10313000C601880F991F880F991F880F991F640176
:10314000C82AD92A57E15C9DF0015D9DF00D11243C
:10315000E751FF4D3181832F932F990F990B8827CA
:10316000221F2227221F30E0220F331F220F331F7E
:1031700076FBEE24E0F8F12CE22AF32A64FB6624C5
:1031800060F8712C660C771CE628F72845FB442470
:1031900040F8512C9201220F331F220F331F220FB0
:1031A000331F2701422A532A549DF001559DF00DEB
:1031B0001124E452FF4D2785822B9F938F9380919A
:1031C000DC238F938091DB238F938091C1238F9396
:1031D0008091C0238F9380911E248F9380911D2412
:1031E0008F93809122228F93809121228F93E2E00E
:1031F000F4E281818F9380818F9387E590E29F93A2
:103200008F93CE0101969F938F930E94B726CDBFD7
:10321000DEBF8823B1F08E010F5F1F4F815068948D
:10322000EE24E1F8F12CEC0EFD1EE80EF11CF80185
:1032300061918F0180EA9AE00E948B0E0E151F05A6
:10324000B1F7C853DF4FCDBFDEBFDF91CF911F91E4
:103250000F91FF90EF90DF90CF90BF90AF909F9035
:103260008F907F906F905F904F900895CF93DF93F2
:10327000CDB7DEB7CE5AD109CDBFDEBF0E94B30FA6
:10328000E2EAF0E08081876080830E94C80F0E949C
:1032900017100E94FC0F0E946C100E9491100E9457
:1032A0004A100E94B6100E94FF01789488EB9BE0C0
:1032B000A0E0B0E08093342090933520A093362096
:1032C000B093372024EF31E020932E2430932F2425
:1032D0008093382090933920A0933A20B0933B20DC
:1032E00084E690E080932E2290932F2288EE93E044
:1032F000A0E0B0E08093302090933120A093322062
:10330000B093332088EC90E0809360249093612404
:1033100080ED97E0A0E0B0E080932C2090932D20EA
:10332000A0932E20B0932F2086E990E08093762200
:1033300090937722E8E0F6E09081208130818081CF
:10334000E3E0F0E2331F3327331F330F330F96FBD5
:10335000992790F9932B24FB002700F910E0000F28
:10336000111F092B85FBEE24E0F8F12CEE0CFF1C5D
:10337000EE0CFF1CEE0CFF1CE02A80818E0D80837A
:1033800082E0E0E8F6E086830E9431102AE62A9582
:10339000F1F700C03FEF43EC59E03150404050405E
:1033A000E1F700C000000E94AC250E9473260E9435
:1033B000812682E0E0E8F6E08683E8E0F6E04081FE
:1033C000908120818081221F2227221F30E0220F3E
:1033D000331F220F331F46FBCC24C0F8D12C2C29DD
:1033E0003D2994FB222420F8312C220C331C222965
:1033F000332985FB882780F9C158DF4F8883CF5751
:10340000D040C058DF4F1882C058D040C158DF4F5D
:1034100088819981CF57D040880F991F880F991FB5
:10342000880F991F822B932B039784F40F2EF6E0BD
:10343000CF2EF02D6894EE24E5F805E023E030E28D
:1034400048E062E380E00E94332685C1E8E0F6E0D0
:103450009081808120814081221F2227221F30E01D
:10346000220F331F220F331F96FB992790F9CD5659
:10347000DF4F9883C359D040CC56DF4F1882C459D0
:10348000D040CD56DF4F68817981C359D040262B7B
:10349000372B82958170CB56DF4F8883C559D0403A
:1034A000CA56DF4F1882C659D040CB56DF4F8881AD
:1034B0009981C559D040880F991F282B392B45FB7E
:1034C000442740F9C956DF4F4883C759D040C856F2
:1034D000DF4F1882C859D040C956DF4F8881998183
:1034E000C759D040880F991F880F991F880F991FBF
:1034F000822B932B03970CF464C0908180812081F0
:103500004081221F2227221F30E0220F331F220F6B
:10351000331F96FB992790F9C756DF4F9883C959F7
:10352000D040C656DF4F1882CA59D040C756DF4F29
:10353000E881F981C959D0402E2B3F2B82958170AB
:10354000C556DF4F8883CB59D040C456DF4F188211
:10355000CC59D040C556DF4F88819981CB59D04096
:10356000880F991F282B392B45FB442740F9C35658
:10357000DF4F4883CD59D040C256DF4F1882CE5915
:10358000D040C356DF4F88819981CD59D040880FF4
:10359000991F880F991F880F991F822B932B0697CD
:1035A00084F40F2EF6E0CF2EF02D6894EE24E5F88B
:1035B00005E023E030E248E061E080E00E9433264D
:1035C000CAC0E8E0F6E09081808120814081221F1E
:1035D0002227221F30E0220F331F220F331F96FBBA
:1035E000992790F9C156DF4F9883CF59D040C056E4
:1035F000DF4F1882C05AD040C156DF4F68817981B1
:10360000CF59D040262B372B82958170CF55DF4F75
:103610008883C15AD040CE55DF4F1882C25AD0405D
:10362000CF55DF4F88819981C15AD040880F991FAB
:10363000282B392B45FB442740F9CD55DF4F4883D4
:10364000C35AD040CC55DF4F1882C45AD040CD5514
:10365000DF4F88819981C35AD040880F991F880F06
:10366000991F880F991F822B932B06970CF464C027
:103670009081808120814081221F2227221F30E0FB
:10368000220F331F220F331F96FB992790F9CB553A
:10369000DF4F9883C55AD040CA55DF4F1882C65AAB
:1036A000D040CB55DF4FE881F981C55AD0402E2B51
:1036B0003F2B82958170C955DF4F8883C75AD04010
:1036C000C855DF4F1882C85AD040C955DF4F88818E
:1036D0009981C75AD040880F991F282B392B45FB59
:1036E000442740F9C355DF4F4883CD5AD040C255D7
:1036F000DF4F1882CE5AD040C355DF4F8881998161
:10370000CD5AD040880F991F880F991F880F991F95
:10371000822B932B099784F40F2EF6E0CF2EF02DF9
:103720006894EE24E5F805E023E030E248E064E642
:1037300080E00E9433260FC00F2EF6E0CF2EF02D32
:103740006894EE24E5F805E023E030E248E06DE718
:1037500080E00E94332661E08CE30E94832566E0CE
:103760008DE30E94832582E0E0E8F6E085838FE028
:1037700094E00197F1F700C000000F2EFEEDEF2E50
:10378000F3E2FF2EF02D06EC13E2C158DF4F088361
:103790001983CF57D040A8958091C220882309F47F
:1037A000CAC74DDC1092C2206AE280EA9BE00E9408
:1037B0008B0E6EE780EA9BE00E948B0EE8E0F6E05D
:1037C0003081208180814081881F8827881F90E078
:1037D000880F991F880F991F36FB332730F93983DB
:1037E0001A8269817A81862B972B229521702B83EF
:1037F0001C822B813C81220F331F822B932B45FB94
:10380000442740F94D831E822D813E81220F331FB4
:10381000220F331F220F331F822B932B17E1189F88
:10382000F001199FF00D1124E452FF4D618180EAEF
:103830009BE00E948B0EE8E0F6E0308120818081E1
:103840004081881F8827881F90E0880F991F880F64
:10385000991F36FB332730F93F8318866F817885AF
:10386000862B972B2295217029871A8629853A85E0
:10387000220F331F822B932B45FB442740F94B87A4
:103880001C862B853C85220F331F220F331F220FEE
:10389000331F822B932B189FF001199FF00D1124D9
:1038A000E452FF4D638180EA9BE00E948B0EE8E0CA
:1038B000F6E03081208180814081881F8827881F21
:1038C00090E0880F991F880F991F36FB332730F936
:1038D0003D871E866D857E85862B972B22952170D0
:1038E0002F87188A2F853889220F331F822B932B1D
:1038F00045FB442740F9498B1A8A29893A89220FC6
:10390000331F220F331F220F331F822B932B189F3D
:10391000F001199FF00D1124E452FF4D658180EAFA
:103920009BE00E948B0EE8E0F6E0308120818081F0
:103930004081881F8827881F90E0880F991F880F73
:10394000991F36FB332730F93B8B1C8A6B897C89A6
:10395000862B972B229521702D8B1E8A2D893E89CF
:10396000220F331F822B932B45FB442740F94F8BAB
:10397000188E2F89388D220F331F220F331F220FED
:10398000331F822B932B189FF001199FF00D1124E8
:10399000E452FF4D678180EA9BE00E948B0EE8E0D5
:1039A000F6E03081208180814081881F8827881F30
:1039B00090E0880F991F880F991F36FB332730F945
:1039C000398F1A8E698D7A8D862B972B22952170CF
:1039D0002B8F1C8E2B8D3C8D220F331F822B932B14
:1039E00045FB442740F94D8F1E8E2D8D3E8D220FB5
:1039F000331F220F331F220F331F822B932B189F4D
:103A0000F001199FF00D1124E452FF4D618580EA09
:103A10009BE00E948B0EE8E0F6E0308120818081FF
:103A20004081881F8827881F90E0880F991F880F82
:103A3000991F36FB332730F93F8F18A26F8D78A17D
:103A4000862B972B2295217029A31AA229A13AA18E
:103A5000220F331F822B932B45FB442740F94BA3A6
:103A60001CA22BA13CA1220F331F220F331F220FB8
:103A7000331F822B932B189FF001199FF00D1124F7
:103A8000E452FF4D638580EA9BE00E948B0EE8E0E4
:103A9000F6E03081208180814081881F8827881F3F
:103AA00090E0880F991F880F991F36FB332730F954
:103AB0003DA31EA26DA17EA1862B972B229521707E
:103AC0002FA318A62FA138A5220F331F822B932BCB
:103AD00045FB442740F949A71AA629A53AA5220F74
:103AE000331F220F331F220F331F822B932B189F5C
:103AF000F001199FF00D1124E452FF4D658580EA15
:103B00009BE00E948B0EE8E0F6E03081208180810E
:103B10004081881F8827881F90E0880F991F880F91
:103B2000991F36FB332730F93BA71CA66BA57CA554
:103B3000862B972B229521702DA71EA62DA53EA57D
:103B4000220F331F822B932B45FB442740F94FA7AD
:103B500018AA2FA538A9220F331F220F331F220FB7
:103B6000331F822B932B189FF001199FF00D112406
:103B7000E452FF4D678580EA9BE00E948B0EE8E0EF
:103B8000F6E03081208180814081881F8827881F4E
:103B900090E0880F991F880F991F36FB332730F963
:103BA00039AB1AAA69A97AA9862B972B229521707D
:103BB0002BAB1CAA2BA93CA9220F331F822B932BC2
:103BC00045FB442740F94DAB1EAA2DA93EA9220F63
:103BD000331F220F331F220F331F822B932B189F6B
:103BE000F001199FF00D1124E452FF4D648980EA21
:103BF0009BE00E948B0EE8E0F6E03081208180811E
:103C00004081881F8827881F90E0880F991F880FA0
:103C1000991F36FB332730F93FAB18AE6FA978AD4B
:103C2000862B972B2295217029AF1AAE29AD3AAD7C
:103C3000220F331F822B932B45FB442740F94BAFB8
:103C40001CAE2BAD3CAD220F331F220F331F220FB2
:103C5000331F822B932B189FF001199FF00D112415
:103C6000E452FF4D658980EA9BE00E948B0EE8E0FC
:103C7000F6E03081208180814081881F8827881F5D
:103C800090E0880F991F880F991F36FB332730F972
:103C90003DAF1EAE6DAD7EAD862B972B229521706C
:103CA0002FAF21961FAE219721962EAD3FAD2197C4
:103CB000220F331F822B932B45FB442740F922967A
:103CC0004FAF229723961FAE239723962EAD3FAD7D
:103CD0002397220F331F220F331F220F331F822BF4
:103CE000932B189FF001199FF00D1124E452FF4D02
:103CF000668980EA9BE00E948B0EE8E0F6E0308166
:103D0000208180814081881F8827881F90E0880F4C
:103D1000991F880F991F36FB332730F924963FAF40
:103D2000249725961FAE259725966EAD7FAD2597D6
:103D3000862B972B2295217026962FAF26972796B4
:103D40001FAE279727962EAD3FAD2797220F331F23
:103D5000822B932B45FB442740F928964FAF289799
:103D600029961FAE299729962EAD3FAD2997220F90
:103D7000331F220F331F220F331F822B932B189FC9
:103D8000F001199FF00D1124E452FF4D638980EA80
:103D90009BE00E948B0EE8E0F6E03081208180817C
:103DA0004081881F8827881F90E0880F991F880FFF
:103DB000991F36FB332730F92A963FAF2A972B9667
:103DC0001FAE2B972B966EAD7FAD2B97862B972B27
:103DD000229521702C962FAF2C972D961FAE2D97E4
:103DE0002D962EAD3FAD2D97220F331F822B932B97
:103DF00045FB442740F92E964FAF2E972F961FAEC6
:103E00002F972F962EAD3FAD2F97220F331F220FE6
:103E1000331F220F331F822B932B189FF001199F02
:103E2000F00D1124E452FF4D81819281019709F038
:103E300022C1E8E0F6E03081208180814081881F46
:103E40008827881F90E0880F991F880F991F36FBDD
:103E5000332730F9CF57DF4F3883C158D040CE5782
:103E6000DF4F1882C258D040CF57DF4F6881798129
:103E7000C158D040862B972B22952170CD57DF4F0C
:103E80002883C358D040CC57DF4F1882C458D04045
:103E9000CD57DF4F28813981C358D040220F331FBF
:103EA000822B932B45FB442740F9CB57DF4F4883A8
:103EB000C558D040CA57DF4F1882C658D040CB579C
:103EC000DF4F28813981C558D040220F331F220F80
:103ED000331F220F331F822B932B27E1289FF001E2
:103EE000299FF00D1124E452FF4D838194810297A4
:103EF00009F0C1C0E8E0F6E0308120818081408196
:103F0000881F8827881F90E0880F991F880F991FA6
:103F100036FB332730F9C957DF4F3883C758D040B5
:103F2000C857DF4F1882C858D040C957DF4F688143
:103F30007981C758D040862B972B22952170C7577F
:103F4000DF4F2883C958D040C657DF4F1882CA5860
:103F5000D040C757DF4F28813981C958D040220F40
:103F6000331F822B932B45FB442740F9C557DF4F66
:103F70004883CB58D040C457DF4F1882CC58D0402C
:103F8000C557DF4F28813981CB58D040220F331FCE
:103F9000220F331F220F331F822B932B27E1289FE1
:103FA000F001299FF00D1124E452FF4D8581968187
:103FB000039709F060C0E8E0F6E0908180812081FD
:103FC0004081221F2227221F30E0220F331F220FA1
:103FD000331F96FB992790F9C357DF4F9883CD582D
:103FE000D040C257DF4F1882CE58D040C357DF4F62
:103FF00068817981CD58D040262B372B82958170EE
:10400000C157DF4F8883CF58D040C057DF4F188249
:10401000C059D040C157DF4F88819981CF58D040D7
:10402000880F991F282B392B45FB442740F9CF5681
:10403000DF4F4883C159D040CE56DF4F1882C25956
:10404000D040CF56DF4F88819981C159D040880F29
:10405000991F880F991F880F991F822B932B27E197
:10406000289FF001299FF00D1124E452FF4D878114
:104070009085049739F08091C7209091C8208536AB
:10408000910534F065E280EA9BE00E948B0E05C04A
:104090006EE580EA9BE00E948B0E8091C720909194
:1040A000C82001968093C7209093C8202FB7F8941A
:1040B00080912402909125022FBF8093C920909374
:1040C000CA20893D94403CF4E0E4F6E080E4858336
:1040D00084E0858306C0E0E4F6E080E4868384E043
:1040E00086838091080682FF03C08FEF90E002C0B4
:1040F00080E090E0E8E0F6E050814081208160813E
:10410000221F2227221F30E0220F331F220F331FCE
:1041100056FB552750F960965FAF609761961FAECA
:1041200061976196EEADFFAD61972E2B3F2B4295C7
:10413000417062964FAF629763961FAE6397639626
:104140004EAD5FAD6397440F551F242B352B65FB98
:10415000662760F964966FAF649765961FAE6597A2
:1041600065964EAD5FAD6597440F551F440F551FC3
:10417000440F551F242B352B47E1429FF001439FED
:10418000F00D1124E452FF4D2189822B892B59F027
:10419000E0E6F6E08085882334F081E090E08093CB
:1041A000CD209093CE20E8E0F6E030812081808120
:1041B0004081881F8827881F90E0880F991F880FEB
:1041C000991F36FB332730F966963FAF669767969F
:1041D0001FAE679767966EAD7FAD6797862B972B5F
:1041E0002295217068962FAF689769961FAE6997E0
:1041F00069962EAD3FAD6997220F331F822B932B0B
:1042000045FB442740F96A964FAF6A976B961FAEFD
:104210006B976B962EAD3FAD6B97220F331F220F1E
:10422000331F220F331F822B932B27E1289FF0018E
:10423000299FF00D1124E452FF4D8289882359F003
:10424000E0E6F6E08085882334F081E090E080931A
:10425000CB209093CC20E8E0F6E030812081808173
:104260004081881F8827881F90E0880F991F880F3A
:10427000991F36FB332730F96C963FAF6C976D96DC
:104280001FAE6D976D966EAD7FAD6D97862B972B9C
:10429000229521706E962FAF6E976F961FAE6F9717
:1042A0006F962EAD3FAD6F97220F331F822B932B4E
:1042B00045FB442740F9A0964FAFA097A1961FAEAB
:1042C000A197A1962EAD3FADA197220F331F220FCC
:1042D000331F220F331F822B932B47E1489FF0019E
:1042E000499FF00D1124E452FF4D8181F701808335
:1042F000E8E0F6E03081208180815081881F8827A6
:10430000881F90E0880F991F880F991F36FB33276D
:1043100030F9A2963FAFA297A3961FAEA397A3969C
:104320006EAD7FADA397862B972B22952170A49617
:104330002FAFA497A5961FAEA597A5962EAD3FAD1E
:10434000A597220F331F822B932B55FB552750F92E
:10435000A6965FAFA697A7961FAEA797A7962EAD76
:104360003FADA797220F331F220F331F220F331F9A
:10437000822B932B489FF001499FF00D1124E452AA
:10438000FF4D8381EFEDF3E28083E8E0F6E03081DA
:10439000208180815081881F8827881F90E0880FA6
:1043A000991F880F991F36FB332730F9A8963FAF26
:1043B000A897A9961FAEA997A9966EAD7FADA997AC
:1043C000862B972B22952170AA962FAFAA97AB9692
:1043D0001FAEAB97AB962EAD3FADAB97220F331F01
:1043E000822B932B55FB552750F9AC965FAFAC97BA
:1043F000AD961FAEAD97AD962EAD3FADAD97220FEA
:10440000331F220F331F220F331F822B932B489F02
:10441000F001499FF00D1124E452FF4D8581E0EE3B
:10442000F3E28083E8E0F6E03081208180815081F2
:10443000881F8827881F90E0880F991F880F991F71
:1044400036FB332730F9AE963FAFAE97AF961FAE2F
:10445000AF97AF966EAD7FADAF97862B972B22951A
:104460002170E0962FAFE097E1961FAEE197E196BD
:104470002EAD3FADE197220F331F822B932B55FBBF
:10448000552750F9E2965FAFE297E3961FAEE397A8
:10449000E3962EAD3FADE397220F331F220F331F5C
:1044A000220F331F822B932B489FF001499FF00D61
:1044B0001124E452FF4D8781E1EEF3E28083E8E0CE
:1044C000F6E03081208180815081881F8827881FF5
:1044D00090E0880F991F880F991F36FB332730F91A
:1044E000E4963FAFE497E5961FAEE597E5966EAD8F
:1044F0007FADE597862B972B22952170E6962FAFFF
:10450000E697E7961FAEE797E7962EAD3FADE797A4
:10451000220F331F822B932B55FB552750F9E8961A
:104520005FAFE897E9961FAEE997E9962EAD3FADEC
:10453000E997220F331F220F331F220F331F822BC5
:10454000932B489FF001499FF00D1124E452FF4D39
:104550008185E2EEF3E28083E8E0F6E030812081BD
:1045600080815081881F8827881F90E0880F991FBD
:10457000880F991F36FB332730F9EA963FAFEA9749
:10458000EB961FAEEB97EB966EAD7FADEB97862B60
:10459000972B22952170EC962FAFEC97ED961FAEDE
:1045A000ED97ED962EAD3FADED97220F331F822B89
:1045B000932B55FB552750F9EE965FAFEE97EF968C
:1045C0001FAEEF97EF962EAD3FADEF97220F331F43
:1045D000220F331F220F331F822B932B489FF00192
:1045E000499FF00D1124E452FF4D8385E3EEF3E281
:1045F0008083E8E0F6E03081208180815081881F4F
:104600008827881F90E0880F991F880F991F36FB15
:10461000222420F8312C8229932924FB442440F8B9
:10462000512C9201220F331F822B932B55FB6624B2
:1046300060F8712C9301220F331F220F331F220FBA
:10464000331F822B932B489FF001499FF00D1124BB
:10465000E452FF4D8585E4EEF3E28083E8E0F6E086
:104660003081208180815081881F8827881F90E0B9
:10467000880F991F880F991F36FBCC24C0F8D12CC6
:104680008C299D2924FBAA24A0F8B12C9501220F86
:10469000331F822B932B55FB882480F8912C940197
:1046A000220F331F220F331F220F331F822B932B16
:1046B000489FF001499FF00D1124E452FF4D87857A
:1046C000E5EEF3E28083C158DF4FE881F981CF57EF
:1046D000D04090818181E6EEF3E290838093E723DE
:1046E00090919F248091A0249093E8238093E923C4
:1046F000E5E8F4E2908181819093EA238093EB23B3
:10470000E2E0F4E2908181819093EC238093ED23A9
:104710008091C9209091CA20959587959595879508
:1047200095958795959587958093EE2360E270E047
:10473000C701D4D2C3D1FAE0FA95F1F700C02BC873
:104740001F920F920FB60F92112408B60F9218BE47
:104750000BB60F921BBE2F938F939F93EF93FF93F4
:104760002091A00B8091C0209091C1208A309105AA
:1047700008F0A8C0FC01E650FF4FF3C22A3209F04E
:10478000A1C081E090E08093C0209093C1209AC0A6
:10479000822F90E080935C2490935D2482E090E0EF
:1047A0008093C0209093C1208DC080915C24909113
:1047B0005D24922B80935C2490935D2483E090E0B1
:1047C0008093C0209093C1207DC0822F90E0809381
:1047D000D9239093DA2384E090E08093C0209093D3
:1047E000C12070C08091D9239091DA23922B8093BD
:1047F000D9239093DA2385E090E08093C0209093B2
:10480000C12060C0822F90E080931E2290931F22CF
:1048100086E090E08093C0209093C12053C08091A7
:104820001E2290911F22922B80931E2290931F2272
:1048300087E090E08093C0209093C12043C0822FF6
:1048400090E080935A2490935B2488E090E08093DA
:10485000C0209093C12036C080915A2490915B244F
:10486000922B80935A2490935B2489E090E080936C
:10487000C0209093C12026C0233201F580915C2492
:1048800090915D2480930224909303248091D923F6
:104890009091DA23809321229093222280911E22EC
:1048A00090911F2280931D2490931E2480915A245E
:1048B00090915B248093C0239093C1231092C020D9
:1048C0001092C120FF91EF919F918F912F910F90A6
:1048D0000BBE0F9008BE0F900FBE0F901F90189543
:1048E0001F920F920FB60F92112408B60F9218BEA6
:1048F0000BB60F921BBE2F938F939F93EF93FF9353
:104900002091B00B8091BE209091BF208A309105FC
:1049100008F0A8C0FC01EC5FFE4F23C22A3209F068
:10492000A1C081E090E08093BE209093BF209AC008
:10493000822F90E08093F4219093F52182E090E023
:104940008093BE209093BF208DC08091F4219091E0
:10495000F521922B8093F4219093F52183E090E050
:104960008093BE209093BF207DC0822F90E08093E3
:10497000AE239093AF2384E090E08093BE20909389
:10498000BF2070C08091AE239091AF23922B809373
:10499000AE239093AF2385E090E08093BE20909368
:1049A000BF2060C0822F90E080932C2490932D2410
:1049B00086E090E08093BE209093BF2053C080910A
:1049C0002C2490912D24922B80932C2490932D2491
:1049D00087E090E08093BE209093BF2043C0822F59
:1049E00090E08093F2219093F32188E090E080930F
:1049F000BE209093BF2036C08091F2219091F32188
:104A0000922B8093F2219093F32189E090E08093A0
:104A1000BE209093BF2026C0233201F58091F4215F
:104A20009091F52180930224909303248091AE23EA
:104A30009091AF23809321229093222280912C2465
:104A400090912D2480931D2490931E248091F22117
:104A50009091F3218093C0239093C1231092BE20A4
:104A60001092BF20FF91EF919F918F912F910F9006
:104A70000BBE0F9008BE0F900FBE0F901F901895A1
:104A80001F920F920FB60F92112408B60F9218BE04
:104A90000BB60F921BBE8F93EF93FF9384E0E0E67B
:104AA000F6E08783FF91EF918F910F900BBE0F90EF
:104AB00008BE0F900FBE0F901F901895E0E8F6E02B
:104AC00082E0868385838AE68A95F1F700C082E0DA
:104AD00086830895E0ECFAE0838382818823ECF7F3
:104AE000E0ECFAE0838108951F93CF93DF93C0E851
:104AF000D6E010E11E83EEDF8FEFECDF1D83DF9148
:104B0000CF911F910895FF920F931F93CF93DF933F
:104B1000F62EC0E8D6E010E11E83DCDF082F8F2DD3
:104B2000D9DF1D83802FDF91CF911F910F91FF90CF
:104B30000895682F6F7785E2E6CF0895CF93C82F49
:104B4000682F84E2E0DF6C2F81E2DDDFCF910895F2
:104B500063E083E2D8CF089560E787E2D4CF089579
:104B6000DF92EF92FF920F931F93CF93DF937B011E
:104B70008A0190E1E0E8F6E09683ACDFD82E1016CB
:104B800011064CF4E7010E0D1F1D8FEFA3DF899373
:104B9000C017D107D1F780E1E0E8F6E085838D2DDD
:104BA000DF91CF911F910F91FF90EF90DF900895CB
:104BB000AB01BC0181E6D4CF0895DF92EF92FF9262
:104BC0000F931F93CF93DF937B018A0190E1E0E87D
:104BD000F6E096837FDFD82E1016110644F4E70125
:104BE0000E0D1F1D899176DFC017D107D9F780E11F
:104BF000E0E8F6E085838D2DDF91CF911F910F9135
:104C0000FF90EF90DF900895EF92FF920F931F9324
:104C1000CF93DF93F82EEB018A01E22E82E064DF6E
:104C200041E050E00F2C02C0440F551F0A94E2F7F8
:104C3000682F642B82E267DF81E18F0D6E2D806229
:104C400062DF8AE08F0DA801BE018062B6DFDF91CE
:104C5000CF911F910F91FF90EF900895AB01BC0190
:104C600080E3ABCF0895CF92DF92EF92FF920F9344
:104C70001F93CF93DF93F82ED62E142FE90180E0F7
:104C80005DDF61E081E23FDF6FE484E23CDF1160E1
:104C9000612F6C2986E237DF802F5ADF112707FD4D
:104CA00010952E2DA801BE0180E0AEDF8D2D41DFD5
:104CB000B801CE01D3DF6F2D6A6080E224DF8FED73
:104CC0009EE20197F1F700C00000DF91CF911F91A4
:104CD0000F91FF90EF90DF90CF900895AB01BC0152
:104CE00080EA6BCF08951F93CF93DF93C0E8D6E09F
:104CF00010E11E8381EEEEDE1D83DF91CF911F91C7
:104D000008951F93CF93DF93C0E8D6E010E11E8390
:104D100082EEE0DE1D83DF91CF911F910895A1E225
:104D20001A2EAA1BBB1BFD010DC0AA1FBB1FEE1F25
:104D3000FF1FA217B307E407F50720F0A21BB30B70
:104D4000E40BF50B661F771F881F991F1A9469F7EC
:104D500060957095809590959B01AC01BD01CF0148
:104D60000895EE0FFF1F0590F491E02D19940F9315
:104D70001F93CF93DF93CDB7DEB72E97CDBFDEBFA6
:104D80000E891F8986E08C8309831A838FEF9FE742
:104D90008D839E83AE01465E5F4F688D798DCE0117
:104DA00001960DD0EF81F885E00FF11F10822E964D
:104DB000CDBFDEBFDF91CF911F910F9108952F924C
:104DC0003F924F925F926F927F928F929F92AF929B
:104DD000BF92CF92DF92EF92FF920F931F93CF93E8
:104DE000DF93CDB7DEB72C97CDBFDEBF7C016B0163
:104DF0008A01FC0116821782838181FFB0C1CE0136
:104E000001964C01F7019381F60193FD859193FF83
:104E100081916F01882309F49EC1853239F493FD95
:104E2000859193FF81916F01853221F4B70190E064
:104E3000C4D1E8CF512C312C20E02032A0F48B32A9
:104E400069F030F4803259F0833269F420612CC06B
:104E50008D3239F0803339F4216026C0226024601D
:104E600023C0286021C027FD27C030ED380F3A301D
:104E700078F426FF06C0FAE05F9E300D1124532E11
:104E800013C08AE0389E300D1124332E20620CC0EE
:104E90008E3221F426FD5FC1206406C08C3611F4E9
:104EA000206802C0883641F4F60193FD859193FF96
:104EB00081916F018111C1CF982F9F7D95549330BF
:104EC00028F40C5F1F4FFFE3F9830DC0833631F0E8
:104ED000833771F0833509F057C021C0F801808114
:104EE00089830E5F1F4F44244394512C540114C0F6
:104EF0003801F2E06F0E711CF801A080B18026FF2E
:104F000003C0652D70E002C06FEF7FEFC5012C87F5
:104F100049D12C0183012C852F77222E16C0380110
:104F2000F2E06F0E711CF801A080B18026FF03C073
:104F3000652D70E002C06FEF7FEFC5012C8727D190
:104F40002C012C852068222E830123FC19C0832D7F
:104F500090E048165906A0F4B70180E290E02DD108
:104F60003A94F5CFF50127FC859127FE81915F01E9
:104F7000B70190E022D131103A94F1E04F1A510874
:104F80004114510479F7DEC0843611F0893631F5C9
:104F9000F80127FF07C060817181828193810C5FD6
:104FA0001F4F08C060817181882777FD8095982FF9
:104FB0000E5F1F4F2F76B22E97FF09C090958095F8
:104FC000709561957F4F8F4F9F4F2068B22E2AE0DA
:104FD00030E0A40124D1A82EA81843C0853729F4B5
:104FE0002F7EB22E2AE030E025C0F22FF97FBF2EAF
:104FF0008F36C1F018F4883579F0ADC0803719F0DC
:10500000883721F0A8C02F2F2061B22EB4FE0DC02A
:105010008B2D8460B82E09C024FF0AC09F2F966094
:10502000B92E06C028E030E005C020E130E002C023
:1050300020E132E0F801B7FE07C060817181828112
:1050400093810C5F1F4F06C06081718180E090E00A
:105050000E5F1F4FA401E3D0A82EA818FB2DFF77E9
:10506000BF2EB6FE0BC02B2D2E7FA51450F4B4FE20
:105070000AC0B2FC08C02B2D2E7E05C07A2C2B2D29
:1050800003C07A2C01C0752C24FF0DC0FE01EA0D6F
:10509000F11D8081803311F4297E09C022FF06C0F2
:1050A0007394739404C0822F867809F0739423FD5F
:1050B00012C020FF06C05A2C731418F4530C571852
:1050C000732C731460F4B70180E290E02C8775D0E4
:1050D00073942C85F6CF731410F4371801C0312C5B
:1050E00024FF11C0B70180E390E02C8766D02C85A7
:1050F00022FF16C021FF03C088E590E002C088E7C8
:1051000090E0B7010CC0822F867851F021FD02C0DB
:1051100080E201C08BE227FD8DE2B70190E04DD027
:10512000A51430F4B70180E390E047D05A94F8CF4B
:10513000AA94F401EA0DF11D8081B70190E03DD001
:10514000A110F6CF332009F45DCEB70180E290E0E4
:1051500034D03A94F7CFF7018681978102C08FEF60
:105160009FEF2C96CDBFDEBFDF91CF911F910F91A6
:10517000FF90EF90DF90CF90BF90AF909F908F9077
:105180007F906F905F904F903F902F900895FC011B
:105190000590615070400110D8F7809590958E0F62
:1051A0009F1F0895FC016150704001900110D8F7D5
:1051B000809590958E0F9F1F08950F931F93CF9307
:1051C000DF93182F092FEB018B8181FD03C08FEF37
:1051D0009FEF20C082FF10C04E815F812C813D81F6
:1051E000421753077CF4E881F9819F012F5F3F4FFD
:1051F00028833983108306C0E885F985812F1995A6
:10520000892B29F72E813F812F5F3F4F2E833F83CC
:10521000812F902FDF91CF911F910F910895FA0167
:10522000AA27283051F1203181F1E8946F936E7FE5
:105230006E5F7F4F8F4F9F4FAF4FB1E03ED0B4E0D6
:105240003CD0670F781F891F9A1FA11D680F791F17
:105250008A1F911DA11D6A0F711D811D911DA11D28
:1052600020D009F468943F912AE0269F1124301938
:10527000305D3193DEF6CF010895462F4770405DD3
:105280004193B3E00FD0C9F7F6CF462F4F70405D82
:105290004A3318F0495D31FD4052419302D0A9F7DD
:1052A000EACFB4E0A6959795879577956795BA95D7
:1052B000C9F700976105710508959B01AC010A2E9D
:1052C00006945795479537952795BA95C9F7620F74
:0E52D000731F841F951FA01D0895F894FFCF33
:1052DE0010100011223344557B0060003D00750014
:1052EE00660057005F0063007F0077002F005E00AE
:1052FE001B007C001F000F000400000001000000D6
:10530E000100000001000000010000000148616C76
:10531E006C3A2025316400454E433A202531640015
:10532E00483A202531640025642C25642C25642CF4
:0A533E0025642C25642C25640D0065
:00000001FF
